:020000040000FA
:04000000ACEF08F069
:08000800CBEF09F05C2FFED7DD
:1000100012005C53000001E11200F90E0000000024
:10002000000000000000000000000000FF0FD8A446
:10003000F5D70000000000000000000000000000F4
:10004000000000005C2FE9D712000201756B4951D6
:1000500075611FD02D51315D02E12C51305D19E2E7
:100060002F51315D02E12E51305D13E23351EA6EC2
:100070003251E96EEF50766F3551EA6E3451752585
:10008000E96E7651EF6E324B332B304B312B752BA3
:10009000DED7495175610FD02E51306304D02F51F6
:1000A000316301D006D02C51306305D02D5131631E
:1000B00002D0050E436F7551056F020E076F880E53
:1000C000066F04AD02D0049D01D0048D049B0499F9
:1000D0000487049504930491048F1200020104859F
:1000E000048F0085008F1200746F080E496F306B0B
:1000F000316B010E2C6F2D6B2E6B2F6B73514B6F71
:10010000020E336F4B0E326F020E356F880E346F56
:10011000049D25EC00F000D0010EFA6E7451F92612
:1001200001EF03F006EF03F00201736F080E496F51
:10013000020E356F880E346F306B316B2C6B2D6B6C
:100140002E6B2F6B326B336B049D25EC00F000D0CF
:10015000010EFA6E7351F92644EF03F02CEF03F011
:10016000EBEF02F0F3EF02F0010101EEA7F0E9502E
:10017000020171517F6FD8907F35E926EE507D6F77
:10018000EF507E6F71530AE0710515E0020E716346
:1001900001D024D0030E716346D033D0020E786FA5
:1001A000040E776F020E7A6F050E796F020E7C6F68
:1001B000060E7B6F38D0020E7F6F0C0E776F7F516B
:1001C000786F020E7F6F0D0E796F7F517A6F020E7E
:1001D0007F6F0E0E7B6F7F517C6F25D0020E7F6F7D
:1001E000140E776F7F51786F020E7F6F150E796F47
:1001F0007F517A6F020E7F6F160E7B6F7F517C6F7F
:1002000012D0020E7F6F1C0E776F7F51786F020E37
:100210007F6F1D0E796F7F517A6F020E7F6F1E0EFA
:100220007B6F7F517C6F7851EA6E7751E96EEFBE3C
:100230001200766B7451766113D07351EA6E72516D
:10024000E96E76517F6F7F51E926EF50A86F7E519E
:10025000EA6E7D517625E96EA851EF6E762BEAD7CE
:100260007A51EA6E7951E96E7651EF6E7C51EA6E01
:100270007B51E96EE92A7D517F6F7E51EF6EE90671
:100280007F51EF6E75A105D07851EA6E7751E96E16
:10029000EF9C7851EA6E7751E96EEFAC06D0785159
:1002A000EA6E7751E96EEF9C05D07851EA6E77518E
:1002B000E96EEF8C7851EA6E7751E96EEF9AEF981C
:1002C000EF86EF94EF92EF90EF8E1200796B7A6BDE
:1002D00073050CE0020E736301D012D0030E73633A
:1002E00001D018D0060E73633AD039D0000E7D6F5E
:1002F000480E796F7D517A6F120E7B6F7C6B2FD019
:10030000000E7D6F050E796F7D517A6F430E7B6F06
:100310007C6B25D0745306E074050EE0020E746306
:100320001ED014D0040E7B6F7C6B020E7D6F240EEA
:10033000796F7D517A6F13D02E0E7B6F7C6B010E1F
:100340007D6F400E796F7D517A6F09D0280E7B6FDB
:100350007C6B010E7D6F6E0E796F7D517A6F7651D9
:10036000EA6E7551E96EE92A79517D6F7A51EF6E27
:10037000E9067D51EF6E7851EA6E7751E96EE92A10
:100380007B517D6F7C51EF6EE9067D51EF6E12005F
:10039000010E0201506F12000F01558955955583CA
:1003A00055870201148D149B149914971495149376
:1003B0001491149F0F015689568556835687020162
:1003C0001C8D1C9B1C991C971C951C931C911C9F9D
:1003D000080E196F980E1A6F020E1B6F189D189B4E
:1003E00018991897189518931891188F1200020EE3
:1003F0000201716F1C0E706F7151EA6E7051E96EDF
:10040000EFBE12000101BD5102016C6F0101BE512E
:1004100002016D6F0101AD5102016E6F0101AE511C
:1004200002016F6F4C514D6301D012007291F2BE08
:100430007281F29EF2BEFDD76B6B4C514D634C63E3
:1004400020D06C516B616D511CE04C296A6F400EDD
:100450006A6301D06A6B000100EE60F0E9500201AE
:100460004C51736F7351E926EF50746F6F51EA6E00
:100470006E516B25E96E7451EF6E6B2B6A514C6FA8
:10048000DCD7000E6B652BD07151EA6E7029E96ED6
:100490006B51EF6EE906020EE926E92A6E51736F81
:1004A0006F51EF6EE9067351EF6E7051E96EEFAC6C
:1004B00006D07151EA6E7051E96EEF9C05D0715112
:1004C000EA6E7051E96EEF8C7151EA6E7051E96E0F
:1004D000EF9AEF98EF86EF94EF92EF90EF8E72B174
:1004E000F28E72A1F29E12006C51716F6D51726F9B
:1004F0006E51736F6F51746F000E706512D074512E
:10050000EA6E7351E96E734B742BEF50756F725135
:10051000EA6E7151E96E714B722B7551EF6E700777
:10052000EBD76C51756F6D51766F1200080E02019A
:10053000016F800E026F020E036F008D009B009909
:100540000087009500930091008F1200060E6A63E9
:1005500001D00FD0050E6A6301D036D0090E6A6350
:1005600001D03CD00A0E6A6301D044D06A534AE0FD
:100570004ED06C51716F6B51726F7151736F7251BC
:10058000746F020E766F320E756F020E786F2C0E3E
:10059000776F66EC01F0325302E1335312E0030E41
:1005A000436F6F512E6F70512F6F306B316B080E90
:1005B000496F880E346F020E356F049D25EC00F0F4
:1005C00028D06EEC00F025D06B51426F010E4A6FBF
:1005D000080E94EF00F0060E436F1BD0060E436F1B
:1005E0000C0E94EF00F0030E416FCCEC01F0C8EC60
:1005F00001F00FD0030E436F010E736F000E74EF06
:1006000000F007D0736B040E74EF00F002D06EECB4
:1006100000F003EF04F0200E6A6301D008D0210E31
:100620006A6301D007D0220E6A6316D010D0020E82
:10063000436F12D0040E436F716B010E736FC70EC0
:10064000726F080E746F7581B4EC00F005D0060E61
:10065000436F040E94EF00F030EF04F0200E010120
:10066000A06316D0010E02016D6FC70E6C6F66514C
:100670006E6F67516F6F6851706F74EC02F0060E09
:10068000436F000E94EF00F0010E6B6FC70E6A6FA0
:100690007EEF04F0210E0101A0631200050E02019D
:1006A000436F1200F7EC01F0A8EF04F0030E6A6349
:1006B0001200706B6D5170616E51D8B412004F29E9
:1006C0006F6F400E6F6301D06F6B4E516F634E635F
:1006D00015D06C51EA6E6B51E96E7051716F7151AA
:1006E000E926EF50726F000100EEA0F0E950020120
:1006F0004F51E9267251EF6E6F514F6F702BDAD761
:1007000012000201426B436B4A6B629662966296DC
:100710006296080E016F800E026F020E036F009D3D
:10072000009B00990097009500930091008F080EA0
:10073000056F880E066F020E076F049D049B0499D7
:10074000049504930491049F120063300201646FC6
:10075000643364331F0E641763A408D00431656FDB
:1007600065333F0E65170F0E651708D00031666FB1
:1007700066333F0E66170F0E6615656F6453D8A477
:10078000C5D00D0E65636ED0010E6D6F9F0E6C6F40
:10079000020E6F6F800E6E6F080E706F74EC02F0B9
:1007A00096EC02F0400E01019F150201666F66672C
:1007B0002BD0200E01019F150201676F676724D0BF
:1007C0000101A6510201706F0101A55102016F6F75
:1007D0000101A45102016E6F0101A35102016D6F6D
:1007E0000101A25102016C6F0101A15102016B6F65
:1007F0000101A05102016A6F01019F510201696F5D
:10080000990EA6EF02F02CD0400E01019F150201B7
:10081000686F686725D001019FAB22D0A651020105
:10082000706F0101A55102016F6F0101A451020116
:100830006E6F0101A35102016D6F0101A25102010E
:100840006C6F0101A15102016B6F0101A051020106
:100850006A6F01019F510201696F990E0BEF03F05E
:100860006498ECD0090E656320D0030E436303D077
:1008700025EC00F0E3D0060E43630CD0436B4A0531
:10088000D8A4DCD0020E416F42510F015C6F02010F
:100890004A6BD4D0050E436302D00000CFD0040EC3
:1008A0004363CCD04AEC03F0C9D0020E656311D08B
:1008B000030E436303D025EC00F0C0D0040E436365
:1008C00003D04AEC03F0BAD0060E4363B7D0436BB3
:1008D000B5D06505D8A4B2D0050E436302D0436BF2
:1008E00012D0020E43630BD0020E676F800E666F4C
:1008F0000151686F696B990E2EEF03F004D0030E5F
:10090000436301D0436B96EC02F098D063A421D0EE
:10091000645301E10AD064050BE0020E646301D068
:100920000AD0030E64630CD009D00551666F08D05D
:100930000D51666F05D01551666F02D01D51666F5F
:100940006451676F6651686F696B990E52EF03F0DF
:1009500075D064530AE0640511E0020E646301D0AF
:100960001AD0030E646330D023D0020E676F000EDE
:10097000666F020E696F010E686F26D0020E6A6FF5
:10098000080E666F6A51676F020E6A6F090E686F14
:100990006A51696F19D0020E6A6F100E666F6A5144
:1009A000676F020E6A6F110E686F6A51696F0CD023
:1009B000020E6A6F180E666F6A51676F020E6A6FD9
:1009C000190E686F6A51696F64516A6F010101EE17
:1009D000AFF0E950020164516F6FD8906F35E9268E
:1009E000EE506B6FEF506C6F6951EA6E6851E96EB3
:1009F000EF506D6F6E6B56EC03F0010101EEBFF02E
:100A0000E950020164516A6FD8906A376A51E92649
:100A1000EE506B6FEF506C6F6951EA6E6851E96E82
:100A20006B51EF6E6751EA6E6651E96EEF9CEF9A7B
:100A3000EF98EF96EF94EF92EF90EF8E2FEF05F097
:100A4000F7EC01F044EF05F0A1A41FD0A19462A837
:100A500001D0629862A604D0990EA5EF03F06296C9
:100A600062A003D081EC03F0629062AA03D080EC14
:100A700003F0629A62AC09D00F015D510201646F0C
:100A8000656B990E20EF05F0629CD6EF09F002012C
:100A9000416B619661846188619261900F01538915
:100AA000538553835397608A60866080A084608CEE
:100AB0001200400E5C6502D0400E5C6F5F6B5C51B3
:100AC0005F6114D0000100EEA0F0E95002015F5117
:100AD000606F6051E926EF50616F5E51EA6E5D51C3
:100AE0005F25E96E6151EF6E5F2BE9D74E514F6F75
:100AF0001200626A6486010E0201416F1200120E3A
:100B0000486E010E496E100E4A6E010E4B6E020EBB
:100B10004C6E4D6A4E6A080E4F6EBF0E506E120E2E
:100B2000516E100E526EF00E536E546A010E556ED9
:100B3000566E020E576E586A010E596E090E00016C
:100B4000EA6F020EEB6F430EEC6FED6B020EEE6F71
:100B5000010EEF6FF06B800EF16F640EF26F090EF5
:100B6000F36F040EF46FF56BF66B010EF76F020E68
:100B7000F86FF96F010EFA6FFB6B050E5A6E240EBB
:100B80005B6E5C6A100E5D6E010E5E6E040E0201FD
:100B9000206F240E216F020E226F236F050E0101BC
:100BA000E46F240EE56F060EE66FE76B010EE86F4B
:100BB000050EE96F240EEA6F010EEB6FEC6B010E70
:100BC000ED6F070ECF6F050ED06F820ED16F030E43
:100BD000D26F080ED36FD46B020ED56F090E966FCD
:100BE000040E976F010E986F996B020E9A6F0A0EA2
:100BF0009B6F9C6B9D6B9E6B070ED66F050ED76F20
:100C0000030ED86F020ED96F080EDA6FDB6BDC6B48
:100C1000070EDD6F050EDE6F830EDF6F020EE06FD5
:100C2000080EE16FE26BE36B0001F2510D6EF151C2
:100C30000C6EF0510B6EEF510A6EEE51096EED51D4
:100C4000086EEC51076EEB51066EEA51056EFB51D2
:100C5000166EFA51156EF951146EF851136EF75164
:100C6000126EF651116EF551106EF4510F6EF35174
:100C70000E6E5E501B6E5D501A6E5C50196E5B50AE
:100C8000186E5A50176E020123511F6E22511E6EAC
:100C900021511D6E20511C6E0101E851246EE75157
:100CA000236EE651226EE551216EE451206EED5126
:100CB000296EEC51286EEB51276EEA51266EE951F0
:100CC000256ED551306ED4512F6ED3512E6ED25128
:100CD0002D6ED1512C6ED0512B6ECF512A6E9E515C
:100CE000396E9D51386E9C51376E9B51366E9A51BC
:100CF000356E9951346E9851336E9751326E9651CC
:100D0000316EDC51406EDB513F6EDA513E6ED9518F
:100D10003D6ED8513C6ED7513B6ED6513A6EE35181
:100D2000476EE251466EE151456EE051446EDF512F
:100D3000436EDE51426EDD51416E120002015F6B67
:100D40004D514C6312005F2B1200010E02015A6FCD
:100D5000C70E596F5A51EA6E5951E96E030EE926D2
:100D6000000E5B6F5C6F090E5D6F600EEF6EE90643
:100D70005D51EF6EE9065C51EF6EE9065B51EF6E77
:100D80005951E96E040EE926000EEF6E5951E96ED5
:100D9000060EE926080EEF6E5951E96E050EE9269A
:100DA000000EEF6E120002014E514F5D5A6F12009D
:100DB0004D29616F400E616301D0616BF2BE04D0BA
:100DC0004C51616301D012004C51616301D0FCD7DA
:100DD0006291F2BE6281F29EF2BEFDD7000100EE8A
:100DE00060F0E95002014D51E9266051EF6E61510A
:100DF0004D6F62B1F28E62A1F29E12005B6B5A518E
:100E00005B6112000400010E5C6F09EC00F05B2BCB
:100E1000F6D7C2B2FED7585313E0C450596F5A6B7D
:100E200059375A3759375A37FC0E5917C3305B6F49
:100E30005B335B3B030E5B175B5159135A5303D073
:100E4000C450596F5A6B020EC210C26E59515B6F7B
:100E50005A515C6F1200C16A070E586301D004D06A
:100E6000080E586314D009D0080E526F0F0E376F5A
:100E7000940E366F800EC16E0AD0400E526F0F0E68
:100E80005C6F940E366F5C51376F010E7F6E070EEC
:100E90005915C06E5A530AE0030E5A155C6F5C3741
:100EA0005C37FC0E5C175C51C110C16E3751EA6EA5
:100EB0003651E96EEF50516F525151115C6FEF6E28
:100EC00058515D6F5D375D37FC0E5D175D5101094F
:100ED0005C6F5C51C26E5B515C6F06EC00F0020E01
:100EE000C210C26E120002013751EA6E3651E96E2D
:100EF0005151EF6E7E6AC26A7F6A1200626B615165
:100F0000626109D06051EA6E5F516225E96EEF526D
:100F100002E0622BF4D76251636F1200080E0201E7
:100F2000586F030E596F5A6B280E5B6F2BEC07F04E
:100F3000010E586F09EC07F05B51566F5C51576F0B
:100F400073EC07F05651586F5751596F1200070E46
:100F50000201586F030E596F5A6B280E5B6F2BEC12
:100F600007F0010E586F09EC07F05B51566F5C51AA
:100F7000576F73EC07F05651586F5751596F120065
:100F80000201566B576B7FEC05F0F29EF2BEFDD767
:100F9000A5EC06F047EC05F0F28CF28E79EC05F04A
:100FA0005053FEE0586B5851596F1200576B5869F7
:100FB000596B53B102D0546B538153B302D0556B6C
:100FC0005383562902E1010E576F5551546325D0C2
:100FD000546BD3EC06F05A51556F55530FE15653ED
:100FE00002E157530BE0010E5A6FFEEC06F0D3EC12
:100FF00006F05A51556F5605566FEFD7555305E118
:1010000058515A6F59515B6F120055515C6F010E68
:101010005E6F000E5D6F59EC05F0010101EE00F00E
:10102000E95002015451E926EF50586F596B542989
:10103000546F58515A6F59515B6F12005A6B5B6B6A
:1010400056515F6F5751606F5851616F7EEC07F0DA
:1010500063515C6F9EEC06F05F530CE17D0E5B5DAF
:1010600002E1000E5A5D06E25A535B535A2BD8B484
:101070005B2BF0D7000E5A6306D07D0E5B6303D066
:10108000010E5F6F12005E6B5751EA6E56515E257E
:10109000E96EEF520EE05C515E610BD05751EA6E83
:1010A00056515E25E96EEF50606FD8EC06F05E2B6E
:1010B000EBD75D6B5D515F6F12007E6A7F6AC0EC9B
:1010C00007F0406B010E566FD6EC07F05A51406F97
:1010D000310E4063F6D7A7EC07F05851286F5951ED
:1010E000296F28532951576FD89028375737010E49
:1010F000281357511009566F5651296F28512A6FDE
:1011000029512B6F020E576F2A0E566F020E586F21
:10111000596B1EEC08F08EEC07F05851286F5951AE
:10112000296F28532951576FD89028375737010E08
:10113000281357511009566F5651296F28512A6F9D
:1011400029512B6F020E576F2A0E566F020E586FE1
:10115000596B1EEC08F0B5D7D50E0001FC6FC40E1C
:10116000FD6FBB0EFE6FDC0EFF6F0101EE6BEF6BD0
:10117000F06BF16BF26BF36BF46BF56BF66BF76B7B
:10118000F86BF96B02013A6B3B6B0101FE6BFF6B75
:1011900002013C6B3D6B3E6B3F6B0101FA6BFB6BDD
:1011A000FC6BFD6B0201386B396B5F6A5391539393
:1011B000280E01016E6F030E6F6F460E706F716B1C
:1011C0006C0E726F736B6F0E746F756B770E766F3C
:1011D000776B630E786F796B6F0E7A6F7B6B640E33
:1011E0007C6F7D6B650E7E6F7F6B200E806F816BD9
:1011F000550E826F836B530E846F856B420E866F24
:10120000876B200E886F896B530E8A6F8B6B650E10
:101210008C6F8D6B720E8E6F8F6B690E906F916BF2
:10122000610E926F936B6C0E946F956B2E0E406FE8
:10123000030E416F4D0E426F436B610E446F456B61
:10124000740E466F476B720E486F496B690E4A6F9A
:101250004B6B780E4C6F4D6B200E4E6F4F6B4D0EDF
:10126000506F516B750E526F536B6C0E546F556B04
:10127000740E566F576B690E586F596B6D0E5A6F1F
:101280005B6B650E5C6F5D6B640E5E6F5F6B690E12
:10129000606F616B610E626F636B200E646F656BD4
:1012A0004C0E666F676B740E686F696B640E6A6FC5
:1012B0006B6B2E0E6C6F6D6B0A0E0001E06F030EF0
:1012C000E16F300EE26FE36B300EE46FE56B300ED2
:1012D000E66FE76B310EE86FE96B020E0201446FB7
:1012E000880E0101A76F020144510101A86FA96B8B
:1012F000AA6B020E0201456F900E0101AB6F020155
:1013000045510101AC6F020E0201466FA00E0101B2
:10131000AD6F020146510101AE6F020E0201476F2F
:10132000800E0101AF6F020147510101B06FB16B37
:10133000B26BB36BB46B020E0201486F980E0101E1
:10134000B56F020148510101B66F080EB76FB86B57
:10135000B96BBA6B080EBB6FBC6B080EBD6FBE6B72
:10136000080EBF6FC06BC16BC26BC36BC46B080E42
:10137000C56FC66B0201416B4C6B4D6B4E6B4F6B77
:10138000040E246F030E256F090E266F040E276FBF
:10139000506B5DEF08F0EACF01F0E9CF02F0F4CF37
:1013A00003F0F3CF04F0990E24EF05F004C0F3FF2F
:0E13B00003C0F4FF02C0E9FF01C0EAFF110014
:020000040030CA
:0E00000038321F1E088803C003E0FFFFFFFF19
:00000001FF
