:020000040000FA
:04000000EBEF08F02A
:080008000DEF0AF05D2FFED799
:1000100012005D53000001E11200F90E0000000023
:10002000000000000000000000000000FF0FD8A446
:10003000F5D70000000000000000000000000000F4
:10004000000000005D2FE9D712000201766B4A51D3
:1000500076611FD02D51315D02E12C51305D19E2E6
:100060002F51315D02E12E51305D13E23351EA6EC2
:100070003251E96EEF50776F3551EA6E3451762583
:10008000E96E7751EF6E324B332B304B312B762BA1
:10009000DED74A5176610FD02E51306304D02F51F4
:1000A000316301D006D02C51306305D02D5131631E
:1000B00002D0050E446F7651056F020E076F880E51
:1000C000066F04AD02D0049D01D0048D049B0499F9
:1000D0000487049504930491048F1200020104859F
:1000E000048F0085008F1200756F080E4A6F306B09
:1000F000316B010E2C6F2D6B2E6B2F6B74514C6F6F
:10010000020E336F4C0E326F020E356F880E346F55
:10011000049D25EC00F000D0010EFA6E7551F92611
:1001200001EF03F006EF03F00201746F080E4A6F4F
:10013000020E356F880E346F306B316B2C6B2D6B6C
:100140002E6B2F6B326B336B049D25EC00F000D0CF
:10015000010EFA6E7451F92644EF03F02CEF03F010
:10016000EBEF02F0F3EF02F0010101EEA7F0E9502E
:1001700002017251A86FD890A835E926EE507E6F23
:10018000EF507F6F72530AE0720515E0020E726342
:1001900001D024D0030E726346D033D0020E796FA3
:1001A000040E786F020E7B6F050E7A6F020E7D6F64
:1001B000060E7C6F38D0020EA86F0C0E786FA85117
:1001C000796F020EA86F0D0E7A6FA8517B6F020E29
:1001D000A86F0E0E7C6FA8517D6F25D0020EA86F00
:1001E000140E786FA851796F020EA86F150E7A6FF2
:1001F000A8517B6F020EA86F160E7C6FA8517D6F01
:1002000012D0020EA86F1C0E786FA851796F020EE3
:10021000A86F1D0E7A6FA8517B6F020EA86F1E0E7D
:100220007C6FA8517D6F7951EA6E7851E96EEFBE0F
:100230001200776B7551776113D07451EA6E735168
:10024000E96E7751A86FA851E926EF50A96F7F5149
:10025000EA6E7E517725E96EA951EF6E772BEAD7CA
:100260007B51EA6E7A51E96E7751EF6E7D51EA6EFD
:100270007C51E96EE92A7E51A86F7F51EF6EE90645
:10028000A851EF6E76A105D07951EA6E7851E96EEA
:10029000EF9C7951EA6E7851E96EEFAC06D0795156
:1002A000EA6E7851E96EEF9C05D07951EA6E78518B
:1002B000E96EEF8C7951EA6E7851E96EEF9AEF981A
:1002C000EF86EF94EF92EF90EF8E12007A6B7B6BDC
:1002D00074050CE0020E746301D012D0030E746337
:1002E00001D018D0060E74633AD039D0000E7E6F5C
:1002F000480E7A6F7E517B6F120E7C6F7D6B2FD014
:10030000000E7E6F050E7A6F7E517B6F430E7C6F01
:100310007D6B25D0755306E075050EE0020E756302
:100320001ED014D0040E7C6F7D6B020E7E6F240EE7
:100330007A6F7E517B6F13D02E0E7C6F7D6B010E1A
:100340007E6F400E7A6F7E517B6F09D0280E7C6FD6
:100350007D6B010E7E6F6E0E7A6F7E517B6F7751D3
:10036000EA6E7651E96EE92A7A517E6F7B51EF6E23
:10037000E9067E51EF6E7951EA6E7851E96EE92A0D
:100380007C517E6F7D51EF6EE9067E51EF6E12005B
:10039000010E0201516F12000F01558955955583C9
:1003A00055870201148D149B149914971495149376
:1003B0001491149F0F015689568556835687020162
:1003C0001C8D1C9B1C991C971C951C931C911C9F9D
:1003D000080E196F980E1A6F020E1B6F189D189B4E
:1003E00018991897189518931891188F1200020EE3
:1003F0000201726F1C0E716F7251EA6E7151E96EDB
:10040000EFBE12000101BD5102016D6F0101BE512D
:1004100002016E6F0101AD5102016F6F0101AE511A
:100420000201706F4D514E6301D012007391F2BE04
:100430007381F29EF2BEFDD76C6B4D514E634D63DE
:1004400020D06D516C616E511CE04D296B6F400ED8
:100450006B6301D06B6B000100EE60F0E9500201AC
:100460004D51746F7451E926EF50756F7051EA6EFB
:100470006F516C25E96E7551EF6E6C2B6B514D6FA2
:10048000DCD7000E6C652BD07251EA6E7129E96ED3
:100490006C51EF6EE906020EE926E92A6F51746F7E
:1004A0007051EF6EE9067451EF6E7151E96EEFAC69
:1004B00006D07251EA6E7151E96EEF9C05D072510F
:1004C000EA6E7151E96EEF8C7251EA6E7151E96E0C
:1004D000EF9AEF98EF86EF94EF92EF90EF8E73B173
:1004E000F28E73A1F29E12006D51726F6E51736F96
:1004F0006F51746F7051756F000E716512D0755128
:10050000EA6E7451E96E744B752BEF50766F735130
:10051000EA6E7251E96E724B732B7651EF6E710772
:10052000EBD76D51766F6E51776F1200080E020196
:10053000016F800E026F020E036F008D009B009909
:100540000087009500930091008F1200060E6B63E8
:1005500001D00FD0050E6B6301D036D0090E6B634E
:1005600001D03CD00A0E6B6301D044D06B534AE0FB
:100570004ED06D51726F6C51736F7251746F7351B5
:10058000756F020E776F320E766F020E796F2C0E3A
:10059000786F66EC01F0325302E1335312E0030E40
:1005A000446F70512E6F71512F6F306B316B080E8D
:1005B0004A6F880E346F020E356F049D25EC00F0F3
:1005C00028D06EEC00F025D06C51436F010E4B6FBC
:1005D000080E94EF00F0060E446F1BD0060E446F19
:1005E0000C0E94EF00F0030E426FCCEC01F0C8EC5F
:1005F00001F00FD0030E446F010E746F000E74EF04
:1006000000F007D0746B040E74EF00F002D06EECB3
:1006100000F003EF04F0200E6B6301D008D0210E30
:100620006B6301D007D0220E6B6316D010D0020E80
:10063000446F12D0040E446F726B010E746FC70EBC
:10064000736F080E756F7681B4EC00F005D0060E5E
:10065000446F040E94EF00F030EF04F0200E01011F
:10066000A06316D0010E02016E6FC70E6D6F675149
:100670006F6F6851706F6951716F74EC02F0060E04
:10068000446F000E94EF00F0010E6C6FC70E6B6F9D
:100690007EEF04F0210E0101A0631200050E02019D
:1006A000446F1200F7EC01F0A8EF04F0030E6B6347
:1006B0001200716B6E5171616F51D8B412005029E4
:1006C000706F400E706301D0706B4F5170634F6359
:1006D00015D06D51EA6E6C51E96E7151726F7251A5
:1006E000E926EF50736F000100EEA0F0E95002011F
:1006F0005051E9267351EF6E7051506F712BDAD75C
:1007000012000201436B446B4B6B629662966296D9
:100710006296080E016F800E026F020E036F009D3D
:10072000009B00990097009500930091008F080EA0
:10073000056F880E066F020E076F049D049B0499D7
:10074000049504930491049F120063300201656FC5
:10075000653365331F0E651763A408D00431666FD7
:1007600066333F0E66170F0E661708D00031676FAD
:1007700067333F0E67170F0E6715666F6553D8A472
:10078000C5D00D0E66636ED0010E6E6F9F0E6D6F3D
:10079000020E706F800E6F6F080E716F74EC02F0B6
:1007A00096EC02F0400E01019F150201676F67672A
:1007B0002BD0200E01019F150201686F686724D0BD
:1007C0000101A6510201716F0101A5510201706F73
:1007D0000101A45102016F6F0101A35102016E6F6B
:1007E0000101A25102016D6F0101A15102016C6F63
:1007F0000101A05102016B6F01019F5102016A6F5B
:10080000990EA6EF02F02CD0400E01019F150201B7
:10081000696F696725D001019FAB22D0A651020103
:10082000716F0101A5510201706F0101A451020114
:100830006F6F0101A35102016E6F0101A25102010C
:100840006D6F0101A15102016C6F0101A051020104
:100850006B6F01019F5102016A6F990E0BEF03F05C
:100860006498ECD0090E666320D0030E446303D075
:1008700025EC00F0E3D0060E44630CD0446B4B052E
:10088000D8A4DCD0020E426F43510F015C6F02010D
:100890004B6BD4D0050E446302D00000CFD0040EC1
:1008A0004463CCD04AEC03F0C9D0020E666311D089
:1008B000030E446303D025EC00F0C0D0040E446363
:1008C00003D04AEC03F0BAD0060E4463B7D0446BB1
:1008D000B5D06605D8A4B2D0050E446302D0446BEF
:1008E00012D0020E44630BD0020E686F800E676F49
:1008F0000151696F6A6B990E2EEF03F004D0030E5D
:10090000446301D0446B96EC02F098D063A421D0EC
:10091000655301E10AD065050BE0020E656301D065
:100920000AD0030E65630CD009D00551676F08D05B
:100930000D51676F05D01551676F02D01D51676F5C
:100940006551686F6751696F6A6B990E52EF03F0DA
:1009500075D065530AE0650511E0020E656301D0AC
:100960001AD0030E656330D023D0020E686F000EDC
:10097000676F020E6A6F010E696F26D0020E6B6FF1
:10098000080E676F6B51686F020E6B6F090E696F0F
:100990006B516A6F19D0020E6B6F100E676F6B513F
:1009A000686F020E6B6F110E696F6B516A6F0CD01E
:1009B000020E6B6F180E676F6B51686F020E6B6FD4
:1009C000190E696F6B516A6F65516B6F010101EE12
:1009D000AFF0E95002016551706FD8907035E9268B
:1009E000EE506C6FEF506D6F6A51EA6E6951E96EAF
:1009F000EF506E6F6F6B56EC03F0010101EEBFF02C
:100A0000E950020165516B6FD8906B376B51E92645
:100A1000EE506C6FEF506D6F6A51EA6E6951E96E7E
:100A20006C51EF6E6851EA6E6751E96EEF9CEF9A78
:100A3000EF98EF96EF94EF92EF90EF8E2FEF05F097
:100A4000F7EC01F044EF05F0A1A41FD0A19462A837
:100A500001D0629862A604D0990EA5EF03F06296C9
:100A600062A003D081EC03F0629062AA03D080EC14
:100A700003F0629A62AC09D00F015D510201656F0B
:100A8000666B990E20EF05F0629C18EF0AF00201E8
:100A9000426B619661846188619261900F01538914
:100AA000538553835397608A60866080A084608CEE
:100AB0001200400E5D6502D0400E5D6F606B5D51AF
:100AC000606114D0000100EEA0F0E9500201605115
:100AD000616F6151E926EF50626F5F51EA6E5E51BE
:100AE0006025E96E6251EF6E602BE9D74F51506F70
:100AF0001200626A6486010E0201426F1200120E39
:100B0000486E010E496E100E4A6E010E4B6E020EBB
:100B10004C6E4D6A4E6A080E4F6EBF0E506E120E2E
:100B2000516E100E526EF00E536E546A010E556ED9
:100B3000566E020E576E586A010E596E090E00016C
:100B4000EA6F020EEB6F430EEC6FED6B020EEE6F71
:100B5000010EEF6FF06B800EF16F640EF26F090EF5
:100B6000F36F040EF46FF56BF66B010EF76F020E68
:100B7000F86FF96F010EFA6FFB6B050E5A6E240EBB
:100B80005B6E5C6A100E5D6E010E5E6E040E0201FD
:100B9000206F240E216F020E226F236F050E0101BC
:100BA000E46F240EE56F060EE66FE76B010EE86F4B
:100BB000050EE96F240EEA6F010EEB6FEC6B010E70
:100BC000ED6F070ECF6F050ED06F820ED16F030E43
:100BD000D26F080ED36FD46B020ED56F090E966FCD
:100BE000040E976F010E986F996B020E9A6F0A0EA2
:100BF0009B6F9C6B9D6B9E6B070ED66F050ED76F20
:100C0000030ED86F020ED96F080EDA6FDB6BDC6B48
:100C1000070EDD6F050EDE6F830EDF6F020EE06FD5
:100C2000080EE16FE26BE36B0001F2510D6EF151C2
:100C30000C6EF0510B6EEF510A6EEE51096EED51D4
:100C4000086EEC51076EEB51066EEA51056EFB51D2
:100C5000166EFA51156EF951146EF851136EF75164
:100C6000126EF651116EF551106EF4510F6EF35174
:100C70000E6E5E501B6E5D501A6E5C50196E5B50AE
:100C8000186E5A50176E020123511F6E22511E6EAC
:100C900021511D6E20511C6E0101E851246EE75157
:100CA000236EE651226EE551216EE451206EED5126
:100CB000296EEC51286EEB51276EEA51266EE951F0
:100CC000256ED551306ED4512F6ED3512E6ED25128
:100CD0002D6ED1512C6ED0512B6ECF512A6E9E515C
:100CE000396E9D51386E9C51376E9B51366E9A51BC
:100CF000356E9951346E9851336E9751326E9651CC
:100D0000316EDC51406EDB513F6EDA513E6ED9518F
:100D10003D6ED8513C6ED7513B6ED6513A6EE35181
:100D2000476EE251466EE151456EE051446EDF512F
:100D3000436EDE51426EDD51416E12000201606B66
:100D40004E514D631200602B1200010E02015B6FC9
:100D5000C70E5A6F5B51EA6E5A51E96E030EE926CF
:100D6000000E5C6F5D6F090E5E6F600EEF6EE90640
:100D70005E51EF6EE9065D51EF6EE9065C51EF6E74
:100D80005A51E96E040EE926000EEF6E5A51E96ED3
:100D9000060EE926080EEF6E5A51E96E050EE92699
:100DA000000EEF6E120002014F51505D5B6F12009A
:100DB0004E29626F400E626301D0626BF2BE04D0B6
:100DC0004D51626301D012004D51626301D0FCD7D6
:100DD0006391F2BE6381F29EF2BEFDD7000100EE88
:100DE00060F0E95002014E51E9266151EF6E625107
:100DF0004E6F63B1F28E63A1F29E12005C6B5B5189
:100E00005C6112000400010E5D6F09EC00F05C2BC8
:100E1000F6D7949A829AC00EB76E12005751CB6ED5
:100E2000010E596302D05A5110E0040E596302D0EA
:100E30005A510EE0100E596302D05A510CE0400E88
:100E400059630FD05A510AE00CD0040ECA6E12003A
:100E5000050ECA6E1200060ECA6E1200070ECA6E8A
:100E60001200050ECA6E1200C2B2FED7595313E02B
:100E7000C4505A6F5B6B5A375B375A375B37FC0E7F
:100E80005A17C3305C6F5C335C3B030E5C175C51DC
:100E90005A135B5303D0C4505A6F5B6B020EC210DF
:100EA000C26E5A515C6F5B515D6F1200C16A070ED2
:100EB000596301D004D0080E596314D009D0080E2C
:100EC000536F0F0E376F940E366F800EC16E0AD0BF
:100ED000400E536F0F0E5D6F940E366F5D51376F7E
:100EE000010E7F6E070E5A15C06E5B530AE0030EAB
:100EF0005B155D6F5D375D37FC0E5D175D51C11091
:100F0000C16E3751EA6E3651E96EEF50526F535150
:100F100052115D6FEF6E59515E6F5E375E37FC0E9A
:100F20005E175E5101095D6F5D51C26E5C515D6F70
:100F300006EC00F0020EC210C26E12000201375120
:100F4000EA6E3651E96E5251EF6E7E6AC26A7F6A6E
:100F50001200636B6251636109D06151EA6E6051A6
:100F60006325E96EEF5202E0632BF4D76351646F9F
:100F70001200010E0201416F5769586B010E596F43
:100F80005A6B0EEC07F009EC07F01200080E020194
:100F9000596F030E5A6F5B6B280E5C6F56EC07F0AF
:100FA000010E596F34EC07F05C51576F5D51586F6B
:100FB0009EEC07F05751596F58515A6F1200070EA7
:100FC0000201596F030E5A6F5B6B280E5C6F56EC73
:100FD00007F0010E596F34EC07F05C51576F5D510B
:100FE000586F9EEC07F05751596F58515A6F1200C5
:100FF0000201576B586B7FEC05F0F29EF2BEFDD7F5
:10100000A5EC06F047EC05F0F28CF28E79EC05F0D9
:101010005153FEE0596B59515A6F1200586B596980
:101020005A6B54B102D0556B548154B302D0566BF5
:101030005483572902E1010E586F5651556325D04C
:10104000556BD3EC06F05B51566F56530FE1575377
:1010500002E158530BE0010E5B6FFEEC06F0D3EC9F
:1010600006F05B51566F5705576FEFD7565305E1A2
:1010700059515B6F5A515C6F120056515D6F010EF2
:101080005F6F000E5E6F59EC05F0010101EE00F09C
:10109000E95002015551E926EF50596F5A6B552915
:1010A000556F59515B6F5A515C6F12005B6B5C6BF3
:1010B0005751606F5851616F5951626FA9EC07F039
:1010C00064515D6F9EEC06F060530CE17D0E5C5D3B
:1010D00002E1000E5B5D06E25B535C535B2BD8B410
:1010E0005C2BF0D7000E5B6306D07D0E5C6303D0F3
:1010F000010E606F12005F6B5851EA6E57515F2509
:10110000E96EEF520EE05D515F610BD05851EA6E0F
:1011100057515F25E96EEF50616FD8EC06F05F2BF9
:10112000EBD75E6B5E51606F12007E6A7F6AB9EC2E
:1011300007F0F8EC07F00A0E576F0EEC08F05B5161
:10114000406F310E406301D004D0320E4063F3D7BC
:1011500021D0DFEC07F05951286F5A51296F2853DD
:101160002951586FD89028375837010E28135851F5
:101170001009576F5751296F28512A6F29512B6F2A
:10118000020E586F2A0E576F020E596F5A6B56ECAB
:1011900008F0D1D7C6EC07F05951286F5A51296F82
:1011A00028532951586FD89028375837010E2813E3
:1011B00058511009576F5751296F28512A6F2951DB
:1011C0002B6F020E586F2A0E576F020E596F5A6B13
:1011D00056EC08F0B0D7D50E0001FC6FC40EFD6FC1
:1011E000BB0EFE6FDC0EFF6F0101EE6BEF6BF06B61
:1011F000F16BF26BF36BF46BF56BF66BF76BF86BF3
:10120000F96B02013A6B3B6B0101FE6BFF6B020154
:101210003C6B3D6B3E6B3F6B0101FA6BFB6BFC6BF8
:10122000FD6B0201386B396B5F6A54915493549192
:101230005493416B280E01016E6F030E6F6F460EC3
:10124000706F716B6C0E726F736B6F0E746F756B6A
:10125000770E766F776B630E786F796B6F0E7A6FA0
:101260007B6B640E7C6F7D6B650E7E6F7F6B200EDB
:10127000806F816B550E826F836B530E846F856B0D
:10128000420E866F876B200E886F896B530E8A6FB4
:101290008B6B650E8C6F8D6B720E8E6F8F6B690E04
:1012A000906F916B610E926F936B6C0E946F956B58
:1012B0002E0E406F030E416F4D0E426F436B610E59
:1012C000446F456B740E466F476B720E486F496BE7
:1012D000690E4A6F4B6B780E4C6F4D6B200E4E6F44
:1012E0004F6B4D0E506F516B750E526F536B6C0EF2
:1012F000546F556B740E566F576B690E586F596B60
:101300006D0E5A6F5B6B650E5C6F5D6B640E5E6F8E
:101310005F6B690E606F616B610E626F636B200EB5
:10132000646F656B4C0E666F676B740E686F696BEC
:10133000640E6A6F6B6B2E0E6C6F6D6B0A0E000184
:10134000E06F030EE16F300EE26FE36B300EE46F7F
:10135000E56B300EE66FE76B310EE86FE96B020E5E
:101360000201456F880E0101A76F0201455101017D
:10137000A86FA96BAA6B020E0201466F900E0101C5
:10138000AB6F020146510101AC6F020E0201476FC3
:10139000A00E0101AD6F020147510101AE6F020EB7
:1013A0000201486F800E0101AF6F02014851010137
:1013B000B06FB16BB26BB36BB46B020E0201496FCD
:1013C000980E0101B56F020149510101B66F080E77
:1013D000B76FB86BB96BBA6B080EBB6FBC6B080EFE
:1013E000BD6FBE6B080EBF6FC06BC16BC26BC36BB2
:1013F000C46B080EC56FC66B0201426B4D6B4E6B22
:101400004F6B506B040E246F030E256F090E266F71
:10141000040E276F516B95EF08F0EACF01F0E9CF8A
:1014200002F0F4CF03F0F3CF04F0990E24EF05F0AF
:1014300004C0F3FF03C0F4FF02C0E9FF01C0EAFFEC
:02144000110099
:020000040030CA
:0E00000038321F1E088803C003E0FFFFFFFF19
:00000001FF
