:0400000031EF00F0EC
:100008005282E1CF48F0E2CF49F0D9CF4AF0DACFB7
:100018004BF0F3CF4CF0F4CF4DF0F6CF4EF0F7CFD6
:100028004FF0F8CF50F0F5CF51F04DEC03F051C040
:10003800F5FF50C0F8FF4FC0F7FF4EC0F6FF4DC0A8
:10004800F4FF4CC0F3FF4BC0DAFF4AC0D9FF49C0E8
:0E005800E2FF48C0E1FF5292110023EF0BF0CF
:1003000000C27C480509024300020100C032090412
:100310000000010202010005240010010424020271
:1003200005240600010524010001070581030800DA
:100330000209040100020A00000007050202400051
:1003400000070582024000003403430044004300DC
:100350002000520053002D003200330032002000F4
:1003600045006D0075006C006100740069006F004D
:100370006E002000440065006D006F0034034D00E6
:100380006900630072006F0063006800690070001C
:10039000200054006500630068006E006F006C0070
:1003A0006F0067007900200049006E0063002E0096
:1003B0001201000202000008D8040A000001010234
:0703C0000001040309040021
:1003C800020132050BE130511F0B08E10C8E030EC0
:1003D800311903E1010E256E01D0256A3251D8A4E6
:1003E800120030511F0B020AD8A4120034510F0B0F
:1003F800D8B4120034510F0B3E6E030E3E60030C4E
:10040800200E00018119D8A412000C8E020134BFFD
:1004180007D034510F0BADEC05F08BD8700F06D018
:1004280034510F0BB3EC05F084D8730FD96EDA6A28
:10043800DF50426E42B003D0FB0E431602D0040ECA
:100448004312445034BF03D07DD8600F02D07AD80D
:100458000F0FD96EDA6A43C0DEFF44C0DDFF030E1A
:10046800311914E156D8DFAE0BD034BF03D06FD8A2
:10047800700F02D06CD8730FD96EDA6A0001DF8270
:1004880048D8000EDB8445D8DB8E000C040E431AD6
:1004980044503FD8DFAE0AD03CD87F0EDF1639D89B
:1004A800000EDB8C3BD8F0EC09F003D032D8000EFC
:1004B800DB8C040E431A445042B203D02AD8DFAE74
:1004C80013D0020134BF03D042D8700F02D03FD8F6
:1004D800730FD96EDA6A0001DF921BD83B0EDF1664
:1004E8001DD8F0EC09F003D014D83B0EDF1602013A
:1004F80034510F0B3E6E3F6A530E3E24406E0F0E72
:100508003F20416E40C0D9FF41C0DAFFFE0EDF1622
:10051800FE0C43C0D9FF44C0DAFF1200376A050E4B
:10052800366E43C038F044C039F03B6A020E3A6E6A
:10053800020CDECF43F0DDCF44F034510F0B3E6E9A
:100548003E50120034510F0B020DF350120034517B
:100558000F0B3E6E3E501200200E0001816101D04B
:10056800200C64B21200010E09EC0DF0E8060BE154
:100578007F510AE1805108E1D00EB16FDDEC0BF03C
:10058800010E7F6F01D07F6B805102E0A3EF04F072
:10059800910EBA6F0F0EBB6FB9EC09F0C96FC95154
:1005A80002E1A3EF04F046EC0BF032D043D88AEC1A
:1005B8000BF0000EB76FCDEC05F05ED8CBC082F023
:1005C800CAC083F02CD036D88AEC0BF043D8D9ECCB
:1005D80006F05BD8CDEC05F0F0D72CD88AEC0BF000
:1005E80039D8D9EC06F051D8CDEC05F045D8000142
:1005F800CA51961906E19551CB1903E1010E826F94
:100608000ED0826B0CD091C082F092C083F007D0DC
:100618009151CCE0010AD7E0030ADFE0F4D743ECBC
:100628000DF0820E0001B16FC9C0B2F023EC0DF0DD
:10063800A3EF04F0CD6B92C0CCF093C0CBF094C084
:10064800CAF0CAC0B7F0CBC0B8F0CCC0B9F0CDC0C2
:10065800BAF01200CD6BCC6B95C0CBF096C0CAF047
:10066800CAC0B5F0CBC0B6F0CCC0B7F0CDC0B8F0BA
:10067800B96B010EBA6F010CB7C0CAF0B8C0CBF0A5
:10068800B9C0CCF0BAC0CDF01200000E0001B76FAF
:10069800000C0001810507E164BA05D0626A608038
:1006A8006088020E816F62B460A403D06294BEECCD
:1006B8000CF064A202D0A194120062B060A006D02F
:1006C800CDEC03F0A084040E816F629062B860A83C
:1006D80002D0ADEC0CF062AC13D060AC07D0376A36
:1006E800730E366E386A50D8F0EC09F0629CFBEC59
:1006F8000CF0215001E02106215002E110EC09F034
:1007080062BA60AA02D0F7EC0BF062B260A209D01C
:100718007F0E376E3668386A37D8F0EC09F00F016B
:100728005F6B040E0001816102D0A194040C60A6E5
:1007380029D0476A62A626D063CF28F02830E8324D
:10074800E8320F0B236E629628B403D02350700F43
:1007580002D02350730FD96EDA6A0001DF7023507C
:1007680003E149EC09F00AD0376A720E366E280E9A
:10077800386E396A3B6A3A6AF0EC09F0472A030E88
:100788004764D8D7A1941200396A3B6A010E3A6EC1
:10079800010C5CD86EEC07F098EC0CF0D5EC0BF083
:1007A800326A325047D8322A0B0E3264FAD72ED822
:1007B800326A3250B3EC05F0DE6ADD6A3250ADECD5
:1007C80005F0DE6ADD6A325047D832504AD8322AFC
:1007D800020E3264EED7080E00D00F6E020E106EB5
:1007E800160E0F01536F020E0201036F300E026FD7
:1007F800080E016F040E006F008F296A0001666BF6
:10080800676B686B696B7D6B816B1200648C0F0181
:100818005C6B6498649C62960C6A046A056A066A52
:1008280062B6F9D7010E1F6E1E6E1D6A00017E6B3F
:10083800246A1200040D000EF324D96E020EF4206F
:10084800DA6EDE6ADE6ADE6ADD6A1200A0940F01E3
:100858005F6B626A536B1200730FD96EDA6ADF6AD4
:100868001200700FD96EDA6ADF6A1200800E020178
:100878003019D8A41200C00E0C6E3DD0B00E096E0F
:100888000950D8A4030E0A6E0E6A120E0D6E120CD1
:10089800325116E13251040F48D8020E3AD8F764A3
:1008A80003D00800F55001D02ED80D6E030E31D8B4
:1008B800F76403D00800F55001D025D80E6E120059
:1008C8000C6A1200030E326112D03251010F2DD87A
:1008D80009C0F6FF0AC0F7FFF86A020EF76403D0F2
:1008E8000800F55001D00FD80D6E0E6A12000C6A80
:1008F80012000C6A12003351010AC0E0030AC8E072
:10090800010AE0E0F6D7F6CFE1FFF7CFE2FFE750C4
:10091800120009242A6E000E0A202B6E2AC0F6FF48
:100928002BC0F7FFF86A020E12002A6E2AC0F6FFE3
:10093800030EF76E0900F5CF09F00A6E1200A094B5
:100948007651771108E076C0D9FF77C0DAFFDFAEBD
:1009580002D0A0841200030E801901E1806B80513F
:1009680002E1A0841200020E80190DE1010EB16FA0
:10097800000EB26FB36FB46F020E6CEC05F041D885
:10098800030E806F2ED080052CE10F0E1B6402D061
:10099800BB6F02D01BC0BBF0BB511B5E400E6A6F21
:1009A800020E6B6FBBC0BAF07C5102E005D01BD8B9
:1009B800BA5104E0FCD717D8BA51FDE11B5006E143
:1009C8000F0EBB19020ED8A4030E806F010EB16F73
:1009D800400EB26F020EB36FBBC0B4F06CEC05F002
:1009E80010D8A08412006D51D96EDA6A6AC0E1FF8E
:1009F8006BC0E2FFDFCFE7FF6A4B6B2B6D2BBA07AB
:100A08001200B1C076F0B2C077F0120020EE01F00B
:100A180044EC09F0DF502B6E2B50055C000E065895
:100A280002E205C02BF02B50055E000E065A2A6A1A
:100A380007D0380E2A2447D8015040D8012A2A2A3C
:100A48002B502A5CF6E30550061012E020EE01F068
:100A580019D81DD817D82DD80CEC0CF0DFBC04D051
:100A680023D8480E19D8000C1FD8080E15D8000C2A
:100A7800B3EC07F0040E10D8049E2050D8B410EC44
:100A880009F012001550D9261650DA221200080E65
:100A9800DF6E20EE02F0080CDF6E15C0D9FF16C01D
:100AA800DAFF000EDB8E000C15C0D9FF16C0DAFF86
:100AB8001200380EDE6E020EDD6E020CE16EE26A86
:100AC800DFCFE7FF1200D96EDA6A020EDA22020CD3
:100AD800B76F0001B15104E0B75173EC06F003D0D1
:100AE800B7517CEC06F0D96EDA6ADECFB8F0DDCF0C
:100AF800B9F0B851B91103E1B16BB26B120020EE35
:100B080002F042D8B2C0DEFFB3C0DDFF20EE01F034
:100B18003BD8B4C0DFFF33D8400EDF1630D8000E04
:100B2800DB862DD8DB8EB15105E0B75118D81DD81A
:100B38000F0F04D0B7510DD818D8600FD96EDA6AE4
:100B4800B5C0DEFFB6C0DDFFB8C0B1F0B9C0B2F0C5
:100B58001200020DF350600FD96EDA6A1200020D0E
:100B6800F3500F0FD96EDA6A1200DECFB5F0DDCF81
:100B7800B6F0040EB51BB751020DF3501200B8C001
:100B8800D9FFB9C0DAFF1200B851D926B951DA2213
:100B98001200C26F0001B75105E0B16BFE0E58ECB0
:100BA8000AF004D0B16BFC0E58EC0AF000D000F04B
:100BB8000001C36BC46BC56BC66B948CC86BC25108
:100BC80003E0C8C0C7F003D0C8511608C76F8B8AA6
:100BD80000D000F082AC1FD0C7C0BBF0010E0001EE
:100BE800BC6FBD6BBB2B03D0D890BC37BD37BB2FB8
:100BF800FBD7BCC0BEF0BDC0BFF0000E0001BFBF38
:100C0800FF0EC06FC16FBE51C313BF51C413C05193
:100C1800C513C151C61300D000F08B9A00D000F064
:100C28000001C82B160EC865CAD78B8A00D000F001
:100C38008B9A00D000F0949CC3C0B7F0C4C0B8F041
:100C4800C5C0B9F0C6C0BAF0160C306E2A5003E021
:100C5800305045D802D030504BD8D96EDA6ADECF42
:100C680031F0DDCF32F03150321003E12A6A2B6ABD
:100C7800120020EE02F040D82BC0DEFF2CC0DDFFB2
:100C880020EE01F039D82DC0DFFF2DD8400EDF1639
:100C98002AD8000EDB8627D8DB8E2A5006E0305093
:100CA800B3EC05F012D80F0F05D03050ADEC05F0BD
:100CB8000CD8600FD96EDA6A2EC0DEFF2FC0DDFFB8
:100CC80031C02AF032C02BF01200DECF2EF0DDCF7B
:100CD8002FF0040E2E1A3050020DF3501200020DA0
:100CE800F3500F0F120031C0D9FF32C0DAFF1200E3
:100CF800020DF350600F12003150D9263250DA221B
:100D08001200080E2A6E0E500DE1080E0D5C0AE264
:100D18000DC02AF0275002E1010E03D0270402E19A
:100D2800020E276E2A500D5E000E0E5A20EE01F0BC
:100D38002FD82AC0DFFF380E00017A6F020E7B6FB2
:100D48000CB01AD00BD009C0F6FF19D8F76403D03D
:100D58000800F55002D087EC04F01FD82A50F3E1C0
:100D6800120009C0F6FF0BD8F76403D00800F5504D
:100D780002D087EC04F011D82A50F3E112000AC01F
:100D8800F7FFF86A7AC0D9FF7BC0DAFF020E1200BB
:100D98000F50D9261050DA221200DF6E094A0A2AAB
:100DA80000017A4B7B2B2A061200D890B535BC6F10
:100DB800B635BD6FB735BE6FB835BF6FBC91B905D5
:100DC80004E1020EFEEC0AF003D0000EFEEC0AF07D
:100DD80000D000F00001BE51FEEC0AF0BD51FEEC5F
:100DE8000AF0BC51FEEC0AF000D000F02BD0E00E67
:100DF800FEEC0AF0270E0001BB6FF50EE82EFED7B9
:100E0800BB2FFCD71200C00EFEEC0AF0080E000142
:100E1800BB6FC90EE82EFED7BB2FFCD700D0640EDF
:100E2800E82EFED7820EFEEC0AF0080E0001BB6F1A
:100E3800C90EE82EFED7BB2FFCD700D0640EE82ED3
:100E4800FED712000001BA51D2E0010ADCE012001C
:100E58000C8E40D898EC0CF02A6A020E2B6E2D6A84
:100E68002C6A2F6A300E2E6E98EC0CF0648C3E6A59
:100E78003E5030EC04F03E5035EC04F03E2A020EB1
:100E88003E64F6D7AF0E2A6E2B6A2D6A2C6A2F6A3B
:100E9800020E2E6E98EC0CF0649C080E0F6E020E7B
:100EA800106E000E176E020E1FD832C229F029509C
:100EB80004E1100E0001816F100C376A010E366EC6
:100EC800290E386EC8EC03F0F0EC09F0200E000192
:100ED800816F200C540E2A6E0F0E2B6E2D6A2C6A11
:100EE8002F6A020E2E6E020C186E17C015F018C06D
:100EF80016F0120064980CBE15D004AE0AD0020E8B
:100F0800266E00017E5102E184EC0AF01E6A1F6A17
:100F1800120025D80C0E50EC05F048EC08F0040E31
:100F280040EF08F0020130AF0DD0010E266E1D50C3
:100F380002E184EC0AF01E6A1F6A2050D8A412004D
:100F480010EF09F0020E266E0AD8040E50EC05F0D8
:100F58001E6A1F6A205002E110EF09F0120020EE0D
:100F680001F01550D9261650DA22080EDF6E20EE51
:100F780002F01550D9261650DA22300EDE6E020E17
:100F8800DD6E15C0D9FF16C0DAFF020C0201303938
:100F9800E832030B1DE012000C8E080E0001816F71
:100FA800080C290E096E34D03451AF0F456E45C078
:100FB80009F02ED00C8E3451AF0FD96EDA6A32C2D6
:100FC800DFFF1200376A020EB8EC0CF0F0EF09F000
:100FD800315102E1D7EF08F0010A02E1E4EF01F034
:100FE800020A02E1E4EF01F0060AD6E0030A02E190
:100FF8003AEF04F0010AE6E00F0AD3E0010A02E141
:101008002CEF07F0030AD0E0010AD4E0070A120027
:101018000A6A0C80010E0D6E0C8E010C35D8000E7C
:10102800DFBC010E2B6E040E0F1A1050080E81192A
:101038000BE1020132517F0B0F015C6F5C51100E06
:10104800D8B4040E0001816F260412E128D821D8F3
:1010580085EC06F0020E271803E116D8040E0CD012
:101068002B5003E111D8480E07D00ED8080E04D033
:1010780004BE049E266A1200DF6E0FC0D9FF10C09E
:10108800DAFF000EDB8E000C0FC0D9FF10C0DAFFAC
:101098001200DA22380EDE6E020EDD6E020C20EE31
:1010A80002F00F50D92610501200020130511F0BC8
:1010B800E80601E012003039E832030BE80601E0E7
:1010C8001200345127E0340525E01200A00E096E05
:1010D8000A6A0E6A080E0D6E0C800C8E080CA00EA3
:1010E800096E0A6A0C8E120036C205F037C206F085
:1010F800A80E016E076A086A048E1200A80E096E0F
:101108000A6A0E6A070E0D6EC10E0C6EC10C3251C2
:101118000C8E12003151DAE0010AE1E0210AE4E024
:10112800010AECE0030AF3E012002F6E306A020EA7
:10113800316E2A502B6E2C6AD8902B362C362F50B5
:101148002D6E2E6A24D82B502D262C502E221FD8D7
:101158002D5030262E50312221D8DF9E2A5004E10E
:101168002F507CEC06F003D02F5073EC06F0D96EAC
:10117800DA6A30C0DEFF31C0DDFF10D8DF9C20EE18
:1011880004F03050D9263150DA22DF8C1200D89082
:101198002D362E36D8902D362E36120030C0D9FF77
:1011A80031C0DAFF12000201386B396B20D00C8E87
:1011B800250424E1388322D00C8E20D00C8E34BF35
:1011C80004D0A6EC02F0600F03D0A6EC02F00F0FDB
:1011D800D96EDA6ADECF2AF0DDCF2BF018D8DFAE71
:1011E8000DD015D8DFA40AD0010E386F07D03051C2
:1011F8001F0BDDE0010AE0E0030AE0E00CAE12009C
:10120800380E096E020E0A6E0C800D6E020C2AC092
:10121800D9FF2BC0DAFF12001F50D8A41200010E0C
:101228001F6E1E50D8A41200010E1E6E020E261844
:101238000AE120EE01F0CCEC06F0DF6A48EC08F099
:10124800480E40EF08F02604D8A41200226A20EEC7
:1012580001F016D84BEC05F013D8300EDE6E020EF6
:10126800DD6E0CEC0CF0040EDF6E0CEC0CF0000ED6
:10127800DB8E010E226EB3EC07F0800EDF6E800C61
:101288001750D9261850DA2212002D0E216E28C0C8
:1012980046F0FD0E46162AE1D89028303F0B040D83
:1012A800000EF324176E020EF42078EC07F0040EFB
:1012B800151A16500CEC0CF0DF30E8320F0B0D0A43
:1012C80002E0CEEF0CF0300E2A6E020E2B6E20EEEE
:1012D80002F044EC09F0DECF2CF0DDCF2DF02F6AC0
:1012E800080E2E6E69EC0BF0D8EF0AF02850FD0BB3
:1012F800040AD8B412EC08F0120064A22ED0010E31
:101308006DEF0CF019041A1004E1010E57EC0CF003
:1013180029D04B0E19181A1004E1010E6DEC0CF0CF
:1013280021D01A5003E1970E195C1CE3196A1A6A56
:1013380019D019041A1004E1010E57EC0CF012D060
:10134800320E19181A1004E1010E6DEC0CF00AD0D7
:10135800B70E195C030E1A58E8D700018151200A0C
:10136800D1E0E7D7194A1A2A12001C6A7851791174
:1013780006E078C0D9FF79C0DAFFDFBE24D025D8CF
:10138800BB51DE5C03E221D8DF50BB6F1C6A09D079
:10139800800E1C2467EC05F0BA511C2462EC05F0A1
:1013A8001C2ABB511C5CF4E3000EB16F800EB26FB7
:1013B800020EB36F0F0EB46F020E6CEC05F0B1C0E5
:1013C80078F0B2C079F01C50120020EE01F078518C
:1013D800D9267951DA2212000ED081EC09F0010EDB
:1013E800DEEF0CF081EC09F0020EDEEF0CF0AFEC52
:1013F8000AF016EF0DF036C03CF037C03DF03D5016
:1014080004E07F0AD8A412001AD03C50010AEFE089
:10141800030AD8B41200010A02E159EF08F0060ADB
:10142800D8B41200770AD8B41200010A02E181EF99
:1014380009F0070AD7E0010AD8A41200CED73C1C4D
:1014480012002AEC04F0540E0001B16F0F0EB26FB7
:10145800B46BB36BB66B020EB56F83EC0CF0D5ECC6
:101468000BF00001B96BB9511EEC04F0B92B0B0E4F
:10147800B965F9D70AEC04F0B96BB951B3EC05F0CA
:10148800DE6ADD6AB951ADEC05F0DE6ADD6AB95194
:1014980030EC04F0B95135EC04F0B92B020EB96503
:1014A800ECD7080EF1EF03F0B46F48EC0DF0000133
:1014B800B66BB15103E0B6C0B5F003D0B65107081A
:1014C800B56F8B8A00D000F0B5C0B2F0B4C0B3F0ED
:1014D8000001B22B02D0D890B333B22FFCD7000151
:1014E800B3A102D08B8C01D08B9C00D000F08B9ADA
:1014F80000D000F00001B62B070EB665DAD7070C4E
:101508001D6A00017E6B020E261810E120EE01F024
:1015180046EC05F04BEC05F046EC05F05DEC05F00B
:1015280058EC05F0480E50EC05F0000C0D50020187
:10153800365D0E50375904E236C20DF037C20EF050
:1015480085EC06F053EC08F04DEC08F048EC08F098
:10155800480E40EF08F00001A86B4B0EA96FAA6B6C
:10156800AB6BAC6BAD6B080EAE6F1C6A1A0E326EAD
:10157800010EA8EC0BF01E0E326E020EA8EC0BF05A
:10158800000E2A6E800E2B6E020E2C6E0F0E2D6E24
:10159800020E29EC06F02AC078F02BC079F0000181
:1015A800766B776B806B1200276A206A1D6A7E6BE8
:1015B800226A266A48EC08F017D848EC08F014D8D4
:1015C80058EC05F07F0EDF160C6A0D6A0E6A046A85
:1015D800056A066ACAEC07F0376A030EB8EC0CF025
:1015E800F0EC09F07EEF07F07F0EDF16040E0F1AFD
:1015F800105012000001B36F48EC0DF0070E000107
:10160800B46F8B8A00D000F0B4C0B1F0B3C0B2F0B0
:101618000001B12B02D0D890B233B12FFCD7000112
:10162800B2A102D08B8C01D08B9C00D000F08B9A99
:1016380000D000F00001B407B4BF1200E2D75E0E7C
:10164800F66E1A0EF76E000EF86E00EED0F010EE81
:1016580012F00900F5CFEEFFE550E150FAE100EE97
:1016680060F0510EEE6AE806FDE100EE01F0290E89
:10167800EE6AE806FDE152905292000EF86E000103
:1016880011EF0CF048EC0DF000D000F08B9E8B9C15
:101698008B9AFA0EE82EFED7500E0001B76F480E4F
:1016A800B86F430EB96F4D0EBA6FB16BBA5158ECA3
:1016B8000AF0B16BB95158EC0AF0B16BB85158EC5B
:1016C8000AF0B16BB75158EF0AF02CC032F02DC0B8
:1016D80033F02AC030F02BC031F010D032C0D9FF1F
:1016E80033C0DAFFDF50346E324A332A30C0D9FFB4
:1016F80031C0DAFF34C0DFFF304A312A2E06D8A0C5
:101708002F062E28EBE12F28E9E11200D890B735F3
:10171800BB6FB835BC6FB935BD6FBA35BE6FBB91FD
:10172800BD9FB16B800E58EC0AF000D000F00001AC
:10173800B16BBD5158EC0AF0B16BBC5158EC0AF0D2
:10174800B16BBB5158EF0AF0356E32A404D02A6A47
:10175800355099EC08F032A205D0010E2A6E3550AA
:1017680099EC08F0530E3524336E346A0F0E342288
:1017780033C0D9FF34C0DAFF32C0DFFF0F0C81510C
:10178800D8A41200646A606A0CD8D08EA284A0849F
:10179800F28E01D0648664A6FDD7010E0001816F28
:1017A800010C160E616E9F0E0F015B6F7B0E606E53
:1017B8007B0CA094805102E0A0841200B36BB1C0EE
:1017C800B2F0B32BB32906E0B22BB205D96EDA6AB0
:1017D800DF50F7E1B1C06DF0B3C01BF07C6B010EB8
:1017E800806FA084010C0F0153A110D011D8800E76
:1017F800DE180BE148EC08F0840EDE1806E108D884
:101808000C0EDF6E05D8000EDB8E5391629A120023
:1018180017C0D9FF18C0DAFF12007F6A7E6A000E6F
:10182800EDEC0CF025EC0AF0C3EC0BF0B0EC02F098
:10183800020E0001CF6F860ECE6F990EE82EFED7EE
:10184800CE2FFCD7CF2FFAD7F1D70001B16F08D030
:10185800949012009492120094941200949612009C
:101868000001B151D8B41200010AF2E0030AF2E013
:10187800010AF2E0070AF2E012002A6E08D09490FA
:1018880012009492120094941200949612002A5016
:10189800D8B41200010AF3E0030AF3E0010AF3E006
:1018A800070AF3E012002A6E08D08B8012008B82A0
:1018B80012008B8412008B8612002A50D8B41200B2
:1018C800010AF3E0030AF3E0010AF3E0070AF3E090
:1018D80012002A6E08D08B9012008B9212008B9403
:1018E80012008B9612002A50D8B41200010AF3E0B5
:1018F800030AF3E0010AF3E0070AF3E01200B1C0BB
:10190800B7F0B2C0B8F008D0B7C0D9FFB8C0DAFF96
:10191800B3C0DFFFB74BB82BB507D8A0B607B529BA
:10192800F3E1B629F1E112002AC030F02BC031F002
:1019380008D030C0D9FF31C0DAFF2CC0DFFF304AF1
:10194800312A2E06D8A02F062E28F3E12F28F1E100
:101958001200608462986482010E246E7D6B376A7F
:10196800750E02D8F0EF09F0366E386A396A3B6AAC
:101978003A6A1200246A376A740EB8EC0CF0F0EC7C
:1019880009F06492609401D0629462B4FDD70001BA
:101998007D6B1200020E261802E10AEF05F0266A96
:1019A800225006E1B3EC07F00C0E50EC05F0000CE9
:1019B800226A12002B6E06D0010E41EC0CF0010ECB
:1019C80038EF0DF02B50F8E000D0010AD8A4030A34
:1019D80012000001B26F06D0010E29EC0CF0010EC6
:1019E8003EEF0DF00001B251F7E0E9EF0CF0000115
:1019F800662B000E6723682369232450D8A412009D
:101A08007D2B7D51D8B47D691200B16F03D080A6BB
:101A1800010C000C0001B151D8B4000C010AD8A483
:101A2800000CF5D7AC6B080EAE6FAD6B800EA86FCF
:101A3800250EA96F000EAA6BAB6B7F6B1200A094EA
:101A4800805107E1B1C06DF0B2C01BF0010E7C6F90
:101A5800806FA0841200427574746F6E2070726576
:101A6800737365642E0D0A002A6E2A5000D0D8A41C
:101A7800010A1200B16F0001B1513BEF0DF0949EC5
:101A880000D000F08B8E1200949E949C949A1200C1
:020000040020DA
:08000000FFFFFFFFFFFFFFFF00
:020000040030CA
:0E0000000011011EFF0085FF03C003E0034056
:00000001FF
