:060000000A128A11FC2F18
:100FD0000A128A1100287E088A007F088200EB2707
:100FE0000A128A118000840A04087D06031900345D
:100FF000FF0A0319FE0AEF2F83010A128A11002843
:04400E00F2ECFFFED3
:104200000A0008000900020000000000000003008E
:104210000C00090000000000000000000A0001007E
:1042200009000000200000000000030001000D0054
:1042300000000000000000000A0009000800100053
:10424000000000000000030009000A000000000058
:10425000000000000A00090001000000000020002A
:104260000000030009001100000000000000000031
:104270000A00000000000000000000000000030031
:104280000000000000000000000000000A00000024
:10429000000000000000000000000300000000001B
:1042A00000000000000000000A0000000000000004
:1042B00000000000000003000000000000000000FB
:1042C000000000000A0000000000000000000000E4
:1042D00000000300000000000000000000000000DB
:1042E0000A000000000000000000000000000300C1
:1042F0000000000000000000000000000A000000B4
:1043000000000000000000000000030000000000AA
:1043100000000000000000000A0000000000000093
:10432000000000000000030000000000000000008A
:10433000000000000A000000000000000000000073
:10434000000003000000000000000000000000006A
:10435000000000000000000000000000000000005D
:10436000000000000000000000000000000000004D
:10437000000000000000000000000000000000003D
:10438000000000000000000000000000000000002D
:10439000000000000000000000000000000000001D
:1043A00000000000010051007F00010051007F006B
:0E43B000010051007F0008000F001E000000F9
:00000001FF
