:100000000A128A11F02F00308A000408840A82073D
:10001000003445344534503452344F344D343A343E
:020020000034AA
:100784000830F000F00BC42B0830F000F00BC82B3D
:1007940008002430F100B530F000F00BCF2BF10B42
:1007A400CF2BD42B08007E088A007F088200D52333
:1007B4000A128A118000840A04087D060319003491
:1007C400FF0A0319FE0AD92B83120313A300A20103
:1007D400231CF02B2008A1002108A2070310A00D60
:1007E4000310A30C2308031DEA2B22080800F100C0
:1007F4006400831603178C18FA2B710883120317ED
:100804008D003F30F0007008831603178C050C141C
:1008140003100C180314003003180130831203175B
:100824000C08080083120313A700272C24087F3E1A
:10083400232C2408BF3E232C2408933E232C240875
:10084400D33EA6002608A800352C2708013A031930
:10085400182C033A03191B2C013A03191E2C073ACE
:100864000319212C352C28080A128A119D260A12F4
:100874008A118312031325080A128A1144270800D7
:1008840031343234333434340034003400340034FA
:1008940000340034003400340034003400340034B4
:1008A40000340034003400340034003400340034A4
:1008B4000034003400340034003400340034003494
:1008C4000034003400340034003400340034003484
:1008D4000034003400340034003400340034003474
:1008E40000340034F700852C74087F3E812C740892
:1008F400BF3E812C7408933E812C7408D33EF600CD
:100904007608F800932C7708013A0319762C033AF9
:100914000319792C013A03197C2C073A03197F2C0B
:10092400932C78080A128A119D260A128A117508D6
:1009340084000A128A1103200A128A11003A031948
:100944000800750884000A128A1103200A128A1109
:100954000A128A1144270A128A110130F600760815
:10096400F507992C83120313B2002E08031908000B
:100974000130AE022E082907AF002F08A4000A3068
:10098400B0003008A0002D08F7002C08F6002B0852
:10099400F5002A08F4000030F3000030F2000030C3
:1009A400F1000A30F0000A128A1111250A128A1184
:1009B40070080A128A11E6230A128A11FF3A013ECC
:1009C400831203132A07303EB1003108A500320810
:1009D4000A128A1114240A128A110030F30000301A
:1009E400F2000030F1000A30F000831203132D08E6
:1009F400F7002C08F6002B08F5002A08F4000A1268
:100A04008A1111250A128A11730883120313AD0087
:100A14007208AC007108AB007008AA00B72C003053
:100A2400FC000030FB000030FA000030F9007308CD
:100A34007204710470040319662DFD01FD0AF31B91
:100A4400312D0130F8000310F00DF10DF20DF30D0E
:100A5400F80B252D0130F8007808FD07212D013011
:100A6400F8000310F90DFA0DFB0DFC0DF80B332DF6
:100A740073087702031D482D72087602031D482D62
:100A840071087502031D482D70087402031C592D4A
:100A94007008F4027108031C710FF5027208031C3C
:100AA400720FF6027308031C730FF70279140130F6
:100AB4000310F30CF20CF10CF00CFF3E031D5A2D45
:100AC4000130FD02031D312D7C08F3007B08F20088
:100AD4007A08F1007908F00008000A128A11F82552
:100AE4000A128A1101300A128A119D260A128A11E9
:100AF40039308400A03083120313B3000408B40017
:100B04003230B5003308840083130008B600B30AFA
:100B14003408840036088000B40AB50B842DEB0138
:100B2400F401F40A013083120313B3003308F5000F
:100B340001300A128A1174240A128A1108308312AD
:100B44000313B3003308A9006B08B400B501B60160
:100B5400B7013708AD003608AC003508AB003408DF
:100B6400AA000330B8003808AE0001300A128A1116
:100B7400B4240A128A110B3083120313B30033080E
:100B8400F4000730B4003408F50001300A128A1169
:100B940074240A128A110C3083120313B30033082D
:100BA400A4006B080A128A11F9230A128A1183120B
:100BB4000313B4003408A50001300A128A11142466
:100BC4000A128A11013083120313B3003308EB07AE
:100BD4000330B5008A30B4005630B300B30BF02DA7
:100BE400B40BF02DB50BF02DF72D922D83160317B2
:100BF40088018901831603138611061186100610D5
:100C0400061286128312031386110611861006102B
:100C1400061286120A128A11CB230A128A110A12A8
:100C24008A11CB230A128A110A128A11CB230A12BF
:100C34008A110A128A11CB230A128A110A128A1102
:100C4400CB230A128A110A128A11CB230A128A119F
:100C5400F501F50A043075020318582E83120313A4
:100C640086110611861406140612861286110611C0
:100C740086140614061686120A128A11C2230A1250
:100C84008A118312031386110611861406140612A0
:100C940086120A128A11CB230A128A110130F40037
:100CA4007408F50704307502031C302E83120313F5
:100CB4008611061186140610061286128611061174
:100CC40086140610061686120A128A11C2230A1204
:100CD4008A11831203138611061186140610061254
:100CE40086120A128A11CB230A128A112830F400C0
:100CF4007408F50075080A128A119D260A128A11D1
:100D04001030F4007408F50075080A128A119D2643
:100D14000A128A11F501F50A75080A128A119D262C
:100D24000A128A110F30F4007408F50075080A12CB
:100D34008A119D260800F3008312031306128612FB
:100D44007308F20007300310F20CFF3E031DA52EBA
:100D5400721CB02E831203138615B32E8312031351
:100D640086117308F20006300310F20CFF3E031DD7
:100D7400B62E721CC12E831203130615C42E8312C1
:100D8400031306117308F20005300310F20CFF3E42
:100D9400031DC72E721CD22E831203138614D52E64
:100DA4008312031386107308F20004300310F20C4C
:100DB400FF3E031DD82E721CE32E83120313061468
:100DC400E62E8312031306100330F200F20BE82E12
:100DD4008312031306160A128A11C2230A128A11F5
:100DE4008312031306127308F20003300310F20C8B
:100DF400FF3E031DF82E721C032F83120313861566
:100E0400062F8312031386117308F20002300310B5
:100E1400F20CFF3E031D092F721C142F83120313BF
:100E24000615172F8312031306117308F2000130FD
:100E34000310F20CFF3E031D1A2F721C252F831280
:100E440003138614282F831203138610731C2E2F6A
:100E5400831203130614312F831203130610033075
:100E6400F200F20B332F8312031306160A128A11AF
:100E7400C2230A128A118312031306120A128A1158
:100E8400CB230800F300831203130612861673089B
:100E9400F20007300310F20CFF3E031D4C2F721CAE
:100EA400572F8312031386155A2F831203138611A7
:100EB4007308F20006300310F20CFF3E031D5D2F91
:100EC400721C682F8312031306156B2F83120313EE
:100ED40006117308F20005300310F20CFF3E031DE7
:100EE4006E2F721C792F8312031386147C2F8312A6
:100EF400031386107308F20004300310F20CFF3E53
:100F0400031D7F2F721C8A2F8312031306148D2F47
:100F14008312031306100330F200F20B8F2F831297
:100F2400031306160A128A11C2230A128A118312A3
:100F3400031306127308F20003300310F20CFF3E91
:100F4400031D9F2F721CAA2F831203138615AD2F26
:100F54008312031386117308F20002300310F20C9B
:100F6400FF3E031DB02F721CBB2F83120313061503
:100F7400BE2F8312031306117308F200013003100D
:100F8400F20CFF3E031DC12F721CCC2F83120313DE
:100F94008614CF2F831203138610731CD52F83124C
:100FA40003130614D82F8312031306100330F20020
:100FB400F20BDA2F8312031306160A128A11C223C4
:100FC4000A128A118312031306120A128A11C22307
:100FD4000A128A110A128A11CB2308008313D23011
:100FE400FD000430FE004230FF00A03084000A12ED
:0C0FF4008A11D92383010A128A116F2D83
:04400E00F2ECFFFED3
:00000001FF
