:060000000A128A11FA2F1A
:1000080083160313A60026080A168A116E260A12FA
:100018008A11780883120313A8007908A9007A08BE
:10002800AA000B30A5003630A6004130A7000A12FE
:100038008A114A230A128A11831203132508EC0035
:100048002608ED002708EE000A128A1544230A1232
:100058008A11831203136C0883160313A3008312F7
:1000680003136D0883160313A400831203136E0889
:1000780083160313A500230883120313D2008316E3
:100088000313240883120313D300831603132508CC
:1000980083120313D4000A128A15B8230A128A118C
:1000A800831203135208EF006F0883160313A70087
:1000B8000A168A1157260A128A118316031327076C
:1000C8000A168A11EE26080083120313B4000230C0
:1000D800B1003108F600DE300A128A15E3200A1250
:1000E8008A1183120313B2003208B5003008B10038
:1000F8003108A7003508B20004300310B20CFF3EE7
:10010800031D812832080339B3003308A800A90168
:10011800A90A34080A128A118A220A128A11831239
:1001280003133008013EB1003108A70035080F3924
:10013800B2003208A800A901A90A34080A128A11D3
:100148008A220A128A11F601F60ADE300A128A1584
:10015800E3200A128A1183120313B1003108B50093
:100168003008023EB1003108A7003508B20004305B
:100178000310B20CFF3E031DBC2832080739B30038
:100188003308A800A901A90A34080A128A118A2288
:100198000A128A11831203133008033EB100310892
:1001A800A70035080F39B2003208A800A901A90A2A
:1001B80034080A128A118A220A128A11F601DE30DC
:1001C8000A128A15E3200A128A1183120313B10056
:1001D8003108B5003008043EB1003108A7003508E1
:1001E800B20004300310B20CFF3E031DF62832089B
:1001F8000739B3003308A800A901A90A34080A126C
:100208008A118A220A128A11831203133008053EC2
:10021800B1003108A70035080F39B2003208A8002C
:10022800A901A90A34080A128A118A22080024306E
:1002380083120313B8007430B9004A30BA00831629
:1002480003132608FB002508FA002408F9002308F0
:10025800F8000A128A1563200A128A117808831294
:100268000313A8007908A9007A08AA000030A5009D
:100278008030A6004030A7000A128A114A230A12C9
:100288008A11831203132508B5002608B60027082B
:10029800B7000A128A11D2210A128A118312031393
:1002A800350883160313A700831203133608831631
:1002B8000313A80083120313370883160313A90036
:1002C800270883120313EC008316031328088312EC
:1002D8000313ED0083160313290883120313EE009A
:1002E8000A128A1544230A128A11831203136C080E
:1002F80083160313AA00831203136D0883160313CE
:10030800AB00831203136E0883160313AC002A088C
:1003180083120313C800831603132B0883120313D5
:10032800C900831603132C0883120313CA00003074
:10033800C5008030C600BF30C7000A128A111D24CC
:100348000A128A11831203134508D2004608D30003
:100358004708D4000A128A15B823831203135308D6
:1003680083160313AE008312031352088316031374
:10037800AD002D0899002E089A001815831603174A
:100388008715831203131816831603131812831282
:100398000313981783160313981608008312031380
:1003A8003808BB003908BC003A08BD0003103C0DF2
:1003B8003D0DBE003E08C3004308031DEA29003076
:1003C800B5000030B6000030B70008003508BB00A3
:1003D8003608BC003708BD0003103C0D3D0DBE00BB
:1003E8003E08C4004408031D002A0030B500003050
:1003F800B6000030B70008000030C0000030C1006F
:100408000030C20089304407BB003B08C3023808EB
:10041800BB003908BC003A08BD0010300310BD0C01
:10042800BC0CBB0CFF3E031D122A3B08BE003E0855
:10043800C4003508BB003608BC003708BD001030C2
:100448000310BD0CBC0CBB0CFF3E031D242A3B084B
:10045800BE003E08C4068030BB003B08C405B9177F
:10046800FF30B805FF30B9050030BA05B617FF30C0
:10047800B505FF30B6050030B7051830BB003B089E
:10048800BF0001300310C00DC10DC20DFF3E031D9A
:10049800462A37083A02031D572A36083902031D2F
:1004A800572A35083802031C642A3508B80236086A
:1004B800031C360FB9023708031C370ABA02401466
:1004C80001300310B80DB90DBA0DFF3E031D652AA2
:1004D8000130BF02031D452A4008F0004108F10021
:1004E8004208F2004308BB003B08F3004408BC0084
:1004F8003C08F4000A128A15D822700883120313E4
:10050800B5007108B6007208B7000800831203131B
:10051800AC00290803190800043029020318080050
:100528002808AA00AB012A08AE002B08AF00AB2AA6
:1005380027087F3EA72A2708BF3EA72A2708933EF9
:10054800A72A2708D33EAA002A08AD00B92A2C08F2
:10055800013A03199C2A033A03199F2A013A0319FD
:10056800A22A073A0319A52AB92A2D080A128A15B8
:10057800AD260A128A110330831203132902031CC1
:10058800E22A6430F0000030F1002808AA00AB012C
:100598002A08F2002B08F3000A128A15C6210A124B
:1005A8008A11710883120313AF007008AE002E0879
:1005B800303E0A128A1554270A128A110230831211
:1005C80003132902031C1B2B0A30F6000030F70026
:1005D8002F08F1002E08F0006430F2000030F3001C
:1005E8000A128A1503200A128A117009831203134A
:1005F800AA007109AB00AA0A0319AB0A28082A073E
:10060800F8002B0803182B0AF9000A168A11C427C8
:100618000A128A11770883120313AF007608AE0016
:100628002E08303E0A128A1554270A128A1183129C
:1006380003132908031908000A30F0000030F100FC
:100648002808AA00AB012A08F2002B08F3000A12B6
:100658008A15C6210A128A11710883120313AF0082
:100668007008AE000A30AA002A08A6002E080A164A
:100678008A1142260A128A11FF3A013E8312031395
:100688002807303E0A128A155427080083120313DC
:100698002508AB002608AC002708AD0003102C0D78
:1006A8002D0DAE002E08AF002F08031D622B003061
:1006B800A5000030A6000030A70008002808AB00FD
:1006C8002908AC002A08AD0003102C0D2D0DAE0032
:1006D8002E08B4003408031D782B0030A500003024
:1006E800A6000030A700080034087B3EAB002B08AA
:1006F800AF072508AB002608AC002708AD0010306E
:100708000310AD0CAC0CAB0CFF3E031D842B2B0867
:10071800AE002E08B4002808AB002908AC002A084F
:10072800AD0010300310AD0CAC0CAB0CFF3E031D3C
:10073800962B2B08AE002E08B4068030AB002B0891
:10074800B405A617A917FF30A805FF30A905003082
:10075800AA050030B0000030B1000030B200073008
:10076800AB002B08B300251CC72B2808B0072908A5
:1007780003110318290A031DB1072A0803110318D6
:100788002A0A031DB20701300310A70CA60CA50CFA
:10079800FF3E031DC82B01300310A80DA90DAA0D9B
:1007A800FF3E031DD02B0130B302031DB72B0930C8
:1007B800AB002B08B300251CEF2B2808B00729082D
:1007C80003110318290A031DB1072A080311031886
:1007D8002A0A031DB20701300310A70CA60CA50CAA
:1007E800FF3E031DF02B01300310B20CB10CB00C0E
:1007F800FF3E031DF82B0130B302031DDF2B300829
:10080800F0003108F1003208F2002F08AB002B0885
:10081800F3003408AC002C08F4000A128A15D82218
:10082800700883120313A5007108A6007208A700B8
:100838000800831203134508CB004608CC0047087C
:10084800CD0003104C0D4D0DCE004E08D1004808C8
:10085800CB004908CC004A08CD0003104C0D4D0DC3
:10086800CE004E08D00051080319462C50085102FA
:1008780003184D2C5103FF3A5007CB0019304B0297
:10088800031C4D2C4808C5004908C6004A08C70083
:1008980008005008031908005108500203185C2C7E
:1008A8005003FF3A5107CB0019304B0203180800D8
:1008B8000630CB004B08CF00C71BCF17CA1B4F17FA
:1008C800C617FF30C505FF30C6050030C705C91774
:1008D800FF30C805FF30C9050030CA05500851026D
:1008E80003189C2C01300310C80DC90DCA0DFF3E1A
:1008F800031D772C0130D002500851060319972C9C
:100908000130CF024F0807390319972C762C013094
:100918000310C70CC60CC50CFF3E031D8C2C013000
:10092800CB004B08D107510850060319C52C8B2C56
:10093800510850020318C52C01300310C50DC60D0F
:10094800C70DFF3E031DA12C0130D10250085106EE
:100958000319C12C0130CF024F0807390319C12CE4
:10096800A02C01300310CA0CC90CC80CFF3E031D93
:10097800B62C0130CB004B08D00751085006031D98
:10098800B52CCF1FD72CFF30C506FF30C606FF3069
:10099800C7060130C507003003180130C60700300C
:1009A80003180130C7074F1FE92CFF30C806FF3076
:1009B800C906FF30CA060130C807003003180130E5
:1009C800C907003003180130CA07CF014508C80716
:1009D800460803110318460A031DC90747080311EF
:1009E8000318470A031DCA07CA1F0C2DFF30C80683
:1009F800FF30C906FF30CA060130C80700300318A7
:100A08000130C907003003180130CA07CF01CF0AE7
:100A18004808F0004908F1004A08F2005108CB00E4
:100A28004B08F3004F08CC004C08F4000A128A1552
:100A3800D822700883120313C5007108C600720813
:100A4800C7000800003083120313C4000030C3003D
:100A58000030C2000030C1000230B2003208F60097
:100A6800DE300A128A15E3200A128A118312031350
:100A7800B3003308C5004508B20004300310B20CB7
:100A8800FF3E031D422D32080339B300B401330879
:100A9800F0003408F1000A30F2000030F3000A12C6
:100AA8008A1503200A128A118312031345080F3985
:100AB8007007C10071080318710AC200C301C21B84
:100AC800C3034308C4004408F3004308F200420883
:100AD800F1004108F0000030F7000030F6000E3059
:100AE800F5001030F4000A128A1524200A128A111F
:100AF800730883120313C4007208C3007108C2008C
:100B08007008C100F601F60ADE300A128A15E320E1
:100B18000A128A1183120313B2003208C50045086D
:100B2800B20004300310B20CFF3E031D962D3208AC
:100B38000739B300B4013308F0003408F1000A3073
:100B4800F2000030F3000A128A1503200A128A11F3
:100B58008312031345080F397007BF007108031883
:100B6800710AC0004108B2004208B3004308B4004B
:100B78004408B5004008F1003F08F0003C30F2009E
:100B88000030F3000A128A1503200A128A1170082D
:100B980083120313B6007108B7000030B71BFF308B
:100BA800B800B9003608B20737080318370FDD2D2B
:100BB800DE2DB30738080318380FE32DE42DB407EA
:100BC80039080318390AB5073508C4003408C300C2
:100BD8003308C2003208C100F601DE300A128A1555
:100BE800E3200A128A1183120313B2003208C500E7
:100BF8004108B2004208B3004308B4004408B500F5
:100C08004508B60004300310B60CFF3E031D072E3E
:100C180036080739B700B8013708F0003808F1007E
:100C28000A30F2000030F3000A128A1503200A1273
:100C38008A118312031345080F397007B900710828
:100C48000318710ABA003908BB003A08BC00003022
:100C5800BC1BFF30BD00BE003B08B2073C080318B0
:100C68003C0F372E382EB3073D0803183D0F3D2E95
:100C78003E2EB4073E0803183E0AB5073508C400DF
:100C88003408C3003308C2003208C1004408B10068
:100C98004308B0004208AF004108AE0008008316C0
:100CA80003178801890183160313850186010A1237
:100CB8008A1508260A128A11003083160313A60023
:100CC8000030A5002530A4008030A3000A128A1144
:100CD8001B210A128A11003083120313A300063065
:100CE800A2001A30A1008030A0000A168A115427E9
:100CF8000A128A1101300A128A15AD260A128A11BF
:100D0800F401F40A143083160313AF002F08F5001A
:100D180001300A128A15A3200A128A11F401F40A72
:100D28000F3083160313AF002F08F50002300A12A4
:100D38008A15A3200A128A110B3083160313AF00F9
:100D48002F08F4001230B0003008F50002300A1203
:100D58008A15A3200A128A110B3083160313AF00D9
:100D68002F08F4001230B0003008F50001300A12E4
:100D78008A15A3200A128A11003083160313BB00B8
:100D88000130BA004530B9006430B8000711831249
:100D98000313071583160313BC018710831203136B
:100DA800871483160313B701831603133C0803192A
:100DB800E12E0130AF002F08B70737080319BC012F
:100DC8006430AF002F08F900B1300A168A112026C6
:100DD8000A128A1183160313B0003008C1000030CC
:100DE8000A168A11EE260A128A118316031341087D
:100DF8000319042FB1300A128A15D5240A128A1150
:100E08000A128A1126250A128A118312031331083D
:100E180083160313C00083120313300883160313C9
:100E2800BF00831203132F0883160313BE00831217
:100E380003132E0883160313BD003B084006031D49
:100E48002F2F3A083F06031D2F2F39083E06031D92
:100E58002F2F38083D06031D6D2F3C08031D6D2FED
:100E6800410803196D2FB1300A128A15D5240A12C8
:100E78008A1183160313AF002F0883120313AE00E1
:100E88000A128A1126250A128A11831203133108BD
:100E980083160313C0008312031330088316031349
:100EA800BF00831203132F0883160313BE00831297
:100EB80003132E0883160313BD003D03FF3A3807BA
:100EC8000A128A1104200A128A1183160313BC011C
:100ED800BC0A41080319982FC201063042020318C0
:100EE800982F4208053EAF002F0883120313A7006E
:100EF800831603134208B13E840083130008B00030
:100F0800300883120313A80001300A168A11C0267C
:100F18000A128A11013083160313AF002F08C20783
:100F280006304202031C752F0530AF002F088312CC
:100F38000313B00002300A128A1168200A128A11BB
:100F48000C3083160313AF002F0883120313AB0072
:100F580083160313400883120313AF008316031389
:100F68003F0883120313AE00831603133E0883124F
:100F78000313AD00831603133D0883120313AC005B
:100F8800053083160313B000300883120313B00032
:100F9800B10102300A128A156E250A128A110C3024
:100FA80083160313AF002F0883120313AB000A162E
:100FB8008A1157260A128A1183120313AC0080394A
:100FC800031DFF30AD00AE00AF00043083160313DD
:100FD800B000300883120313B000B101B10A013028
:100FE8000A128A156E250A128A11D82EC301C40165
:080FF80083010A128A11532E35
:10100600F401F501701C0D287208F4070318F50A9F
:101016007308F50701300310F20DF30DFF3E031DB3
:101026000E2801300310F10CF00CFF3E031D1528AD
:1010360070087104031D05287508F1007408F00096
:1010460008000030FC000030FB000030FA000030E1
:10105600F900701C42287408F90775080311031873
:10106600013E031DFA07760803110318013E031D0E
:10107600FB07770803110318013E031DFC07013027
:10108600F8000310F40DF50DF60DF70DF80B4428D6
:1010960001300310F30CF20CF10CF00CFF3E031DB3
:1010A6004C287308720471047004031D2C287C08F4
:1010B600F3007B08F2007A08F1007908F0000800D6
:1010C60083120313A1018E30FC007C08A000FB1FD5
:1010D6007928F809F909FA09FB09F80A0319F90A3E
:1010E6000319FA0A0319FB0AA101A10AFF307B05BD
:1010F60003198B2801300310FB0CFA0CF90CF80CC1
:10110600FF3E031D7E280130FC007C08A0077928DD
:101116007808F0007908F1007A08F2002008FC004F
:101126007C08F3002108FD007D08F4000A128A15E8
:10113600D8227008F8007108F9007208FA00080051
:10114600F700B42874087F3EB0287408BF3EB02864
:101156007408933EB0287408D33EF6007608F8006B
:10116600C2287708013A0319A528033A0319A828C3
:10117600013A0319AB28073A0319AE28C2287808A2
:101186000A128A15AD260A128A15750884000A16EF
:101196008A1100200A128A15003A031908007508F8
:1011A60084000A168A1100200A128A150A128A1564
:1011B60054270A128A150130F6007608F507C82862
:1011C600FA000A168A11E7250A128A157A08F70024
:1011D600F8017708F0007808F1000A168A11FC2554
:1011E6000A128A157608F700F8017708F0007808E1
:1011F600F1000A168A11FC250A128A150A168A11A6
:10120600EE250A128A150A168A11E7250A128A1588
:101216007A08013EF000003003180130F1000A168A
:101226008A11FC250A128A150030F000F1000A1610
:101236008A1194260A128A157008F7007708F900B1
:101246000A168A11EE25790808008312031360082E
:10125600F0006108F1006208F2006730E3006308FD
:10126600F3000A168A118A270A128A1583120313B3
:10127600E81F44290030E0000030E1000030E200C1
:1012860008000030680215300319670203180800C9
:101296006008D2006108D3006208D4000A128A15D9
:1012A600B8230A128A15831203135508FB00540843
:1012B600FA005308F9005208F8000A128A1563204A
:1012C600780883120313E4007908E5007A08E6003B
:1012D6006408E0006508E1006608E2000800F10025
:1012E60071088400303083130002031C7F297108C3
:1012F6008400333000020318F001710A8400303094
:101306000002031C8B29710A84003A30000203187C
:10131600F0017108023E840030300002031C992956
:101326007108023E8400373000020318F00171088C
:10133600033E840030300002031CA7297108033ED7
:1013460084003A3000020318F0017108043E84005C
:1013560030300002031CB5297108043E8400373082
:1013660000020318F0017108053E840030300002C7
:10137600031CC3297108053E84003A300002031895
:10138600F00170080800F601F11FD029F009F109F3
:10139600F00A0319F10AF601F60AF31FDB29F2092E
:1013A600F309F20A0319F30A0130F4007408F60689
:1013B600F701F801700871040319122AF501F50AFC
:1013C600F11BF12901300310F00DF10DFF3E031D55
:1013D600E6290130F4007408F507E329013003100B
:1013E600F70DF80DFF3E031DF22971087302031D68
:1013F600FE2970087202031C072A7008F20271089F
:10140600031CF303F302771401300310F10CF00C04
:10141600FF3E031D082A0130F502031DF129760857
:1014260003191A2AF709F809F70A0319F80A7808B6
:10143600F1007708F0000800F600760884008313B0
:101446008001F801F7018312031318121816F4012C
:10145600F501033075020130031974020318762A68
:1014660071080A168A1130260A128A15F2007208C5
:10147600F70007307802031C502A0D307802031853
:10148600502A7708F2007808F93E7607F3007308C9
:1014960084007208831380005F2A7808083E84005F
:1014A6000A168A1100200A128A157706031D642A75
:1014B600073078020318642A0130F2007208F80730
:1014C600692A0D30780203180800F8010130F40784
:1014D6000318F50A0030F5070330750201300319C9
:1014E6007402031C332A83120313181208000030F7
:1014F600FC000030FB000030FA000030F9007308F1
:101506007204710470040319CF2AFD01FD0AF31B4E
:101516009A2A0130F8000310F00DF10DF20DF30DCB
:10152600F80B8E2A0130F8007808FD078A2A013068
:10153600F8000310F90DFA0DFB0DFC0DF80B9C2AB3
:1015460073087702031DB12A72087602031DB12AB9
:1015560071087502031DB12A70087402031CC22AA1
:101566007008F4027108031C710FF5027208031C5F
:10157600720FF6027308031C730FF7027914013019
:101586000310F30CF20CF10CF00CFF3E031DC32A02
:101596000130FD02031D9A2A7C08F3007B08F20045
:1015A6007A08F1007908F000080073080319E02AA8
:1015B600720871047004031DF32A0030F000003035
:1015C600F1000030F20008000130F5007508F3075D
:1015D60001300310F20CF10CF00CFF3E031DEC2A57
:1015E600FE30720503190E2BE72A0130F500750847
:1015F600F3070130F007003003180130F10700301F
:1016060003180130F20701300310F20CF10CF00C54
:10161600FF3E031D072BFF30720503191D2BF82A09
:101626000130F30201300310F00DF10DF20DFF3E13
:10163600031D162BF11B232B023073020318132BE9
:1016460073182B2BFF30F0057F30F105FF30F205C4
:101656000310F30C7308F500F601F70110300310C0
:10166600F50DF60DF70DFF3E031D322B7508F00440
:101676007608F1047708F204740803190800F217D3
:101686000800831203136C08C5006D08C6006E08B7
:10169600C7006C08E0006D08E1006E08E2000A125F
:1016A6008A1528210A128A15831203136008E90095
:1016B6006108EA006208EB000A168A1116260A1269
:1016C6008A15831203136908C8006A08C9006B08E3
:1016D600CA000A128A111D240A128A1583120313DC
:1016E600450883160313A0008312031346088316C6
:1016F6000313A10083120313470883160313A200E2
:10170600200883120313C5008316031321088312CE
:101716000313C60083160313220883120313C7009C
:101726006C08C8006D08C9006E08CA000A128A1142
:101736001D240A128A15831203134508EC00460875
:10174600ED004708EE006C08E0006D08E1006E0849
:10175600E2000A128A152821831203136008EC009E
:101766006108ED006208EE000800831203135208B8
:10177600D6005308D7005408D8000310570D580D4B
:10178600D9005908DF005F08031DD22B0030D500B1
:101796000030D4000030D3000030D20008005208D8
:1017A600D6005308D7005408D80017300310D80CB9
:1017B600D70CD60CFF3E031DD92B5608D900590865
:1017C600DA00D317FF30D205FF30D3050030D40539
:1017D6005208DB005308DC005408DD00DE018E30C1
:1017E600DF02DF1F142C5F08803A8F3E0318042C9B
:1017F6000030D5000030D4000030D3000030D200D5
:10180600080001300310DE0CDD0CDC0CDB0CFF3EA7
:10181600031D052C0130D6005608DF0703192F2CAF
:10182600042C18305F02031C2C2C0030D50000302D
:10183600D4000030D3000030D20008000130D600BA
:101846000310DB0DDC0DDD0DDE0DD60B232C013078
:10185600DF025F08031D212C5A0803193D2CDB0902
:10186600DC09DD09DE09DB0A0319DC0A0319DD0AD6
:101876000319DE0A5E08D5005D08D4005C08D300B3
:101886005B08D200080083120313A101F31F582C32
:10189600F009F109F209F309F00A0319F10A03192B
:1018A600F20A0319F30AA101A10AF71F692CF40928
:1018B600F509F609F709F40A0319F50A0319F60AF0
:1018C6000319F70A0130F8007808A1060030A500D0
:1018D6000030A4000030A3000030A2007308720498
:1018E600710470040319BE2CA001A00AF31B892CF5
:1018F6000130F8000310F00DF10DF20DF30DF80BA9
:101906007D2C0130F8007808A007792C0130F8000A
:101916000310A20DA30DA40DA50DF80B8B2C7308B7
:101926007702031DA02C72087602031DA02C7108F5
:101936007502031DA02C70087402031CB12C7008DC
:10194600F4027108031C710FF5027208031C720F72
:10195600F6027308031C730FF702221401300310FA
:10196600F30CF20CF10CF00CFF3E031DB22C01300F
:10197600A002031D892C21080319CC2CA209A30956
:10198600A409A509A20A0319A30A0319A40A03199B
:10199600A50A2508F3002408F2002308F10022080E
:1019A600F000080083120313AC00AD012C0884007C
:1019B60083130008D03E0339AA002A08AD002D087B
:1019C600AA0003300310AA0DFF3E031DE52C0310E9
:1019D6002A0DAB002B08AD002C0A84000008D03E6F
:1019E6000F392D04AA002A08AD000230AA002A08E1
:1019F600A7002D08AB002B08A800DE300A168A11B6
:101A06001E270A128A1583120313AD012C08023E03
:101A1600840083130008D03E0739AA002A08AD00C7
:101A26002D08AA0003300310AA0DFF3E031D162D34
:101A360003102A0DAB002B08AD002C08033E8400D2
:101A46000008D03E0F392D04AA002A08AD002D0843
:101A56008038AA002A08AD00A701A70A2D08AA0007
:101A66002A08A800DE300A168A111E270A128A15CD
:101A760083120313AD012C08043E8400831300086F
:101A8600D03E0739AA002A08AD002D08AA00033067
:101A96000310AA0DFF3E031D4B2D03102A0DAB00AC
:101AA6002B08AD002C08053E84000008D03E0F39F7
:101AB6002D04AA002A08AD002D088038AA002A089D
:101AC600AD00A7012D08AA002A08A800DE300A16D4
:101AD6008A111E27080083120313B700B6013108C6
:101AE6000319A52D0130B2003208B607AF1F972D96
:101AF6002B08B2003208A7002D30B3003308A80027
:101B060037080A168A11C0260A128A158312031389
:101B1600AC09AD09AE09AF09AC0A0319AD0A031940
:101B2600AE0A0319AF0AA52D2B08B2003208A7008A
:101B36002B30B3003308A80037080A168A11C026CE
:101B46000A128A1583120313300803190800FF309E
:101B560083120313B2003208B00730082B07B20015
:101B660036083207B3003308A7000A30B400340839
:101B7600A6002F08F7002E08F6002D08F5002C0801
:101B8600F4000030F3000030F2000030F1000A30BB
:101B9600F0000A128A1546240A128A1570080A16D7
:101BA6008A1142260A128A15FF3A013E831203134E
:101BB6002C07303EB5003508A80037080A168A11EA
:101BC600C0260A128A150030F3000030F2000030F9
:101BD600F1000A30F000831203132F08F7002E08D5
:101BE600F6002D08F5002C08F4000A128A15462482
:101BF6000A128A15730883120313AF007208AE0027
:101C06007108AD007008AC00A52D83160317880176
:101C16008901831603138512051285110511851096
:101C260005108312031385120512851105118510FF
:101C360005100A168A110D260A128A150A168A1125
:101C46000D260A128A150A168A110D260A128A15F7
:101C56000A168A110D260A128A150A168A110D26E7
:101C66000A128A150A168A110D260A128A15F50114
:101C7600F50A043075020318682E831203138512C1
:101C86000512851505158510051085120512851591
:101C96000515851405100A168A11F5250A128A15E6
:101CA6008312031385120512851505158510051077
:101CB6000A168A110D260A128A150130F4007408D4
:101CC600F50704307502031C402E83120313851298
:101CD6000512851505118510051085120512851545
:101CE6000511851405100A168A11F5250A128A159A
:101CF600831203138512051285150511851005102B
:101D06000A168A110D260A128A152830F40074085C
:101D1600F50075080A128A15AD260A128A151030C2
:101D2600F4007408F50075080A128A15AD260A1221
:101D36008A15F501F50A75080A128A15AD260A12E2
:101D46008A150F30F4007408F50075080A128A1512
:101D5600AD260800F30083120313851005107308DF
:101D6600F20007300310F20CFF3E031DB52E721C65
:101D7600C02E831203138516C32E831203138512F6
:101D86007308F20006300310F20CFF3E031DC62E48
:101D9600721CD12E831203130516D42E831203133D
:101DA60005127308F20005300310F20CFF3E031D06
:101DB600D72E721CE22E831203138515E52E83128D
:101DC600031385117308F20004300310F20CFF3E72
:101DD600031DE82E721CF32E831203130515F62E2F
:101DE6008312031305110330F200F20BF82E83124F
:101DF600031385140A168A11F5250A128A15831209
:101E0600031385107308F20003300310F20CFF3E33
:101E1600031D082F721C132F831203138516162F0A
:101E26008312031385127308F20002300310F20CBA
:101E3600FF3E031D192F721C242F83120313051650
:101E4600272F8312031305127308F20001300310C3
:101E5600F20CFF3E031D2A2F721C352F831203132B
:101E66008515382F831203138511731C3E2F831299
:101E760003130515412F8312031305110330F200D6
:101E8600F20B432F8312031385140A168A11F525C4
:101E96000A128A158312031385100A168A110D2653
:101EA6000800F30083120313851005147308F2006B
:101EB60007300310F20CFF3E031D5C2F721C672FC8
:101EC6008312031385166A2F831203138512730870
:101ED600F20006300310F20CFF3E031D6D2F721C3C
:101EE600782F8312031305167B2F83120313051213
:101EF6007308F20005300310F20CFF3E031D7E2F1F
:101F0600721C892F8312031385158C2F83120313DA
:101F160085117308F20004300310F20CFF3E031D16
:101F26008F2F721C9A2F8312031305159D2F831270
:101F3600031305110330F200F20B9F2F83120313D4
:101F460085140A168A11F5250A128A1583120313B7
:101F560085107308F20003300310F20CFF3E031DD8
:101F6600AF2F721CBA2F831203138516BD2F83124F
:101F7600031385127308F20002300310F20CFF3EC1
:101F8600031DC02F721CCB2F831203130516CE2FF1
:101F96008312031305127308F20001300310F20CCA
:101FA600FF3E031DD12F721CDC2F831203138515F0
:101FB600DF2F831203138511731CE52F831203137E
:101FC6000515E82F8312031305110330F200F20BF7
:101FD600EA2F8312031385140A168A11F5250A12AD
:101FE6008A158312031385100A168A11F5250A121B
:101FF6008A150A168A110D26080010308A00040870
:10200600840A8207003424344734503452344D3421
:1020160043342C3424344734503452344D3443340E
:102026002C345234543443343A3400344734503424
:0620360053343A3400347B
:102BCE000A168A11042683160313111408000A1616
:102BDE008A1104268316031311150800F62DF72DFE
:102BEE000000F92DFA2D000008000A168A1104269D
:102BFE00700883120313930008008316031314192D
:102C0E00042E11081F3903190800042E0830F10094
:102C1E002330F000F00B112EF10B112E0800831251
:102C2E0003136B086A046904031908008030EB066D
:102C3E000800FB007908FA007A08F1007B080A12F6
:102C4E008A151F220A168A117B080A128A1572210A
:102C5E000800F000352E00000130F002831203133D
:102C6E008C1A3C2E7008031D322E8C1E402E1A0814
:102C7E00080041300800FB00FA017B1C4C2E831229
:102C8E0003132608F9007908FA07031083120313B9
:102C9E00A60D0310FB0C7B08031D442E7A080800BA
:102CAE000830FB007B08F600DE300A128A15E3209E
:102CBE000A168A11FC007C08FD00FD1F6B2E7D0894
:102CCE007F39FF3A013E08007D087F390800FC007D
:102CDE00FB01FC1F762EFC09FC0AFB01FB0A7C089B
:102CEE0083120313A000A101A2012008F000210805
:102CFE00F1002208F2008E30A3002308F3007B08B7
:102D0E00A4002408F4000A128A15D8227008F800CC
:102D1E007108F9007208FA0008000A168A110426D2
:102D2E000A168A118316031391150A168A110426A0
:102D3E000A168A11831203131308F200F3017208A4
:102D4E00F4007308F5000A168A1104260A168A1171
:102D5E0070087104031DB72E831603139116BA2E35
:102D6E0083160313911211167508F1007408F00002
:102D7E00080083120313A900D32E27087F3ECF2EFF
:102D8E002708BF3ECF2E2708933ECF2E2708D33ECF
:102D9E00FC007C08AA00E12E2908013A0319C42E72
:102DAE00033A0319C72E013A0319CA2E073A03191B
:102DBE00CD2EE12E2A080A128A15AD260A168A1180
:102DCE008312031328080A128A1554270800831247
:102DDE000313AD002D08803A7F3E031C032F0830ED
:102DEE00AA002A08A7002D08AB002B08A800DE3089
:102DFE000A168A111E270800083083120313AA0030
:102E0E002A08A700FF30AB002B08A6002D080A16D3
:102E1E008A1142260A168A11803883120313AC00D7
:102E2E002C08A800DE300A168A111E27080083120D
:102E3E000313A9000A168A11E7250A168A118312AE
:102E4E0003132908FC00FD017C08F0007D08F10049
:102E5E000A168A11FC250A168A11831203132708F3
:102E6E00FC00FD017C08F0007D08F1000A168A11B5
:102E7E00FC250A168A11831203132808FC00FD0193
:102E8E007C08F0007D08F1000A168A11FC250A164E
:102E9E008A110A168A11EE250800283083120313B0
:102EAE009400831603139101831203132008A400C8
:102EBE002108A5002208A6002308A700023003104F
:102ECE00A40DA50DA60DA70DFF3E031D662F270809
:102EDE00F3002608F2002508F1002408F000003067
:102EEE00F7003D30F6000930F5000030F4000A120C
:102EFE008A157A227008FF3E8316031393009401FD
:102F0E00871507160800720871047004031D962FAA
:102F1E007308840083138001840A800108007208FC
:102F2E007F39F400F5010310F40DF50D73088400DC
:102F3E00740883138000840A75088000710D710D6A
:102F4E000139F400F5017308840074088004840AC2
:102F5E00750880047308840082308007840F00088F
:102F6E000318000AFF00FF307F07800084037208F9
:102F7E0080393F38F200F1130800FB01FC0176089E
:102F8E0077040319FB2FFD01FD0AF71BDA2F013021
:102F9E000310F60DF70DFF3E031DCF2F0130FA0083
:102FAE007A08FD07CC2F01300310FB0DFC0DFF3E00
:102FBE00031DDB2F77087902031DE72F76087802B1
:102FCE00031CF02F7608F8027708031CF903F902A8
:102FDE007B1401300310F70CF60CFF3E031DF12F8E
:102FEE000130FD02031DDA2F7C08F7007B08F60086
:022FFE000800C9
:04400E00F2ECFFFED3
:00000001FF
