:100000000C94E0000C9408010C9408010C94080175
:100010000C9408010C9408010C9408010C9408013C
:100020000C9408010C9408010C9408010C9408012C
:100030000C9408010C9408010C9408010C9408011C
:100040000C94040C0C9408010C9408010C94080105
:100050000C9408010C9408010C9408010C940801FC
:100060000C944E0C0C94080100407A10F35A00A036
:10007000724E18090010A5D4E80000E87648170071
:1000800000E40B54020000CA9A3B000000E1F505B1
:10009000000080969800000040420F000000A086FB
:1000A00001000000102700000000E803000000002D
:1000B0006400000000000A000000000001000000D1
:1000C00000002C76D888DC674F0823DFC1DFAE59EB
:1000D000E1B1B796E5E3E453C63AE651997696E87E
:1000E000E6C28426EB898C9B62ED407C6FFCEFBC02
:1000F0009C9F40F2BAA56FA5F490055A2AF75C932D
:100100006B6CF9676DC11BFCE0E40D47FEF520E662
:10011000B500D0ED902E0300943577050080841E45
:10012000080000204E0A000000C80C333333330FA0
:10013000986E12831141EF8D2114893BE65516CF3D
:10014000FEE6DB18D1844B381BF77C1D901DA4BB49
:10015000E424203284725E228100C9F124ECA1E5FE
:100160003D2700000000240027002A0000000000B6
:10017000250028002B000000000023002600290095
:10018000040404040404040402020202020203033D
:100190000303030301020408102040800102040845
:1001A00010200102040810200000000800020100D5
:1001B0000003040700000000000000007E0DF91697
:1001C00011241FBECFEFD8E0DEBFCDBF24E0A0EDED
:1001D000B1E001C01D92A132B207E1F711E0A0E049
:1001E000B1E0E4E8FCE302C005900D92A03DB10748
:1001F000D9F710E0CFEDD0E004C02197FE010E94B6
:100200003D1CCE3DD107C9F70E94650E0C94351EEA
:100210000C94000008950895AF92BF92CF92DF92A0
:10022000EF92FF920F931F93CF93DF936C017B01AB
:100230008B01040F151FEB015E01AE18BF08C0173C
:10024000D10759F06991D601ED91FC910190F081AF
:10025000E02DC6010995892B79F7C501DF91CF9172
:100260001F910F91FF90EF90DF90CF90BF90AF90D4
:100270000895FC0144815581608171818EE793E08E
:100280000C940C01833081F028F4813099F0823095
:10029000A9F008958730A9F08830C9F08430B1F40E
:1002A000809180008F7D03C0809180008F77809344
:1002B0008000089584B58F7784BD089584B58F7DBF
:1002C000FBCF8091B0008F778093B000089580912C
:1002D000B0008F7DF9CFCF93DF93282F30E0F90165
:1002E000E855FE4F8491F901EC56FE4FD491F90187
:1002F000E058FE4FC491CC23A1F081110E9442012D
:10030000EC2FF0E0EE0FFF1FEA58FE4FA591B491DD
:10031000EC91ED2381E090E009F480E0DF91CF9152
:10032000089580E090E0FACF1F93CF93DF93282FBA
:1003300030E0F901E855FE4F8491F901EC56FE4F8B
:10034000D491F901E058FE4FC491CC23A9F0162FA7
:1003500081110E944201EC2FF0E0EE0FFF1FE459E3
:10036000FE4FA591B4918FB7F894EC91111108C08C
:10037000D095DE23DC938FBFDF91CF911F9108953D
:10038000DE2BF8CF60E080917B030C949401EF9218
:10039000FF920F931F93CF93DF937C0101E713E04C
:1003A000D0E0C0E0F80180810E5F1F4FB7010C2E36
:1003B00002C0759567950A94E2F761700E949401F6
:1003C0002196C530D10571F761E080917B03DF9103
:1003D000CF911F910F91FF90EF900C949401CF93C8
:1003E000DF9390E0FC01EC56FE4F249180589E4F25
:1003F000FC0184918823D1F090E0880F991FFC01C3
:10040000EE59FE4FA591B491FC01E459FE4FC59100
:10041000D491623071F49FB7F8943C91822F80950B
:1004200083238C93E8812E2B28839FBFDF91CF916C
:1004300008958FB7F894EC912E2B2C938FBFF6CFA5
:100440003FB7F8948091870290918802A091890229
:10045000B0918A0226B5A89B05C02F3F19F00196DE
:10046000A11DB11D3FBFBA2FA92F982F8827BC010E
:10047000CD01620F711D811D911D42E0660F771F36
:10048000881F991F4A95D1F708958F929F92AF9236
:10049000BF92CF92DF92EF92FF924B015C010E94DC
:1004A00020026B017C010E9420026C197D098E09DB
:1004B0009F09683E734081059105A8F321E0821AE7
:1004C0009108A108B10888EEC80E83E0D81EE11C8F
:1004D000F11C81149104A104B10429F7FF90EF905D
:1004E000DF90CF90BF90AF909F908F9008958091B4
:1004F0006F030E946B01892B71F462E370E080E06E
:1005000090E00E94450281E090E090936E0380931A
:100510006D0380E0089580916D0390916E03892BA7
:10052000C1F310926E0310926D0381E00895EF9273
:10053000FF920F931F93CF93DF93809168030E94E4
:100540006B01EC01892B81F58EE5E82E83E0F82E16
:1005500010E000E0F7018081F2E0EF0EF11C0E9454
:100560006B0121E030E0892B11F030E020E0002E1B
:1005700002C0220F331F0A94E2F7C22BD32B0F5F66
:100580001F4F0530110531F7D0936C03C0936B03F7
:1005900081E080935D0362E370E080E090E00E9480
:1005A00045028FEF9FEF0AC080915D038823C9F356
:1005B00010925D0380916B0390916C03DF91CF915A
:1005C0001F910F91FF90EF9008952FB7F8946091CD
:1005D00083027091840280918502909186022FBFE0
:1005E0000895CF92DF92EF92FF920E94E5020E945F
:1005F000971920E030E04AE754E40E94701B6B0139
:100600007C016091590370915A0380915B03909132
:100610005C030E9497199B01AC01C701B6010E94BF
:10062000031BFF90EF90DF90CF9008952091380248
:10063000260F3327331F21323105ECF420915C0261
:10064000FC0190E080E0243069F082E00895A09100
:1006500038022191AC01485E5D4FA40FB52FB11D4A
:100660002C930196861798F380913802680F609357
:10067000380280E0089581E0089510925C0281E0E4
:1006800080935E0210925D0261E082E10E9494011B
:1006900061E083E10E949401E9EBF0E080818E7FCC
:1006A000808380818D7F808388E48093B80085E497
:1006B0008093BC000895CF93DF9391E0909317024D
:1006C0008823B9F0C091B800D091BA008091BC00E5
:1006D0008A7B8093BC0060E082E10E94940160E02C
:1006E00083E10E9494010E943D03D093BA00C0931D
:1006F000B800DF91CF9108950895E0919202809122
:100700009102E81730F4F0E0EE50FE4F808190E067
:1007100008958FEF9FEF089590919202809191023A
:100720002FEF3FEF981748F4E92FF0E0EE50FE4F1F
:10073000208130E09F5F90939202C90108958091DB
:10074000910290919202891B990B0895CF92DF92AA
:10075000EF92FF920F931F93CF93DF937C01CB0116
:100760008A012091F101222389F0EB016B01C40E73
:10077000D51ECC15DD0569F06991D701ED91FC918D
:100780000190F081E02DC7010995F3CF642F0E94FD
:100790001603C801DF91CF911F910F91FF90EF9049
:1007A000DF90CF900895CF93DF931F92CDB7DEB740
:1007B00069832091F1012223F9F020918F022032E8
:1007C00058F021E030E0FC013383228390E080E0A8
:1007D0000F90DF91CF91089580919002E82FF0E083
:1007E000EF52FE4F998190838F5F809390028093A8
:1007F0008F0281E090E0ECCF61E0CE0101960E9493
:100800001603F7CFCF92DF92EF92FF920F931F93D1
:10081000CF93DF93FC01C48121E02093F101C093C9
:10082000D0011092900210928F028385682B83E989
:1008300092E00E94D303D0918F02D13208F092C08F
:100840000E9420026B017C0180915C02811165C0D5
:1008500082E080935C0281E080935E028FEF809360
:100860005B0210928002D0937F02A1EDB1E0EFE530
:10087000F2E080E0D81385C010928102809181025D
:10088000CC0FC82BC093810280915D02813009F0AA
:100890007CC010925D020E9420026B017C0180915D
:1008A00081028093BB008091130290911402A09169
:1008B0001502B0911602892B8A2B8B2B99F00E947E
:1008C0002002009113021091140220911502309120
:1008D00016026C197D098E099F090617170728074C
:1008E0003907E0F18091BC0083FDD9CF85EC80937E
:1008F000BC000E9420026B017C0180915C0282306E
:1009000009F445C080915B028F3F61F180915B02E9
:10091000803241F180915B0225C080911302909159
:100920001402A0911502B0911602892B8A2B8B2BF1
:1009300009F48ACF0E942002009113021091140240
:1009400020911502309116026C197D098E099F09BC
:10095000061717072807390708F076CF809112028B
:100960000E945B031092900210928F021092F1018C
:10097000DF91CF911F910F91FF90EF90DF90CF907B
:1009800008959D9191938F5F75CF85EEB0CF809143
:10099000130290911402A0911502B0911602892BB6
:1009A0008A2B8B2B09F4A9CF0E94200200911302FD
:1009B0001091140220911502309116026C197D09D4
:1009C0008E099F09061717072807390708F095CFE2
:1009D000C5CF089590E080E00895EF92FF920F93C5
:1009E0001F93CF93DF937C018C01C4E1D0E0CE0153
:1009F0000E94B61AF80181938F012196C43BD1055C
:100A0000B1F7C701DF91CF911F910F91FF90EF9048
:100A100008950F931F93CF93DF930FE413E0D0E07B
:100A2000C0E0CE010E94B61AF80181938F01219691
:100A3000C830D105B1F78FE493E0DF91CF911F91DA
:100A40000F910895FF920F931F93CF93DF930FE4BD
:100A500013E0D0E0C0E0F801F1908F01CE010E94D8
:100A6000B61AF81621F06F2DCE010E94BE1A2196FB
:100A7000C830D10581F78FE493E0DF91CF911F91CA
:100A80000F91FF900895DF92EF92FF920F931F93C3
:100A9000CF93DF937C018C01C4E1D0E0F801D190C9
:100AA0008F01CE010E94B61AD81621F06D2DCE010D
:100AB0000E94BE1A2196C43BD10581F7C701DF9180
:100AC000CF911F910F91FF90EF90DF9008958F923B
:100AD0009F92AF92BF92CF92DF92EF92FF92CF930D
:100AE000DF936B017C0149015A01AC019B016091CC
:100AF0004F037091500380915103909152030E94D3
:100B0000041B60934F0370935003809351039093A1
:100B10005203A70196016091530370915403809191
:100B20005503909156030E94041B609353037093E6
:100B3000540380935503909356030E9422050E940C
:100B4000090580919F029091A0022AE0289FE00170
:100B5000299FD00D1124C156DD4F2E893F89488D24
:100B6000598DC501B4010E94041B6B017C0120E07A
:100B700030E04AE754E40E94111C87FF16C0CE8A79
:100B8000DF8AE88EF98E8FEA92E00E9443058FEAB1
:100B900092E0DF91CF91FF90EF90DF90CF90BF90E8
:100BA000AF909F908F900C94ED0420E030E04AE7E6
:100BB00054E4C701B6010E94031B6E8B7F8B888FA4
:100BC000998FE1CFFC0101900020E9F73197AF0147
:100BD000481B590BBC018EE793E00C940C018F92DB
:100BE0009F92AF92BF920F931F93CF93DF93CDB796
:100BF000DEB7A1970FB6F894DEBF0FBECDBF19A226
:100C0000423008F44AE08E010F5D1F4F842E912C74
:100C1000B12CA12CA50194010E941B1CE62FB90147
:100C2000CA01EA30F4F4E05DD801EE938D01232B84
:100C3000242B252B79F790E080E0109719F0CD0157
:100C40000E94E205A1960FB6F894DEBF0FBECDBF9D
:100C5000DF91CF911F910F91BF90AF909F908F9098
:100C60000895E95CE1CF0F931F93CF938C01C62FBA
:100C70000E9402046C2F6460C8010E9402046C2F61
:100C80006B7FC8010E94020483EC90E00197F1F7AA
:100C9000CF911F910F9108950F931F93CF93DF93DF
:100CA0008C01D62FC42F607F642B0E94330680E115
:100CB000D89FB00111246C2BC801DF91CF911F91F7
:100CC0000F910C94330640E061E08EE793E00E94C0
:100CD0004C068BE39FE10197F1F70895CF93DF93E3
:100CE000EC010E94C201D0935803C09357030E94A5
:100CF000E5020E94971920E030E04AE754E40E94A0
:100D0000701B0E94E21B6093590370935A038093F7
:100D10005B0390935C030E94630681E080938A03E7
:100D20001092090410920A0410920B0410920C0401
:100D3000DF91CF910895CF93DF93CDB7DEB728979A
:100D40000FB6F894DEBF0FBECDBF98E0E6E0F1E04D
:100D5000DE01119601900D929A95E1F7909186032C
:100D6000961710F46FEF690F262F30E0220F331F14
:100D700041E050E04C0F5D1F240F351FF9016081E9
:100D8000680F606840E08EE793E028960FB6F8940D
:100D9000DEBF0FBECDBFDF91CF910C944C0641E07A
:100DA0000E944C0681E090E00895CF92DF92EF928E
:100DB000FF920F931F93CF93DF93CDB7DEB7C0544D
:100DC000D1090FB6F894DEBF0FBECDBFFE01379636
:100DD0008AE3DF011D928A95E9F722E0298396E0F4
:100DE0009A838EE08B835EE15C838D839E832F8369
:100DF00018E019879CE09A878B873FE03C878D87B6
:100E00009E871F873BE13A8B8B8B94E09C8B8D8B6D
:100E10003E8B31E03A8F33E03B8F46E14C8F3CE133
:100E20003D8F1E8F29A39AA39BA31CA31DA332E170
:100E30003EA35FA329A79AA71BA78CA72DA79EA7B0
:100E40001FA739AB3AAB24E12BAB2CAB28E12DAB80
:100E500029E12EAB4FAB99AF8AAF8BAF8CAF8FE14F
:100E60008DAF9FAF10929202109291021092900259
:100E700010928F020E943D038AE091E090938E02CF
:100E800080938D028BE091E090938C0280938B0293
:100E90001092830380918803823010F010938303B3
:100EA0008093860362E370E080E090E00E94450258
:100EB000609189038EE793E00E94020468EE73E07C
:100EC00080E090E00E94450260E38EE793E00E949C
:100ED00033060BE416E4C8010197F1F760E38EE7EF
:100EE00093E00E943306C8010197F1F760E38EE7B3
:100EF00093E00E94330683E592E00197F1F760E208
:100F00008EE793E00E94330660918303606240E0C5
:100F10008EE793E00E944C0684E08093840340E0D7
:100F20006CE08EE793E00E944C060E94630682E02C
:100F30008093850340E066E08EE793E00E944C06D4
:100F400040E062E08EE793E00E944C068BE39FE175
:100F50000197F1F7FE0131967F0110E040E0612F2B
:100F600060648EE793E00E944C066701F8E0CF0EC4
:100F7000D11CD7016D917D018EE793E00E94CF06D1
:100F8000EC14FD04B1F7185F103441F788E080934A
:100F9000890360E08EE793E0C05CDF4F0FB6F89402
:100FA000DEBF0FBECDBFDF91CF911F910F91FF909C
:100FB000EF90DF90CF900C94020441E0682F8EE711
:100FC00093E00E944C0681E090E00895CF93DF9378
:100FD000D82FC4E063E08D2F0E949B068C2F0E94C7
:100FE000DD07DF5FCF5FC730A9F7DF91CF910895AD
:100FF000CF92DF92EF92FF92CF93DF936C01990F24
:10100000EE08FF08F7FE17C08DE20E94DD07EC0135
:1010100066277727CB016C197D098E099F094AE065
:101020000E94EF058C0F9D1FDF91CF91FF90EF90F5
:10103000DF90CF9008954AE0C701B601DF91CF91CC
:10104000FF90EF90DF90CF900C94EF054F925F925E
:101050006F927F928F929F92AF92BF92CF92DF92C8
:10106000EF92FF920F931F93CF936B017C01742E2D
:10107000AC019B010E94161C882399F08CE291E040
:10108000CF911F910F91FF90EF90DF90CF90BF9085
:10109000AF909F908F907F906F905F904F900C9447
:1010A000E20546015701E894B7F82FEF3FEF4FE70D
:1010B0005FE7C501B4010E94161C81110DC02FEF1E
:1010C0003FEF4FE75FE7C501B4010E949219181680
:1010D0001CF480E391E0D4CF2FEF3FEF4FE75FE4C4
:1010E000C701B6010E94111C18161CF484E391E09C
:1010F000C7CF2FEF3FEF4FE75FECC701B6010E946C
:10110000921987FDF3CF20E030E0A901C701B601B5
:101110000E94921910E000E087FF08C08DE20E9453
:10112000DD078C01F7FAF094F7F8F094C0E060E086
:1011300070E080E09FE37C1641F020E030E040E288
:1011400051E40E94701BCF5FF6CFA70196010E9469
:10115000041B2B013C010E94E21B4B015C014AE095
:101160000E94EF057C01E00EF11ECC23B1F1C50118
:10117000B4010E9497199B01AC01C301B2010E9406
:10118000031B4B015C018EE20E94DD07E80EF91E95
:10119000C15018F120E030E040E251E4C501B40153
:1011A0000E94F8192B013C010E94E21B4B01B12C5B
:1011B000A12C4AE0C501B4010E94EF05E80EF91E1A
:1011C000C501B4010E9497199B01AC01C301B20192
:1011D0000E94031B4B015C01DBCFC701CF911F9124
:1011E0000F91FF90EF90DF90CF90BF90AF909F90C6
:1011F0008F907F906F905F904F9008950F931F9303
:10120000CF93DF93EC0188819981009759F02A816F
:101210003B812617370730F081E0DF91CF911F9196
:101220000F9108958B016F5F7F4F0E94681D00979B
:1012300059F0998388831B830A832C813D81232B5A
:1012400059F7FC011082E8CF80E0E7CFEF92FF92E0
:101250000F931F93CF93DF936115710541F480E0E5
:10126000DF91CF911F910F91FF90EF90089541155D
:101270005105B1F07B01EC010C811D81040F151F9C
:10128000B8010E94FE08882351F3288139818C819E
:101290009D81B701820F931F0E942E1E1D830C8318
:1012A00081E0DECFCF93DF93EC01888199810097B5
:1012B00011F00E94DF1C198218821D821C821B8281
:1012C0001A82DF91CF910895EF92FF920F931F93AF
:1012D000CF93DF93CDB7DEB764970FB6F894DEBF38
:1012E0000FBECDBF7C01CB01BA018E010F5F1F4F36
:1012F00022E044E00E940817FC0101900020E9F779
:101300003197AF01481B590BBC01C7010E94260948
:10131000811103C0C7010E945209C70164960FB62C
:10132000F894DEBF0FBECDBFDF91CF911F910F911B
:10133000FF90EF900895EF92FF920F931F93CF933A
:10134000DF93CDB7DEB728970FB6F894DEBF0FBE98
:10135000CDBF7C01CB014AE08E010F5F1F4FB8016A
:101360000E942617F80101900020E9F73197AF019C
:10137000401B510BB801C7010E942609811103C00F
:10138000C7010E945209C70128960FB6F894DEBF24
:101390000FBECDBFDF91CF911F910F91FF90EF90C6
:1013A0000895CF93DF93EC01FB0144815581608167
:1013B00071810E942609811103C0CE010E94520949
:1013C000CE01DF91CF910895EF92FF920F931F937B
:1013D000CF93DF93EC017B018A01BA010E94FE08E2
:1013E00081110BC0CE010E945209CE01DF91CF9135
:1013F0001F910F91FF90EF9008951D830C83B7010B
:10140000888199810E942E1EF0CFEF92FF920F9358
:101410001F93CF93DF93CDB7DEB762970FB6F894E3
:10142000DEBF0FBECDBF8C01CB01F801118210824F
:1014300013821282158214824AE09E012F5F3F4F71
:101440007901B9010E942617F70101900020E9F700
:101450003197AF014E195F09B701C8010E94E40935
:1014600062960FB6F894DEBF0FBECDBFDF91CF916D
:101470001F910F91FF90EF900895FB01DC011196F1
:101480001C921E9213961C921E92129715961C92F5
:101490001E9214978617970749F060817181611534
:1014A000710521F0448155810C94E4090895FC01F3
:1014B00080819181009711F00C94DF1C08954F9268
:1014C0005F926F927F928F929F92AF92BF92CF92D4
:1014D000DF92EF920F931F93CF93DF93CDB7DEB7D9
:1014E00028970FB6F894DEBF0FBECDBF6C012A015E
:1014F0003B01480159010E94630660E080E00E94C0
:101500009B0669EA73E0CE0101960E943D0A61E9FB
:1015100073E0CE0101960E94D1096DEC73E00E9448
:10152000D10961E070E00E949B098C011F8218863E
:1015300041E050E0BE01695F7F4F0E9426098111A2
:1015400003C0C8010E9452096DEC73E0C8010E94FB
:10155000D109B6010E949B096DEC73E00E94D1098C
:101560008C0181E08F83188641E050E0BE01695F05
:101570007F4FC8010E942609811103C0C8010E9443
:10158000520962E070E0C8010E949B096DEC73E0B3
:101590000E94D1090E943901CE0101960E94570A8A
:1015A00061E080E00E949B06EE2009F47CC065EEBD
:1015B00073E0CE0101960E943D0A61E973E0CE011D
:1015C00001960E94D1096DEC73E00E94D1096BE88D
:1015D00073E00E94D109B301A2010E9464090E9434
:1015E0003901CE0101960E94570A62E080E00E9414
:1015F0009B0663E070E0CE0101960E94050A61E956
:1016000073E0CE0101960E94D1096DEC73E00E9457
:10161000D10965EB73E00E94D1090E943901CE0126
:1016200001960E94570AEE2011F163E080E00E94CB
:101630009B0664E070E0CE0101960E94050A61E914
:1016400073E0CE0101960E94D1096DEC73E00E9417
:10165000D1096BE873E00E94D10970E060E00E945C
:101660009B090E943901CE0101960E94570A81E12F
:1016700090E00E94E60710928A0328960FB6F8942D
:10168000DEBF0FBECDBFDF91CF911F910F91EF90C5
:10169000DF90CF90BF90AF909F908F907F906F9092
:1016A0005F904F9008956BEE73E0CE0101960E941B
:1016B0003D0A61E973E0CE0101960E94D1096DEC0B
:1016C00073E00E94D109B501A40187CFAF92BF9208
:1016D000CF92DF92EF92FF921F93CF93DF9300D0D0
:1016E00000D000D0CDB7DEB75C016A017B01122FBC
:1016F00060E080E00E949B0689EA93E00E94390145
:1017000060E08CE00E949B068FEA93E00E94390122
:1017100061E083E00E949B06C5010E94F80761E03A
:101720008DE00E949B0642E0C701B6010E94260898
:1017300062E080E00E949B0663ED73E0CE010196BB
:101740000E943D0A6DEC73E0CE0101960E94D10922
:101750000E943901CE0101960E94570A89ED93E05B
:10176000111102C08FED93E00E94390181E190E0F8
:101770000E94E60710928A0326960FB6F894DEBF01
:101780000FBECDBFDF91CF911F91FF90EF90DF9003
:10179000CF90BF90AF90089585ED8093BC0080916D
:1017A000130290911402A0911502B09116020796AF
:1017B000A11DB11D23E0B695A795979587952A950C
:1017C000D1F72091BC0024FD03C010925C02089563
:1017D000409113025091140260911502709116020B
:1017E000452B462B472B69F30097A105B10541F026
:1017F00025E32A95F1F700000197A109B109E1CF8E
:10180000809112020C945B031F920F920FB60F92FD
:1018100011242F933F938F939F93AF93BF93809106
:10182000830290918402A0918502B091860230914A
:10183000820223E0230F2D3758F50196A11DB11D1B
:10184000209382028093830290938402A093850266
:10185000B09386028091870290918802A0918902BC
:10186000B0918A020196A11DB11D809387029093C9
:101870008802A0938902B0938A02BF91AF919F9191
:101880008F913F912F910F900FBE0F901F90189541
:1018900026E8230F0296A11DB11DD2CF1F920F92F1
:1018A0000FB60F9211242F933F934F935F936F9333
:1018B0007F938F939F93AF93BF93EF93FF93809109
:1018C000B900887F803609F44AC0F0F5883209F4FF
:1018D000A7C018F5803109F49BC0B8F4882309F437
:1018E000F9C0883009F494C0FF91EF91BF91AF9196
:1018F0009F918F917F916F915F914F913F912F9128
:101900000F900FBE0F901F901895883109F488C072
:10191000803251F780935B0214C0803409F49DC07B
:1019200040F48033B9F38833F9F680935B0285EC99
:10193000B0C0803509F485C0883509F496C0883474
:1019400099F60E94CC0BD0CF883909F48CC038F5B9
:10195000883729F050F4883611F0803729F683E073
:1019600080935C0210925A0257C0883809F47BC0F9
:10197000803919F0803809F0B7CF80915A0280324F
:1019800008F071C0E0915A0281E08E0F80935A02F4
:101990008091BB00F0E0E65CFD4F80833DC0803B62
:1019A00039F0E0F4803A09F479C0883A09F09CCF24
:1019B00084E080935C021092390210923802E09128
:1019C0008D02F0918E0209958091380281110FC02D
:1019D00081E0809338021092180209C0803C09F41B
:1019E000A6CF883C09F4A3CF883B09F07DCFE091D6
:1019F000390281E08E0F80933902F0E0E85EFD4FFE
:101A000080818093BB00909139028091380229C077
:101A1000809181028093BB0085EC8093BC0064CFF1
:101A20009091800280917F02981758F5E091800292
:101A300081E08E0F80938002F0E0E15AFD4F8081BB
:101A4000E9CFE091800281E08E0F80938002809147
:101A5000BB00F0E0E15AFD4F8083909180028091BD
:101A60007F029817C8F285E8D8CFE091800281E024
:101A70008E0F809380028091BB00F0E0E15AFD4F11
:101A8000808380915E0281115CCF81E080935D0252
:101A900084EA8093BC0010925C0226CF85EC809390
:101AA000BC0010925C0280915A02803230F4E091C6
:101AB0005A02F0E0E65CFD4F108260915A0270E03D
:101AC000E0918B02F0918C028AE392E009951092EA
:101AD0005A020ACF10925B0234CFFC0111821082AD
:101AE0001382128215821482FB0101900020E9F713
:101AF0003197AF01461B570B0C94E409E3E9F2E080
:101B00001382128288EE93E0A0E0B0E08483958394
:101B1000A683B78382E191E091838083EFE9F2E0CD
:101B20008FEF9FEF91838083178210861186128634
:101B300013861486158616861786109258031092FF
:101B400057030E94E5026093590370935A038093F0
:101B50005B0390935C0310925D0310926C031092F0
:101B60006B0310926E0310926D031092810310921A
:101B7000800384E291E090937F0380937E0387E269
:101B80008093820384E18093870384E080938803B9
:101B90001092890381E080938A0368E371E08BE807
:101BA00093E00E946D0D6AE371E081E993E00E9489
:101BB0006D0D6CE371E087E993E00E946D0D68E4C0
:101BC00071E08DE993E00E946D0D6EE471E083EAAF
:101BD00093E00E946D0D65E571E089EA93E00E9453
:101BE0006D0D6EE571E08FEA93E00E946D0D65E684
:101BF00071E085EB93E00E946D0D6BE671E08BEB7D
:101C000093E00E946D0D60E771E081EC93E00E942B
:101C10006D0D63E771E087EC93E00E946D0D6EE758
:101C200071E08DEC93E00E946D0D60E871E083ED52
:101C300093E00E946D0D6BE871E089ED93E00E94E6
:101C40006D0D63E971E08FED93E00E946D0D69E920
:101C500071E085EE93E00E946D0D60EA71E08BEE1D
:101C600093E00E946D0D60E771E081EF93E00E94C8
:101C70006D0D68EA71E087EF93E00E946D0D6CEAEC
:101C800071E08DEF93E00E946D0D63EB71E083E0F6
:101C900094E00E946D0D10920D0488E0E5EBF1E0F8
:101CA000AEE0B4E001900D928A95E1F7109217042E
:101CB00010921604109218041092190410921A042B
:101CC00010921B0410921C040895CF93DF93CDB79C
:101CD000DEB72A970FB6F894DEBF0FBECDBF78945B
:101CE00084B5826084BD84B5816084BD85B5826021
:101CF00085BD85B5816085BD80916E0081608093D2
:101D00006E0010928100809181008260809381003A
:101D1000809181008160809381008091800081604A
:101D2000809380008091B10084608093B1008091A5
:101D3000B00081608093B00080917A0084608093CD
:101D40007A0080917A00826080937A0080917A0094
:101D5000816080937A0080917A00806880937A0015
:101D60001092C10080E190E090935F0380935E0346
:101D700081E190E090936103809360038EE090E0B6
:101D800090936303809362038FE090E090936503E8
:101D900080936403109267031092660381E090E0E1
:101DA000909369038093680383E090E090937003BD
:101DB00080936F035EE5E52E53E0F52E0FE912E008
:101DC000F7018081F2E0EF0EF11C62E00E94EF016A
:101DD0002AE6E21623E0F20699F762E080916F03AB
:101DE0000E94EF018AE090E0909372038093710368
:101DF00089E090E0909374038093730388E090E00F
:101E0000909376038093750387E090E09093780336
:101E10008093770386E090E090937A038093790330
:101E200085E090E090937C0380937B0341E7E42E70
:101E300043E0F42EF7018081F2E0EF0EF11C61E047
:101E40000E94EF012DE7E21623E0F20699F70E94C7
:101E5000C2010E9409058FEA92E00E94ED046091A0
:101E60004F037091500380915103909152039B0155
:101E7000AC010E94161CF12C882351F010924F03E4
:101E8000109250031092510310925203FF24F394C6
:101E900060915303709154038091550390915603C0
:101EA0009B01AC010E94161C882369F01092530319
:101EB0001092540310925503109256030E9422056B
:101EC0000E94090502C0F110F9CF9FE3C92E93E0EB
:101ED000D92EF12CAA24A394B12C412C512C30E8FA
:101EE000632E3FE3732EF801808991891816190635
:101EF00024F0B18AA08AFF24F394F80162897389DF
:101F0000848995899B01AC010E94161C882339F0B5
:101F1000F801428A538A648A758AFF24F394F8018F
:101F200066897789808D918D9B01AC010E94161C7A
:101F3000882339F0F801168A178A108E118EFF2433
:101F4000F394065F1F4FC016D10669F6FF2041F0DB
:101F50008FEA92E00E9443058FEA92E00E94ED042E
:101F60000E94D50662E082E00E94EF018AE0282EFE
:101F700033243394E0915703F0915803EB30F1058B
:101F800008F09FC0EA53F04F0C943D1CD10FA610EF
:101F90009111FA114613EC13E714D01501164016EF
:101FA000BF1680918A03882371F061E084E00E946B
:101FB0009B0687E993E00E94390181E190E00E944D
:101FC000E60710928A036091A1027091A2028091AB
:101FD000A3029091A40220E030E0A9010E9492198E
:101FE000882321F081E090E00E946E060E94970213
:101FF0009093A00280939F02409720F482E090E0AB
:102000000E946E060E947702882321F084E090E00F
:102010000E946E060E94E5020E94971920E030E0BF
:102020004AE754E40E94701B20E030E040E752E4AD
:102030000E94701B2091190430911A0440911B04D6
:1020400050911C040E94031B20E030E040E752E462
:102050000E94111C87FD18C00E94E5020E9497197A
:1020600020E030E04AE754E40E94701B60931904BA
:1020700070931A0480931B0490931C040E94D5064D
:1020800090E080E00E946E060E94E5020E9497198F
:1020900020E030E04AE754E40E94701B20E030E08A
:1020A00040E752E40E94701B20E030E044EB54E42F
:1020B0000E94111C87FD05C0E0911604F0911704E1
:1020C000099582E00E946B019C018091AA028823FD
:1020D00009F46DC6232B91F10E94E5020091A6023E
:1020E0001091A7022091A8023091A902601B710BE8
:1020F000820B930B0E94971920E030E048E452E4F1
:102100000E94111C1816D4F41092AA026091A10228
:102110007091A2028091A3029091A40220E030E08D
:1021200040E85FE30E94041B6093A1027093A20247
:102130008093A3029093A4023092A50280E090E0E5
:10214000892B09F417CF0E94000014CF8091A502BB
:102150008823C1F030928A030E94E5020E949719F9
:1021600020E030E04AE754E40E94701B0E94E21B2A
:102170006093590370935A0380935B0390935C03BD
:102180001092A502C090A102D090A202E090A302FA
:10219000F090A40280918A03882329F161E085E010
:1021A0000E949B066DE973E0CE0101960E943D0AF4
:1021B00061E973E0CE0101960E94D1090E943901C4
:1021C000CE0101960E94570A61E08CE00E949B06B6
:1021D00042E0C701B6010E94260881E190E00E941A
:1021E000E60710928A030E94F10220E030E046E107
:1021F00054E40E94111C181684F06091A1027091A1
:10220000A2028091A3029091A40220E030E0A901F3
:102210000E94921918160CF446C02091A102309128
:10222000A2024091A3025091A40260914F037091C9
:10223000500380915103909152030E94041B6093BC
:102240004F03709350038093510390935203209156
:10225000A1023091A2024091A3025091A402609188
:1022600053037091540380915503909156030E943B
:10227000041B60935303709354038093550390930E
:1022800056030E9422050E9409051092A102109295
:10229000A2021092A3021092A4023092A50290E032
:1022A00080E00E946E060E9497029C019093A0021B
:1022B00080939F02409708F004CF6091A102709133
:1022C000A2028091A3029091A402229E8001239EEB
:1022D000100D112401561D4FF801228933894489BC
:1022E00055890E94F8196B017C01F8016089718998
:1022F000072E000C880B990B0E9499199B01AC01C9
:10230000C701B6010E94701B6093AB027093AC02D0
:102310008093AD029093AE0283E090E00E946E063F
:10232000D0CE80918A03882381F180919F02909181
:10233000A002289EF001299EF00D1124E156FD4FC8
:102340000089118961E084E00E949B0663EA73E0E2
:10235000CE0101960E943D0A61E973E0CE0101962B
:102360000E94D1090E943901CE0101960E94570AAC
:1023700061E08CE00E949B06C8010E94F80781E1A1
:1023800090E00E94E60710928A030E94F10220E08A
:1023900030E040E251E40E94111C181624F490E051
:1023A00080E00E946E060E9497029093A0028093A4
:1023B0009F02409720F482E090E00E946E066091B8
:1023C000A1027091A2028091A3029091A40220E048
:1023D00030E0A9010E949219882321F081E090E069
:1023E0000E946E060E947702882309F46ACE84E078
:1023F00090E094CF80919F029091A0020E94C7012B
:102400000E94F1022B013C0180919F029091A00259
:10241000289EF001299EF00D1124E156FD4F008900
:102420001189C288D388E488F588B801012E000C90
:10243000880B990B0E9499194B015C01A701960129
:1024400060E070E080E89FE30E94701B9B01AC019C
:10245000C501B4010E94F819A30192010E94F81964
:102460004B015C016091A1027091A2028091A302D4
:102470009091A402A50194010E94031B6F837887A9
:1024800089879A87A7019601C301B2010E94701B38
:102490006B017C0120E030E040E85EE360910904DC
:1024A00070910A0480910B0490910C040E94041B0B
:1024B0009B01AC01C301B2010E94111C87FD0AC03F
:1024C00030928A034092090450920A0460920B04ED
:1024D00070920C0480918A03882309F46FC060E035
:1024E00080E00E949B0663EA73E0CE0101960E94A1
:1024F0003D0A61E973E0CE0101960E94D1096DECBD
:1025000073E00E94D1090E943901CE0101960E9418
:10251000570AC8010E94F80761E080E00E949B060C
:1025200067EC73E0CE0101960E943D0A61E973E019
:10253000CE0101960E94D1096DEC73E00E94D10991
:102540000E943901CE0101960E94570A42E0C7015C
:10255000B6010E9426088DEC93E00E94390162E0EA
:1025600080E00E949B066DE973E0CE0101960E9417
:102570003D0A61E973E0CE0101960E94D1096DEC3C
:1025800073E00E94D1096BE873E00E94D1090E94B8
:102590003901CE0101960E94570A42E06F81788589
:1025A00089859A850E9426088DEC93E00E94390166
:1025B00081E190E00E94E60710928A030E94970250
:1025C0004097E8F50E94C2016091A1027091A202B9
:1025D0008091A3029091A402A50194010E94031B83
:1025E0006093A1027093A2028093A3029093A4022D
:1025F000A7019601C501B4010E9467056091A1027F
:102600007091A2028091A3029091A40220E030E098
:10261000A9010E94921987FF0EC01092A102109288
:10262000A2021092A3021092A4023092A50290E09E
:1026300080E00E946E0681E090E00E946E0620E03D
:1026400030E0A9016F81788589859A850E94921969
:1026500018160CF436CD0E94C2016091A10270914F
:10266000A2028091A3029091A402A70196010E9468
:1026700067051092A1021092A2021092A30210927A
:10268000A4023092A50290E080E048CE80918A03B7
:10269000882309F478C0C0904F03D0905003E09095
:1026A0005103F090520310E000E00F5F1F4F6FEFF7
:1026B000600F80E00E949B06C8010E94F80703306B
:1026C000110599F760E082E00E949B0683EA93E09F
:1026D0000E94390161E082E00E949B068FEA93E04C
:1026E0000E94390162E082E00E949B0685EB93E044
:1026F0000E94390110E0612F88E00E949B068CE760
:102700000E94DD071F5F1430B1F760E089E00E948E
:102710009B066BE873E0CE0101960E943D0AB7016B
:10272000A601CE0101960E9464090E943901CE01E2
:1027300001960E94570A61E089E00E949B0664E0CE
:1027400070E0CE0101960E94050A6DEC73E0CE01A7
:1027500001960E94D1096BEB73E00E94D1090E949F
:102760003901CE0101960E94570A83E090E00E9451
:10277000E60763E089E00E949B068DEB91E00E94F2
:10278000E20510928A030E9497028C01009789F457
:102790001092A00210929F0285E090E00E946E06C7
:1027A0000E94770281116FCF0230110509F089CCA8
:1027B0006ACF8130910539F41092A00210929F02E5
:1027C00086E090E0EBCF039759F71092A0021092A9
:1027D0009F0289E090E0E2CF80919F029091A00259
:1027E00097FF04C01092A00210929F0280918A036A
:1027F000882309F476C0C0909F02D090A0022C9C40
:10280000F0012D9CF00D1124E156FD4FE088F18878
:1028100060E080E00E949B0689EA93E00E94390113
:1028200060E08CE00E949B0683EA93E00E943901FD
:10283000B12C10E000E061E08B2D0E949B06802F00
:1028400081700E94DD0762E08B2D0E949B060F5F66
:102850001F4FC8010E94F807F6E0BF0E28E1B21230
:10286000EACF61E083E00E949B06C60101960E94C8
:10287000F8078DEC93E00E94390161E08EE00E9440
:102880009B06C7010E94F80701E010E0E09EC0012E
:10289000E19E900DF09E900D1124843691055CF41C
:1028A0008DEC93E00E943901C801289E8001299E89
:1028B000100D1124EBCF63E080E00E949B0685E0C1
:1028C00090E00E94F80763E082E00E949B0685EB9F
:1028D00093E00E94390181E190E00E94E6071092A6
:1028E0008A030E9497028C018430910508F04AC047
:1028F00030928A03009769F5809118048111109233
:10290000180480919F029091A002019797FF30C018
:10291000EFE0F0E0F093A002E0939F020E947702C4
:10292000882349F08091180481111092180490E0D6
:1029300080E00E946E060430110509F0C2CB809140
:1029400018048111109218041092A00210929F0294
:102950004ECD0197B9F4809118048111109218049A
:1029600080919F029091A0020196803191052CF4F4
:102970009093A00280939F02D1CF1092A002109258
:102980009F02CCCF0230110509F018C23092180412
:1029900080919F029091A002289EF001299EF00D47
:1029A0001124E156FD4F8089918901971816190667
:1029B0005CF4918B808B8FEA92E00E9443058FEA52
:1029C00092E00E94ED04AACF84E690E0F2CF8091DD
:1029D0009F029091A00297FF04C01092A002109253
:1029E0009F0280918A03882309F49DC000919F0271
:1029F0001091A002209EF001219EF00D1124E156BD
:102A0000FD4FC288D388E488F58860E080E00E94AA
:102A10009B0689EA93E00E94390160E08CE00E9405
:102A20009B068FEA93E00E94390161E080E00E94FA
:102A30009B0680E00E94DD0762E080E00E949B062A
:102A400081E090E00E94F80761E086E00E949B062A
:102A500081E00E94DD0762E086E00E949B0682E042
:102A600090E00E94F80761E083E00E949B06C801A5
:102A700001960E94F8078DEC93E00E94390161E015
:102A80008DE00E949B0642E0C701B6010E94260825
:102A90006DEC73E0CE0101960E943D0A6DEC73E08F
:102AA000CE0101960E94D1090E943901CE01019602
:102AB0000E94570A62E08BE00E949B0663E070E090
:102AC000CE0101960E94050A6DEC73E0CE010196DD
:102AD0000E94D1098C0147E050E068EC71E00E944F
:102AE0002609811103C0C8010E945209C8010E9431
:102AF0003901CE0101960E94570A63E080E00E94EE
:102B00009B0684E090E00E94F80763E082E00E9468
:102B10009B0685EB93E00E94390181E190E00E94E1
:102B2000E60710928A030E94970283309105C8F449
:102B300030928A030097F9F08130910551F5809128
:102B40009F029091A002019680319105ECF01092C5
:102B5000A00210929F020E947702882309F4B1CA52
:102B600092CD8330910541F71092A00210929F02FE
:102B700084E090E012C080919F029091A0020197A2
:102B8000EFE0F0E097FDF6C09093A00280939F02E3
:102B9000E2CF029701F787E090E00E946E06DBCF5C
:102BA00080919F029091A00297FF04C01092A00212
:102BB00010929F0280918A03882399F080919F024E
:102BC0009091A002289EF001299EF00D1124E1565B
:102BD000FD4F428953896489758921E001960E94DD
:102BE000660B0E947702882321F090E080E00E942B
:102BF0006E060E949702409708F063CA88E090E052
:102C00008DCB80919F029091A0020E94C7010E94EB
:102C1000F102AB01BC0130928A0380919F02909136
:102C2000A00220E001960E94660B0E949702409746
:102C3000F8F40E94C20100919F021091A0020E942C
:102C4000F102209EF001219EF00D1124E156FD4F6E
:102C5000628B738B848B958B8FEA92E00E94430585
:102C60008FEA92E00E94ED0486E090E00E946E06FA
:102C70000E947702882309F424CA0E94C20103CD6E
:102C800080919F029091A0028F3F9F4F34F48FEF6D
:102C90009FEF9093A00280939F0280919F0290915A
:102CA000A00220918A0397FF3BC0222389F0409124
:102CB0005303509154036091550370915603EE24D1
:102CC000E39400E010E0980190E080E00E945F0A49
:102CD0000E9497028C018430910560F430928A033F
:102CE000029741F41092A00210929F0284E090E0BB
:102CF0000E946E0680919F029091A00297FF23C0D0
:102D00000330110501F510925303109254031092F1
:102D10005503109256030E9422050E9409051BCFFD
:102D20002223B1F2289EF001299EF00D1124E156D4
:102D3000FD4F06891789208D318DE12C40E050E050
:102D4000BA010196C3CF0115110549F401978F3FD0
:102D5000EFEF9E070CF018CF8FE090E015CF013019
:102D6000110509F0F8CE0196803191050CF40CCFD5
:102D7000EFEFFFEFF093A002E0939F02ECCE809183
:102D80009F029091A00297FF04C01092A00210929F
:102D90009F020E9497028130910509F4E5CE892BAC
:102DA00009F0D9CE30920D0430928A03D4CE91E04E
:102DB000232B09F090E09093AA02C0C903301105BB
:102DC00009F0ACCD3092180480919F029091A0023E
:102DD000289EF001299EF00D1124E156FD4F8089B7
:102DE00091890196853691050CF4E3CD81E090E060
:102DF000E0CDCF93DF93C9E0D4E02697CE010E94C7
:102E0000570A83E0CB38D807C1F7DF91CF910895F7
:102E1000EF920F931F93CF93DF93E80134E047FDC8
:102E200034E1042E000C550B57FF03C0519541951A
:102E30005109E32E022F242FAE010E944B17CE0121
:102E4000DF91CF911F910F91EF900895BB274A30EA
:102E500031F4992322F4BDE2909581959F4F0C9413
:102E60003217BB27FB015527AA27880F991FAA1FD6
:102E7000A41710F0A41B83955051B9F7A05DAA3395
:102E800008F0A95DA193009779F7B111B193119260
:102E9000CB010C948219A9E0B0E0E1E5F7E10C94D4
:102EA000D21A6A01F22EB02E102FFBE3AF2EA0161D
:102EB00008F41BE31F5F012F27E0AE014F5F5F4F58
:102EC0000E94AA18BC018981982F9970913009F449
:102ED0003FC09BE2E1FC04C09E2D9170E0FC3AC033
:102EE0005E2D5071E82FE87083FF46C084E0911199
:102EF00001C083E0EF2DE81B8F1508F0E0E0D6015C
:102F00008E2F20E2552351F1992329F0D6019C936D
:102F1000C60101966C0196012D5F3F4FE2FE24C071
:102F20008EE4D6018C9391E411969C93119712969E
:102F30008C93D9018E2F90E281111BC0E20FF32FE9
:102F4000F11D10828EEF9FEF2996ECE00C94EE1AA3
:102F50009DE2C6CF90E2C4CF2D9381508111FCCF6A
:102F6000CE0ED11CE0E0D0CF8EE6D6018C9391E658
:102F7000DBCF9D938150E0CF482F447082FF3DC04E
:102F800084E0911101C083E08F1510F4EF2DE81B50
:102F9000D6018E2F20E2552309F1992329F0D6017D
:102FA0009C93C60101966C0196012D5F3F4FE2FE96
:102FB0001BC089E4D6018C938EE411968C931197F3
:102FC00086E412968C93D9018E2F90E2882309F41F
:102FD000B5CF9D938150FACF2D9381508111FCCFB5
:102FE000CE0ED11CE0E0D9CF89E6D6018C938EE6D7
:102FF00011968C93119786E6E4CF9B0177FF02C070
:1030000030E020E0A1E0B0E0911102C0B0E0A0E02B
:10301000F9013196AE0FBF1F8B2C912CBB2009F408
:1030200061C05401EFEFAE1ABE0AAA0DBB1DFA161D
:103030001B0619F014F04F2D4A1B511188C0E3FCF8
:1030400059C07601A42FB0E2A1114FC0C40ED11C0B
:10305000992309F45BC040E0D6011196F6019083F4
:103060006D01552309F448C0012F060F9A81582F8E
:10307000507184FF03C0913309F4015010160CF015
:1030800047C0093008F008E0EEE2FE2E5B01A01A0E
:10309000B10885019194819491082F3F320729F45A
:1030A000D601FC92F60131966F016217730794F115
:1030B000021713077CF5DB01A21BB30BAA24A39410
:1030C000B12CAC0EBD1EAA0DBB1D11968C912150CA
:1030D0003109D601119628153905F4F0F6018083DF
:1030E0006D01DBCFB12CA12CA0CFF701B1937F01F3
:1030F000A150AACF9111B0CFD601942F50E302C0B6
:103100005D9391509111FCCFC40ED11C40E0ACCF27
:1031100001E0BACF80E3DBCF6217730731F4963357
:1031200088F4953311F4552369F0F6018083FD018D
:10313000842F90E2811108C0A40FB11D1C9290E071
:1031400080E002CF81E3F1CF91938150F3CF9111D1
:1031500083CF8ACF283008F027E03327DA01990F90
:10316000311D87FD916000966105710539F432606B
:103170002E5F3D9330E32A95E1F708959F3F30F0AD
:1031800080387105610509F03C5F3C5F3D939130EB
:1031900008F08068911DDF93CF931F930F93FF92E8
:1031A000EF92192F987F9695E92F96959695E90FAE
:1031B000FF27EE53FF4F99273327EE24FF24A70163
:1031C000E70105900894079428F4360FE71EF81ECF
:1031D000491F511D660F771F881F991F0694A1F77D
:1031E0000590079428F4E70EF81E491F561FC11DCD
:1031F000770F881F991F661F0694A1F70590079403
:1032000028F4F80E491F561FC71FD11D880F991F9C
:10321000661F771F0694A1F70590079420F4490FC5
:10322000561FC71FD81F990F661F771F881F069448
:10323000A9F784911095177041F0D695C7955795C9
:103240004795F794E7941A95C1F7E8E6F0E068949B
:103250001590159135916591959105907FE2739543
:10326000E118F10A430B560BC90BD009C0F7E10C6A
:10327000F11E431F561FC91FD01D7EF4703311F479
:103280008A95E6CFE894015030F0080F0AF4002741
:10329000021708F4202F2395022F7A3328F079E3C0
:1032A0007D932A95E9F710C07D932A9589F60694B7
:1032B00097956795379517951794E118F10A430B81
:1032C000560BC90BD00998F023957E9173957A33EC
:1032D00008F070E37C932013B8F77E9170617D93C2
:1032E00030F0839571E37D9370E32A95E1F7112423
:1032F000EF90FF900F911F91CF91DF91992787FD5C
:1033000090950895DC01FC01672F71917723E1F717
:10331000329704C07C916D9370836291AE17BF07A2
:10332000C8F308950E94D41908F481E00895E89440
:1033300009C097FB3EF490958095709561957F4FFD
:103340008F4F9F4F9923A9F0F92F96E9BB279395AB
:10335000F695879577956795B795F111F8CFFAF4BB
:10336000BB0F11F460FF1BC06F5F7F4F8F4F9F4FEC
:1033700016C0882311F096E911C0772321F09EE84A
:10338000872F762F05C0662371F096E8862F70E0B0
:1033900060E02AF09A95660F771F881FDAF7880F8A
:1033A0009695879597F90895990F0008550FAA0BE0
:1033B000E0E8FEEF16161706E807F907C0F0121648
:1033C0001306E407F50798F0621B730B840B950B4B
:1033D00039F40A2661F0232B242B252B21F40895A0
:1033E0000A2609F4A140A6958FEF811D811D08953D
:1033F0000E940B1A0C947C1A0E946E1A38F00E94DC
:10340000751A20F0952311F00C94651A0C946B1A20
:1034100011240C94B01A0E948D1A70F3959FC1F379
:10342000950F50E0551F629FF001729FBB27F00D72
:10343000B11D639FAA27F00DB11DAA1F649F6627C7
:10344000B00DA11D661F829F2227B00DA11D621F16
:10345000739FB00DA11D621F839FA00D611D221FD0
:10346000749F3327A00D611D231F849F600D211DB4
:10347000822F762F6A2F11249F5750409AF0F1F037
:1034800088234AF0EE0FFF1FBB1F661F771F881FA0
:1034900091505040A9F79E3F510580F00C94651A59
:1034A0000C94B01A5F3FE4F3983ED4F38695779579
:1034B0006795B795F795E7959F5FC1F7FE2B880F46
:1034C000911D9695879597F9089597F99F6780E8DC
:1034D00070E060E008959FEF80EC089500240A9466
:1034E0001616170618060906089500240A941216DF
:1034F0001306140605060895092E0394000C11F412
:10350000882352F0BB0F40F4BF2B11F460FF04C0BE
:103510006F5F7F4F8F4F9F4F089557FD9058440F17
:10352000551F59F05F3F71F04795880F97FB991F22
:1035300061F09F3F79F087950895121613061406DF
:10354000551FF2CF4695F1DF08C01616170618066C
:10355000991FF1CF86957105610508940895E89447
:10356000BB2766277727CB0197F90895F999FECFF6
:1035700092BD81BDF89A992780B50895262FF999B3
:10358000FECF1FBA92BD81BD20BD0FB6F894FA9A46
:10359000F99A0FBE019608952F923F924F925F9233
:1035A0006F927F928F929F92AF92BF92CF92DF9253
:1035B000EF92FF920F931F93CF93DF93CDB7DEB7B8
:1035C000CA1BDB0B0FB6F894DEBF0FBECDBF09944C
:1035D0002A88398848885F846E847D848C849B84A3
:1035E000AA84B984C884DF80EE80FD800C811B81B1
:1035F000AA81B981CE0FD11D0FB6F894DEBF0FBEE0
:10360000CDBFED0108955058BB27AA270E941B1B70
:103610000C947C1A0E946E1A38F00E94751A20F0E1
:1036200039F49F3F19F426F40C946B1A0EF4E095CC
:10363000E7FB0C94651AE92F0E948D1A58F3BA170C
:10364000620773078407950720F079F4A6F50C94B8
:10365000AF1A0EF4E0950B2EBA2FA02D0B01B90175
:1036600090010C01CA01A0011124FF27591B99F0F8
:10367000593F50F4503E68F11A16F040A22F232F04
:10368000342F4427585FF3CF469537952795A79554
:10369000F0405395C9F77EF41F16BA0B620B730BFB
:1036A000840BBAF09150A1F0FF0FBB1F661F771F6C
:1036B000881FC2F70EC0BA0F621F731F841F48F421
:1036C000879577956795B795F7959E3F08F0B0CFAA
:1036D0009395880F08F09927EE0F97958795089591
:1036E0000E94841B0C947C1A0E94751A58F00E9448
:1036F0006E1A40F029F45F3F29F00C94651A5111BD
:103700000C94B01A0C946B1A0E948D1A68F39923CA
:10371000B1F3552391F3951B550BBB27AA276217CD
:103720007307840738F09F5F5F4F220F331F441FDA
:10373000AA1FA9F335D00E2E3AF0E0E832D091500E
:103740005040E695001CCAF72BD0FE2F29D0660FFB
:10375000771F881FBB1F261737074807AB07B0E83E
:1037600009F0BB0B802DBF01FF2793585F4F3AF044
:103770009E3F510578F00C94651A0C94B01A5F3F87
:10378000E4F3983ED4F3869577956795B795F795CA
:103790009F5FC9F7880F911D9695879597F90895B2
:1037A000E1E0660F771F881FBB1F6217730784074E
:1037B000BA0720F0621B730B840BBA0BEE1F88F75D
:1037C000E09508950E94951A88F09F5798F0B92FB8
:1037D0009927B751B0F0E1F0660F771F881F991F46
:1037E0001AF0BA95C9F714C0B13091F00E94AF1A1F
:1037F000B1E008950C94AF1A672F782F8827B85F2F
:1038000039F0B93FCCF3869577956795B395D9F79D
:103810003EF490958095709561957F4F8F4F9F4FA7
:1038200008950E94D41908F48FEF08950E94D419C6
:10383000880B990B0895A1E21A2EAA1BBB1BFD0150
:103840000DC0AA1FBB1FEE1FFF1FA217B307E4077F
:10385000F50720F0A21BB30BE40BF50B661F771FD7
:10386000881F991F1A9469F76095709580959095B7
:103870009B01AC01BD01CF010895EE0FFF1F059024
:10388000F491E02D09940F931F93CF93DF9382302F
:10389000910510F482E090E0E0911F04F091200483
:1038A00030E020E0B0E0A0E0309799F42115310538
:1038B00009F44AC0281B390B24303105D8F58A8118
:1038C0009B816115710589F1FB0193838283FE0160
:1038D00011C0408151810281138148175907E0F0DE
:1038E0004817590799F4109761F012960C931297A4
:1038F00013961C933296CF01DF91CF911F910F91B8
:10390000089500931F0410932004F4CF211531056E
:1039100051F04217530738F0A901DB019A01BD01AC
:10392000DF01F801C1CFEF01F9CF9093200480931C
:103930001F04CDCFFE01E20FF31F8193919322501C
:10394000310939832883D7CF20911D0430911E047B
:10395000232B41F4209102013091030130931E0486
:1039600020931D04209100013091010121153105A2
:1039700041F42DB73EB74091040150910501241B3D
:10398000350BE0911D04F0911E04E217F307A0F43B
:103990002E1B3F0B2817390778F0AC014E5F5F4FA5
:1039A0002417350748F04E0F5F1F50931E044093B5
:1039B0001D04819391939FCFF0E0E0E09CCFCF93E3
:1039C000DF930097E9F0FC01329713821282A091F5
:1039D0001F04B0912004ED0130E020E01097A1F425
:1039E00020813181820F931F20911D0430911E048C
:1039F0002817390709F061C0F0931E04E0931D04F5
:103A0000DF91CF910895EA01CE17DF07E8F54A81EB
:103A10005B819E0141155105B1F7E901FB83EA8302
:103A200049915991C40FD51FEC17FD0761F48081AE
:103A300091810296840F951FE90199838883828181
:103A400093819B838A83F0E0E0E012968D919C91B4
:103A500013970097B9F52D913C911197CD010296DE
:103A6000820F931F20911D0430911E0428173907DF
:103A700039F6309751F51092200410921F04B0933C
:103A80001E04A0931D04BCCFD383C2834081518107
:103A9000840F951FC817D90761F44E5F5F4F888167
:103AA0009981480F591F518340838A819B81938359
:103AB00082832115310509F0B0CFF0932004E09303
:103AC0001F049ECFFD01DC01C0CF13821282D7CF2D
:103AD000B0E0A0E0EEE6FDE10C94CE1A8C01009778
:103AE00051F4CB010E94431C8C01C801CDB7DEB755
:103AF000E0E10C94EA1AFC01E60FF71F9C0122504A
:103B00003109E217F30708F49DC0D901CD91DC918A
:103B10001197C617D70798F0C530D10530F3CE01FD
:103B200004978617970708F3C61BD70B2297C193F4
:103B3000D1936D937C93CF010E94DF1CD6CF5B01A4
:103B4000AC1ABD0A4C018C0E9D1EA0911F04B091B1
:103B50002004512C412CF12CE12C109731F580914F
:103B60001D0490911E048815990509F05CC0461645
:103B7000570608F058C0809100019091010100970C
:103B800041F48DB79EB74091040150910501841B0B
:103B9000950BE817F90708F055C0F0931E04E09361
:103BA0001D04F90171836083A0CF8D919C911197C1
:103BB00012966C90129713967C901397A815B905DE
:103BC00059F56C0142E0C40ED11CCA14DB0420F18B
:103BD000AC014A195B09DA011296159780F06282EE
:103BE000738251834083D9016D937C93E114F10476
:103BF00071F0D7011396FC93EE93129776CF22962D
:103C00008C0F9D1FF90191838083F301EFCFF09317
:103C10002004E0931F0469CF4816590608F42C01CC
:103C20007D01D3019ACFCB010E94431C7C010097F8
:103C300049F0AE01B8010E94251EC8010E94DF1C98
:103C4000870153CF10E000E050CFFB01DC0102C040
:103C500001900D9241505040D8F70895FB01DC01CE
:103C600001900D920020E1F7089510E0CFEDD0E033
:103C700004C0FE010E943D1C2196C03ED107C9F739
:043C8000F894FFCFE6
:103C840000002104800000004000140054000000E3
:103C94000000D303A603EA047C039F038C037D0383
:103CA40000000000CF060C01EA04E9046E616E0016
:103CB400696E66006F76660024003A004249454EFC
:103CC40056454E49444F530053414C444F005052C3
:103CD4004543494F0050524F445543544F005449B3
:103CE400454D504F0053414C495200494E464F00F8
:103CF4005344004445535041434841444F0020003D
:103D0400424F544F4E205041524100494E4943497D
:103D140041520050415241520056454E54415300C5
:103D2400434F4E53554D4F005B205D005052554557
:103D34004241002C006C6F672E63737600534B472F
:103D44006164692E636F6D0043414D4249415200E5
:00000001FF
