:0400000031EF00F0EC
:100008005282E1CF48F0E2CF49F0D9CF4AF0DACFB7
:100018004BF0F3CF4CF0F4CF4DF0F6CF4EF0F7CFD6
:100028004FF0F8CF50F0F5CF51F071EC03F051C01C
:10003800F5FF50C0F8FF4FC0F7FF4EC0F6FF4DC0A8
:10004800F4FF4CC0F3FF4BC0DAFF4AC0D9FF49C0E8
:0E005800E2FF48C0E1FF52921100F4EF0AF0FF
:1003000000C27C480509024300020100C032090412
:100310000000010202010005240010010424020271
:1003200005240600010524010001070581030800DA
:100330000209040100020A00000007050202400051
:1003400000070582024000003403430044004300DC
:100350002000520053002D003200330032002000F4
:1003600045006D0075006C006100740069006F004D
:100370006E002000440065006D006F0034034D00E6
:100380006900630072006F0063006800690070001C
:10039000200054006500630068006E006F006C0070
:1003A0006F0067007900200049006E0063002E0096
:1003B0001201000202000008D8040A000001010234
:1003C000000104030904474C4F42414C5F434F5521
:1003D0004E54455220697320706C616365642061DE
:1003E0007420307830303331303030320A0D000034
:1003F000020132050BE130511F0B08E10C8E030E98
:10040000311903E1010E256E01D0256A3251D8A4BD
:10041000120030511F0B020AD8A4120034510F0BE6
:10042000D8B4120034510F0B3E6E030E3E60030C25
:10043000200E00018119D8A412000C8E020134BFD5
:1004400007D034510F0B84EC05F08BD8700F06D019
:1004500034510F0B8AEC05F084D8730FD96EDA6A29
:10046000DF50426E42B003D0FB0E431602D0040EA2
:100470004312445034BF03D07DD8600F02D07AD8E5
:100480000F0FD96EDA6A43C0DEFF44C0DDFF030EF2
:10049000311914E156D8DFAE0BD034BF03D06FD87A
:1004A000700F02D06CD8730FD96EDA6A0001DF8248
:1004B00048D8000EDB8445D8DB8E000C040E431AAE
:1004C00044503FD8DFAE0AD03CD87F0EDF1639D873
:1004D000000EDB8C3BD8D7EC09F003D032D8000EED
:1004E000DB8C040E431A445042B203D02AD8DFAE4C
:1004F00013D0020134BF03D042D8700F02D03FD8CE
:10050000730FD96EDA6A0001DF921BD83B0EDF163B
:100510001DD8D7EC09F003D014D83B0EDF1602012A
:1005200034510F0B3E6E3F6A530E3E24406E0F0E49
:100530003F20416E40C0D9FF41C0DAFFFE0EDF16FA
:10054000FE0C43C0D9FF44C0DAFF1200376A050E23
:10055000366E43C038F044C039F03B6A020E3A6E42
:10056000020CDECF43F0DDCF44F034510F0B3E6E72
:100570003E50120034510F0B020DF3501200345153
:100580000F0B3E6E3E501200200E0001816101D023
:10059000200C64B21200010E48EC0DF0E8060CE1EC
:1005A0007F510BE1805109E1B80E936F946B3FECE2
:1005B0000AF0010E7F6F01D07F6B805102E0F1EFF6
:1005C00003F0400E9C6F010E9D6F400E9E6FB8ECC5
:1005D00008F0B36FB46B70D0EC0E7DD83FEC0AF02E
:1005E0006AD0020EAB6FAC6B310EAD6F000EAE6B0E
:1005F00091EC0BF0ABC099F0ACC09AF0ADC09BF0A1
:10060000AEC09CF0D5EC0BF0B751AB6FAC6BAD6BE3
:10061000AE6BC60E60D83FEC0AF0ABC097F0ACC032
:1006200098F0ADC099F0AEC09AF09B6B6EEC0AF0FA
:1006300077EC0DF00001B72B390EB7653CD0300ECA
:10064000B76F39D0020EAF6FB06B310EB16F000EC5
:10065000B26B91EC0BF0AFC099F0B0C09AF0B1C0A2
:100660009BF0B2C09CF0D5EC0BF0000E996F01EC42
:1006700006F099C0AFF09AC0B0F09BC0B1F09CC03A
:10068000B2F077EC0DF0000E0001B425D96EDA6AF5
:10069000010EDA22AFC0DFFF0ED0400EB425D96EB6
:1006A000DA6A010EDA22DF500A0A96E0070A94E0BD
:1006B0004C0A97E0C7D7B42BB351B45DEEE3B35106
:1006C00008E0000E936F010E946FB3C095F02CEC10
:1006D0000DF0F1EF03F0936F9351D8A4030E946FD4
:1006E00012000001810507E164BA05D0626A6080EA
:1006F0006088020E816F62B460A403D06294EFEC54
:100700000CF064A202D0A194120062B060A006D0E6
:100710006DEC04F0A084040E816F629062B860A852
:1007200002D0DEEC0CF062AC13D060AC07D0376ABC
:10073000730E366E386A50D8D7EC09F0629C3AECEA
:100740000DF0215001E02106215002E1F3EC08F008
:1007500062BA60AA02D028EC0CF062B260A209D0A2
:100760007F0E376E3668386A37D8D7EC09F00F013C
:100770005F6B040E0001816102D0A194040C60A69D
:1007800029D0476A62A626D063CF28F02830E83205
:10079000E8320F0B236E629628B403D02350700FFB
:1007A00002D02350730FD96EDA6A0001DF70235034
:1007B00003E167EC09F00AD0376A720E366E280E34
:1007C000386E396A3B6A3A6AD7EC09F0472A030E59
:1007D0004764D8D7A1941200396A3B6A010E3A6E79
:1007E000010CA0947651771108E076C0D9FF77C04C
:1007F000DAFFDFAE02D0A0841200030E801901E1FF
:10080000806B805102E1A0841200020E80190DE17C
:10081000010E936F000E946F956F966F020E43EC6E
:1008200005F056D8030E806F3ED080053CE1400EA7
:100830001B6402D09D6F02D01BC09DF09D511B5EBA
:10084000400E6A6F020E6B6F9DC09CF07C510AE0F7
:1008500015D02BD8F76403D00800F55002D027EC50
:1008600005F02ED89C510CE0F4D71FD8F76403D0C4
:100870000800F55002D027EC05F022D89C51F5E194
:100880001B5006E1400E9D19020ED8A4030E806F86
:10089000010E936F400E946F020E956F9DC096F0FF
:1008A00043EC05F015D8A08412006DC0F6FF6EC0B1
:1008B000F7FFF86A6AC0D9FF6BC0DAFF020E1200B8
:1008C000DF6E00016A4B6B2B6D4B6E2B9C07120089
:1008D00093C076F094C077F012005CD84FEC07F02C
:1008E000C9EC0CF020EC0CF0326A325047D8322AB6
:1008F0000B0E3264FAD72ED8326A32508AEC05F0E9
:10090000DE6ADD6A325084EC05F0DE6ADD6A325060
:100910004CD8325045D8322A020E3264EED7080E37
:1009200000D00F6E020E106E160E0F01536F020EE6
:100930000201036F300E026F080E016F040E006F8C
:10094000008F296A0001666B676B686B696B7D6B52
:10095000816B1200648C0F015C6B6498649C6296DE
:100960000C6A046A056A066A62B6F9D7010E1F6E40
:100970001E6E1D6A00017E6B246A1200040D000EBB
:10098000F324D96E020EF420DA6EDE6ADE6ADE6AC5
:10099000DD6A1200A0940F015F6B626A536B120054
:1009A000700FD96EDA6ADF6A1200730FD96EDA6AD5
:1009B000DF6A1200800E02013019D8A41200C00EA6
:1009C0000C6E3DD0B00E096E0950D8A4030E0A6E0D
:1009D0000E6A120E0D6E120C325116E13251040FD6
:1009E00048D8020E3AD8F76403D00800F55001D079
:1009F0002ED80D6E030E31D8F76403D00800F550E1
:100A000001D025D80E6E12000C6A1200030E32615E
:100A100012D03251010F2DD809C0F6FF0AC0F7FFDE
:100A2000F86A020EF76403D00800F55001D00FD821
:100A30000D6E0E6A12000C6A12000C6A120033511D
:100A4000010AC0E0030AC8E0010AE0E0F6D7F6CFE9
:100A5000E1FFF7CFE2FFE750120009242A6E000EF3
:100A60000A202B6E2AC0F6FF2BC0F7FFF86A020E91
:100A700012002A6E2AC0F6FF030EF76E0900F5CFAA
:100A800009F00A6E1200996F0001935104E0995128
:100A9000A7EC06F003D09951B0EC06F0D96EDA6AF3
:100AA000DECF9AF0DDCF9BF09A519B1103E1936B5F
:100AB000946B120020EE02F042D894C0DEFF95C085
:100AC000DDFF20EE01F03BD896C0DFFF33D8400EAB
:100AD000DF1630D8000EDB862DD8DB8E935105E073
:100AE000995118D81DD80F0F04D099510DD818D886
:100AF000600FD96EDA6A97C0DEFF98C0DDFF9AC03A
:100B000093F09BC094F01200020DF350600FD96E69
:100B1000DA6A1200020DF3500F0FD96EDA6A120072
:100B2000DECF97F0DDCF98F0040E971B9951020DA0
:100B3000F35012009AC0D9FF9BC0DAFF12009A51FD
:100B4000D9269B51DA22120020EE01F025EC09F0A3
:100B5000DF502B6E2B50055C000E065802E205C0DC
:100B60002BF02B50055E000E065A2A6A0AD0380E6A
:100B70002A2442D80150E16EE26ADFCFE7FF012A62
:100B80002A2A2B502A5CF3E30550061014E020EECD
:100B900001F01BD81FD819D8380E2AEC09F03DEC0B
:100BA0000CF0DFBC04D023D8480E19D8000C1FD895
:100BB000080E15D8000C94EC07F0040E10D8049E13
:100BC0002050D8B4F3EC08F012001550D926165076
:100BD000DA221200080EDF6E20EE02F0080CDF6E43
:100BE00015C0D9FF16C0DAFF000EDB8E000C15C051
:100BF000D9FF16C0DAFF1200D96EDA6A020EDA22C5
:100C0000020CA46F0001995105E0936BFE0EC8EC35
:100C10000AF004D0936BFC0EC8EC0AF000D000F090
:100C20000001A56BA66BA76BA86B948CAA6BA45153
:100C300003E0AAC0A9F003D0AA511608A96F8B8AB5
:100C400000D000F082AC1FD0A9C09DF0010E0001C1
:100C50009E6F9F6B9D2B03D0D8909E379F379D2F03
:100C6000FBD79EC0A0F09FC0A1F0000E0001A1BF65
:100C7000FF0EA26FA36FA051A513A151A613A251FD
:100C8000A713A351A81300D000F08B9A00D000F056
:100C90000001AA2B160EAA65CAD78B8A00D000F0D5
:100CA0008B9A00D000F0949CA5C099F0A6C09AF051
:100CB000A7C09BF0A8C09CF0160C306E2A5003E031
:100CC000305045D802D030504BD8D96EDA6ADECFDA
:100CD00031F0DDCF32F03150321003E12A6A2B6A55
:100CE000120020EE02F040D82BC0DEFF2CC0DDFF4A
:100CF00020EE01F039D82DC0DFFF2DD8400EDF16D1
:100D00002AD8000EDB8627D8DB8E2A5006E030502A
:100D10008AEC05F012D80F0F05D0305084EC05F0A6
:100D20000CD8600FD96EDA6A2EC0DEFF2FC0DDFF4F
:100D300031C02AF032C02BF01200DECF2EF0DDCF12
:100D40002FF0040E2E1A3050020DF3501200020D37
:100D5000F3500F0F120031C0D9FF32C0DAFF12007A
:100D6000020DF350600F12003150D9263250DA22B2
:100D70001200080E2A6E0E500DE1080E0D5C0AE2FC
:100D80000DC02AF0275002E1010E03D0270402E132
:100D9000020E276E2A500D5E000E0E5A20EE01F054
:100DA0002FD82AC0DFFF380E00017A6F020E7B6F4A
:100DB0000CB01AD00BD009C0F6FF19D8F76403D0D5
:100DC0000800F55002D027EC05F01FD82A50F3E1B7
:100DD000120009C0F6FF0BD8F76403D00800F550E5
:100DE00002D027EC05F011D82A50F3E112000AC016
:100DF000F7FFF86A7AC0D9FF7BC0DAFF020E120053
:100E00000F50D9261050DA221200DF6E094A0A2A42
:100E100000017A4B7B2B2A0612000C8E40D8C9ECBD
:100E20000CF02A6A020E2B6E2D6A2C6A2F6A300E85
:100E30002E6EC9EC0CF0648C3E6A3E50D5EC04F08A
:100E40003E50D0EC04F03E2A020E3E64F6D7910EDE
:100E50002A6E2B6A2D6A2C6A2F6A020E2E6EC9EC3E
:100E60000CF0649C080E0F6E020E106E000E176ED2
:100E7000020E1FD832C229F0295004E1100E0001E1
:100E8000816F100C376A010E366E290E386EECEC4D
:100E900003F0D7EC09F0200E0001816F200C540EF6
:100EA0002A6E0F0E2B6E2D6A2C6A2F6A020E2E6E82
:100EB000020C186E17C015F018C016F012006498D6
:100EC0000CBE15D004AE0AD0020E266E00017E5173
:100ED00002E19BEC0AF01E6A1F6A120025D80C0E74
:100EE000EFEC05F029EC08F0040E21EF08F0020108
:100EF00030AF0DD0010E266E1D5002E19BEC0AF0C2
:100F00001E6A1F6A2050D8A41200F3EF08F0020EE8
:100F1000266E0AD8040EEFEC05F01E6A1F6A2050F8
:100F200002E1F3EF08F0120020EE01F01550D9268F
:100F30001650DA22080EDF6E20EE02F01550D92688
:100F40001650DA22300EDE6E020EDD6E15C0D9FFAD
:100F500016C0DAFF020C02013039E832030B1DE043
:100F600012000C8E080E0001816F080C290E096E0C
:100F700034D03451910F456E45C009F02ED00C8EFF
:100F80003451910FD96EDA6A32C2DFFF1200376A2C
:100F9000020EE9EC0CF0D7EF09F0315102E12EEF2F
:100FA00009F0010A02E1F8EF01F0020A02E1F8EFAC
:100FB00001F0060AD6E0030A02E1DAEF04F0010AC2
:100FC000E6E00F0AD3E0010A02E10DEF07F0030AA1
:100FD000D0E0010AD4E0070A12000A6A0C80010E70
:100FE0000D6E0C8E010C35D8000EDFBC010E2B6E81
:100FF000040E0F1A1050080E81190BE10201325134
:101000007F0B0F015C6F5C51100ED8B4040E000111
:10101000816F260412E128D821D8B9EC06F0020E1F
:10102000271803E116D8040E0CD02B5003E111D879
:10103000480E07D00ED8080E04D004BE049E266ABF
:101040001200DF6E0FC0D9FF10C0DAFF000EDB8E7A
:10105000000C0FC0D9FF10C0DAFF1200DA22380EE0
:10106000DE6E020EDD6E020C20EE02F00F50D9266D
:1010700010501200020130511F0BE80601E012006F
:101080003039E832030BE80601E01200345127E062
:10109000340525E01200820E096E0A6A0E6A080EF7
:1010A0000D6E0C800C8E080C820E096E0A6A0C8E76
:1010B000120036C205F037C206F08A0E016E076ACA
:1010C000086A048E12008A0E096E0A6A0E6A070EFA
:1010D0000D6EC10E0C6EC10C32510C8E12003151CE
:1010E000DAE0010AE1E0210AE4E0010AECE0030AA7
:1010F000F3E012002F6E306A020E316E2A502B6E12
:101100002C6AD8902B362C362F502D6E2E6A24D870
:101110002B502D262C502E221FD82D5030262E50ED
:10112000312221D8DF9E2A5004E12F50B0EC06F086
:1011300003D02F50A7EC06F0D96EDA6A30C0DEFF7C
:1011400031C0DDFF10D8DF9C20EE04F03050D926EE
:101150003150DA22DF8C1200D8902D362E36D890FE
:101160002D362E36120030C0D9FF31C0DAFF120002
:101170001C6A7851791106E078C0D9FF79C0DAFF8E
:10118000DFBE28D029D89E51DE5C03E225D8DF508F
:101190009E6F1C6A0DD0800E1C24FCEC05F01C50C8
:1011A0009C25E16E000E9D21E26EDFCFE7FF1C2A39
:1011B0009E511C5CF0E3000E936F800E946F020E44
:1011C000956F400E966F020E43EC05F093C078F0D9
:1011D00094C079F01C50120020EE01F07851D9260D
:1011E0007951DA2212001F50D8A41200010E1F6E8E
:1011F0001E50D8A41200010E1E6E020E26180AE11F
:1012000020EE01F000EC07F0DF6A29EC08F0480E50
:1012100021EF08F02604D8A41200226A20EE01F083
:1012200014D8EAEC05F011D8300E14D83DEC0CF0CF
:10123000040EDF6E3DEC0CF0000EDB8E010E226E14
:1012400094EC07F0800EDF6E800C1750D9261850F2
:10125000DA221200DE6E020EDD6E020C0201386B25
:10126000396B20D00C8E250424E1388322D00C8EDB
:1012700020D00C8E34BF04D0BAEC02F0600F03D043
:10128000BAEC02F00F0FD96EDA6ADECF2AF0DDCFAA
:101290002BF018D8DFAE0DD015D8DFA40AD0010E80
:1012A000386F07D030511F0BDDE0010AE0E0030A80
:1012B000E0E00CAE1200380E096E020E0A6E0C80D1
:1012C0000D6E020C2AC0D9FF2BC0DAFF12002D0EC2
:1012D000216E28C046F0FD0E46162AE1D89028302F
:1012E0003F0B040D000EF324176E020EF42059EC90
:1012F00007F0040E151A16503DEC0CF0DF30E83202
:101300000F0B0D0A02E0FFEF0CF0300E2A6E020EFA
:101310002B6E20EE02F025EC09F0DECF2CF0DDCFB5
:101320002DF02F6A080E2E6EB4EC0BF046EF0BF08A
:101330002850FD0B040AD8B4F3EC07F0120064A2A5
:101340002ED0010E9EEF0CF019041A1004E1010ECC
:1013500088EC0CF029D04B0E19181A1004E1010E7C
:101360009EEC0CF021D01A5003E1970E195C1CE39F
:10137000196A1A6A19D019041A1004E1010E88ECCE
:101380000CF012D0320E19181A1004E1010E9EEC66
:101390000CF00AD0B70E195C030E1A58E8D70001FA
:1013A0008151200AD1E0E7D7194A1A2A12000ED03B
:1013B0009FEC09F0010E0FEF0DF09FEC09F0020E0B
:1013C0000FEF0DF01DEC0BF055EF0DF036C03CF0BB
:1013D00037C03DF03D5004E07F0AD8A412001AD077
:1013E0003C50010AEFE0030AD8B41200010A02E1FE
:1013F0003AEF08F0060AD8B41200770AD8B41200FF
:10140000010A02E19FEF09F0070AD7E0010AD8A418
:101410001200CED73C1C1200CAEC04F0540E00019E
:10142000936F0F0E946F966B956B986B020E976F80
:10143000B4EC0CF020EC0CF000019B6B9B51BEEC6B
:1014400004F09B2B0B0E9B65F9D7AAEC04F09B6B69
:101450009B518AEC05F0DE6ADD6A9B5184EC05F055
:10146000DE6ADD6A9B51D5EC04F09B51D0EC04F0B0
:101470009B2B020E9B65ECD7080E91EF04F0A09415
:10148000805102E0A0841200996B93C097F094C041
:1014900098F00001992B992915E09751956F985173
:1014A000966F974B982B95C0F6FF96C0F7FFF86A9A
:1014B000020EF76403D00800F55002D027EC05F0C7
:1014C0000009E7E193C06DF094C06EF099C01BF085
:1014D00000017C6B010E806FA084010CD8909735C1
:1014E0009D6F98359E6F99359F6F9A35A06F9D912E
:1014F0009B0504E1020E6CEC0BF003D0000E6CECCB
:101500000BF000D000F000019F516CEC0BF09E51ED
:101510006CEC0BF09D516CEC0BF000D000F0E00E89
:101520006CEC0BF0270E00019C6FF50EE82EFED739
:101530009C2FFCD712001D6A00017E6B020E26183C
:1015400012E120EE01F0E5EC05F0EAEC05F0E5EC47
:1015500005F0380EDE6E020EDD6EF7EC05F0480E7B
:10156000EFEC05F0000C0D500201365D0E503759BE
:1015700004E236C20DF037C20EF0B9EC06F034ECDE
:1015800008F02EEC08F029EC08F0480E21EF08F0E6
:10159000966F7CEC0DF00001986B935103E098C0BE
:1015A00097F003D098510708976F8B8A00D000F00E
:1015B00097C094F096C095F00001942B02D0D8907B
:1015C0009533942FFCD7000195A102D08B8C01D0CC
:1015D0008B9C00D000F08B9A00D000F00001982B7B
:1015E000070E9865DAD7070CC40EF66E1A0EF76E62
:1015F000000EF86E00EEB7F010EE13F00900F5CF14
:10160000EEFFE550E150FAE101EE00F0800EEE6AE7
:10161000E806FDE100EE60F0330EEE6AE806FDE15B
:1016200000EE01F0290EEE6AE806FDE152905292BA
:10163000000EF86E000142EF0CF000018A6B4B0EB9
:101640008B6F8C6B8D6B8E6B8F6B080E906F1C6A23
:101650001A0E326E010EF3EC0BF01E0E326E020EFD
:10166000F3EC0BF0000E2A6E800E2B6E020E2C6E29
:10167000400E2D6E020E5DEC06F02AC078F02BC0F5
:1016800079F00001766B776B806B1200276A206A15
:101690001D6A7E6B226A266A29EC08F017D829ECAD
:1016A00008F014D8F7EC05F07F0EDF160C6A0D6A0F
:1016B0000E6A046A056A066AABEC07F0376A030E25
:1016C000E9EC0CF0D7EC09F05FEF07F07F0EDF16C6
:1016D000040E0F1A105012000001956F7CEC0DF0F3
:1016E000070E0001966F8B8A00D000F096C093F031
:1016F00095C094F00001932B02D0D8909433932F8F
:10170000FCD7000194A102D08B8C01D08B9C00D01F
:1017100000F08B9A00D000F00001960796BF1200EF
:10172000E2D77CEC0DF000D000F08B9E8B9C8B9A66
:10173000FA0EE82EFED7500E0001996F480E9A6FF0
:10174000430E9B6F4D0E9C6F936B9C51C8EC0AF03F
:10175000936B9B51C8EC0AF0936B9A51C8EC0AF05A
:10176000936B9951C8EF0AF02CC032F02DC033F0C2
:101770002AC030F02BC031F010D032C0D9FF33C0B6
:10178000DAFFDF50346E324A332A30C0D9FF31C01D
:10179000DAFF34C0DFFF304A312A2E06D8A02F06E8
:1017A0002E28EBE12F28E9E11200D89099359D6FA2
:1017B0009A359E6F9B359F6F9C35A06F9D919F9F23
:1017C000936B800EC8EC0AF000D000F00001936B20
:1017D0009F51C8EC0AF0936B9E51C8EC0AF0936BD2
:1017E0009D51C8EF0AF0356E32A404D02A6A3550F4
:1017F0007AEC08F032A205D0010E2A6E35507AEC50
:1018000008F0530E3524336E346A0F0E342233C081
:10181000D9FF34C0DAFF32C0DFFF0F0C8151D8A4EA
:101820001200646A606A0CD8D08EA284A084F28E02
:1018300001D0648664A6FDD7010E0001816F010C02
:10184000160E616E9F0E0F015B6F7B0E606E7B0C40
:101850000F0153A110D011D8800EDE180BE129EC36
:1018600008F0840EDE1806E108D80C0EDF6E05D8ED
:10187000000EDB8E5391629A120017C0D9FF18C078
:10188000DAFF12007F6A7E6A000E1EEC0DF00CEC8F
:101890000AF00EEC0CF0C4EC02F0020E0001B66F80
:1018A000860EB56F990EE82EFED7B52FFCD7B62F52
:1018B000FAD7F1D70001936F08D094901200949258
:1018C0001200949412009496120000019351D8B41F
:1018D0001200010AF2E0030AF2E0010AF2E0070A4C
:1018E000F2E012002A6E08D0949012009492120036
:1018F00094941200949612002A50D8B41200010A4F
:10190000F3E0030AF3E0010AF3E0070AF3E0120050
:101910002A6E08D08B8012008B8212008B841200FA
:101920008B8612002A50D8B41200010AF3E0030A91
:10193000F3E0010AF3E0070AF3E012002A6E08D090
:101940008B9012008B9212008B9412008B961200D7
:101950002A50D8B41200010AF3E0030AF3E0010AA6
:10196000F3E0070AF3E0120093C099F094C09AF0F4
:1019700008D099C0D9FF9AC0DAFF95C0DFFF994B14
:101980009A2B9707D8A098079729F3E19829F1E1B6
:1019900012002AC030F02BC031F008D030C0D9FF7F
:1019A00031C0DAFF2CC0DFFF304A312A2E06D8A022
:1019B0002F062E28F3E12F28F1E1120060846298AF
:1019C0006482010E246E7D6B376A750E02D8D7EFE4
:1019D00009F0366E386A396A3B6A3A6A1200246A3C
:1019E000376A740EE9EC0CF0D7EC09F0649260945D
:1019F00001D0629462B4FDD700017D6B1200020E2B
:101A0000261802E1A4EF05F0266A225006E194ECC4
:101A100007F00C0EEFEC05F0000C226A12002B6EA2
:101A200006D0010E72EC0CF0010E6CEF0DF02B5095
:101A3000F8E000D0010AD8A4030A12000001946F54
:101A400006D0010E5AEC0CF0010E72EF0DF0000101
:101A50009451F7E01AEF0DF0A094805109E193C082
:101A60006DF094C06EF095C01BF0010E7C6F806F1E
:101A7000A08412000001662B000E672368236923EF
:101A80002450D8A412007D2B7D51D8B47D6912005A
:101A9000936F03D080A6010C000C00019351D8B4C1
:101AA000000C010AD8A4000CF5D78E6B080E906FBD
:101AB0008F6B800E8A6F250E8B6F000E8C6B8D6B7B
:101AC0007F6B120030427574746F6E207072657394
:071AD0007365642E0D0A008E
:101AD8002A6E2A5000D0D8A4010A1200936F000180
:101AE80093516FEF0DF0949E00D000F08B8E120092
:081AF800949E949C949A120044
:020000040020DA
:08000000FFFFFFFFFFFFFFFF00
:020000040030CA
:0E0000000011011EFF0085FF03C003E0034056
:00000001FF
