:100000000A128A11F42F00308A000408840A820739
:10001000003424344734503452344D3443342C3477
:1000200024344734503452344D3443342C34503417
:1000300057344D3420344434753474347934203496
:1000400043343A340034503457344D34203450342F
:0E0050006534723469346F3464343A340034E9
:10026E003829392900003B293C29000008000830B4
:10027E00F1002330F000F00B4229F10B4229080067
:10028E007808F0007908F100F2018E30FB007B084F
:10029E00F300F4010A128A116C227008F80071083A
:1002AE00F9007208FA000800FD0183120313AB1F58
:1002BE006729AA09AB09AA0A0319AB0AFD01FD0AAF
:1002CE002A08F0002B08F100F2018E30AD002D0847
:1002DE00F3007D08AE002E08F4000A128A116C227B
:1002EE00700883120313AA007108AB007208AC00E9
:1002FE000800831203132608F9002708FA002808BD
:10030E00FB002908FC0002300310F90DFA0DFB0D5D
:10031E00FC0DFF3E031D8B297C08F3007B08F200C9
:10032E007A08F1007908F0000030F7003D30F60051
:10033E000930F5000030F4000A128A11E223710828
:10034E0083120313A7007008A6000800831203137C
:10035E002608F9002708FA002808FB002908FC00E7
:10036E0002300310F90DFA0DFB0DFC0DFF3E031DBF
:10037E00B82902300310F90DFA0DFB0DFC0DFF3EEE
:10038E00031DC1297C08F3007B08F2007A08F100F6
:10039E007908F0000030F7003D30F6000930F50026
:1003AE000030F4000A128A11E2237008FF3E831611
:1003BE00031392000800F700F32974087F3EEF291B
:1003CE007408BF3EEF297408933EEF297408D33E9C
:1003DE00F6007608F800012A7708013A0319E42995
:1003EE00033A0319E729013A0319EA29073A0319CF
:1003FE00ED29012A78080A128A1116250A128A1185
:10040E00750884000A128A1103200A128A11003A12
:10041E0003190800750884000A128A1103200A12B3
:10042E008A110A128A11BD250A128A110130F600AC
:10043E007608F507072A83160317880189018316A4
:10044E000313850186010A128A1171240A128A1178
:10045E0001300A128A1116250A128A11F401F40AC1
:10046E001B3083120313D2005208F50001300A121A
:10047E008A11E2210A128A11F401F40A0F30831252
:10048E000313D2005208F50002300A128A11E2213B
:10049E000A128A11003083120313A9000030A8003B
:1004AE001330A7008830A6000A128A11AD210A1255
:1004BE008A11C83083120313CE000030CF000A1207
:1004CE008A11D8220A128A11602A73080319742A13
:1004DE00720871047004031D872A0030F00000308A
:1004EE00F1000030F20008000130F5007508F30746
:1004FE0001300310F20CF10CF00CFF3E031D802AAC
:10050E00FE3072050319A22A7B2A0130F500750808
:10051E00F3070130F007003003180130F107003007
:10052E0003180130F20701300310F20CF10CF00C3D
:10053E00FF3E031D9B2AFF3072050319B12A8C2A38
:10054E000130F30201300310F00DF10DF20DFF3EFC
:10055E00031DAA2AF11BB72A023073020318A72A19
:10056E007318BF2AFF30F0057F30F105FF30F2051A
:10057E000310F30C7308F500F601F70110300310A9
:10058E00F50DF60DF70DFF3E031DC62A7508F00496
:10059E007608F1047708F204740803190800F217BC
:1005AE0008000430831203134F02003003194E0269
:1005BE00031808004F08F9004E08F8000A128A11B5
:1005CE0047210A128A11780883120313A3007908AF
:1005DE00A4007A08A500C030A0007F30A1004430EE
:1005EE00A2000A128A1169260A128A1183120313B3
:1005FE002008B3002108B4002208B5005608A9004F
:10060E005508A8005408A7005308A6000A128A111C
:10061E0080210A128A11831203132708AB002608C1
:10062E00AA000A128A115B210A128A11831203137D
:10063E002A08B0002B08B1002C08B2000A128A1149
:10064E0021270A128A11831203133008C0003108C1
:10065E00C1003208C2000A128A1154230A128A11EA
:10066E00831203134108CF004008CE0097124E1C90
:10067E00442B831203131716472B831203131712DF
:10068E004F08D1004E08D0000310D10CD00C03102F
:10069E00D10CD00C500895000800831203134008AB
:1006AE00C4004108C5004208C6000310450D460DA2
:1006BE00C7004708CD004D08031D6E2B0030C30048
:1006CE000030C2000030C1000030C00008004008F9
:1006DE00C4004108C5004208C60017300310C60CFE
:1006EE00C50CC40CFF3E031D752B4408C7004708FC
:1006FE00C800C117FF30C005FF30C1050030C2056C
:10070E004008C9004108CA004208CB00CC018E3017
:10071E00CD02CD1FB02B4D08803A8F3E0318A02B73
:10072E000030C3000030C2000030C1000030C000F5
:10073E00080001300310CC0CCB0CCA0CC90CFF3EC8
:10074E00031DA12B0130C4004408CD070319CB2B88
:10075E00A02B18304D02031CC82B0030C3000030F4
:10076E00C2000030C1000030C00008000130C400DB
:10077E000310C90DCA0DCB0DCC0DC40BBF2B013010
:10078E00CD024D08031DBD2B48080319D92BC909ED
:10079E00CA09CB09CC09C90A0319CA0A0319CB0A1B
:1007AE000319CC0A4C08C3004B08C2004A08C1000A
:1007BE004908C000080083120313A101F31FF42B94
:1007CE00F009F109F209F309F00A0319F10A031904
:1007DE00F20A0319F30AA101A10AF71F052CF40965
:1007EE00F509F609F709F40A0319F50A0319F60AC9
:1007FE000319F70A0130F8007808A1060030A500A9
:10080E000030A4000030A3000030A2007308720470
:10081E007104700403195A2CA001A00AF31B252C95
:10082E000130F8000310F00DF10DF20DF30DF80B81
:10083E00192C0130F8007808A007152C0130F800AB
:10084E000310A20DA30DA40DA50DF80B272C7308F4
:10085E007702031D3C2C72087602031D3C2C710896
:10086E007502031D3C2C70087402031C4D2C70087D
:10087E00F4027108031C710FF5027208031C720F4B
:10088E00F6027308031C730FF702221401300310D3
:10089E00F30CF20CF10CF00CFF3E031D4E2C01304C
:1008AE00A002031D252C21080319682CA209A309F7
:1008BE00A409A509A20A0319A30A0319A40A031974
:1008CE00A50A2508F3002408F2002308F1002208E7
:1008DE00F00008008316031788018901831603139D
:1008EE00851205128511051185100510831203134B
:1008FE008512051285110511851005100A128A112F
:10090E003E210A128A110A128A113E210A128A11F6
:10091E000A128A113E210A128A110A128A113E21E6
:10092E000A128A110A128A113E210A128A110A1219
:10093E008A113E210A128A11F501F50A0430750258
:10094E000318D12C83120313851205128515051574
:10095E0085100510851205128515051585140510CF
:10096E000A128A1137210A128A1183120313851271
:10097E00051285150515851005100A128A113E21DE
:10098E000A128A110130F4007408F507043075025A
:10099E00031CA92C8312031385120512851505114C
:1009AE008510051085120512851505118514051083
:1009BE000A128A1137210A128A1183120313851221
:1009CE00051285150511851005100A128A113E2192
:1009DE000A128A112830F4007408F50075080A12FC
:1009EE008A1116250A128A111030F4007408F500C7
:1009FE0075080A128A1116250A128A11F501F50ACE
:100A0E0075080A128A1116250A128A110F30F4007F
:100A1E007408F50075080A128A1116250800F300ED
:100A2E0083120313851005107308F20007300310AC
:100A3E00F20CFF3E031D1E2D721C292D8312031373
:100A4E0085162C2D8312031385127308F2000630BF
:100A5E000310F20CFF3E031D2F2D721C3A2D831234
:100A6E00031305163D2D8312031305127308F200AE
:100A7E0005300310F20CFF3E031D402D721C4B2D52
:100A8E008312031385154E2D8312031385117308DC
:100A9E00F20004300310F20CFF3E031D512D721CA8
:100AAE005C2D8312031305155F2D8312031305119D
:100ABE000330F200F20B612D8312031385140A1218
:100ACE008A1137210A128A118312031385107308B3
:100ADE00F20003300310F20CFF3E031D712D721C49
:100AEE007C2D8312031385167F2D8312031385121B
:100AFE007308F20002300310F20CFF3E031D822D2C
:100B0E00721C8D2D831203130516902D8312031361
:100B1E0005127308F20001300310F20CFF3E031DA4
:100B2E00932D721C9E2D831203138515A12D8312F6
:100B3E0003138511731CA72D831203130515AA2DFC
:100B4E008312031305110330F200F20BAC2D831246
:100B5E00031385140A128A1137210A128A1183127D
:100B6E00031385100A128A113E210800F300831226
:100B7E000313851005147308F20007300310F20CEE
:100B8E00FF3E031DC52D721CD02D83120313851637
:100B9E00D32D8312031385127308F200063003104F
:100BAE00F20CFF3E031DD62D721CE12D8312031392
:100BBE000516E42D8312031305127308F200053097
:100BCE000310F20CFF3E031DE72D721CF22D831253
:100BDE0003138515F52D8312031385117308F20087
:100BEE0004300310F20CFF3E031DF82D721C032E71
:100BFE00831203130515062E8312031305110330FA
:100C0E00F200F20B082E8312031385140A128A11B6
:100C1E0037210A128A118312031385107308F2000A
:100C2E0003300310F20CFF3E031D182E721C232EF0
:100C3E00831203138516262E83120313851273084F
:100C4E00F20002300310F20CFF3E031D292E721C1F
:100C5E00342E831203130516372E83120313051237
:100C6E007308F20001300310F20CFF3E031D3A2E02
:100C7E00721C452E831203138515482E83120313FF
:100C8E008511731C4E2E831203130515512E8312DC
:100C9E00031305110330F200F20B532E83120313CC
:100CAE0085140A128A1137210A128A11831203132C
:100CBE0085100A128A1137210A128A110A128A1114
:100CCE003E210800831203132308A6002408A70060
:100CDE002508A8000310270D280DA9002908AE002D
:100CEE002E08031D812E0030A0000030A100003020
:100CFE00A20008002008A6002108A7002208A800CC
:100D0E000310270D280DA9002908AF002F08031D79
:100D1E00972E0030A0000030A1000030A200080085
:100D2E000030AB000030AC000030AD0089302F0732
:100D3E00A6002608AE022308A6002408A700250850
:100D4E00A80010300310A80CA70CA60CFF3E031D24
:100D5E00A92E2608A9002908AF002008A600210800
:100D6E00A7002208A80010300310A80CA70CA60C90
:100D7E00FF3E031DBB2E2608A9002908AF068030B2
:100D8E00A6002608AF05A417FF30A305FF30A40563
:100D9E000030A505A117FF30A005FF30A1050030DA
:100DAE00A2051830A6002608AA0001300310AB0DCC
:100DBE00AC0DAD0DFF3E031DDD2E22082502031DD9
:100DCE00EE2E21082402031DEE2E20082302031C02
:100DDE00FB2E2008A3022108031C210FA4022208C7
:100DEE00031C220AA5022B1401300310A30DA40D1F
:100DFE00A50DFF3E031DFC2E0130AA02031DDC2EA5
:100E0E002B08F0002C08F1002D08F2002E08A60089
:100E1E002608F3002F08A7002708F4000A128A11EB
:100E2E006C22700883120313A0007108A1007208CF
:100E3E00A2000800831203133008B6003108B70071
:100E4E003208B8000310370D380DB9003908BA0052
:100E5E003A08031D392F0030B0000030B1000030C9
:100E6E00B20008003308B6003408B7003508B800E1
:100E7E000310370D380DB9003908BF003F08031DA8
:100E8E004F2F0030B0000030B1000030B20008002B
:100E9E003F087B3EB6003608BA073008B600310868
:100EAE00B7003208B80010300310B80CB70CB60CEF
:100EBE00FF3E031D5B2F3608B9003908BF0033080B
:100ECE00B6003408B7003508B80010300310B80C5F
:100EDE00B70CB60CFF3E031D6D2F3608B90039084E
:100EEE00BF068030B6003608BF05B117B417FF3005
:100EFE00B305FF30B4050030B5050030BB0000303F
:100F0E00BC000030BD000730B6003608BE00301CF5
:100F1E009E2F3308BB07340803110318340A031D30
:100F2E00BC07350803110318350A031DBD07013030
:100F3E000310B20CB10CB00CFF3E031D9F2F0130FD
:100F4E000310B30DB40DB50DFF3E031DA72F0130D9
:100F5E00BE02031D8E2F0930B6003608BE00301CAF
:100F6E00C62F3308BB07340803110318340A031DB8
:100F7E00BC07350803110318350A031DBD070130E0
:100F8E000310B20CB10CB00CFF3E031DC72F013085
:100F9E000310BD0CBC0CBB0CFF3E031DCF2F01304C
:100FAE00BE02031DB62F3B08F0003C08F1003D08C1
:100FBE00F2003A08B6003608F3003F08B7003708CB
:100FCE00F4000A128A116C22700883120313B00007
:100FDE007108B1007208B200080083120313D30126
:100FEE00D401D501D601D701D80183010A128A1185
:020FFE00222AA5
:04400E00F2ECFFFED3
:00000001FF
