:100000000A128A11E42F00308A000408840A820749
:0C00100000342D34203420342D34003412
:1000580064008001840A04060319003404062D286C
:10006800283094008316910183122008A4002108E7
:10007800A5002208A6002308A70002300310A40D3B
:10008800A50DA60DA70DFF3E031D42282708F30066
:100098002608F2002508F1002408F0003D30F70199
:1000A800F6000930F500F40161207008FF3E831660
:1000B80093009401871507160800F801F901FA0161
:1000C800FB0173087204710470040319A028FC0171
:1000D800FC0AF31B75280310F00DF10DF20DF30D5A
:1000E8006C280310F80DF90DFA0DFB0D7308770253
:1000F800031D882872087602031D88287108750276
:10010800031D882870087402031C9A287008F402DA
:100118007108031C710FF5027208031C720FF602B6
:100128007308031C730FF70278140310F30CF20C16
:10013800F10CF00CFC0B75287B08F3007A08F20030
:100148007908F1007808F00008008312A401A501DD
:10015800A601260826072607903EA3001E30A00009
:1001680083163A084A220A128A1123078400831741
:100178000008A4070318A50A250883163502031DDD
:10018800C92883122408831634020318D02883123E
:1001980026088316BB00080083120A30A60A260226
:1001A80003180800AD288312B301B40183163B0875
:1001B8003B073B07113E08240A128A114A220A12F9
:1001C8008A113107840083170008B200340AEE2828
:1001D8000310B20CFF3E031DEC28321C03298316C2
:1001E800B81F1C2901308312B100340AFD280310FE
:1001F800B10DFF3E031DFB283108B3041C298316EB
:100208003B083B073B07913E08240A128A114A2201
:100218000A128A113107840083170008B200340AD1
:1002280017290310B20CFF3E031D15293218F628B2
:1002380083120830B40A3402031CDA28FE230A1297
:100248008A110130AD0159220A128A11B301B50190
:1002580083163B083B073B07123E08240A128A1103
:100268004A220A128A113107840083170008B20053
:10027800350A40290310B20CFF3E031D3E29321CEB
:1002880055298316B81F6E2901308312B100350A2B
:100298004F290310B10DFF3E031D4D293108B3044A
:1002A8006E2983163B083B073B07923E08240A1237
:1002B8008A114A220A128A1131078400831700081A
:1002C800B200350A69290310B20CFF3E031D6729E5
:1002D8003218482983120830B50A3502031C2C2924
:1002E800FE230A128A110230AD01592A0030352244
:1002F8000A128A1183160313B9008312B201320855
:1003080032073207033E35220A128A110313A3006B
:10031800A401A501A601320832073207023E3522A0
:100328000A128A110313A700A801A800A701270829
:10033800A9002808AA00AB01AC013208320732072D
:10034800013E35220A128A110313AD00AE01AF0136
:10035800B0012E08B0002D08AF00AE01AD012D0888
:10036800A9072E0803182E0FAA072F0803182F0F06
:10037800AB0730080318300AAC072908A3072A0876
:1003880003182A0FA4072B0803182B0FA5072C08FE
:1003980003182C0AA6073208B10001300310B10D6A
:1003A800FF3E0310031DD329310DA03E840023080E
:1003B80083138000840A24088000840A25088000AA
:1003C800840A260880000330B20A3202031C8329FB
:1003D800B301B401B5011E30A00033084A220A1245
:1003E8008A11A300340834073407903E18240A12EF
:1003F8008A114A220A128A1120240A128A110A3EF4
:1004080035220A128A11831780001E300313A000B8
:1004180033084A220A128A11A30034083407340721
:10042800103E18240A128A114A220A128A1120241C
:100438000A128A11643E35220A128A118317800033
:1004480003130330B50A3502031CEF290A30B40A36
:100458003402031CEE290330B30A330203180800E0
:10046800ED29F0006400831603178C18362A7008EB
:1004780083128D003F3083168C050C1403100C1862
:1004880003140318013083120C0808008312A20019
:10049800A10120082218A1070310A00D0310A20C27
:1004A8002208031D4D2A21080800B000AF012D08BD
:1004B80003198B2AAF0AAB1F832A2708A3002D3004
:1004C800A4003008C5220A128A11FF30F000F1009A
:1004D800F200F300831203132B08F7002A08F60032
:1004E8002908F5002808F400CB230A128A1173089A
:1004F800AB007208AA007108A9007008C32A27086F
:10050800A3002B30A4003008C5220A128A118312D6
:1005180003132C0803190800AC032F082C07AE009E
:1005280027082E07A300F630A0000F240A128A110C
:100538000A30F000F101F201F301EC220A128A11EB
:1005480070084A220A128A112807303EA40030088F
:10055800C5220A128A110A30F000F101F201F301F2
:10056800831203130F240A128A11EC220A128A1129
:100578007308AB007208AA007108A9007008A800E7
:100588008B2AA500D42A23087F3ED22A2308BF3EFF
:10059800D22A2308933ED22A2308D33EA600E22A71
:1005A8002508013A0319C72A033A0319CA2A013A46
:1005B8000319CD2A073A0319D02AE22A26080A1273
:1005C8008A153E278312031324080A128A15472E18
:1005D800F901F31FFC2AF009F109F209F309F00AFD
:1005E8000319F10A0319F20A0319F30AF901F90ABE
:1005F800F71F0B2BF409F509F609F709F40A031993
:10060800F50A0319F60A0319F70A0130F906FA017F
:10061800FB01FC01FD0173087204710470040319E5
:100628004A2BF801F80AF31B1F2B0310F00DF10DEC
:10063800F20DF30D162B0310FA0DFB0DFC0DFD0D3D
:1006480073087702031D322B72087602031D322BC2
:1006580071087502031D322B70087402031C442BA9
:100668007008F4027108031C710FF5027208031C6C
:10067800720FF6027308031C730FF7027A14031043
:10068800F30CF20CF10CF00CF80B1F2B7908031982
:10069800582BFA09FB09FC09FD09FA0A0319FB0A98
:1006A8000319FC0A0319FD0A7D08F3007C08F2000F
:1006B8007B08F1007A08F0000800A31F7B2BFF30AD
:1006C800F000F100F200F3002308F7002208F6001A
:1006D8002108F5002008F400CB230A128A117308B8
:1006E800A3007208A2007108A1007008A0002708E2
:1006F800F3002608F2002508F1002408F00023087A
:10070800F7002208F6002108F5002008F400EC2282
:100718000A128A117308AF007208AE007108AD00A2
:100728007008AC002708F3002608F2002508F1003D
:100738002408F0002F08F7002E08F6002D08F50011
:100748002C08F400CB2370082002A8002108A90077
:100758007108031C710FA902831203132208AA004F
:100768007208031C720FAA02831203132308AB003A
:100778007308031C730FAB02831203132B08A30027
:100788002A08A2002908A1002808A0000800F801EA
:10079800F901FA01FB01701CE52B7408F8077508CC
:1007A80003110318013E031DF90776080311031806
:1007B800013E031DFA07770803110318013E031DC4
:1007C800FB070310F40DF50DF60DF70D0310F30CF0
:1007D800F20CF10CF00C7308720471047004031D20
:1007E800CF2B7B08F3007A08F2007908F10078082B
:1007F800F0000800A701A70A3308A8000330A901E0
:10080800AA01AB01AC0008008312B1001E30A000A1
:1008180083163A0808002B08F7002A08F60029086A
:10082800F5002808F400080023073507A400840011
:100838001E30A00033080800A50034083407340728
:10084800250735070800DD270A128A1162240A12D3
:100858008A115708DF005808E0005908E1006508C8
:10086800E2006608E3006708E40077270A128A11A5
:100878005F08E8006008E9006108EA006808BE004F
:100888006908BF006A08C0006508C1006608C200A0
:100898006708C3002D260A128A113E08E5003F08A2
:1008A800E6004008E700DD270A128A11622457088B
:1008B800E5005808E6005908E70008005708F00066
:1008C8005808F1005908F2005D30F30092270A1227
:1008D8008A11DE1F732CD701D801D9010800003016
:1008E8005E02153003195D02031808005708CA0094
:1008F8005808CB005908CC001C270A128A114D0849
:10090800FB004C08FA004B08F9004A08F800ED26ED
:100918007808DA007908DB007A08DC005A08D70082
:100928005B08D8005C08D90008002430B200743095
:10093800B3004A30B4006E08FB006D08FA006C087A
:10094800F9006B08F800ED260A128A117808A3004E
:100958007908A4007A08A5008030A001A1004030E1
:10096800A2007E250A128A112008AF002108B000D3
:100978002208B10016250A128A112F088316BC0016
:10098800831230088316BD00831231088316BE0017
:100998003C088312E50083163D088312E60083169F
:1009A8003E088312E70027240A128A116508831675
:1009B800BF00831266088316C00083126708831677
:1009C800C1003F088312C100831640088312C20089
:1009D800831641088312C3008030BE01BF00BF30B8
:1009E800C0002D260A128A113E08CA003F08CB0013
:1009F8004008CC001C274B088316C30083124A0802
:100A08008316C200990043089A0018150317871522
:100A18008312031318168316181283129817831655
:100A2800981608003208B5003308B6003408B70035
:100A38000310360D370DBC003C08031D272DAF01F0
:100A4800B001B10108002F08B5003008B600310820
:100A5800B7000310360D370DBD003D08031D382DB6
:100A6800AF01B001B10108008930B901BA01BB0179
:100A78003D07B500BC023408BD003108BD06803012
:100A8800BD051830B317B401B017B101B800031091
:100A9800B90DBA0DBB0D31083402031D592D3008AC
:100AA8003302031D592D2F083202031C672D2F080E
:100AB800B2023008031C300FB3023108031C310A9C
:100AC800B40239140310B20DB30DB40DB80B4B2D8D
:100AD8003908F0003A08F1003B08F2003C08F3003E
:100AE8003D08F400EB257008AF007108B0007208EB
:100AF800B10008002008A6002108A7002208A800C5
:100B08000310270D280DA9002908031D8F2DA0010A
:100B1800A101A20108002308A6002408A7002508AF
:100B2800A8000310270D280DAE002E08031DA02DC8
:100B3800A001A101A20108002E087B3EA9072208F6
:100B4800AE002508AE068030AE050730A117A41701
:100B5800A501AA01AB01AC01AD00201CBA2DCB2721
:100B68000A128A110318250A031DAC070310A20CE8
:100B7800A10CA00C0310A30DA40DA50DAD0BB12D58
:100B88000930AD00201CCF2DCB270A128A1103187B
:100B9800250A031DAC070310A20CA10CA00C03101E
:100BA800AC0CAB0CAA0CAD0BC62D2A08F0002B0818
:100BB800F1002C08F2002908F3002E08F400EB25B8
:100BC8007008A0007108A1007208A200080073084C
:100BD8000319F32D720871047004031DFC2DF00134
:100BE800F101F2010800F30A0310F20CF10CF00C09
:100BF800FE30720503190B2EF72DF30AF00A0319BC
:100C0800F10A0319F20A0310F20CF10CF00CFF3090
:100C180072050319192E012E02307302031C1B2EB4
:100C2800F3030310F00DF10DF20DF11F102E731CDC
:100C3800F1130310F30C7308F700F601F5017508BA
:100C4800F0047608F1047708F2047408031DF2171B
:100C580008003E08C4003F08C5004008C60003104D
:100C6800450D460DC9004108C4004208C5004308A7
:100C7800C6000310450D460DC80049080319502E3B
:100C88004808490248080318582EC4004908C402F5
:100C980019304402031C572E4108BE004208BF0009
:100CA8004308C0000800480803190800490848021A
:100CB8000318662E4908C4004808C40219304402C3
:100CC800031808000630C700C01BC717C31B471707
:100CD800BF17C001C217C3014808490203188D2E67
:100CE8000310C10DC20DC30DC803480849060319F6
:100CF800882EC703470807390319882E742E031056
:100D0800C00CBF0CBE0CC90A490848060319A92E15
:100D1800832E490848020318A92E0310BE0DBF0DE3
:100D2800C00DC903480849060319A52EC70347087B
:100D380007390319A52E912E0310C30CC20CC10C40
:100D4800C80A49084806031DA02EC71FB42EFF3045
:100D5800BE06BF06C006BE0A0319BF0A0319C00AA9
:100D6800471FBF2EFF30C106C206C306C10A0319BA
:100D7800C20A0319C30AC7013E08C1073F08031185
:100D880003183F0A031DC207400803110318400A4D
:100D9800031DC307C31FDB2EFF30C106C206C306EF
:100DA800C10A0319C20A0319C30AC701C70A4108BD
:100DB800F0004208F1004308F2004908F300470830
:100DC800F400EB257008BE007108BF007208C0006F
:100DD80008008E30FD01FC00FB1FFF2EF809F90901
:100DE800FA09FB09F80A0319F90A0319FA0A031997
:100DF800FB0AFD01FD0AFF307B0503190A2F0310CA
:100E0800FB0CFA0CF90CF80CFC0AFF2E7808F00021
:100E18007908F1007A08F2007C08F3007D08F400F4
:100E2800EB257008F8007108F9007208FA0008004C
:100E3800D6270A128A1103104F0D500DD6005608F6
:100E4800031D2B2FCA01CB01CC01CD010800D627E9
:100E58000A128A1117300310D00CCF0CCE0CFF3EAB
:100E6800031D2F2F4E08D100CB17CC014A08D20002
:100E78004B08D3004C08D4008E30D501D602D61FBB
:100E8800522F5608803A8F3E031C262F0310D50C8C
:100E9800D40CD30CD20CD60F4A2F602F1830560220
:100EA8000318262F56080319602F0310D20DD30DEF
:100EB800D40DD50DD603562F510803196E2FD2091C
:100EC800D309D409D509D20A0319D30A0319D40AB4
:100ED8000319D50A5508CD005408CC005308CB0097
:100EE8005208CA000800610860045F0403197E2FD5
:100EF8008030E1066208BE006308BF006408C000D5
:100F08005F08C1006008C2006108C3002D263E08C2
:100F1800DF003F08E0004008E100080072087104A3
:100F28007004031D9E2F7308840083138001840AB4
:100F38008001080072087F39F400F5010310F40DF0
:100F4800F50D73088400740883138000840A7508FB
:100F58008000710D710D0139F400F50173088400EA
:100F680074088004840A7508800473088400823039
:100F78008007840F00080318000AFF00FF3E800066
:100F88008403720880393F38F200F11308002308FF
:100F9800AA07240803110318240A031DAB07250810
:100FA800031108004A08CE004B08CF004C08D000B7
:100FB80008006508D7006608D8006708D900080047
:100FC800A03083138400BC300A128A112C200A1224
:100FD8008A11903083178400EA300A128A112C2073
:100FE8000A128A11103084006A300A128A112C20E1
:080FF80083010A128A15412B46
:10141C000230F400DE30DD220A128A158312B1008C
:10142C000F39A400310E0F390339F0000A30F101E5
:10143C00F200F301C42224087007AD000030031839
:10144C0001307107AE00AF01AE1BAF032F08B00027
:10145C000E30F301F201F1001030F0003008F7000B
:10146C002F08F6002E08F5002D08F4000A128A1138
:10147C00CB230A128A157308B0007208AF007108EA
:10148C00AE007008AD00DE30F401F40ADD220A1261
:10149C008A158312B10038230A128A15C4220A1243
:1014AC008A157108AC007008AB0031080F39AB0716
:1014BC000318AC0A2C08F1002B08F0003C30F200A9
:1014CC00F301C4220A128A157008A4007108A50041
:1014DC000030A51BFF30A600A7002408AD07250887
:1014EC0003110318013E031DAE0726080311031850
:1014FC00013E031DAF07270803110318013E031D0E
:10150C00B007DE30F401DD220A128A158312B10015
:10151C000F39A40038230A128A15C4220A128A151C
:10152C0024087007A5000030031801307107A600CD
:10153C002508A7002608A8000030A81BFF30A9002A
:10154C00AA002708AD07280803110318013E031D44
:10155C00AE07290803110318013E031DAF072A0823
:10156C0003110318013E031DB0073008A3002F0818
:10157C00A2002E08A1002D08A0000800F401F5011E
:10158C00701CCE2A7208F4070318F50A7308F507C5
:10159C000310F20DF30D0310F10CF00C7008710434
:1015AC00031DC62A7508F1007408F0000800F60047
:1015BC000B230A128A157608F000F10106230A1291
:1015CC008A157408F000F10106230A128A153523D6
:1015DC000A128A150B230A128A157608F000F101FB
:1015EC00F00A0319F10A06230A128A15F001F10117
:1015FC000E230A128A157008F500352375080800A9
:10160C002D2370088312930008002D231114080059
:10161C002D230A128A1591152D230A128A1583126D
:10162C001308F200F3012D230A128A1570087104B5
:10163C00031D242B831603139116272B83160313D8
:10164C00911211167308F1007208F000080083164D
:10165C0014192D2B11081F39031908002D2B2D23BC
:10166C0011150800310E0F390739F0000A30F1015D
:10167C00F200F30108000A128A15DE260A128A15F6
:10168C000B30F4000130F50001300A128A151226D5
:10169C000A128A150E30F4000430F50002300A12DA
:1016AC008A1512260A128A15003083120313A3001E
:1016BC000630A2001A30A1008030A0000A128A1154
:1016CC0034200A128A1500308312EE00ED0025300A
:1016DC00EC008030EB000A128A1199240A128A1548
:1016EC000A128A117A210A128A150A128A150E22F6
:1016FC000A128A1523088316AF0083122208831658
:10170C00AE00831221088316AD00831220088316C5
:10171C00AC003908AC0701300318AD070318AE074D
:10172C000318AF07AF1BAA2B2F08031DA92B0130E1
:10173C002E02031DA72B51302D02031DA72B813028
:10174C002C02031CAA2B6D240A128A1512250A12CC
:10175C008A150A128A1502250A128A150A128A1586
:10176C00DC250A128A15EF0183162F08B3002E0808
:10177C00B2002D08B1002C08B0000A128A1576248C
:10178C000A128A150A128A11A9200A128A150A123B
:10179C008A11D7200A128A1503108316B81F031456
:1017AC00031CDC2B83160313B817DF2B83160313D0
:1017BC00B8138312EF0A6F0B002CEF018316AC0ADF
:1017CC000319AD0A0319AE0A0319AF0AAF1B002C9B
:1017DC002F08031DFD2B01302E02031DFB2B513056
:1017EC002D02031DFB2B80302C02031C002C6D24BE
:1017FC000A128A1509308312A70083163B0863244A
:10180C000A128A1159220A128A150C30A700831663
:10181C0034088312A800831635088312A9000230FD
:10182C00AA01AB01AC000130AD010A128A11592298
:10183C000A128A150F30A70083163A0863240A127D
:10184C008A1159220A128A150930A70083162F080B
:10185C008312AB0083162E088312AA0083162D0860
:10186C008312A90083162C088312A8000530AC0043
:10187C000230AD010A128A1159220A128A150F3050
:10188C00A7006F08A8000230A901AA01AB01AC00A7
:10189C00AD010A128A1159220A128A1506308316D2
:1018AC00C6001330C500B130C400C40B5B2CC50B93
:1018BC005B2CC60B5B2C622CC32B8312A800023052
:1018CC00A901AA01AB01AC000130AD010800FF3049
:1018DC00AF00FE30AE00AE30AD008030AC00080082
:1018EC00831603133A088312B60083163A08031DB5
:1018FC00832C02308312B600862CFF308312B6077D
:10190C00831633088312A300831632088312A200B5
:10191C00831631088312A100831630088312A000AD
:10192C003608B00001300310B00DFF3E0310031D4C
:10193C009A2C300DA03E840083130008B100840A59
:10194C000008B200840A0008B300840A0008B4003E
:10195C003108A0023208031C320FA1023308031C09
:10196C00330FA2023408031C340FA302831636086B
:10197C008312A400831637088312A500A601A701C1
:10198C000A128A1161230A128A1521088316B500DE
:10199C00831220088316B40034083504031D080094
:1019AC0012250A128A1502250A128A15003A031901
:1019BC00080083163A080319E62C3A08FF3EE72C78
:1019CC0002308312B500B00001300310B00DFF3EA1
:1019DC000310031DEC2C300DA03E84008313000873
:1019EC008316B000840A0008B100840A0008B20013
:1019FC00840A0008B3000800381C0034340835048D
:101A0C00031D003438103A08013EBA0003303A0284
:101A1C000318BA01DC250134381808003A080330E1
:101A2C00FA00FC017C0803191E2D7C08FF3E1F2DBB
:101A3C000230FB007C08F00001300310F00DFF3E7B
:101A4C000310031D242D700DA03E84008313000889
:101A5C00F100840A0008F200840A0008F300840AEA
:101A6C000008F4007B08F50001300310F50DFF3E73
:101A7C000310031D3C2D750DA03E84000008F600DC
:101A8C00840A0008F700840A0008F800840A000899
:101A9C00F900803AFF007408803A7F02031D602D24
:101AAC0073087802031D602D72087702031D602DE8
:101ABC00710876027B08F00001300318972D031093
:101ACC00F00DFF3E0310031D662DFE250A128A152C
:101ADC00031D7A2D2E087302031D7A2D2D08720218
:101AEC00031D7A2D2C0871020318D22D7C08F000EE
:101AFC0001300310F00DFF3E0310031D802DFE2559
:101B0C000A128A15031D942D2E087302031D942DA1
:101B1C002D087202031D942D2C0871020318D02D70
:101B2C00D22D0310F00DFF3E0310031D982DFE2542
:101B3C000A128A15031DAC2D2E087302031DAC2D41
:101B4C002D087202031DAC2D2C0871020318BF2D39
:101B5C00AF1BD02D2F08031DBF2D01302E02031DEE
:101B6C00BD2D51302D02031DBD2D81302C02031CC7
:101B7C00D02DAF1BD02D2F08031DD22D01302E02DE
:101B8C00031DCE2D51302D02031DCE2D81302C0284
:101B9C000318D22D7C08FA000330FC0A7C02031CCB
:101BAC00182D7A083A06031D381408008316B6015E
:101BBC00B7018312A401240824072407903EA30034
:101BCC001E30A00083163A080A128A114A220A1201
:101BDC008A1523078400831700088316B607031899
:101BEC00B70A83120A30A40A240203180800E12D54
:101BFC00700DA03E84000008F100840A0008F20079
:101C0C00840A0008F300840A0008F400803AFF00FC
:101C1C002F08803A7F020800F600212E74087F3EC0
:101C2C001F2E7408BF3E1F2E7408933E1F2E74087F
:101C3C00D33EF7002F2E7608013A0319142E033ADF
:101C4C000319172E013A03191A2E073A03191D2EE0
:101C5C002F2E77083E27750884000A128A1103205C
:101C6C000A128A15003A03190800750884000A1232
:101C7C008A1103200A128A1547260A128A15F50AB8
:101C8C00312EF30083120313851005147308F20030
:101C9C0007300310F20CFF3E031D4F2E721C5A2E00
:101CAC008312031385165D2E83120313851273089A
:101CBC00F20006300310F20CFF3E031D602E721C66
:101CCC006B2E8312031305166E2E8312031305124B
:101CDC007308F20005300310F20CFF3E031D712E49
:101CEC00721C7C2E8312031385157F2E8312031313
:101CFC0085117308F20004300310F20CFF3E031D33
:101D0C00822E721C8D2E831203130515902E8312B6
:101D1C00031305110330F200F20B922E83120313FE
:101D2C008514D2270A128A15831203138510F22701
:101D3C000A128A150310F20C721CA82E83120313BC
:101D4C008516AB2E831203138512F2270A128A15FD
:101D5C00721CB42E831203130516B72E83120313B1
:101D6C0005127308F2000310F20C721CC12E8312C0
:101D7C0003138515C42E831203138511731CCA2EED
:101D8C00831203130515CD2E831203130511033093
:101D9C00F200F20BCF2E831203138514D2270A12F2
:101DAC008A15831203138510D2270A128A15352F30
:101DBC0083160317880189010313EB270A128A156E
:101DCC008312EB270A128A1535270A128A15352732
:101DDC000A128A1535270A128A1535270A128A150E
:101DEC0035270A128A1535270A128A15F401F40AC6
:101DFC00D9270A128A158512051285150515851421
:101E0C000510D2270A128A15D9270A128A153527E6
:101E1C000A128A150430F40A7402031CFE2EE227FF
:101E2C000A128A15851205128515051185140510DF
:101E3C00D2270A128A15E2270A128A1535270A12A6
:101E4C008A1528303E270A128A1510303E270A12AE
:101E5C008A1501303E270A128A150F303E2F0830A2
:101E6C00F1002330F000F00B392FF10B392F080063
:101E7C00F30083120313851005107308F20007306A
:101E8C000310F20CFF3E031D462F721C512F8312C0
:101E9C0003138516542F8312031385127308F20053
:101EAC0006300310F20CFF3E031D572F721C622FDD
:101EBC00831203130516652F83120313051273087F
:101ECC00F20005300310F20CFF3E031D682F721C4C
:101EDC00732F831203138515762F83120313851129
:101EEC007308F20004300310F20CFF3E031D792F2F
:101EFC00721C842F831203130515872F831203136F
:101F0C0005110330F200F20B892F83120313851491
:101F1C00D2270A128A15831203138510F9270A1285
:101F2C008A150310F20C721C9F2F83120313851653
:101F3C00A22F831203138512F9270A128A15721C19
:101F4C00AB2F831203130516AE2F83120313051246
:101F5C007308F2000310F20C721CB82F83120313D7
:101F6C008515BB2F831203138511731CC12F83128C
:101F7C0003130515C42F8312031305110330F2004C
:101F8C00F20BC62F831203138514D2270A128A155B
:101F9C00831203138510352FD32FD42F0000D62F87
:101FAC00D72F000008008312031385120512851524
:101FBC0005158510051008008312031385120512F0
:101FCC00851505118510051008008512051285115F
:101FDC0005118510051008007308F2000310F20CAF
:101FEC000310F20C08007308F2000310F20C03103B
:041FFC00F20C0800DB
:04400E00F2ECFFFED3
:00000001FF
