:100000000A128A11FA2F0428052800000728082858
:1000100000000800831203136808670466040319CC
:1000200008008030E8060800F300831203138510EF
:1000300005147308F20007300310F20CFF3E031D95
:100040001C28721C27288312031385162A28831262
:10005000031385127308F20006300310F20CFF3E02
:10006000031D2D28721C38288312031305163B2804
:100070008312031305127308F20005300310F20C0B
:10008000FF3E031D3E28721C492883120313851569
:100090004C288312031385117308F20004300310F7
:1000A000F20CFF3E031D4F28721C5A2883120313C3
:1000B00005155D288312031305110330F200F20BBE
:1000C0005F288312031385140A128A1103200A126F
:1000D0008A118312031385107308F2000330031092
:1000E000F20CFF3E031D6F28721C7A288312031343
:1000F00085167D288312031385127308F2000230DF
:100100000310F20CFF3E031D8028721C8B28831203
:10011000031305168E288312031305127308F200C9
:1001200001300310F20CFF3E031D9128721C9C2825
:100130008312031385159F28831203138511731CE3
:10014000A528831203130515A8288312031305118C
:100150000330F200F20BAA288312031385140A124B
:100160008A1103200A128A118312031385100A12BE
:100170008A1103200A128A110A128A15E82008003F
:1001800083120313B1000230AE002E08F600DE30F9
:100190000A128A15FC220A128A1183120313AF0075
:1001A0002F08B2002D08AE002E08A4003208AF00C0
:1001B00004300310AF0CFF3E031DD9282F0803396C
:1001C000B0003008A500A601A60A31080A128A115B
:1001D000E2220A128A11831203132D08013EAE0097
:1001E0002E08A40032080F39AF002F08A500A60181
:1001F000A60A31080A128A11E2220A128A11F601AD
:10020000F60ADE300A128A15FC220A128A118312BB
:100210000313AE002E08B2002D08023EAE002E08D9
:10022000A4003208AF0004300310AF0CFF3E031DE2
:1002300014292F080739B0003008A500A601A60A26
:1002400031080A128A11E2220A128A118312031358
:100250002D08033EAE002E08A40032080F39AF006F
:100260002F08A500A601A60A31080A128A11E22267
:100270000A128A11F601DE300A128A15FC220A12CD
:100280008A1183120313AE002E08B2002D08043E1B
:10029000AE002E08A4003208AF0004300310AF0CEB
:1002A000FF3E031D4E292F080739B0003008A50076
:1002B000A601A60A31080A128A11E2220A128A113C
:1002C000831203132D08053EAE002E08A400320849
:1002D0000F39AF002F08A500A601A60A31080A129F
:1002E0008A11E2220800243083120313B50074300F
:1002F000B6004A30B700831603132308FB00220818
:10030000FA002108F9002008F8000A128A15BC2218
:100310000A128A11780883120313A5007908A6002F
:100320007A08A7000030A2008030A3004030A4006B
:100330000A128A11A2230A128A11831203132208B5
:10034000B2002308B3002408B4000A128A112A223A
:100350000A128A1183120313320883160313A400AE
:1003600083120313330883160313A50083120313A8
:10037000340883160313A600240883120313E9002C
:1003800083160313250883120313EA00831603134D
:10039000260883120313EB000A128A15FA240A12A4
:1003A0008A1183120313690883160313A7008312AB
:1003B00003136A0883160313A800831203136B0840
:1003C00083160313A900270883120313C50083169D
:1003D0000313280883120313C60083160313290886
:1003E00083120313C7000030C2008030C300BF3047
:1003F000C4000A128A1175240A128A118312031387
:100400004208CF004308D0004408D1000A128A15E0
:10041000262683120313500883160313AB0083129E
:1004200003134F0883160313AA002A0899002B0808
:100430009A001815831603178715831203131816CD
:1004400083160313181283120313981783160313CA
:1004500098160800831203133508B8003608B9004F
:100460003708BA000310390D3A0DBB003B08C00035
:100470004008031D422A0030B2000030B3000030B3
:10048000B40008003208B8003308B9003408BA00D4
:100490000310390D3A0DBB003B08C1004108031D94
:1004A000582A0030B2000030B3000030B400080019
:1004B0000030BD000030BE000030BF008930410771
:1004C000B8003808C0023508B8003608B900370847
:1004D000BA0010300310BA0CB90CB80CFF3E031D63
:1004E0006A2A3808BB003B08C1003208B80033084C
:1004F000B9003408BA0010300310BA0CB90CB80CAB
:10050000FF3E031D7C2A3808BB003B08C106803033
:10051000B8003808C105B617FF30B505FF30B6057D
:100520000030B705B317FF30B205FF30B305003018
:10053000B4051830B8003808BC0001300310BD0DF8
:10054000BE0DBF0DFF3E031D9E2A34083702031D5A
:10055000AF2A33083602031DAF2A32083502031CC6
:10056000BC2A3208B5023308031C330FB602340824
:10057000031C340AB7023D1401300310B50DB60D4B
:10058000B70DFF3E031DBD2A0130BC02031D9D2A8D
:100590003D08F0003E08F1003F08F2004008B800B6
:1005A0003808F3004108B9003908F4000A128A1526
:1005B000BA25700883120313B2007108B3007208E1
:1005C000B400080083120313A900260803190800C9
:1005D00004302602031808002508A700A8012708F0
:1005E000AB002808AC00032B24087F3EFF2A240818
:1005F000BF3EFF2A2408933EFF2A2408D33EA700CB
:100600002708AA00112B2908013A0319F42A033AF2
:100610000319F72A013A0319FA2A073A0319FD2A9E
:10062000112B2A080A128A1559270A128A11033037
:10063000831203132602031C3A2B6430F0000030AF
:10064000F1002508A700A8012708F2002808F300F8
:100650000A128A158B230A128A1171088312031356
:10066000AC007008AB002B08303E0A128A1114202F
:100670000A128A110230831203132602031C732B01
:100680000A30F6000030F7002C08F1002B08F000CB
:100690006430F2000030F3000A128A1516210A12A3
:1006A0008A11700983120313A7007109A800A70A11
:1006B0000319A80A25082707F80028080318280A9C
:1006C000F9000A128A1501220A128A117708831288
:1006D0000313AC007608AB002B08303E0A128A11D7
:1006E00014200A128A118312031326080319080022
:1006F0000A30F0000030F1002508A700A801270803
:10070000F2002808F3000A128A158B230A128A11B4
:10071000710883120313AC007008AB000A30A70005
:100720002708A0002B080A128A1503210A128A1131
:10073000FF3A013E831203132507303E0A128A1145
:1007400014200800831203132208A8002308A9001C
:100750002408AA000310290D2A0DAB002B08AC00B9
:100760002C08031DBA2B0030A2000030A30000307B
:10077000A40008002508A8002608A9002708AA0048
:100780000310290D2A0DAB002B08B1003108031D01
:10079000D02B0030A2000030A3000030A4000800DD
:1007A00031087B3EA8002808AC072208A8002308CF
:1007B000A9002408AA0010300310AA0CA90CA80C48
:1007C000FF3E031DDC2B2808AB002B08B1002508D9
:1007D000A8002608A9002708AA0010300310AA0CB8
:1007E000A90CA80CFF3E031DEE2B2808AB002B081C
:1007F000B1068030A8002808B105A317A617FF305E
:10080000A505FF30A6050030A7050030AD0000307B
:10081000AE000030AF000730A8002808B000221C4E
:100820001F2C2508AD07260803110318260A031DEF
:10083000AE07270803110318270A031DAF0701306D
:100840000310A40CA30CA20CFF3E031D202C0130AE
:100850000310A50DA60DA70DFF3E031D282C01308A
:10086000B002031D0F2C0930A8002808B000221C7C
:10087000472C2508AD07260803110318260A031D77
:10088000AE07270803110318270A031DAF0701301D
:100890000310A40CA30CA20CFF3E031D482C013036
:1008A0000310AF0CAE0CAD0CFF3E031D502C0130FD
:1008B000B002031D372C2D08F0002E08F1002F0880
:1008C000F2002C08A8002808F3003108A900290824
:1008D000F4000A128A15BA25700883120313A200C5
:1008E0007108A3007208A4000800831203134208D1
:1008F000C8004308C9004408CA000310490D4A0D46
:10090000CB004B08CE004508C8004608C900470880
:10091000CA000310490D4A0DCB004B08CD004E080C
:1009200003199E2C4D084E020318A52C4E03FF3AC6
:100930004D07C80019304802031CA52C4508C20009
:100940004608C3004708C40008004D080319080002
:100950004E084D020318B42C4D03FF3A4E07C80051
:1009600019304802031808000630C8004808CC00B7
:10097000C41BCC17C71B4C17C317FF30C205FF3071
:10098000C3050030C405C617FF30C505FF30C605D6
:100990000030C7054D084E020318F42C0130031037
:1009A000C50DC60DC70DFF3E031DCF2C0130CD0276
:1009B0004D084E060319EF2C0130CC024C080739C4
:1009C0000319EF2CCE2C01300310C40CC30CC20C45
:1009D000FF3E031DE42C0130C8004808CE074E0836
:1009E0004D0603191D2DE32C4E084D0203181D2D35
:1009F00001300310C20DC30DC40DFF3E031DF92CC1
:100A00000130CE024D084E060319192D0130CC02DB
:100A10004C0807390319192DF82C01300310C70CA5
:100A2000C60CC50CFF3E031D0E2D0130C800480842
:100A3000CD074E084D06031D0D2DCC1F2F2DFF3069
:100A4000C206FF30C306FF30C4060130C2070030C3
:100A500003180130C307003003180130C4074C1FCE
:100A6000412DFF30C506FF30C606FF30C7060130F6
:100A7000C507003003180130C607003003180130E5
:100A8000C707CC014208C507430803110318430AEE
:100A9000031DC607440803110318440A031DC707B2
:100AA000C71F642DFF30C506FF30C606FF30C706DE
:100AB0000130C507003003180130C60700300318A5
:100AC0000130C707CC01CC0A4508F0004608F10008
:100AD0004708F2004E08C8004808F3004C08C90057
:100AE0004908F4000A128A15BA2570088312031304
:100AF000C2007108C3007208C400080000308312ED
:100B00000313B6000030B5000030B4000030B3006D
:100B10000230A4002408F600DE300A128A15FC22F6
:100B20000A128A1183120313A5002508B70037089B
:100B3000A40004300310A40CFF3E031D9A2D2408CA
:100B40000339A500A6012508F0002608F1000A30A7
:100B5000F2000030F3000A128A1516210A128A11D7
:100B60008312031337080F397007B3007108031895
:100B7000710AB400B501B41BB5033508B6003608D8
:100B8000F3003508F2003408F1003308F0000030BB
:100B9000F7000030F6000E30F5001030F4000A12B5
:100BA0008A153D220A128A11730883120313B600B4
:100BB0007208B5007108B4007008B300F601F60AB7
:100BC000DE300A128A15FC220A128A1183120313DC
:100BD000A4002408B7003708A40004300310A40CB4
:100BE000FF3E031DEE2D24080739A500A6012508A8
:100BF000F0002608F1000A30F2000030F3000A127B
:100C00008A1516210A128A118312031337080F3925
:100C10007007B10071080318710AB2003308A4000C
:100C20003408A5003508A6003608A7003208F100F0
:100C30003108F0003C30F2000030F3000A128A154F
:100C400016210A128A11700883120313A800710872
:100C5000A9000030A91BFF30AA00AB002808A40798
:100C600029080318290F352E362EA5072A08031840
:100C70002A0F3B2E3C2EA6072B0803182B0AA7078A
:100C80002708B6002608B5002508B4002408B300DC
:100C9000F601DE300A128A15FC220A128A1183122A
:100CA0000313A4002408B7003308A4003408A500E7
:100CB0003508A6003608A7003708A800043003103E
:100CC000A80CFF3E031D5F2E28080739A900AA01C2
:100CD0002908F0002A08F1000A30F2000030F30081
:100CE0000A128A1516210A128A1183120313370871
:100CF0000F397007AB0071080318710AAC002B089C
:100D0000AD002C08AE000030AE1BFF30AF00B000CD
:100D10002D08A4072E0803182E0F8F2E902EA5073E
:100D20002F0803182F0F952E962EA60730080318AC
:100D3000300AA7072708B6002608B5002508B40022
:100D40002408B3003608A3003508A2003408A10027
:100D50003308A00008008316031788018901831651
:100D60000313850186010A128A15B4260A128A1114
:100D7000003083160313A3000030A2002530A10029
:100D80008030A0000A128A1173210A128A110030E1
:100D900083120313A3000630A2001A30A100803092
:100DA000A0000A128A1591210A128A1101300A1232
:100DB0008A1559270A128A11F401F40A1B30831686
:100DC0000313AC002C08F50001300A128A157C22AE
:100DD0000A128A11F401F40A163083160313AC00C8
:100DE0002C08F50002300A128A157C220A128A1198
:100DF0000B3083160313AC002C08F4002030AD0038
:100E00002D08F50002300A128A157C220A128A1176
:100E10000B3083160313AC002C08F4002030AD0017
:100E20002D08F50001300A128A157C220A128A1157
:100E30008316031307118312031307158316031375
:100E4000BC01871083120313871401308316031328
:100E5000AC002C08BC070C30AC002C088312031328
:100E6000A900831603133C08AD00AE01AF01B00129
:100E7000300883120313AD00831603132F08831267
:100E80000313AC00831603132E0883120313AB0065
:100E9000831603132D0883120313AA00053083164B
:100EA0000313B100310883120313AE0001300A129C
:100EB0008A153F240A128A11643083160313AC008A
:100EC0002C08F900B2300A128A155A250A128A1122
:100ED000003A0319922F83160313BD0106303D0219
:100EE0000318A22F3D08053EAC002C088312031303
:100EF000A400831603133D08B23E84008313000848
:100F0000AD002D0883120313A50001300A128A15C3
:100F100063210A128A11013083160313AC002C08D6
:100F2000BD076E2F053083160313AC002C08F400A8
:100F30000F30AD002D08F50001300A128A157C2211
:100F40000A128A110A128A117E250A128A11831244
:100F50000313230883160313BB0083120313220811
:100F600083160313BA008312031321088316031395
:100F7000B90083120313200883160313B800053049
:100F8000AC002C0883120313AD0002300A128A1140
:100F9000C0200A128A110C3083160313AC002C08EF
:100FA00083120313A900831603133B088312031350
:100FB000AD00831603133A0883120313AC008316A3
:100FC0000313390883120313AB0083160313380885
:100FD00083120313AA00053083160313AD002D08F6
:100FE00083120313AE0002300A128A153F240A123C
:100FF0008A11252FBE01BF0183010A128A11AB2E6F
:1010000008308A000408840A8207003424344734F4
:10101000503452344D3443342C3424344734503417
:1010200052344D3443342C344734503453344534E3
:101030005234523400345234543443343A34003449
:0E1040004734503453343A3400342D340034E5
:101192000A128A15DF2083160313111408000A129B
:1011A2008A15DF2083160313111508000A128A1507
:1011B200DF207008831203139300080083160313C1
:1011C2001419DF2811081F3903190800DF28083015
:1011D200F1002330F000F00BEC28F10BEC280800B2
:1011E200F000F62800000130F002831203138C1A7B
:1011F200FD287008031DF3288C1E01291A08080017
:101202004130080083120313A300A201231C0D29FD
:101212002008A1002108A2070310A00D0310A30CAF
:101222002308031D072922080800F401F501701C98
:1012320020297208F4070318F50A7308F50701302C
:101242000310F20DF30DFF3E031D2129013003109F
:10125200F10CF00CFF3E031D282970087104031DD8
:1012620018297508F1007408F00008000A128A159E
:10127200DF200A128A158316031391150A128A15A2
:10128200DF200A128A15831203131308F200F301F6
:101292007208F4007308F5000A128A15DF200A1298
:1012A2008A1570087104031D5A29831603139116B7
:1012B2005D2983160313911211167508F100740843
:1012C200F000080083120313A700762924087F3E4A
:1012D20072292408BF3E72292408933E72292408E9
:1012E200D33EA6002608A80084292708013A03193C
:1012F2006729033A03196A29013A03196D29073A42
:1013020003197029842928080A128A1559270A12F2
:101312008A158312031325080A128A111420080061
:10132200283083120313940083160313910183124E
:1013320003132008A4002108A5002208A600230800
:10134200A70002300310A40DA50DA60DA70DFF3EA8
:10135200031DA3292708F3002608F2002508F1003F
:101362002408F0000030F7003D30F6000930F500A7
:101372000030F4000A128A159C247008FF3E83167E
:10138200031393009401871507160800720871046D
:101392007004031DD3297308840083138001840A17
:1013A2008001080072087F39F400F5010310F40D82
:1013B200F50D73088400740883138000840A75088D
:1013C2008000710D710D0139F400F501730884007C
:1013D20074088004840A75088004730884008230CB
:1013E2008007840F00080318000AFF00FF307F0700
:1013F20080008403720880393F38F200F11308003C
:10140200FB01FC01760877040319382AFD01FD0A65
:10141200F71B172A01300310F60DF70DFF3E031DCF
:101422000C2A0130FA007A08FD07092A013003105C
:10143200FB0DFC0DFF3E031D182A77087902031DE0
:10144200242A76087802031C2D2A7608F8027708E7
:10145200031CF903F9027B1401300310F70CF60C9C
:10146200FF3E031D2E2A0130FD02031D172A7C08B0
:10147200F7007B08F60008000030FC000030FB009B
:101482000030FA000030F900701C5B2A7408F9077A
:10149200750803110318013E031DFA0776080311AC
:1014A2000318013E031DFB07770803110318013ED1
:1014B200031DFC070130F8000310F40DF50DF60DC5
:1014C200F70DF80B5D2A01300310F30CF20CF10C4E
:1014D200F00CFF3E031D652A730872047104700448
:1014E200031D452A7C08F3007B08F2007A08F1000C
:1014F2007908F0000800F7008D2A74087F3E892AD7
:101502007408BF3E892A7408933E892A7408D33E20
:10151200F6007608F8009B2A7708013A03197E2A1A
:10152200033A0319812A013A0319842A073A031953
:10153200872A9B2A78080A128A1559270A128A15BD
:10154200750884000A128A1500200A128A15003AC8
:1015520003190800750884000A128A1500200A126D
:101562008A150A128A1114200A128A150130F6000D
:101572007608F507A12A83120313A1018E30FC001D
:101582007C08A000FB1FD22AF809F909FA09FB0915
:10159200F80A0319F90A0319FA0A0319FB0AA10145
:1015A200A10AFF307B050319E42A01300310FB0C6A
:1015B200FA0CF90CF80CFF3E031DD72A0130FC008F
:1015C2007C08A007D22A7808F0007908F1007A088E
:1015D200F2002008FC007C08F3002108FD007D08D1
:1015E200F4000A128A15BA257008F8007108F90089
:1015F2007208FA000800FA000A128A15C9200A12B3
:101602008A157A08F700F8017708F0007808F100E7
:101612000A128A15D7200A128A157608F700F801ED
:101622007708F0007808F1000A128A15D7200A120A
:101632008A150A128A15D0200A128A150A128A15E8
:10164200C9200A128A157A08013EF00000300318F8
:101652000130F1000A128A15D7200A128A150030C9
:10166200F000F1000A128A1537210A128A15700851
:10167200F7007708F9000A128A15D02079080800C5
:10168200831203135D08F0005E08F1005F08F200A8
:101692006430E0006008F3000A128A15C7210A12BA
:1016A2008A1583120313E51F5D2B0030DD00003025
:1016B200DE000030DF00080000306502153003193B
:1016C2006402031808005D08CF005E08D0005F08BE
:1016D200D1000A128A1526260A128A1583120313CA
:1016E2005208FB005108FA005008F9004F08F800B0
:1016F2000A128A15BC22780883120313E1007908C2
:10170200E2007A08E3006108DD006208DE00630897
:10171200DF000800F601F11F952BF009F109F00A2C
:101722000319F10AF601F60AF31FA02BF209F309D5
:10173200F20A0319F30A0130F4007408F606F701FD
:10174200F801700871040319D72BF501F50AF11B92
:10175200B62B01300310F00DF10DFF3E031DAB2B34
:101762000130F4007408F507A82B01300310F70DBF
:10177200F80DFF3E031DB72B71087302031DC32B27
:1017820070087202031CCC2B7008F2027108031C51
:10179200F303F302771401300310F10CF00CFF3E57
:1017A200031DCD2B0130F502031DB62B760803195C
:1017B200DF2BF709F809F70A0319F80A7808F1008C
:1017C2007708F0000800F600760884008313800191
:1017D200F801F7018312031318121816F401F50128
:1017E2000330750201300319740203183B2C71088F
:1017F2000A128A15F1200A128A15F2007208F700FD
:1018020007307802031C152C0D3078020318152CB2
:101812007708F2007808F93E7607F300730884002F
:10182200720883138000242C7808083E84000A1270
:101832008A1500200A128A157706031D292C073003
:1018420078020318292C0130F2007208F8072E2CB6
:101852000D30780203180800F8010130F40703186C
:10186200F50A0030F50703307502013003197402DE
:10187200031CF82B8312031318120800831203139C
:10188200B2002E08031908000130AE022E08290703
:10189200AF002F08A4000A30B0003008A0002D08C5
:1018A200F7002C08F6002B08F5002A08F400003097
:1018B200F3000030F2000030F1000A30F0000A12AA
:1018C2008A159C240A128A1570080A128A150321A5
:1018D2000A128A15FF3A013E831203132A07303E89
:1018E200B1003108A50032080A128A1563210A12D2
:1018F2008A150030F3000030F2000030F1000A30A7
:10190200F000831203132D08F7002C08F6002B08B1
:10191200F5002A08F4000A128A159C240A128A1574
:10192200730883120313AD007208AC007108AB0098
:101932007008AA00422C0030FC000030FB0000308E
:10194200FA000030F900730872047104700403197C
:10195200F12CFD01FD0AF31BBC2C0130F800031031
:10196200F00DF10DF20DF30DF80BB02C0130F80073
:101972007808FD07AC2C0130F8000310F90DFA0DC0
:10198200FB0DFC0DF80BBE2C73087702031DD32C44
:1019920072087602031DD32C71087502031DD32C25
:1019A20070087402031CE42C7008F4027108031C12
:1019B200710FF5027208031C720FF6027308031C02
:1019C200730FF702791401300310F30CF20CF10CCF
:1019D200F00CFF3E031DE52C0130FD02031DBC2C63
:1019E2007C08F3007B08F2007A08F1007908F00025
:1019F2000800831203136908C2006A08C3006B0857
:101A0200C4006908DD006A08DE006B08DF000A1204
:101A12008A1541230A128A15831203135D08E60010
:101A22005E08E7005F08E8000A128A110A200A121B
:101A32008A15831203136608C5006708C600680882
:101A4200C7000A128A1175240A128A158312031317
:101A52004208EC004308ED004408EE006C08C200A6
:101A62006D08C3006E08C4006908C5006A08C60094
:101A72006B08C7000A128A1175240A128A1583128A
:101A820003134208E9004308EA004408EB0069082E
:101A9200DD006A08DE006B08DF000A128A154123A6
:101AA200831203135D08E9005E08EA005F08EB0099
:101AB2000800FC00FB01FB0A7908FA007A08F10031
:101AC2007C080A128A15E4230A128A157C0884000B
:101AD200303083130002031C732D7C0884003330E2
:101AE20000020318FB017C0A840030300002031C50
:101AF2007F2D7C0A84003A3000020318FB017C0827
:101B0200023E840030300002031C8D2D7C08023E10
:101B12008400373000020318FB017C08033E840076
:101B220030300002031C9B2D7C08033E84003A30B7
:101B320000020318FB017C08043E840030300002DE
:101B4200031CA92D7C08043E8400373000020318D0
:101B5200FB017C08053E840030300002031CB72DD7
:101B62007C08053E84003A3000020318FB017B0822
:101B7200080073080319C22D720871047004031D52
:101B8200D52D0030F0000030F1000030F2000800E6
:101B92000130F5007508F30701300310F20CF10C67
:101BA200F00CFF3E031DCE2DFE3072050319F02D01
:101BB200C92D0130F5007508F3070130F007003038
:101BC20003180130F107003003180130F207013029
:101BD2000310F20CF10CF00CFF3E031DE92DFF3057
:101BE20072050319FF2DDA2D0130F30201300310C3
:101BF200F00DF10DF20DFF3E031DF82DF11B052E28
:101C0200023073020318F52D73180D2EFF30F00504
:101C12007F30F105FF30F2050310F30C7308F50075
:101C2200F601F70110300310F50DF60DF70DFF3E2A
:101C3200031D142E7508F0047608F1047708F204E7
:101C4200740803190800F2170800831203134F08DF
:101C5200D3005008D4005108D5000310540D550D7F
:101C6200D6005608DC005C08031D402E0030D2006E
:101C72000030D1000030D0000030CF0008004F0803
:101C8200D3005008D4005108D50017300310D50CEA
:101C9200D40CD30CFF3E031D472E5308D600560822
:101CA200D700D017FF30CF05FF30D0050030D10567
:101CB2004F08D8005008D9005108DA00DB018E30F5
:101CC200DC02DC1F822E5C08803A8F3E0318722EE3
:101CD2000030D2000030D1000030D0000030CF0000
:101CE200080001300310DB0CDA0CD90CD80CFF3ED3
:101CF200031D732E0130D3005308DC0703199D2EF8
:101D0200722E18305C02031C9A2E0030D200003072
:101D1200D1000030D0000030CF0008000130D300E5
:101D22000310D80DD90DDA0DDB0DD30B912E013036
:101D3200DC025C08031D8F2E57080319AB2ED8094D
:101D4200D909DA09DB09D80A0319D90A0319DA0A07
:101D52000319DB0A5B08D2005A08D1005908D000E7
:101D62005808CF00080083160317880189018316DB
:101D720003138512051285110511851005108312B2
:101D820003138512051285110511851005100A121B
:101D92008A15E8200A128A150A128A15E8200A1200
:101DA2008A150A128A15E8200A128A150A128A1559
:101DB200E8200A128A150A128A15E8200A128A15E0
:101DC2000A128A15E8200A128A15F501F50A04306A
:101DD20075020318142F8312031385120512851539
:101DE2000515851005108512051285150515851432
:101DF20005100A128A1103200A128A15831203138C
:101E02008512051285150515851005100A128A1509
:101E1200E8200A128A150130F4007408F50704302C
:101E22007502031CEC2E831203138512051285150D
:101E320005118510051085120512851505118514E9
:101E420005100A128A1103200A128A15831203133B
:101E52008512051285150511851005100A128A15BD
:101E6200E8200A128A152830F4007408F500750873
:101E72000A128A1559270A128A151030F4007408BA
:101E8200F50075080A128A1559270A128A15F501F2
:101E9200F50A75080A128A1559270A128A150F308F
:101EA200F4007408F50075080A128A15592708000B
:101EB200F30083120313851005107308F200073034
:101EC2000310F20CFF3E031D612F721C6C2F831254
:101ED200031385166F2F8312031385127308F20002
:101EE20006300310F20CFF3E031D722F721C7D2F71
:101EF200831203130516802F83120313051273082E
:101F0200F20005300310F20CFF3E031D832F721CFA
:101F12008E2F831203138515912F831203138511BC
:101F22007308F20004300310F20CFF3E031D942FDD
:101F3200721C9F2F831203130515A22F8312031302
:101F420005110330F200F20BA42F83120313851440
:101F52000A128A1103200A128A15831203138510AA
:101F62007308F20003300310F20CFF3E031DB42F7E
:101F7200721CBF2F831203138516C22F8312031301
:101F820085127308F20002300310F20CFF3E031DAB
:101F9200C52F721CD02F831203130516D32F831261
:101FA200031305127308F20001300310F20CFF3E16
:101FB200031DD62F721CE12F831203138515E42F04
:101FC200831203138511731CEA2F83120313051561
:101FD200ED2F8312031305110330F200F20BEF2FE2
:101FE2008312031385140A128A1103200A128A1516
:0E1FF2008312031385100A128A15E8200800D6
:04400E00F2ECFFFED3
:00000001FF
