:0400000031EF00F0EC
:100008005282E1CF48F0E2CF49F0D9CF4AF0DACFB7
:100018004BF0F3CF4CF0F4CF4DF0F6CF4EF0F7CFD6
:100028004FF0F8CF50F0F5CF51F0DCEC03F051C0B1
:10003800F5FF50C0F8FF4FC0F7FF4EC0F6FF4DC0A8
:10004800F4FF4CC0F3FF4BC0DAFF4AC0D9FF49C0E8
:0E005800E2FF48C0E1FF52921100BEEF0BF034
:1003000000C27C480509024300020100C032090412
:100310000000010202010005240010010424020271
:1003200005240600010524010001070581030800DA
:100330000209040100020A00000007050202400051
:1003400000070582024000003403430044004300DC
:100350002000520053002D003200330032002000F4
:1003600045006D0075006C006100740069006F004D
:100370006E002000440065006D006F0034034D00E6
:100380006900630072006F0063006800690070001C
:10039000200054006500630068006E006F006C0070
:1003A0006F0067007900200049006E0063002E0096
:1003B0001201000202000008D8040A000001010234
:1003C0000001040309044120707265737365640AB7
:0303D0000D00001D
:1003D400020132050BE130511F0B08E10C8E030EB4
:1003E400311903E1010E256E01D0256A3251D8A4DA
:1003F400120030511F0B020AD8A4120034510F0B03
:10040400D8B4120034510F0B3E6E030E3E60030C41
:10041400200E00018119D8A412000C8E020134BFF1
:1004240007D034510F0B60EC06F08BD8700F06D058
:1004340034510F0B5AEC06F084D8730FD96EDA6A74
:10044400DF50426E42B003D0FB0E431602D0040EBE
:100454004312445034BF03D082D8600F02D07FD8F7
:100464000F0FD96EDA6A43C0DEFF44C0DDFF030E0E
:10047400311914E156D8DFAE0BD034BF03D06AD89B
:10048400700F02D067D8730FD96EDA6A0001DF8269
:1004940048D8000EDB8445D8DB8E000C040E431ACA
:1004A40044503FD8DFAE0AD03CD87F0EDF1639D88F
:1004B400000EDB8C3BD8FAEC0AF003D032D8000EE5
:1004C400DB8C040E431A445042B203D02AD8DFAE68
:1004D40013D0020134BF03D03DD8700F02D03AD8F4
:1004E400730FD96EDA6A0001DF921BD83B0EDF1658
:1004F4001DD8FAEC0AF003D014D83B0EDF16020123
:1005040034510F0B3E6E3F6A530E3E24406E0F0E65
:100514003F20416E40C0D9FF41C0DAFFFE0EDF1616
:10052400FE0C43C0D9FF44C0DAFF1200376A050E3F
:10053400366E43C038F044C039F03B6A020E3A6E5E
:10054400020CDECF43F0DDCF44F034510F0B3E6E8E
:100554003E50120034510F0B3E6E3E501200345187
:100564000F0B020DF3501200200E0001816101D027
:10057400200C64B21200010EC4EC0DF0E8060CE18C
:100584007F510BE1805109E1ED0ED36FD46B62EC26
:100594000BF0010E7F6F01D07F6B805102E05CEFA6
:1005A40004F0820EDC6F400EDD6FC3EC0AF0010133
:1005B400486F496B5CD06BD8000E4925E16EE26A46
:1005C400010EE222DFCFE7FF50D0C60E0001D36F49
:1005D400D351D8A4030ED46F62EC0BF00101406B2D
:1005E400416B426B436B40C1DFF041C1E0F042C15B
:1005F400E1F043C1E2F0070E0001E36F4EEC03F0BB
:1006040034D0D00E0001E96FEA69010140D8DF500F
:100614000001EB6FEC6BE951EB27EA51EC23EBC0E3
:1006240044F1ECC045F10101000E45BFFF0E466FD9
:10063400476F000E4925D96EDA6A010EDA2244C1E9
:10064400DFF045C1E0F046C1E1F047C1E2F0D9EC8A
:1006540006F0300FDF6E09D01AD8DF500A0AABE07B
:10066400070AA9E04C0AB1E0CCD70101492B485153
:10067400495DF2E3485109E0000E0001D36F010E19
:10068400D46F48C1D5F0A8EC0DF05CEF04F04951EB
:10069400820FD96EDA6A1200E46BE56BE86B00EC4A
:1006A4000EF0000125EC07F073D846EC05F029ECB8
:1006B40007F06ED846EC05F077D8DFC0D7F0D86BDA
:1006C40046EC05F05ED8A90ED76F46EC05F06CD861
:1006D400E0C0D7F0D86B46EC05F053D8AA0ED76F1C
:1006E40046EC05F061D8E3C0D7F0D86B46EC05F0D2
:1006F40048D8A80ED76F46EC05F0D46BD36BD66BF5
:10070400840E46D846EC05F0D46BD36BD66B820EC0
:100714003FD846EC05F041D846EC05F03ED846EC0F
:1007240005F02DEC07F034D846EC05F02AD8F50E88
:10073400D76F46EC05F031D846EC05F031EC07F004
:1007440037EC08F0D3C0E6F0D4C0E7F0E75102E19B
:10075400010EE86FE44BE52BE85105E1E55103E1B7
:10076400050EE45DDEE38A9C640EE82EFED70001EC
:10077400D46BD36BD66B940E0BD846EC05F0FEEF1E
:100784000DF0D46BD36BD66B6E0ED56FD86B6E0C2D
:10079400D56FD86BA60ED76FA60CD46BD36BD66B64
:1007A400D56BD86BD76B1200D46BD36BD66B0E0E94
:1007B400D56F0E0C0001810507E164BA05D0626AA9
:1007C40060806088020E816F62B460A403D062947A
:1007D4006BEC0DF064A202D0A194120062B060A090
:1007E40006D0D9EC04F0A084040E816F629062B844
:1007F40060A802D05AEC0DF062AC13D060AC07D004
:10080400376A730E366E386A50D8FAEC0AF0629C76
:10081400B6EC0DF0215001E02106215002E1DFEC9D
:1008240009F062BA60AA02D08CEC0CF062B260A249
:1008340009D07F0E376E3668386A37D8FAEC0AF07A
:100844000F015F6B040E0001816102D0A194040CBE
:1008540060A629D0476A62A626D063CF28F0283044
:10086400E832E8320F0B236E629628B403D023508B
:10087400700F02D02350730FD96EDA6A0001DF7053
:10088400235003E153EC0AF00AD0376A720E366E35
:10089400280E386E396A3B6A3A6AFAEC0AF0472A3B
:1008A400030E4764D8D7A1941200396A3B6A010E3B
:1008B4003A6E010CA09400017651771108E076C0DD
:1008C400D9FF77C0DAFFDFAE02D0A0841200030E96
:1008D400801901E1806B805102E1A0841200020EB4
:1008E40080190DE1010ED36F000ED46FD56FD66F52
:1008F400020E19EC06F056D8030E806F3ED0800528
:100904003CE1400E1B6402D0DD6F02D01BC0DDF061
:10091400DD511B5E400E6A6F020E6B6FDDC0DCF0B2
:100924007C510AE015D02BD8F76403D00800F550A9
:1009340002D0FDEC05F02ED8DC510CE0F4D71FD822
:10094400F76403D00800F55002D0FDEC05F022D87E
:10095400DC51F5E11B5006E1400EDD19020ED8A46E
:10096400030E806F010ED36F400ED46F020ED56F4D
:10097400DDC0D6F019EC06F015D8A08412006DC0C5
:10098400F6FF6EC0F7FFF86A6AC0D9FF6BC0DAFFE2
:10099400020E1200DF6E00016A4B6B2B6D4B6E2B47
:1009A400DC071200D3C076F0D4C077F012005CD814
:1009B40027EC08F045EC0DF084EC0CF0326A325070
:1009C40047D8322A0B0E3264FAD72ED8326A325004
:1009D4005AEC06F0DE6ADD6A325060EC06F0DE6A3C
:1009E400DD6A325047D832504AD8322A020E326475
:1009F400EED7080E00D00F6E020E106E160E0F0109
:100A0400536F020E0201036F300E026F080E016F66
:100A1400040E006F008F296A0001666B676B686BB8
:100A2400696B7D6B816B1200648C0F015C6B649845
:100A3400649C62960C6A046A056A066A62B6F9D70F
:100A4400010E1F6E1E6E1D6A00017E6B246A120069
:100A5400040D000EF324D96E020EF420DA6EDE6A61
:100A6400DE6ADE6ADD6A1200A0940F015F6B626ABF
:100A7400536B1200730FD96EDA6ADF6A1200700FBB
:100A8400D96EDA6ADF6A120000D000F00001DC6B74
:100A94008A8C00D000F0DCC0D9F0D3C0DAF0D4C026
:100AA400DBF00001D92B01D055D8D92FFDD7000197
:100AB400DAA102D08B8801D08B9800D000F08A9CF8
:100AC40000D000F00001DC2B030EDC65E1D700D080
:100AD40000F0DD6B8A8C00D000F0DDC0D9F0D7C007
:100AE400DAF0D8C0DBF00001D92B01D033D8D92FEC
:100AF400FDD70001DAA102D08B8801D08B9800D0F9
:100B040000F08A9C00D000F00001DD2B070EDD65AB
:100B1400E1D7DE6B8A8C00D000F0DEC0D9F0D5C0FE
:100B2400DAF0D6C0DBF00001D92B01D013D8D92FCD
:100B3400FDD70001DAA102D08B8801D08B9800D0B8
:100B440000F08A9C00D000F00001DE2B070EDE6569
:100B5400E1D7070CD890DB33DA331200800E0201A0
:100B64003019D8A41200C00E0C6E3DD0B00E096E20
:100B74000950D8A4030E0A6E0E6A120E0D6E120CE2
:100B8400325116E13251040F48D8020E3AD8F764B4
:100B940003D00800F55001D02ED80D6E030E31D8C5
:100BA400F76403D00800F55001D025D80E6E12006A
:100BB4000C6A1200030E326112D03251010F2DD88B
:100BC40009C0F6FF0AC0F7FFF86A020EF76403D003
:100BD4000800F55001D00FD80D6E0E6A12000C6A91
:100BE40012000C6A12003351010AC0E0030AC8E083
:100BF400010AE0E0F6D7F6CFE1FFF7CFE2FFE750D6
:100C0400120009242A6E000E0A202B6E2AC0F6FF59
:100C14002BC0F7FFF86A020E12002A6E2AC0F6FFF4
:100C2400030EF76E0900F5CF09F00A6E1200D96FB2
:100C34000001D35104E0D9517FEC07F003D0D9511E
:100C440088EC07F0D96EDA6ADECFDAF0DDCFDBF0BC
:100C5400DA51DB1103E1D36BD46B120020EE02F006
:100C640042D8D4C0DEFFD5C0DDFF20EE01F03BD872
:100C7400D6C0DFFF33D8400EDF1630D8000EDB8637
:100C84002DD8DB8ED35105E0D95112D81DD80F0FC2
:100C940004D0D95113D818D8600FD96EDA6AD7C0E6
:100CA400DEFFD8C0DDFFDAC0D3F0DBC0D4F0120021
:100CB400020DF3500F0FD96EDA6A1200020DF350D1
:100CC400600FD96EDA6A1200DECFD7F0DDCFD8F02C
:100CD400040ED71BD951020DF3501200DAC0D9FF0C
:100CE400DBC0DAFF1200DA51D926DB51DA22120016
:100CF40020EE01F011EC0AF0DF502B6E2B50055C56
:100D0400000E065802E205C02BF02B50055E000EC3
:100D1400065A2A6A07D0380E2A2444D801503DD8EE
:100D2400012A2A2A2B502A5CF6E30550061014E007
:100D340020EE01F01BD81FD819D8380E16EC0AF093
:100D4400A1EC0CF0DFBC04D023D8480E19D8000C59
:100D54001FD8080E15D8000CBBEC08F0040E10D8F0
:100D6400049E2050D8B4DFEC09F012001550D926A7
:100D74001650DA221200080EDF6E20EE02F0080C84
:100D8400DF6E15C0D9FF16C0DAFF000EDB8E000C33
:100D940015C0D9FF16C0DAFF1200E16EE26ADFCF98
:100DA400E7FF1200D96EDA6A020EDA22020C00ECB6
:100DB4000EF0000148D8CAEC03F046EC05F047D821
:100DC400CAEC03F046EC05F0D6EC03F0DFC0D7F034
:100DD400D86B46EC05F0C3EC03F0A90ED76F46ECD4
:100DE40005F0D6EC03F0E0C0D7F0D86B46EC05F084
:100DF400C3EC03F0AA0ED76F46EC05F0D46BD36BAB
:100E0400D66B800ECAEC03F046EC05F024D8D56FFF
:100E1400D86BA80ED76F46EC05F0C3EC03F0F50EC3
:100E2400D76F46EC05F0CFEC03F046EC05F017D88D
:100E340037EC08F0D3C0E3F0D4C0E4F0FEEC0DF0DE
:100E44000001E4511200D46BD36BD66B9E0CD46BAF
:100E5400D36BD66B9C0CD46BD36BD66B500CD46B0E
:100E6400020ED36F020C306E2A5003E0305045D886
:100E740002D030504BD8D96EDA6ADECF31F0DDCFF4
:100E840032F03150321003E12A6A2B6A120020EE4C
:100E940002F040D82BC0DEFF2CC0DDFF20EE01F0B5
:100EA40039D82DC0DFFF2DD8400EDF162AD8000E0A
:100EB400DB8627D8DB8E2A5006E030505AEC06F049
:100EC40012D80F0F05D0305060EC06F00CD8600F2C
:100ED400D96EDA6A2EC0DEFF2FC0DDFF31C02AF0E2
:100EE40032C02BF01200DECF2EF0DDCF2FF0040E37
:100EF4002E1A3050020DF3501200020DF3500F0F52
:100F0400120031C0D9FF32C0DAFF1200020DF350D3
:100F1400600F12003150D9263250DA221200080E26
:100F24002A6E0E500DE1080E0D5C0AE20DC02AF087
:100F3400275002E1010E03D0270402E1020E276EBE
:100F44002A500D5E000E0E5A20EE01F02FD82AC052
:100F5400DFFF380E00017A6F020E7B6F0CB01AD0DF
:100F64000BD009C0F6FF19D8F76403D00800F55078
:100F740002D0FDEC05F01FD82A50F3E1120009C09D
:100F8400F6FF0BD8F76403D00800F55002D0FDEC4F
:100F940005F011D82A50F3E112000AC0F7FFF86AED
:100FA4007AC0D9FF7BC0DAFF020E12000F50D92697
:100FB4001050DA221200DF6E094A0A2A00017A4B25
:100FC4007B2B2A0612000C8E40D845EC0DF02A6AC1
:100FD400020E2B6E2D6A2C6A2F6A300E2E6E45EC93
:100FE4000DF0648C3E6A3E503CEC05F03E5041EC02
:100FF40005F03E2A020E3E64F6D7D10E2A6E2B6A05
:101004002D6A2C6A2F6A020E2E6E45EC0DF0649C3C
:10101400080E0F6E020E106E000E176E020E1FD811
:1010240032C229F0295004E1100E0001816F100C26
:10103400376A010E366E290E386E57EC04F0FAEC5E
:101044000AF0200E0001816F200C540E2A6E0F0E40
:101054002B6E2D6A2C6A2F6A020E2E6E020C186EED
:1010640017C015F018C016F01200D86BD96BDA6BE4
:101074008A8C00D000F0DAC0D5F0D3C0D6F0D4C04A
:10108400D7F00001D52B03D0D890D733D633D52F42
:10109400FBD70001D6A102D08B8801D08B9800D059
:1010A40000F08A9C00D000F00001DA2B030EDA6510
:1010B400DFD79488DB6B8A8C00D000F082A814D030
:1010C400DBC0D5F0010E0001D66FD76BD52B03D052
:1010D400D890D637D737D52FFBD70001D851D611A2
:1010E400D86FD951D711D96F00D000F08A9C00D0A5
:1010F40000F00001DB2B0F0EDB65DDD79498D8C020
:10110400D3F0D9C0D4F00F0C64980CBE15D004AE43
:101114000AD0020E266E00017E5102E191EC0BF022
:101124001E6A1F6A120025D80C0EC2EC06F050ECA1
:1011340009F0040E48EF09F0020130AF0DD0010EA2
:10114400266E1D5002E191EC0BF01E6A1F6A2050BE
:10115400D8A41200DFEF09F0020E266E0AD8040E9E
:10116400C2EC06F01E6A1F6A205002E1DFEF09F0AC
:10117400120020EE01F01550D9261650DA22080E7E
:10118400DF6E20EE02F01550D9261650DA22300E0A
:10119400DE6E020EDD6E15C0D9FF16C0DAFF020C3A
:1011A40002013039E832030B1DE012000C8E080EE8
:1011B4000001816F080C290E096E34D03451D10F0F
:1011C400456E45C009F02ED00C8E3451D10FD96E26
:1011D400DA6A32C2DFFF1200376A020E65EC0DF0E4
:1011E400FAEF0AF0315102E11AEF0AF0010A02E1C2
:1011F400EAEF01F0020A02E1EAEF01F0060AD6E0A2
:10120400030A02E1B0EF05F0010AE6E00F0AD3E0B9
:10121400010A02E1E5EF07F0030AD0E0010AD4E095
:10122400070A12000A6A0C80010E0D6E0C8E010C66
:1012340035D8000EDFBC010E2B6E040E0F1A1050B1
:10124400080E81190BE1020132517F0B0F015C6F13
:101254005C51100ED8B4040E0001816F260412E113
:1012640028D821D891EC07F0020E271803E116D8EC
:10127400040E0CD02B5003E111D8480E07D00ED821
:10128400080E04D004BE049E266A1200DF6E0FC04E
:10129400D9FF10C0DAFF000EDB8E000C0FC0D9FF9F
:1012A40010C0DAFF1200DA22380EDE6E020EDD6E96
:1012B400020C20EE02F00F50D92610501200020149
:1012C40030511F0BE80601E012003039E832030BFD
:1012D400E80601E01200345127E0340525E012004D
:1012E400C20E096E0A6A0E6A080E0D6E0C800C8E10
:1012F400080CC20E096E0A6A0C8E120036C205F082
:1013040037C206F0CA0E016E076A086A048E12001C
:10131400CA0E096E0A6A0E6A070E0D6EC10E0C6EB5
:10132400C10C32510C8E12003151DAE0010AE1E0B5
:10133400210AE4E0010AECE0030AF3E012002F6E54
:10134400306A020E316E2A502B6E2C6AD8902B36DE
:101354002C362F502D6E2E6A24D82B502D262C502F
:101364002E221FD82D5030262E50312221D8DF9E18
:101374002A5004E12F5088EC07F003D02F507FEC63
:1013840007F0D96EDA6A30C0DEFF31C0DDFF10D855
:10139400DF9C20EE04F03050D9263150DA22DF8C65
:1013A4001200D8902D362E36D8902D362E361200B7
:1013B40030C0D9FF31C0DAFF12001F50D8A4120088
:1013C400010E1F6E1E50D8A41200010E1E6E020ED6
:1013D40026180AE120EE01F0D8EC07F0DF6A50ECA1
:1013E40009F0480E48EF09F02604D8A41200226A36
:1013F40020EE01F014D8BDEC06F011D8300E14D84C
:10140400A1EC0CF0040EDF6EA1EC0CF0000EDB8EF0
:10141400010E226EBBEC08F0800EDF6E800C1750BC
:10142400D9261850DA221200DE6E020EDD6E020C8E
:101434000201386B396B20D00C8E250424E13883EB
:1014440022D00C8E20D00C8E34BF04D0B1EC02F02C
:10145400600F03D0B1EC02F00F0FD96EDA6ADECF61
:101464002AF0DDCF2BF018D8DFAE0DD015D8DFA4CD
:101474000AD0010E386F07D030511F0BDDE0010A8E
:10148400E0E0030AE0E00CAE1200380E096E020E32
:101494000A6E0C800D6E020C2AC0D9FF2BC0DAFF35
:1014A40012002D0E216E28C046F0FD0E46162AE1CC
:1014B400D89028303F0B040D000EF324176E020E53
:1014C400F42031EC08F0040E151A1650A1EC0CF0BF
:1014D400DF30E8320F0B0D0A02E07BEF0DF0300E27
:1014E4002A6E020E2B6E20EE02F011EC0AF0DECF13
:1014F4002CF0DDCF2DF02F6A080E2E6E36EC0CF09A
:1015040010EF0CF02850FD0B040AD8B41AEC09F0C3
:10151400120064A22ED0010E1AEF0DF019041A1055
:1015240004E1010E04EC0DF029D04B0E19181A1029
:1015340004E1010E1AEC0DF021D01A5003E1970ECC
:10154400195C1CE3196A1A6A19D019041A1004E107
:10155400010E04EC0DF012D0320E19181A1004E129
:10156400010E1AEC0DF00AD0B70E195C030E1A58CE
:10157400E8D700018151200AD1E0E7D7194A1A2A95
:1015840012001C6A7851791106E078C0D9FF79C03D
:10159400DAFFDFBE24D025D8DD51DE5C03E221D89A
:1015A400DF50DD6F1C6A09D0800E1C24D4EC06F0D9
:1015B400DC511C24CFEC06F01C2ADD511C5CF4E346
:1015C400000ED36F800ED46F020ED56F400ED66F0F
:1015D400020E19EC06F0D3C078F0D4C079F01C5098
:1015E400120020EE01F07851D9267951DA22120046
:1015F4000ED08BEC0AF0010E8BEF0DF08BEC0AF0A1
:10160400020E8BEF0DF0E7EC0BF0D1EF0DF036C0CE
:101614003CF037C03DF03D5004E07F0AD8A41200EE
:101624001AD03C50010AEFE0030AD8B41200010AB0
:1016340002E161EF09F0060AD8B41200770AD8B4BF
:101644001200010A02E18BEF0AF0070AD7E0010A4F
:10165400D8A41200CED73C1C120036EC05F0540E70
:101664000001D36F0F0ED46FD66BD56BD86B020EFF
:10167400D76F30EC0DF084EC0CF00001DB6BDB5128
:101684002AEC05F0DB2B0B0EDB65F9D716EC05F025
:10169400DB6BDB515AEC06F0DE6ADD6ADB5160EC91
:1016A40006F0DE6ADD6ADB513CEC05F0DB5141EC0F
:1016B40005F0DB2B020EDB65ECD7080EFDEF04F022
:1016C400A094805102E0A0841200D96BD3C0D7F05B
:1016D400D4C0D8F00001D92BD92915E0D751D56F42
:1016E400D851D66FD74BD82BD5C0F6FFD6C0F7FF4D
:1016F400F86A020EF76403D00800F55002D0FDEC3E
:1017040005F00009E7E1D3C06DF0D4C06EF0D9C094
:101714001BF000017C6B010E806FA084010C1D6A1C
:1017240000017E6B020E261812E120EE01F0B8ECE7
:1017340006F0BDEC06F0B8EC06F0380EDE6E020ED4
:10174400DD6ECAEC06F0480EC2EC06F0000C0D503B
:101754000201365D0E50375904E236C20DF037C22D
:101764000EF091EC07F05BEC09F055EC09F050EC4D
:1017740009F0480E48EF09F0BC0EF66E1B0EF76E2A
:10178400000EF86E00EEEDF010EE12F00900F5CF49
:10179400EEFFE550E150FAE101EE00F0400EEE6A92
:1017A400E806FDE100EE60F0730EEE6AE806FDE186
:1017B40000EE01F0290EEE6AE806FDE15290529225
:1017C400000EF86E0001A6EF0CF00001CA6B4B0E80
:1017D400CB6FCC6BCD6BCE6BCF6B080ED06F1C6A0E
:1017E4001A0E326E010E57EC0CF01E0E326E020E03
:1017F40057EC0CF0000E2A6E800E2B6E020E2C6E2F
:10180400400E2D6E020E35EC07F02AC078F02BC086
:1018140079F00001766B776B806B1200276A206A7F
:101824001D6A7E6B226A266A50EC09F017D850ECC8
:1018340009F014D8CAEC06F07F0EDF160C6A0D6AA4
:101844000E6A046A056A066AD2EC08F0376A030E67
:1018540065EC0DF0FAEC0AF086EF08F07F0EDF1667
:10186400040E0F1A105012002CC032F02DC033F0A9
:101874002AC030F02BC031F010D032C0D9FF33C0B1
:10188400DAFFDF50346E324A332A30C0D9FF31C018
:10189400DAFF34C0DFFF304A312A2E06D8A02F06E3
:1018A4002E28EBE12F28E9E11200356E32A404D092
:1018B4002A6A3550A1EC09F032A205D0010E2A6E35
:1018C4003550A1EC09F0530E3524336E346A0F0EF3
:1018D400342233C0D9FF34C0DAFF32C0DFFF0F0C2B
:1018E4008151D8A41200646A606A0CD8D08EA28494
:1018F400A084F28E01D0648664A6FDD7010E000197
:10190400816F010C160E616E9F0E0F015B6F7B0ED3
:10191400606E7B0C0F0153A110D011D8800EDE181D
:101924000BE150EC09F0840EDE1806E108D80C0E29
:10193400DF6E05D8000EDB8E5391629A120017C039
:10194400D9FF18C0DAFF12007F6A7E6A000E9AEC93
:101954000DF02FEC0BF072EC0CF0B6EC02F0020E72
:1019640001014B6F860E4A6F990EE82EFED74A2F5F
:10197400FCD74B2FFAD7F1D70001D36F08D094903E
:101984001200949212009494120094961200000192
:10199400D351D8B41200010AF2E0030AF2E0010ABA
:1019A400F2E0070AF2E01200F9EC0DF08B9C8B9840
:1019B4008A9C8A9A040E0001D36FE40EE82EFED7A7
:1019C400D32FFCD700F08A8A00D000D000D08B8CB3
:1019D40000D000D000D012002A6E08D094901200DB
:1019E4009492120094941200949612002A50D8B43F
:1019F4001200010AF3E0030AF3E0010AF3E0070A24
:101A0400F3E012002A6E08D08B8012008B82120041
:101A14008B8412008B8612002A50D8B41200010A5B
:101A2400F3E0030AF3E0010AF3E0070AF3E012002B
:101A34002A6E08D08B9012008B9212008B941200A5
:101A44008B9612002A50D8B41200010AF3E0030A5C
:101A5400F3E0010AF3E0070AF3E01200D3C0D9F07F
:101A6400D4C0DAF008D0D9C0D9FFDAC0DAFFD5C0C3
:101A7400DFFFD94BDA2BD707D8A0D807D729F3E152
:101A8400D829F1E112002AC030F02BC031F008D07F
:101A940030C0D9FF31C0DAFF2CC0DFFF304A312A11
:101AA4002E06D8A02F062E28F3E12F28F1E11200EC
:101AB400608462986482010E246E7D6B376A750EB1
:101AC40002D8FAEF0AF0366E386A396A3B6A3A6A23
:101AD4001200246A376A740E65EC0DF0FAEC0AF011
:101AE4006492609401D0629462B4FDD700017D6B6E
:101AF4001200020E261802E17AEF06F0266A22503E
:101B040006E1BBEC08F00C0EC2EC06F0000C226AF5
:101B140012002B6E06D0010EEEEC0CF0010EEEEF6F
:101B24000DF02B50F8E000D0010AD8A4030A1200EB
:101B34000001D46F06D0010EBEEC0CF0010EF4EFE0
:101B44000DF00001D451F7E096EF0DF0A094805110
:101B540009E1D3C06DF0D4C06EF0D5C01BF0010E06
:101B64007C6F806FA08412000001662B000E672337
:101B7400682369232450D8A412007D2B7D51D8B446
:101B84007D691200D36F03D080A6010C000C000104
:101B9400D351D8B4000C010AD8A4000CF5D7CE6BED
:101BA400080ED06FCF6B800ECA6F250ECB6F000E60
:101BB400CC6BCD6B7F6B1200427574746F6E2070AA
:101BC4007265737365642E0D0A00F9EC0DF08B9841
:101BD4008A9C8B9C8A9A12002A6E2A5000D0D8A420
:101BE400010A1200D36F0001D351F1EF0DF0949C60
:101BF4009498939C939A1200E7EF0DF0D6EF0CF0B3
:041C040012001200B8
:020000040020DA
:08000000FFFFFFFFFFFFFFFF00
:020000040030CA
:0E0000000011011EFF0085FF03C003E0034056
:00000001FF
