:0400000031EF00F0EC
:100008005282E1CF48F0E2CF49F0D9CF4AF0DACFB7
:100018004BF0F3CF4CF0F4CF4DF0F6CF4EF0F7CFD6
:100028004FF0F8CF50F0F5CF51F066EC03F051C027
:10003800F5FF50C0F8FF4FC0F7FF4EC0F6FF4DC0A8
:10004800F4FF4CC0F3FF4BC0DAFF4AC0D9FF49C0E8
:0E005800E2FF48C0E1FF52921100E8EF0AF00B
:1003000000C27C480509024300020100C032090412
:100310000000010202010005240010010424020271
:1003200005240600010524010001070581030800DA
:100330000209040100020A00000007050202400051
:1003400000070582024000003403430044004300DC
:100350002000520053002D003200330032002000F4
:1003600045006D0075006C006100740069006F004D
:100370006E002000440065006D006F0034034D00E6
:100380006900630072006F0063006800690070001C
:10039000200054006500630068006E006F006C0070
:1003A0006F0067007900200049006E0063002E0096
:1003B0001201000202000008D8040A000001010234
:1003C0000001040309043078303520697320706C13
:1003D00061636564206174203078303033313030AF
:1003E00030300A0D0000020132050BE130511F0BC5
:1003F00008E10C8E030E311903E1010E256E01D0C8
:10040000256A3251D8A4120030511F0B020AD8A419
:10041000120034510F0BD8B4120034510F0B3E6E42
:10042000030E3E60030C200E00018119D8A41200B7
:100430000C8E020134BF07D034510F0B7AEC05F05B
:100440008BD8700F06D034510F0B80EC05F084D898
:10045000730FD96EDA6ADF50426E42B003D0FB0EE2
:10046000431602D0040E4312445034BF03D07DD84B
:10047000600F02D07AD80F0FD96EDA6A43C0DEFF60
:1004800044C0DDFF030E311914E156D8DFAE0BD0A6
:1004900034BF03D06FD8700F02D06CD8730FD96EF1
:1004A000DA6A0001DF8248D8000EDB8445D8DB8E93
:1004B000000C040E431A44503FD8DFAE0AD03CD89B
:1004C0007F0EDF1639D8000EDB8C3BD8CBEC09F061
:1004D00003D032D8000EDB8C040E431A445042B2D3
:1004E00003D02AD8DFAE13D0020134BF03D042D8E4
:1004F000700F02D03FD8730FD96EDA6A0001DF9215
:100500001BD83B0EDF161DD8CBEC09F003D014D856
:100510003B0EDF16020134510F0B3E6E3F6A530E45
:100520003E24406E0F0E3F20416E40C0D9FF41C0B7
:10053000DAFFFE0EDF16FE0C43C0D9FF44C0DAFF1F
:100540001200376A050E366E43C038F044C039F0E9
:100550003B6A020E3A6E020CDECF43F0DDCF44F070
:1005600034510F0B3E6E3E50120034510F0B020DF2
:10057000F350120034510F0B3E6E3E501200200E0D
:100580000001816101D0200C64B21200010E3CEC2C
:100590000DF0E8060CE17F510BE1805109E1ED0E11
:1005A000D36FD46B33EC0AF0010E7F6F01D07F6BF9
:1005B000805102E0E6EF03F0820EDC6F400EDD6F4B
:1005C00094EC09F00101486F496B69D0E20E77D8CD
:1005D00033EC0AF062D0406B416B310E426F000E7B
:1005E000436B85EC0BF040C1D9F041C1DAF042C158
:1005F000DBF043C1DCF0C9EC0BF0050E0101406FEC
:10060000000E416F426F436FC60E59D833EC0AF0AB
:1006100040C1D7F041C1D8F042C1D9F043C1DAF0AE
:10062000DB6B62EC0AF06AEC0DF037D0446B456B83
:10063000310E466F000E476B85EC0BF044C1D9F0CC
:1006400045C1DAF046C1DBF047C1DCF0C9EC0BF084
:10065000000ED96FF9EC05F0D9C044F1DAC045F1CC
:10066000DBC046F1DCC047F16AEC0DF0000E010181
:100670004925D96EDA6A010EDA224451300FDF6E55
:100680000CD04951820FD96EDA6ADF500A0A9EE017
:10069000070A9CE04C0A9FE0C9D70101492B485149
:1006A000495DEFE3485109E0000E0001D36F010EF0
:1006B000D46F48C1D5F020EC0DF0E6EF03F0000157
:1006C000D36FD351D8A4030ED46F1200000181055B
:1006D00007E164BA05D0626A60806088020E816FAB
:1006E00062B460A403D06294E3EC0CF064A202D084
:1006F000A194120062B060A006D063EC04F0A08464
:10070000040E816F629062B860A802D0D2EC0CF047
:1007100062AC13D060AC07D0376A730E366E386A9D
:1007200050D8CBEC09F0629C2EEC0DF0215001E08A
:100730002106215002E1B0EC08F062BA60AA02D0B2
:100740001CEC0CF062B260A209D07F0E376E3668E6
:10075000386A37D8CBEC09F00F015F6B040E00014B
:10076000816102D0A194040C60A629D0476A62A6D8
:1007700026D063CF28F02830E832E8320F0B236E02
:10078000629628B403D02350700F02D02350730F09
:10079000D96EDA6A0001DF70235003E124EC09F01E
:1007A0000AD0376A720E366E280E386E396A3B6A86
:1007B0003A6ACBEC09F0472A030E4764D8D7A194D4
:1007C0001200396A3B6A010E3A6E010CA0940001D6
:1007D0007651771108E076C0D9FF77C0DAFFDFAE37
:1007E00002D0A0841200030E801901E1806B8051B9
:1007F00002E1A0841200020E80190DE1010ED36FF8
:10080000000ED46FD56FD66F020E39EC05F056D8B6
:10081000030E806F3ED080053CE1400E1B6402D089
:10082000DD6F02D01BC0DDF0DD511B5E400E6A6F34
:10083000020E6B6FDDC0DCF07C510AE015D02BD8C6
:10084000F76403D00800F55002D01DEC05F02ED857
:10085000DC510CE0F4D71FD8F76403D00800F55042
:1008600002D01DEC05F022D8DC51F5E11B5006E169
:10087000400EDD19020ED8A4030E806F010ED36F57
:10088000400ED46F020ED56FDDC0D6F039EC05F006
:1008900015D8A08412006DC0F6FF6EC0F7FFF86A8D
:1008A0006AC0D9FF6BC0DAFF020E1200DF6E0001D2
:1008B0006A4B6B2B6D4B6E2BDC071200D3C076F0AE
:1008C000D4C077F012005CD847EC07F0BDEC0CF018
:1008D00014EC0CF0326A325047D8322A0B0E3264D4
:1008E000FAD72ED8326A325080EC05F0DE6ADD6A23
:1008F00032507AEC05F0DE6ADD6A32504CD8325064
:1009000045D8322A020E3264EED7080E00D00F6EA0
:10091000020E106E160E0F01536F020E0201036FCE
:10092000300E026F080E016F040E006F008F296AEF
:100930000001666B676B686B696B7D6B816B120086
:10094000648C0F015C6B6498649C62960C6A046A08
:10095000056A066A62B6F9D7010E1F6E1E6E1D6A21
:1009600000017E6B246A1200040D000EF324D96E80
:10097000020EF420DA6EDE6ADE6ADE6ADD6A1200DA
:10098000A0940F015F6B626A536B1200700FD96EF7
:10099000DA6ADF6A1200730FD96EDA6ADF6A120050
:1009A000800E02013019D8A41200C00E0C6E3DD08A
:1009B000B00E096E0950D8A4030E0A6E0E6A120E0C
:1009C0000D6E120C325116E13251040F48D8020E4E
:1009D0003AD8F76403D00800F55001D02ED80D6E38
:1009E000030E31D8F76403D00800F55001D025D8A4
:1009F0000E6E12000C6A1200030E326112D03251D8
:100A0000010F2DD809C0F6FF0AC0F7FFF86A020EE1
:100A1000F76403D00800F55001D00FD80D6E0E6AB0
:100A200012000C6A12000C6A12003351010AC0E075
:100A3000030AC8E0010AE0E0F6D7F6CFE1FFF7CFFE
:100A4000E2FFE750120009242A6E000E0A202B6EE6
:100A50002AC0F6FF2BC0F7FFF86A020E12002A6EBA
:100A60002AC0F6FF030EF76E0900F5CF09F00A6EF3
:100A70001200D96F0001D35104E0D9519FEC06F068
:100A800003D0D951A8EC06F0D96EDA6ADECFDAF0DD
:100A9000DDCFDBF0DA51DB1103E1D36BD46B120055
:100AA00020EE02F042D8D4C0DEFFD5C0DDFF20EE3C
:100AB00001F03BD8D6C0DFFF33D8400EDF1630D868
:100AC000000EDB862DD8DB8ED35105E0D95118D826
:100AD0001DD80F0F04D0D9510DD818D8600FD96E7A
:100AE000DA6AD7C0DEFFD8C0DDFFDAC0D3F0DBC0E2
:100AF000D4F01200020DF350600FD96EDA6A1200C2
:100B0000020DF3500F0FD96EDA6A1200DECFD7F064
:100B1000DDCFD8F0040ED71BD951020DF3501200CF
:100B2000DAC0D9FFDBC0DAFF1200DA51D926DB5177
:100B3000DA22120020EE01F0E2EC08F0DF502B6E1A
:100B40002B50055C000E065802E205C02BF02B501E
:100B5000055E000E065A2A6A07D0380E2A2444D8A9
:100B600001503DD8012A2A2A2B502A5CF6E3055071
:100B7000061014E020EE01F01BD81FD819D8380E4B
:100B8000E7EC08F031EC0CF0DFBC04D023D8480EC1
:100B900019D8000C1FD8080E15D8000C8CEC07F0E3
:100BA000040E10D8049E2050D8B4B0EC08F0120007
:100BB0001550D9261650DA221200080EDF6E20EEEC
:100BC00002F0080CDF6E15C0D9FF16C0DAFF000E68
:100BD000DB8E000C15C0D9FF16C0DAFF1200E16EE3
:100BE000E26ADFCFE7FF1200D96EDA6A020EDA227C
:100BF000020CE46F0001D95105E0D36BFE0EBCEC92
:100C00000AF004D0D36BFC0EBCEC0AF000D000F06C
:100C10000001E56BE66BE76BE86B948CEA6BE451E3
:100C200003E0EAC0E9F003D0EA511608E96F8B8AC5
:100C300000D000F082AC1FD0E9C0DDF0010E000151
:100C4000DE6FDF6BDD2B03D0D890DE37DF37DD2F93
:100C5000FBD7DEC0E0F0DFC0E1F0000E0001E1BF35
:100C6000FF0EE26FE36FE051E513E151E613E2514D
:100C7000E713E351E81300D000F08B9A00D000F0A6
:100C80000001EA2B160EEA65CAD78B8A00D000F065
:100C90008B9A00D000F0949CE5C0D9F0E6C0DAF061
:100CA000E7C0DBF0E8C0DCF0160C306E2A5003E041
:100CB000305045D802D030504BD8D96EDA6ADECFEA
:100CC00031F0DDCF32F03150321003E12A6A2B6A65
:100CD000120020EE02F040D82BC0DEFF2CC0DDFF5A
:100CE00020EE01F039D82DC0DFFF2DD8400EDF16E1
:100CF0002AD8000EDB8627D8DB8E2A5006E030503B
:100D000080EC05F012D80F0F05D030507AEC05F0CA
:100D10000CD8600FD96EDA6A2EC0DEFF2FC0DDFF5F
:100D200031C02AF032C02BF01200DECF2EF0DDCF22
:100D30002FF0040E2E1A3050020DF3501200020D47
:100D4000F3500F0F120031C0D9FF32C0DAFF12008A
:100D5000020DF350600F12003150D9263250DA22C2
:100D60001200080E2A6E0E500DE1080E0D5C0AE20C
:100D70000DC02AF0275002E1010E03D0270402E142
:100D8000020E276E2A500D5E000E0E5A20EE01F064
:100D90002FD82AC0DFFF380E00017A6F020E7B6F5A
:100DA0000CB01AD00BD009C0F6FF19D8F76403D0E5
:100DB0000800F55002D01DEC05F01FD82A50F3E1D1
:100DC000120009C0F6FF0BD8F76403D00800F550F5
:100DD00002D01DEC05F011D82A50F3E112000AC030
:100DE000F7FFF86A7AC0D9FF7BC0DAFF020E120063
:100DF0000F50D9261050DA221200DF6E094A0A2A53
:100E000000017A4B7B2B2A0612000C8E40D8BDECD9
:100E10000CF02A6A020E2B6E2D6A2C6A2F6A300E95
:100E20002E6EBDEC0CF0648C3E6A3E50CBEC04F0B0
:100E30003E50C6EC04F03E2A020E3E64F6D7D10EB8
:100E40002A6E2B6A2D6A2C6A2F6A020E2E6EBDEC5A
:100E50000CF0649C080E0F6E020E106E000E176EE2
:100E6000020E1FD832C229F0295004E1100E0001F1
:100E7000816F100C376A010E366E290E386EE1EC68
:100E800003F0CBEC09F0200E0001816F200C540E12
:100E90002A6E0F0E2B6E2D6A2C6A2F6A020E2E6E92
:100EA000020C186E17C015F018C016F012006498E6
:100EB0000CBE15D004AE0AD0020E266E00017E5183
:100EC00002E18FEC0AF01E6A1F6A120025D80C0E90
:100ED000E2EC05F021EC08F0040E19EF08F0020135
:100EE00030AF0DD0010E266E1D5002E18FEC0AF0DE
:100EF0001E6A1F6A2050D8A41200B0EF08F0020E3C
:100F0000266E0AD8040EE2EC05F01E6A1F6A205015
:100F100002E1B0EF08F0120020EE01F01550D926E2
:100F20001650DA22080EDF6E20EE02F01550D92698
:100F30001650DA22300EDE6E020EDD6E15C0D9FFBD
:100F400016C0DAFF020C02013039E832030B1DE053
:100F500012000C8E080E0001816F080C290E096E1C
:100F600034D03451D10F456E45C009F02ED00C8ECF
:100F70003451D10FD96EDA6A32C2DFFF1200376AFC
:100F8000020EDDEC0CF0CBEF09F0315102E1EBEF9A
:100F900008F0010A02E1F3EF01F0020A02E1F3EFC7
:100FA00001F0060AD6E0030A02E1D0EF04F0010ADC
:100FB000E6E00F0AD3E0010A02E105EF07F0030AB9
:100FC000D0E0010AD4E0070A12000A6A0C80010E80
:100FD0000D6E0C8E010C35D8000EDFBC010E2B6E91
:100FE000040E0F1A1050080E81190BE10201325144
:100FF0007F0B0F015C6F5C51100ED8B4040E000122
:10100000816F260412E128D821D8B1EC06F0020E37
:10101000271803E116D8040E0CD02B5003E111D889
:10102000480E07D00ED8080E04D004BE049E266ACF
:101030001200DF6E0FC0D9FF10C0DAFF000EDB8E8A
:10104000000C0FC0D9FF10C0DAFF1200DA22380EF0
:10105000DE6E020EDD6E020C20EE02F00F50D9267D
:1010600010501200020130511F0BE80601E012007F
:101070003039E832030BE80601E01200345127E072
:10108000340525E01200C20E096E0A6A0E6A080EC7
:101090000D6E0C800C8E080CC20E096E0A6A0C8E46
:1010A000120036C205F037C206F0CA0E016E076A9A
:1010B000086A048E1200CA0E096E0A6A0E6A070ECA
:1010C0000D6EC10E0C6EC10C32510C8E12003151DE
:1010D000DAE0010AE1E0210AE4E0010AECE0030AB7
:1010E000F3E012002F6E306A020E316E2A502B6E22
:1010F0002C6AD8902B362C362F502D6E2E6A24D881
:101100002B502D262C502E221FD82D5030262E50FD
:10111000312221D8DF9E2A5004E12F50A8EC06F09E
:1011200003D02F509FEC06F0D96EDA6A30C0DEFF94
:1011300031C0DDFF10D8DF9C20EE04F03050D926FE
:101140003150DA22DF8C1200D8902D362E36D8900E
:101150002D362E36120030C0D9FF31C0DAFF120012
:101160001F50D8A41200010E1F6E1E50D8A41200EA
:10117000010E1E6E020E26180AE120EE01F0F8ECB8
:1011800006F0DF6A21EC08F0480E19EF08F026049B
:10119000D8A41200226A20EE01F014D8DDEC05F08C
:1011A00011D8300E14D831EC0CF0040EDF6E31EC97
:1011B0000CF0000EDB8E010E226E8CEC07F0800E20
:1011C000DF6E800C1750D9261850DA221200DE6E1E
:1011D000020EDD6E020C0201386B396B20D00C8ED2
:1011E000250424E1388322D00C8E20D00C8E34BF0D
:1011F00004D0B5EC02F0600F03D0B5EC02F00F0F95
:10120000D96EDA6ADECF2AF0DDCF2BF018D8DFAE48
:101210000DD015D8DFA40AD0010E386F07D0305199
:101220001F0BDDE0010AE0E0030AE0E00CAE120073
:10123000380E096E020E0A6E0C800D6E020C2AC06A
:10124000D9FF2BC0DAFF12002D0E216E28C046F008
:10125000FD0E46162AE1D89028303F0B040D000EF3
:10126000F324176E020EF42051EC07F0040E151A49
:10127000165031EC0CF0DF30E8320F0B0D0A02E0B3
:10128000F3EF0CF0300E2A6E020E2B6E20EE02F001
:10129000E2EC08F0DECF2CF0DDCF2DF02F6A080E47
:1012A0002E6EA8EC0BF03AEF0BF02850FD0B040A61
:1012B000D8B4EBEC07F0120064A22ED0010E92EF2E
:1012C0000CF019041A1004E1010E7CEC0CF029D08A
:1012D0004B0E19181A1004E1010E92EC0CF021D0FB
:1012E0001A5003E1970E195C1CE3196A1A6A19D0A7
:1012F00019041A1004E1010E7CEC0CF012D0320E2D
:1013000019181A1004E1010E92EC0CF00AD0B70E75
:10131000195C030E1A58E8D700018151200AD1E068
:10132000E7D7194A1A2A12001C6A7851791106E087
:1013300078C0D9FF79C0DAFFDFBE24D025D8DD51CF
:10134000DE5C03E221D8DF50DD6F1C6A09D0800E1D
:101350001C24F4EC05F0DC511C24EFEC05F01C2AF5
:10136000DD511C5CF4E3000ED36F800ED46F020ECF
:10137000D56F400ED66F020E39EC05F0D3C078F071
:10138000D4C079F01C50120020EE01F07851D9261B
:101390007951DA2212000ED05CEC09F0010E03EF55
:1013A0000DF05CEC09F0020E03EF0DF011EC0BF008
:1013B00049EF0DF036C03CF037C03DF03D5004E041
:1013C0007F0AD8A412001AD03C50010AEFE0030AA9
:1013D000D8B41200010A02E132EF08F0060AD8B4CC
:1013E0001200770AD8B41200010A02E15CEF09F09A
:1013F000070AD7E0010AD8A41200CED73C1C12007D
:10140000C0EC04F0540E0001D36F0F0ED46FD66BF6
:10141000D56BD86B020ED76FA8EC0CF014EC0CF067
:101420000001DB6BDB51B4EC04F0DB2B0B0EDB6556
:10143000F9D7A0EC04F0DB6BDB5180EC05F0DE6A41
:10144000DD6ADB517AEC05F0DE6ADD6ADB51CBEC5C
:1014500004F0DB51C6EC04F0DB2B020EDB65ECD7AD
:10146000080E87EF04F0A094805102E0A0841200DF
:10147000D96BD3C0D7F0D4C0D8F00001D92BD9296B
:1014800015E0D751D56FD851D66FD74BD82BD5C0D3
:10149000F6FFD6C0F7FFF86A020EF76403D0080023
:1014A000F55002D01DEC05F00009E7E1D3C06DF066
:1014B000D4C06EF0D9C01BF000017C6B010E806FB0
:1014C000A084010CD890D735DD6FD835DE6FD935C3
:1014D000DF6FDA35E06FDD91DB0504E1020E60ECD1
:1014E0000BF003D0000E60EC0BF000D000F0000118
:1014F000DF5160EC0BF0DE5160EC0BF0DD5160EC85
:101500000BF000D000F0E00E60EC0BF0180E0001C4
:10151000DC6F5F0EE82EFED7DC2FFCD712001D6AB1
:1015200000017E6B020E261812E120EE01F0D8ECCD
:1015300005F0DDEC05F0D8EC05F0380EDE6E020E9D
:10154000DD6EEAEC05F0480EE2EC05F0000C0D5003
:101550000201365D0E50375904E236C20DF037C233
:101560000EF0B1EC06F02CEC08F026EC08F021ECC3
:1015700008F0480E19EF08F0D66F6FEC0DF000017F
:10158000D86BD35103E0D8C0D7F003D0D8510708A7
:10159000D76F8B8A00D000F0D7C0D4F0D6C0D5F07A
:1015A0000001D42B02D0D890D533D42FFCD7000122
:1015B000D5A102D08B8C01D08B9C00D000F08B9AEF
:1015C00000D000F00001D82B070ED865DAD7070C41
:1015D000AC0EF66E1A0EF76E000EF86E00EEEDF021
:1015E00010EE12F00900F5CFEEFFE550E150FAE100
:1015F00001EE00F0400EEE6AE806FDE100EE60F05C
:10160000730EEE6AE806FDE100EE01F0290EEE6AC7
:10161000E806FDE152905292000EF86E000136EF9E
:101620000CF00001CA6B4B0ECB6FCC6BCD6BCE6B4D
:10163000CF6B080ED06F1C6A1A0E326E010EE7ECEB
:101640000BF01E0E326E020EE7EC0BF0000E2A6E4F
:10165000800E2B6E020E2C6E400E2D6E020E55EC7F
:1016600006F02AC078F02BC079F00001766B776B1A
:10167000806B1200276A206A1D6A7E6B226A266AC6
:1016800021EC08F017D821EC08F014D8EAEC05F0AA
:101690007F0EDF160C6A0D6A0E6A046A056A066A16
:1016A000A3EC07F0376A030EDDEC0CF0CBEC09F08D
:1016B00057EF07F07F0EDF16040E0F1A10501200BE
:1016C0000001D56F6FEC0DF0070E0001D66F8B8A0D
:1016D00000D000F0D6C0D3F0D5C0D4F00001D32B99
:1016E00002D0D890D433D32FFCD70001D4A102D09C
:1016F0008B8C01D08B9C00D000F08B9A00D000F036
:101700000001D607D6BF1200E2D76FEC0DF000D073
:1017100000F08B9E8B9C8B9AFA0EE82EFED7500E13
:101720000001D96F480EDA6F430EDB6F4D0EDC6F90
:10173000D36BDC51BCEC0AF0D36BDB51BCEC0AF090
:10174000D36BDA51BCEC0AF0D36BD951BCEF0AF081
:101750002CC032F02DC033F02AC030F02BC031F055
:1017600010D032C0D9FF33C0DAFFDF50346E324AB6
:10177000332A30C0D9FF31C0DAFF34C0DFFF304A2E
:10178000312A2E06D8A02F062E28EBE12F28E9E1DA
:101790001200D890D935DD6FDA35DE6FDB35DF6FBB
:1017A000DC35E06FDD91DF9FD36B800EBCEC0AF07F
:1017B00000D000F00001D36BDF51BCEC0AF0D36B1A
:1017C000DE51BCEC0AF0D36BDD51BCEF0AF0356E94
:1017D00032A404D02A6A355072EC08F032A205D047
:1017E000010E2A6E355072EC08F0530E3524336E1C
:1017F000346A0F0E342233C0D9FF34C0DAFF32C04E
:10180000DFFF0F0C8151D8A41200646A606A0CD803
:10181000D08EA284A084F28E01D0648664A6FDD707
:10182000010E0001816F010C160E616E9F0E0F01FB
:101830005B6F7B0E606E7B0C0F0153A110D011D833
:10184000800EDE180BE121EC08F0840EDE1806E1B4
:1018500008D80C0EDF6E05D8000EDB8E5391629A0D
:10186000120017C0D9FF18C0DAFF12007F6A7E6A23
:10187000000E12EC0DF000EC0AF002EC0CF0BFECE4
:1018800002F0020E0001EC6F860EEB6F990EE82E4F
:10189000FED7EB2FFCD7EC2FFAD7F1D70001D36F8F
:1018A00008D094901200949212009494120094968E
:1018B00012000001D351D8B41200010AF2E0030A69
:1018C000F2E0010AF2E0070AF2E012002A6E08D004
:1018D0009490120094921200949412009496120024
:1018E0002A50D8B41200010AF3E0030AF3E0010A17
:1018F000F3E0070AF3E012002A6E08D08B80120092
:101900008B8212008B8412008B8612002A50D8B46E
:101910001200010AF3E0030AF3E0010AF3E0070A08
:10192000F3E012002A6E08D08B9012008B92120006
:101930008B9412008B9612002A50D8B41200010A20
:10194000F3E0030AF3E0010AF3E0070AF3E0120010
:10195000D3C0D9F0D4C0DAF008D0D9C0D9FFDAC0EA
:10196000DAFFD5C0DFFFD94BDA2BD707D8A0D807CD
:10197000D729F3E1D829F1E112002AC030F02BC0B9
:1019800031F008D030C0D9FF31C0DAFF2CC0DFFF02
:10199000304A312A2E06D8A02F062E28F3E12F2810
:1019A000F1E11200608462986482010E246E7D6B06
:1019B000376A750E02D8CBEF09F0366E386A396A8D
:1019C0003B6A3A6A1200246A376A740EDDEC0CF046
:1019D000CBEC09F06492609401D0629462B4FDD7BC
:1019E00000017D6B1200020E261802E19AEF05F04D
:1019F000266A225006E18CEC07F00C0EE2EC05F0B2
:101A0000000C226A12002B6E06D0010E66EC0CF060
:101A1000010E5FEF0DF02B50F8E000D0010AD8A4C2
:101A2000030A12000001D46F06D0010E4EEC0CF038
:101A3000010E65EF0DF00001D451F7E00EEF0DF04F
:101A4000A094805109E1D3C06DF0D4C06EF0D5C030
:101A50001BF0010E7C6F806FA08412000001662BCA
:101A6000000E6723682369232450D8A412007D2B1D
:101A70007D51D8B47D691200D36F03D080A6010CCC
:101A8000000C0001D351D8B4000C010AD8A4000CFA
:101A9000F5D7CE6B080ED06FCF6B800ECA6F250EB8
:101AA000CB6F000ECC6BCD6B7F6B120042757474E4
:101AB0006F6E20707265737365642E0D0A002A6E56
:101AC0002A5000D0D8A4010A1200D36F0001D351CC
:101AD00062EF0DF0949E00D000F08B8E1200949E69
:061AE000949C949A120090
:020000040020DA
:08000000FFFFFFFFFFFFFFFF00
:020000040030CA
:0E0000000011011EFF0085FF03C003E0034056
:00000001FF
