:0400000035EF00F0E8
:100008005F82FACF42F0FBCF43F0E9CF44F0EACF6A
:1000180045F0E1CF46F0E2CF47F0D9CF48F0DACF4C
:1000280049F0F3CF4AF0F4CF4BF00E01C2BBCAAB94
:1000380002D087EC18F04BC0F4FF4AC0F3FF49C068
:10004800DAFF48C0D9FF47C0E2FF46C0E1FF45C01C
:10005800EAFF44C0E9FF43C0FBFF42C0FAFF5F92DA
:0C0068001100818E38EF00F080EF14F0E2
:100F000000244750524D432C00004EA007D0E4C0AF
:100F100056F0556A4E904E9241D9546E3B6A3B5002
:100F20003C0FD96EDA6ADF6A3B2A010E3B64F7D7C1
:100F30003F6A5650060DF00E356E020E366E352A9B
:100F4000000E3622F3503526F45036223F50352419
:100F5000D96E000E3620DA6E3F503C0FE16EE26A29
:100F6000DFCFE7FF3F2A010E3F64E3D754505B5CBD
:100F70000FE35D50525C17E2406A405024D9405064
:100F80004ED9405054D9402A010E4064F6D70BD0B8
:100F9000416A415018D9415042D9415048D9412A5B
:100FA000010E4164F6D721D9DE0407E01ED9020EF6
:100FB000DE1806E15450E65D03E35A50515C06D05A
:100FC00014D9020EDE1805E15850505C02E285800B
:100FD00001D08590532A522A5C505DC035F03CD92F
:100FE0005250E6D801E3526A512A59505AC035F09E
:100FF00033D95150DDD801E3516A502A575058C0B7
:1010000035F02AD95050D4D801E3506A640E5318F1
:101010001FE1536A20EEB9F000EE2AF00A0EDBCF92
:10102000EBFFE806FCE288EC16F020EEB9F00A0EC1
:10103000EBCFDBFFE806FCE2B1D8356E5550355CEE
:101040004F24366E3604546E545001E14E80552ABA
:10105000030E531845E1555043E14C504D103FE00D
:101060004DBE1FD04D5002E14C041BE3FAD83E0E9A
:10107000126E94D864EC18F0E1D802EC13F0E5D8C5
:1010800024EC14F01C504F6E4D50800A356E4F50BA
:101090004C5C800E4FBE7F0E35581AE24CC04FF0AC
:1010A00017D0DFD8BE0E126E79D864EC18F0C6D80F
:1010B00002EC13F0CAD824EC14F01C504F6E800ED2
:1010C0004FBE7F0E356E4C504F5C4D50800AE4D7BA
:1010D0004F504C5E000E4FBEFF0E4D5A01D04F6A6E
:1010E000020E531835E1B1EC18F03E6E3E508FD829
:1010F0005650DE182DE155502BE1B9C001F0BAC0B1
:1011000002F0BBC003F0BCC004F078D8AFD835C043
:1011100005F036C006F0076A086A20EC15F001C039
:101120004CF002C04DF06AD8A1D8D8903630386E55
:101130003530376E4C50375C4D50385805E25ED82C
:10114000DE504C5EDD504D5A4C6C4D1ED8B04D2AD1
:101150005304D8B44EB21200B1EC18F03A6E3A50C3
:10116000040D030EF324D96E010EF420DA6E5650EE
:10117000DE1810E1F9C05EF05EAE02D03A6A03D02C
:10118000B4EC18F03A6E3A5042D8DF500001E46FE8
:101190004E82120056280001E46F12005650060DD0
:1011A000F00EF324D96E020EF420DA6EDF50120036
:1011B000376E386A3550375C3850800A396E365091
:1011C000800A395812003C0FD96EDA6A5650060D63
:1011D000F00E356E020E366E030E3526000E3622E8
:1011E000F3503526F450362212005650060DF50EF7
:1011F000F324D96E020EF420DA6E12003E50040D74
:10120000000EF324D96E010EF420DA6E1200040DE4
:10121000020EF324D96E010EF420DA6E120035248A
:10122000E16E000E3620E26EE750376E12003C0F82
:10123000E16EE26AE7503710DF6E120009C00DF070
:101240000AC00EF00BC00FF012000DC01CF00EC053
:101250001DF00FC01EF01200366A3526000E362231
:10126000000C9A0E106E990E116E990CDECF35F0AF
:10127000DDCF36F012006C6B6D6BE3D8E7EC18F045
:1012800000016A6F6C4B6D2BDCD8E7EC18F00001A5
:101290006B6F6AC060F06BC061F0636B3C0E626F95
:1012A00051EC18F060C0E0F061C0E1F06D6B020E2F
:1012B0006C6FC7D8E7EC18F00001D86FD96B6C4B96
:1012C0006D2BBFD8E7EC18F00001DA6FDB6B6D6BAC
:1012D000040E6C6FB6D8E7EC18F00001D46FD56B34
:1012E0006C4B6D2BAED8E7EC18F00001D66FD76BC6
:1012F0006D6B060E6C6FA5D8E7EC18F00001FA6F65
:101300006D6B070E6C6F9DD8E7EC18F000016A6FEB
:101310006C4B6D2B96D8E7EC18F000016B6F6D6B82
:10132000090E6C6F8ED8E7EC18F05D6E00016D6BE6
:101330000A0E6C6F86D8E7EC18F05C6E00016D6BDE
:101340000B0E6C6F7ED8E7EC18F05B6E00016D6BD6
:101350000C0E6C6F76D8E7EC18F05A6E00016D6BCE
:101360000D0E6C6F6ED8E7EC18F0596E00016D6BC6
:101370000E0E6C6F66D8E7EC18F0586E00016D6BBE
:101380000F0E6C6F5ED8E7EC18F0576E00016D6BB6
:10139000100E6C6F56D8E7EC18F00001E66F6D6B1D
:1013A000110E6C6F4ED8E7EC18F00001E56F6D6B15
:1013B000120E6C6F666B676B686B696B42D8E7ECFB
:1013C00018F00001666F6C4B6D2B3BD8E7EC18F002
:1013D0000001676F6C4B6D2B34D8E7EC18F00001FF
:1013E000686F66C0D0F067C0D1F068C0D2F069C045
:1013F000D3F06D6B150E6C6F24D8E7EC18F000017C
:101400006A6F6C4B6D2B1DD8E7EC18F000016B6F09
:101410006BC060F0616B0E0E636F100E626F51EC6B
:1014200018F06A513C0D6051F3266151F422F3CF5C
:10143000CCF0F4CFCDF0000ECDBFFF0ECE6FCF6F4E
:1014400012006CC060F06DC061F01200AC6B20EE59
:10145000EEF010EEA5F0060EDBCFE3FFE806FCE2AF
:1014600020EEE7F010EE9EF0060EDBCFE3FFE8067D
:10147000FCE2DDEC18F0AD6BA50E606F9E0E616FA7
:1014800099EC12F0A50E606F9E0E616F5EEC10F08D
:10149000000903E0010EAC6F04D0AD2B040EAD6566
:1014A000EBD7AC5101E1ADD0A5510A0DA651AAD898
:1014B000B26FFD0EF420B36FA7510A0DA851A2D848
:1014C000B46FFD0EF420B56FA50E6E6F61EC0EF0DB
:1014D0009A6F400E9B6F9C6B9A2B03D09C359C336C
:1014E0009B339A2FFBD700019B47B6519B19010BE9
:1014F0009B19B66FFA51640DF3CF9AF0F4CF9BF0BD
:10150000A9510A0DF3509A27F4509B23AA519A2708
:10151000000E9B23F00E9A25B76FFD0E9B21B86F2E
:101520009E0E6C6F6CEC0FF06CC0AEF06DC0AFF047
:101530006EC0B0F06FC0B1F0E0C09AF0E1C09BF0B7
:10154000000E9BBFFF0E9C6F9D6F9A51AE279B5163
:10155000AF239C51B0239D51B123B1AF1AD0800E5F
:10156000AE27510EAF23010EB023000EB12320EEA3
:10157000AEF000EE7BF00A0EDBCFEBFFE806FCE2FC
:10158000E6EC0FF020EEAEF00A0EEBCFDBFFE80644
:10159000FCE2B1BF23D0B15107E1810EAE5D510E27
:1015A000AF59010EB0591AE3800EAE27AE0EAF232D
:1015B000FE0EB023FF0EB12320EEAEF000EE7BF066
:1015C0000A0EDBCFEBFFE806FCE2B9EC11F020EEEF
:1015D000AEF00A0EEBCFDBFFE806FCE220EEAEF049
:1015E00000EE89F00A0EDBCFEBFFE806FCE2CFEC61
:1015F0000DF020EEAEF00A0EEBCFDBFFE806FCE2CA
:10160000010C000CF326000EF422F00EF32412005D
:10161000796BE00E786F6C6B170E6B6F6E6B2B0E29
:101620006D6F7A6B7B6BA3D851EC18F0F00E6025D0
:10163000D96E020E6121B3D8E7EC18F0DF6E00011D
:10164000784B792B746B756B92D851EC18F0ADD840
:10165000682B000E6923605168276151692374511A
:101660006825D96E755169219AD8E7EC18F0DF6EBC
:101670000001784B792B744B752B75BFE5D77551ED
:1016800003E1020E745DE0E3766B776B70D851EC8A
:1016900018F08BD8030E6827000E69236051682765
:1016A0006151692376516825D96E7751692177D8C0
:1016B000E7EC18F0DF6E0001784B792B764B772B37
:1016C00077BFE4D7775103E1020E765DDFE37AC09E
:1016D00060F07BC061F0636B080E626FB0EC15F0D8
:1016E0006051736F73516B256F6F000E6C21706FBB
:1016F00073516D25716F000E6E21726F47D801D046
:1017000059D8682FFDD76FC060F070C061F0E7EC6A
:1017100018F00001691506E02AD851EC18F02FD80E
:10172000010E19D033D801D045D8682FFDD771C02C
:1017300060F072C061F0E7EC18F00001691506E096
:1017400016D851EC18F01BD8020E05D010D851EC69
:1017500018F015D8000EDF6E7A4B7B2B7BBF63D75A
:101760007B5104E1A00E7A5D01E25DD712007AC0E0
:1017700060F07BC061F0636B060E626F060CF50EC5
:101780006025D96E020E6121DA6E12007AC068F00F
:10179000070E6817800E696F6A6B682B800CDA6E13
:1017A00078C060F079C061F01200F00E686F020E30
:1017B000696F12006A356A3369331200776B500E15
:1017C000766F746B756BADD8E7EC18F00001786F2D
:1017D00096D8E7EC18F08FD880D8DCEC16F04BD810
:1017E000DCEC16F05ED851EC18F0BFEC0DF0020EF8
:1017F0008DD885D8E7EC18F00001786F80D8E7EC39
:1018000018F079D86AD8DCEC16F035D8DCEC16F094
:1018100048D851EC18F0C3EC0DF078D8764B772B04
:1018200054D851EC18F0080E6025D96E020E6121D3
:10183000DA6E77D8E7EC18F0DF6E000160D8E7ECDD
:1018400018F000016C6F41D851EC18F0C8EC0DF0A5
:101850006C47DF5000016C19010B6C19DF6E764B81
:10186000772B744B752B75BFAED7755103E1180EEE
:10187000745DA9E3120060C06CF061C06DF062C0DD
:101880006EF063C06FF07851606F000E60BFFF0EA6
:10189000616F626F636F3C0E646F656B666B676B45
:1018A0003C0C60516C25706F61516D21716F6251FC
:1018B0006E21726F63516F21736F74C060F075C0D9
:1018C00061F0636B0A0E626F0A0C74C060F075C041
:1018D00061F0636B0A0E626F0A0C606F000E60BFEE
:1018E000FF0E616F626F636F100E646F0E0E656F97
:1018F000666B676B0E0C0001796F79511200764BA5
:10190000772B76C060F077C061F012006121DA6E4B
:1019100070C0DEFF71C0DEFF72C0DEFF73C0DEFF8D
:10192000120076C060F077C061F012006E6B3F0E5F
:101930006D6F716B726B98D8030E92D8D890713519
:10194000D96E7235DA6ED890D936DA366651D92624
:101950006751DA226DC060F06EC061F0E7EC18F0FC
:10196000DF6E00016D4B6E2B714B722B72BFE3D794
:10197000725103E1110E715DDEE3736B746B735191
:10198000741106E171D8020E6BD85DD8DF6A1ED0E3
:101990006BD8020E65D857D868696969000E6A6FFE
:1019A000010E6B6F68516A2769516B23D8907335AC
:1019B000E16E7435E26ED890E136E2366A51E12686
:1019C0006B51E222E7506C6F6C29DF6E4DD83BD82B
:1019D000DE6ADD6A49D8020E43D835D8DF506F6F12
:1019E000706B17D041D82FD86FC060F070C061F015
:1019F000636B060E626F51EC18F0F00E6025E16E1D
:101A0000020E6121E26EE750DE26000EDD226F4BF2
:101A1000702B2AD8030E24D816D8DF50686F696B54
:101A20006F51685D6951800A6A6F7051800A6A5906
:101A3000D9E2734B742B74BFA2D7745103E1110E1A
:101A4000735D9DE31200D8907335D96E7435DA6EEC
:101A5000D890D936DA366651D9266751DA22120083
:101A60006627000E6723000C000E666F010E676F7D
:101A700012006F6B706B6BD851EC18F080D8020EAF
:101A80006121DA6E030EDBBE5AD0DB5008E1020E94
:101A9000DB5005E1010EDB5002E1DE0450E357D8D4
:101AA00051EC18F075D8DF307F0B0001666FC13143
:101AB0007F0B6615676F7F0E671741E048D851ECC2
:101AC00018F061D86121DA6E42D851EC18F0000E9E
:101AD0006025E16E020E6121E26EDE50E65CDE50B2
:101AE000E658DE50E658E650800A6E6FDE50800AF7
:101AF0006E591BE22CD851EC18F041D830D81FE2B7
:101B000026D851EC18F03FD86121DA6EDE50B95D6D
:101B1000DE50BA59DE50BB59BC51800A6A6FDE50A4
:101B2000800A6A590CE26F51120011D851EC18F07A
:101B300026D815D8F8E30BD851EC18F0E4D76F4B42
:101B4000702B705103E1180E6F5D95E3FF0C6FC0B1
:101B500060F070C061F0636B0A0E626F0A0C020ED7
:101B60006121DA6EB951DE5CBA51DE58BB51DE58E4
:101B7000DE50800A6A6FBC51800A6A591200000E5A
:101B80006025D96E1200040E6025D96E020E120077
:101B9000090E6025D96E020E6121DA6E1200DAC0DC
:101BA00060F0DBC061F089D851EC18F0D8516025A5
:101BB000946FD9516121956FD6C060F0D7C061F0A4
:101BC0007CD851EC18F0D4516025966FD551612125
:101BD000976F8FC060F090C061F06FD851EC18F033
:101BE0008D516025986F8E516121996F9451965D4A
:101BF000955197590FE25CD805E29851965D99513D
:101C000097590BE3100E89270E0E8A23000E8B23A3
:101C10008C2303D04DD801E3F0D78CAF1AD0800EBF
:101C20008927510E8A23010E8B23000E8C2320EE70
:101C300089F000EE7BF00A0EDBCFEBFFE806FCE25A
:101C4000E6EC0FF020EE89F00A0EEBCFDBFFE806A2
:101C5000FCE28CBF23D08C5107E1810E895D510ECF
:101C60008A59010E8B591AE3800E8927AE0E8A23FA
:101C7000FE0E8B23FF0E8C2320EE89F000EE7BF00E
:101C80000A0EDBCFEBFFE806FCE2B9EC11F020EE28
:101C900089F00A0EEBCFDBFFE806FCE220EE89F0CC
:101CA00000EE89F00A0EDBCFEBFFE806FCE2120043
:101CB0009451985D955199591200636B640E626F4F
:101CC000640C6E51CFEC10F07FD8DF500A0DF3504A
:101CD0006F25F00F756F6E51C3EC10F075D8020EC2
:101CE00068D86F25F00F766FFA51640DF3CF6FF05F
:101CF000F4CF70F06E51D96EDA6A040E5AD86F279D
:101D0000F45070236E51C9EC10F06F27000E702351
:101D1000F00E6F25776FFD0E7021786F020E7665DD
:101D200001D002D0010E01D0000E775F000E785B6B
:101D300076516F6F706BD8906F3770375A0E6F2572
:101D4000D96E010E7021DA6EDECF71F0DDCF72F048
:101D5000636B040E33D8B0EC15F060C073F061C053
:101D600074F0010E636F900E29D8B0EC15F060513D
:101D700073276151742375517327000E7423636BAD
:101D8000640E1CD8B0EC15F06051735F6151745B48
:101D9000715173277251742377517325686F78518D
:101DA0007421696F6B6B070E6A6F21EC16F0685136
:101DB0001200D926DF500A0DF3501200626F77C06F
:101DC00060F078C061F012006F6F6E51D96EDA6A00
:101DD0001200D3EC18F0F28EF28C0A0E606F0F0E28
:101DE000616F0BEC19F003EC19F0D0EC14F000016A
:101DF000E50501E1E2818590E2B197EC18F0E2B3EC
:101E00004CEC17F0E2B5ECEC15F0E2B714EC19F07D
:101E1000CDEC17F039EC0DF0F96F26EC0AF0010E5D
:101E20006E6F540E6F6F010E6FEC17F0020E000113
:101E3000726FB9C073F0BAC074F0BBC075F0BCC0AB
:101E400076F046D866EC13F0090E6E6F530E6F6F86
:101E5000010E6FEC17F00A0E0001726FC4C073F030
:101E6000C5C074F0C6C075F0C7C076F031D866EC56
:101E700013F0010E6E6F470E6F6F020E6FEC17F0CE
:101E8000020E0001726FAEC073F0AFC074F0B0C04C
:101E900075F0B1C076F018D866EC13F0090E6E6FCD
:101EA000490E6F6F020E6FEC17F00A0E0001726F91
:101EB000C8C073F0C9C074F0CAC075F0CBC076F06A
:101EC00003D866EC13F098D7060E776F786B020C88
:101ED000060E776F786B010C6C51BEEC10F072D867
:101EE000C9EC10F002EC0BF0706FFD0EF420716F76
:101EF000726B71BF72077251736FF00E746FFD0ECB
:101F0000756F6C51D96EDA6A5DD8CFEC10F0F3269C
:101F1000000EF4227451F326755149D8100E646FE7
:101F20000E0E656F666B676BDCEC16F060C076F0CA
:101F300061C077F062C078F063C079F0F00E7A6F1C
:101F4000FD0E7B6F6C51B9EC10F03CD8C3EC10F077
:101F5000F326000EF4227A51F3267B5128D83C0E4A
:101F6000646F656B666B676BDCEC16F06051762511
:101F70007C6F615177217D6F625178217E6F635153
:101F800079217F6F70517C25806F71517D21816F28
:101F900072517E21826F73517F21836F80C06CF0FC
:101FA00081C06DF082C06EF083C06FF01200F42229
:101FB000F3CF60F0F4CF61F0000E61BFFF0E626FEF
:101FC000636F1200DF500A0D6C51120083317F0BDA
:101FD000400A04E18351010B02090AD083317F0BCF
:101FE000866FD8908637863783518619010B8619FC
:101FF000836F7F05801144E120EE7BF000EE70F0EE
:102000000A0EDBCFEBFFE806FCE2B6EC16F020EEA2
:102010007BF00A0EEBCFDBFFE806FCE2D8908135BF
:10202000D96E82353AD8876F020E8119821107E185
:1020300084C086F0030E861702E11D0E876F020E24
:10204000811982110AE135D81CEC18F08FEC17F0D9
:102050006051611102E11C0E876F020E811982111D
:1020600009E127D821D88FEC17F06051611102E106
:102070001D0E876F87517F6F806B7FBF800703D0F6
:102080007F07D8A0800720EE7BF000EE7BF00A0EE1
:10209000DBCFEBFFE806FCE21200DA6E420ED92637
:1020A000010EDA22DF501200010E636F900E626F94
:1020B000900C84C060F085C061F0120060516FD850
:1020C000626F6051D96EDA6A4AD8D8A0000C6351A9
:1020D000800A600F01E3000C605155D8626F6051B7
:1020E00048D83DD8D8A0000C6351800A730F01E393
:1020F000000C60514ED8626F605140D830D8D8A0E3
:10210000000C6351800A1C0F01E3000C615147D899
:10211000626F6151D96EDA6A22D8D8A0000C63517F
:10212000800A680F01E3000C61512DD8626F615184
:1021300020D815D8D8A0000C6351800A440F01E3C1
:10214000000C615126D8626F615118D808D8D8A008
:10215000000C6351800A440F01E3000C010CDF50B6
:102160000A0DF3506225F00F636F6351800A7F0FF1
:102170001200D96EDA6A020ED926020CD96EDA6A1A
:10218000040ED926040CD96EDA6A030ED926DF5064
:102190001200D96EDA6A050ED926DF501200D96E08
:1021A000DA6AD92ADF501200204A212A24307F0B14
:1021B000E80604E12450010B80090AD024307F0B8B
:1021C000276ED8902732273624502718010B27185E
:1021D000246ED8902234D96E23344DEC10F0296E41
:1021E000020E2218231007E125C027F0030E271640
:1021F00002E11D0E296E020E221823100AE142D8B8
:1022000001EC18F0AEEC17F00150021002E11C0EC8
:10221000296E020E221823100CE134D8010E046E30
:10222000900E036EAEEC17F00150021002E11D0E8D
:10223000296E29C027F0286A27BE28062050275C6F
:102240002150285815E2216A010E206E20EE1CF064
:1022500000EE11F00A0EDBCFEBFFE806FCE227EC04
:1022600017F020EE1CF00A0EEBCFDBFFE806FCE2D5
:1022700020EE1CF000EE1CF00A0EDBCFEBFFE806B0
:10228000FCE2120025C001F026C002F0120000019D
:10229000626F83928390606B62AF01D0602B43D8F2
:1022A000060E616FD8906033612FFCD74DD847D8A8
:1022B000050E616FD8906033612FFCD7010E27D8CF
:1022C000603B0F0E6017010E46D8030EE82EFED7B6
:1022D00000F0838210EC19F0839262C060F000017C
:1022E000D890603341D81FD83FD82ED828D8D8905E
:1022F0006033010E0CD8010E2ED8030EE82EFED747
:1023000000F0838210EC19F0839210EF19F060173F
:1023100060476047604783506019F70B6019836E10
:1023200062C060F01200010E6017603B604783508E
:102330006019DF0B6019836E62C060F012006019D3
:10234000836E62C060F01200010E6017603B835024
:102350006019EF0B120060176047604783506019E7
:10236000FB0B6019836E1200D8906033D8906033F5
:1023700012007F4B802B83317F0BE80604E18351F1
:10238000010B80090AD083317F0B866FD89086338A
:10239000863783518619010B8619836FD890813552
:1023A000D96E82354DEC10F0886F020E81198211C2
:1023B00007E184C086F0030E861702E11D0E886FC8
:1023C000020E811982110AE140D81CEC18F08FEC42
:1023D00017F06051611102E11C0E886F020E811925
:1023E00082110AE132D854EC10F08FEC17F06051F2
:1023F000611102E11D0E886F88C086F0876B86BF71
:1024000087077F51865D8051875915E2806B010EE9
:102410007F6F20EE7BF000EE70F00A0EDBCFEBFF5B
:10242000E806FCE202EC17F020EE7BF00A0EEBCFA0
:10243000DBFFE806FCE220EE7BF000EE7BF00A0E0C
:10244000DBCFEBFFE806FCE2120084C060F085C041
:1024500061F01200626F839283800001606B62AF53
:1024600001D0602B35D8060E616FD8906033612F94
:10247000FCD746D8050E616FD8906033612FFCD72A
:10248000010E32D8603B0F0E6017010E44D8030EC8
:10249000E82EFED700F0838210EC19F0839262C020
:1024A00060F00001D89060333FD812D83DD828D8CA
:1024B000D8906033010E18D8010E2DD8030EE82EE7
:1024C000FED700F0838210EC19F0839210EF19F020
:1024D000010E6017603B604783506019DF0B601985
:1024E000836E62C060F0120060176047604760470B
:1024F00083506019F70B6019836E62C060F01200A0
:10250000010E6017603B83506019EF0B6019836EFA
:1025100062C060F012006017604760478350601926
:10252000FB0B6019836E1200D8906033D890603333
:102530001200010EF66E0F0EF76E000EF86E20EE12
:1025400066F0070E0900F5CFDEFFE806FBE2726BCE
:102550006E6B6F6B706B0E01CDAB47D000016E6B75
:102560006F6BF1EC18F00001716F060E72650DD003
:102570000D0E72610AD061517225D96EDA6AF90EB8
:10258000D92671C0DFFF722B34D07251660FD96E1D
:10259000DA6A7151DE1804E1070E726101D0F3D7D7
:1025A0000C0E726520D0080E706105D02C0E7119CA
:1025B00020E1702B1ED0F30E626F63697251646F5D
:1025C000656B625164276351652365BF06D0655111
:1025D00018E1060E645DD8B0120060517225D96E04
:1025E000DA6AF30ECDD7726B04D0060EE82EFED752
:1025F00000D000016E4B6F2B880E6E5D130E6F596D
:10260000AAE312000FC013F0146A156A0E341336D1
:1026100001E314801350166E165001E153D012C01E
:1026200013F0146A156A1134133601E31480135041
:102630001B6E1B5001E146D01B507B0F16260FC0AE
:102640001BF012501B1A800E1B160E8E118E000EE0
:102650001216176A186A196A070E1A6E0DB02BD86F
:10266000D8900F320E320D32D89010361136123605
:102670001A2EF4D7090E1A6E0DB01DD8D8900F324D
:102680000E320D32D8901932183217321A2EF4D772
:1026900017C001F018C002F019C003F016C004F012
:1026A0001BC005F06DEC15F001C00DF002C00EF07E
:1026B00003C00FF0120010501726115018221250AC
:1026C000192212000D6A0E6A0F6A12007A6F000159
:1026D000796B785149E0792B76AF1FD072C06EF0DC
:1026E0002D0E6F6F7A516FEC17F073C060F074C0ED
:1026F00061F075C062F076C063F0000164696569DD
:1027000066696769DCEC16F060C073F061C074F054
:1027100062C075F063C076F027D072C06EF02B0EE9
:102720006F6F7A516FEC17F01FD0770777517925CB
:1027300072256E6F1DD825D8C6EC13F06051F60DCA
:10274000F3507325300F6F6F7A516FEC17F010D87C
:10275000000117D8C6EC13F060C073F061C074F0CC
:1027600062C075F063C076F000017751DEE11200BF
:1027700073C060F074C061F075C062F076C063F041
:102780000A0C646F656B666B676B1200696B67AFF1
:102790000AD0671F661F651F646D000E65236623E0
:1027A0006723010E696F63AF0AD0631F621F611F49
:1027B000606D000E612362236323010E691B6A6B47
:1027C0006B6B6C6B6D6B645165116611671129E061
:1027D000010E686F06D0D890643765376637673763
:1027E000682B67AFF8D7D8906A376B376C376D377F
:1027F0006451605D65516159665162596751635911
:1028000009E36451605F6551615B6651625B6751CA
:10281000635B6A81D8906733663365336433682FAE
:10282000E2D7695108E06D1F6C1F6B1F6A6D000EC7
:102830006B236C236D236AC060F06BC061F06CC0C9
:1028400062F06DC063F012001EC020F0216A226A9F
:102850001D34203601E3218020502A6E2A5005E1E4
:102860001C6A1D6A1E6A1F6A1200170E206E1CC0A9
:1028700021F01DC022F01EC023F02028246E04D0B9
:10288000D890233222322132242EFAD72150256EBD
:102890001D8E1E6A1C50266E1D50276E1E50286EFF
:1028A000296A8E0E2A5E2AAE0CD02A50800A8F0F1B
:1028B000D7E3D89029322832273226322A3EF9D758
:1028C0000CD0170E2A6407D0CBD7D89026362736DF
:1028D000283629362A062A50F8E1255008E0291E14
:1028E000281E271E266C000E27222822292226C0F9
:1028F0001CF027C01DF028C01EF029C01FF01200D8
:10290000720EF66E300EF76E000EF86E01EE44F0A9
:1029100010EE30F00900F5CFEEFFE550E150FAE19E
:10292000920EF66E310EF76E000EF86E00EEE7F0C6
:1029300010EE14F00900F5CFEEFFE550E150FAE19A
:10294000380EF66E320EF76E000EF86E0900F5CFF7
:102950005EF002EEF0F013EEC0F0EE6AE550E150EA
:10296000FCE1E250FAE102EE00F0F00EEE6AE80659
:10297000FDE101EE00F0440EEE6AE806FDE100EE36
:10298000AEF0390EEE6AE806FDE100EE4CF0120EF4
:10299000EE6AE806FDE15F905F920001E9EF0EF05C
:1029A000889A88988896889488928890839A839841
:1029B0008396839483928390FAEC18F0FAEC18F0E3
:1029C000FAEC18F0FAEC18F0FAEC18F0FAEC18F04F
:1029D000010E0001636F2FD8839283902CD88382DD
:1029E000839010EC19F027D883928390FAEC18F0BA
:1029F0000001632B030E6365EED718D88392839092
:102A000015D88382839010EC19F010D883928390AC
:102A1000FAEC18F0280E47EC11F0100E47EC11F00C
:102A2000010E47EC11F00F0E47EF11F0839A8398D7
:102A3000838683941200839A83988386838412000A
:102A40000A6A04AE03D040D8010E0A6E08AE08D060
:102A5000081E071E061E056C000E0622072208220D
:102A6000055006100710081023E0010E096E06D06D
:102A7000D8900536063607360836092A08AEF8D744
:102A80000550015C0650025807500358085004587E
:102A900008E30550015E0650025A0750035A0850D9
:102AA000045AD8900832073206320532092EE8D788
:102AB0000A5001E009D801C001F002C002F003C0D1
:102AC00003F004C004F01200041E031E021E016C79
:102AD000000E022203220422000C045004E00150E4
:102AE0000210031006E1016A026A036A1200042A56
:102AF00032D8066A076AFE0E031428D807E0F7D713
:102B0000042A012A000E0222032225D8066A076A37
:102B100003501CD806E0F4D70406D89001360236DC
:102B2000033602BE03D0020E0460F6D704A0029E54
:102B3000D890043204500312055001E0038E01C006
:102B400001F002C002F003C003F01200086E06504C
:102B5000071008101200D89003320232013212001E
:102B6000656B63AF06D0626D631FD8B0632B010E37
:102B7000656F61AF06D0606D611FD8B0612B010E2B
:102B8000651B666B676B625163111BE0010E646F1E
:102B900004D0D89062376337642B63AFFAD7D890EC
:102BA000663767376251605D6351615905E3625171
:102BB000605F6351615B6681D89063336233642FD9
:102BC000EED7655104E0666D671FD8B0672B66C00D
:102BD00060F067C061F0120026EC0AF0000913E013
:102BE00020EEAEF010EEB9F00A0EDBCFE3FFE80600
:102BF000FCE2B9C0C4F0BAC0C5F0BBC0C6F0BCC0EE
:102C0000C7F0E2871CD0E32B040EE36501D0F9D7AF
:102C1000F00EB925C86F000EBA21C96F000EBB2196
:102C2000CA6F000EBC21CB6FCBAF08D0800EC82777
:102C3000510EC923010ECA23000ECB23E283E29575
:102C400012006D6B69AF06D0686D691FD8B0692B33
:102C5000010E6D6F6BAF04D06A6D6B1FD8B06B2B1C
:102C60006A516B1117E0010E6C6F04D0D8906A376F
:102C70006B376C2B6BAFFAD76A51685D6B51695932
:102C800004E36A51685F6B51695BD8906B336A33B8
:102C90006C2FF2D76D5104E0686D691FD8B0692BB5
:102CA00068C068F069C069F01200836A846A856A46
:102CB000C00E886E896A840E8A6E440E0F01216FE1
:102CC000196BC00E116F2D6B186B106B206B0F6B97
:102CD000176B1F6B000EF2BE010E0001606FF29EBB
:102CE000550E0E01A06FAA0EA06FA091B551E00B7A
:102CF0001709B56F090EFD6F550EA06FAA0EA06FD4
:102D0000A081000160A102D0F28EAA0CF29E1200F6
:102D10002A2A000E2B222C222D22800E2A181CE19A
:102D2000510E2B1819E12C042D1016E12A6A2B6A7A
:102D30002C6A2D6A20EE2AF000EE1CF00A0EDBCF82
:102D4000EBFFE806FCE2D4EC10F020EE2AF00A0ECD
:102D5000EBCFDBFFE806FCE220EE2AF000EE2AF0E3
:102D60000A0EDBCFEBFFE806FCE2120076057711D6
:102D700016E1776B0C0E766F20EE70F000EE65F0CA
:102D80000A0EDBCFEBFFE806FCE220EC18F020EEA9
:102D900070F00A0EEBCFDBFFE806FCE203D076070B
:102DA000D8A0770720EE70F000EE70F00A0EDBCFAF
:102DB000EBFFE806FCE21200686B696B6A6B6B6BF9
:102DC00060A108D0645168276551692366516A2360
:102DD00067516B23D8906437653766376737D8906B
:102DE0006333623361336033605161116211631187
:102DF000E7E168C060F069C061F06AC062F06BC072
:102E000063F01200764B772B0D0E7619771115E1D2
:102E1000776B010E766F20EE70F000EE65F00A0E13
:102E2000DBCFEBFFE806FCE205EC18F020EE70F0DB
:102E30000A0EEBCFDBFFE806FCE220EE70F000EEBE
:102E400070F00A0EDBCFEBFFE806FCE21200174A37
:102E5000182A0D0E1718181015E1186A010E176EB2
:102E600020EE11F000EE06F00A0EDBCFEBFFE806D5
:102E7000FCE2E9EC17F020EE11F00A0EEBCFDBFFDD
:102E8000E806FCE220EE11F000EE11F00A0EDBCFB6
:102E9000EBFFE806FCE21200C851B95D606FC95152
:102EA000BA59616FCA51BB59626FCB51BC59636F3C
:102EB00063AF08D0800E6027510E6123010E62239C
:102EC000000E632363BF120063516211611104E1BC
:102ED0003C0E605DD8A01200E285E2931200706F94
:102EE0000DD06E517F0F08D06E51BF0F05D06E51BF
:102EF000930F02D06E51D30F716F0AD00001705141
:102F0000010AEFE0030AF0E0010AF1E0070AF2E04B
:102F1000715147EC11F000016F512AEF12F062512C
:102F2000631117E0010E646F04D0D89062376337E5
:102F3000642B63AFFAD76251605D6351615904E35A
:102F40006251605F6351615BD89063336233642F79
:102F5000F2D760C060F061C061F01200035004104D
:102F600017E0010E056E04D0D89003360436052A0A
:102F700004AEFAD70350015C0450025804E3035036
:102F8000015E0450025AD89004320332052EF2D763
:102F900001C001F002C002F01200CC51B91909E1E0
:102FA000CD51BA1906E1CE51BB1903E1CF51BC197D
:102FB0000EE0D051C45DD151C559D251C659C75147
:102FC000800A606FD351800A6059D8A01200E28154
:102FD00012000F4A102A0FC001F010C002F011D8E1
:102FE000AEEC17F00150021002E10001FA2B20EEC6
:102FF00006F000EE06F00A0EDBCFEBFFE806FCE27F
:103000001200046A640E036E640C6E4B6F2B6EC06C
:1030100060F06FC061F010D88FEC17F06051611153
:1030200001E1FA2B20EE65F000EE65F00A0EDBCF31
:10303000EBFFE806FCE21200636B640E626F640C47
:103040006EC060F06FC061F01CEC18F08FEC17F0F0
:103050006051611101E1FA076E07D8A06F0720EEF9
:1030600065F000EE65F00A0EDBCFEBFFE806FCE250
:1030700012001F001C001F001E001F001E001F006A
:103080001F001E001F001E001F00000003000200A2
:103090000500000003000500010004000600020016
:1030A000040060516203F3CF64F0F4CF65F0605127
:1030B0006303F350652761516203F350652764C0D1
:1030C00060F065C061F012000C6E0C50016E026A77
:1030D000036A8E0E046E000E056E6DEC15F001C0D5
:1030E00009F002C00AF003C00BF01200D56A530EBB
:1030F000D66E7C0ED46ED36ACA9BC28B360E00018C
:10310000606F320E616F0BEC19F017EF19F0CA9B6C
:103110000001DC4BDD2BDD5104E10A0EDC5DD8A0A3
:103120001200A4EC18F00001DC6BDD6B120085824C
:10313000E36BB9C0C8F0BAC0C9F0BBC0CAF0BCC02C
:10314000CBF0E283E2911200DE51DF11D8B412001D
:103150000500FA6EDE51FD6EDF51FE6EFF6AFA5019
:1031600012005EBE000C00D05E500A0D080EF32463
:10317000D96E020EF420DA6EDF501200220E0E011C
:10318000D86FDA6BDC6B020EDE6FDD6BDBB1120029
:10319000FDD72D2D2D2D2D2D002D2D2D2D2D2D003F
:1031A000830F840FFF1419EC19F055EC16F0BEECE8
:1031B00018F076EC18F0DDEF18F0080E9F6E900E08
:1031C0009D6E840E9E6E670E9B6E9C6A12003F0E73
:1031D000811660C07EFF61C07FFF8180818E80503C
:1031E00012000E01CDABFDD79DA202D09D9E9D8EFB
:1031F00099501200080E0001606F230EE82EFED7D2
:10320000602FFCD712003BEC09F0DEEC0BF008EC71
:103210000BF096EF0CF060C0DEF061C0DFF0120042
:1032200000D000D000F012008592E2971200D58EF7
:093230001200F29A12001200FFD4
:020000040020DA
:10000000FF0FFF0FFF0FFF0FFF0FFF0FFF0FFF0F80
:020000040030CA
:0C000000AAFFFFFF9FFFFFFFFFFFFFFFB5
:00000001FF
