:0400000035EF00F0E8
:100008005E82FACF41F0FBCF42F0E9CF43F0EACF6E
:1000180044F0E1CF45F0E2CF46F0D9CF47F0DACF50
:1000280048F0F3CF49F0F4CF4AF00E01C2BBCAAB97
:1000380002D004EC19F04AC0F4FF49C0F3FF48C0ED
:10004800DAFF47C0D9FF46C0E2FF45C0E1FF44C020
:10005800EAFF43C0E9FF42C0FBFF41C0FAFF5E92DE
:0C0068001100818E38EF00F03BEF14F027
:090F000000244750524D432C001F
:100F0A0098FE0104010A14F6FF3C280408C0082AC6
:100F1A0005018051010005C58000000000000000A5
:100F2A000000000000000000000000200000000097
:100F3A0000000000000000000000000000000002A5
:100F4A00080808080808080808080808080808A07F
:100F5A00FFFFFFFF017FFFFFFFFF017FFFFFFFFF93
:100F6A00017FFFFFFFFF017FFFFFFFFF017FFFFF01
:100F7A00FFFF017FFFFFFFFF017FFFFFFFFF017FF1
:100F8A00FFFFFFFF017FFFFFFFFF017FFFFFFFFF63
:100F9A00017FFFFFFFFF017FFFFFFFFF017FFFFFD1
:100FAA00FFFF017FFFFFFFFF017FFFFFFFFF017FC1
:100FBA00FFFFFFFF017FFFFFFFFF017FFFFFFFFF33
:100FCA00017FFFFFFFFF017FFFFFFFFF017FFFFFA1
:100FDA00FFFF017FFFFFFFFF017FFFFFFFFF017F91
:100FEA000A249012480A124809240A092424900360
:100FFA000490080002149000001524240000022422
:10100A0010002002245000000100001420000000FB
:10101A0000000000000000000000000000000000C6
:10102A0000000000000000000000000000000000B6
:10103A0000000000000000000000000000000000A6
:10104A000000000000000000000000000000000096
:10130A004DA009D0E2C0E3F0536A4D90EED8F42024
:10131A00DA6EDF50526E3B6A3B503C0FD96EDA6A86
:10132A00DF6A3B2A010E3B64F7D73E6AE351060D9A
:10133A00F00E356E060E366E352A000E3622F35042
:10134A003526F45036223E503524D96E000E36200A
:10135A00DA6E3E503C0FE16EE26ADFCFE7FF3E2ACB
:10136A00010E3E64E3D75250595C0FE35B50505C68
:10137A0017E23F6A3F50A7D83F50C9D83F50CFD84D
:10138A003F2A010E3F64F6D70BD0406A40509BD8E3
:10139A004050BDD84050C3D8402A010E4064F6D709
:1013AA0080D8F420DA6EDE0406E07BD8C4D806E1E1
:1013BA005250545C03E358504F5C05D072D8BBD8E6
:1013CA0005E156504E5C02E2858001D08590512A93
:1013DA00502A5A505BC035F0A9D8505069D801E359
:1013EA00506A4F2A575058C035F0A0D84F5060D88D
:1013FA0001E34F6A4E2A555056C035F097D84E50E1
:10140A0057D801E34E6A630E511822E1516A20EE61
:10141A00B9F000EE2AF00A0EDBCFEBFFE806FCE299
:10142A0086EC16F020EEB9F00A0EEBCFDBFFE806E9
:10143A00FCE200015AD8F420DA6EDF50356E5350C0
:10144A00355C366E3604526E525001E14D80532A95
:10145A005A0E5118D8A412005DAE02D03A6A01D0D1
:10146A004BD8E329E26F3A50040D030EF324D96EE8
:10147A00010EF420DA6EE251DE5CD8B012005CC0D4
:10148A005DF05DAE02D03A6A01D036D83A50040D0A
:10149A00020EF324D96E010EF420DA6EDF50E26FE9
:1014AA001200E351060DF50EF324D96E060E120052
:1014BA00376E386A3550375C3850800A396E365084
:1014CA00800A395812003C0FD96EDA6AE351060DC8
:1014DA00F00E356E060E366E030E3526000E3622D7
:1014EA00F3503526F45036221200E351060DF00E61
:1014FA00F324D96E060E12005D500A0D080EF3246D
:10150A00D96E020EF420DA6EDF503A6E12003524DC
:10151A00E16E000E3620E26EE750376E12003C0F85
:10152A00E16EE26AE7503710DF6E1200366A35263E
:10153A00000E3622000CF420DA6E020EDE181200BB
:10154A006C6B6D6BE3D8D6EC18F000016A6F6C4BCC
:10155A006D2BDCD8D6EC18F000016B6F6AC060F016
:10156A006BC061F0636B3C0E626F89EC18F060C06F
:10157A00DEF061C0DFF06D6B020E6C6FC7D8D6EC7F
:10158A0018F00001D86FD96B6C4B6D2BBFD8D6EC15
:10159A0018F00001DA6FDB6B6D6B040E6C6FB6D856
:1015AA00D6EC18F00001D46FD56B6C4B6D2BAED80E
:1015BA00D6EC18F00001D66FD76B6D6B060E6C6F08
:1015CA00A5D8D6EC18F00001F76F6D6B070E6C6F9B
:1015DA009DD8D6EC18F000016A6F6C4B6D2B96D82B
:1015EA00D6EC18F000016B6F6D6B090E6C6F8ED81C
:1015FA00D6EC18F05B6E00016D6B0A0E6C6F86D824
:10160A00D6EC18F05A6E00016D6B0B0E6C6F7ED81B
:10161A00D6EC18F0596E00016D6B0C0E6C6F76D813
:10162A00D6EC18F0586E00016D6B0D0E6C6F6ED80B
:10163A00D6EC18F0576E00016D6B0E0E6C6F66D803
:10164A00D6EC18F0566E00016D6B0F0E6C6F5ED8FB
:10165A00D6EC18F0556E00016D6B100E6C6F56D8F3
:10166A00D6EC18F0546E00016D6B110E6C6F4ED8EB
:10167A00D6EC18F00001E46F6D6B120E6C6F666B9E
:10168A00676B686B696B42D8D6EC18F00001666F1D
:10169A006C4B6D2B3BD8D6EC18F00001676F6C4B86
:1016AA006D2B34D8D6EC18F00001686F66C0D0F004
:1016BA0067C0D1F068C0D2F069C0D3F06D6B150E67
:1016CA006C6F24D8D6EC18F000016A6F6C4B6D2B46
:1016DA001DD8D6EC18F000016B6F6BC060F0616B1F
:1016EA000E0E636F100E626F89EC18F06A513C0D92
:1016FA006051F3266151F422F3CFCCF0F4CFCDF050
:10170A00000ECDBFFF0ECE6FCF6F12006CC060F01F
:10171A006DC061F0120020EEECF010EEA5F0060E9E
:10172A00DBCFE3FFE806FCE220EEE5F010EE9EF0E8
:10173A00060EDBCFE3FFE806FCE2CCEC18F0A50EC0
:10174A00606F9E0E616FD0EC13F0A50E606F9E0E57
:10175A00616F92EC11F0000901E1ADD0A5510A0DBB
:10176A00A651AAD8B26FFD0EF420B36FA7510A0D85
:10177A00A851A2D8B46FFD0EF420B56FA50E6E6FF6
:10178A0099EC0FF09A6F400E9B6F9C6B9A2B03D0CB
:10179A009C359C339B339A2FFBD700019B47B6514C
:1017AA009B19010B9B19B66FF751640DF3CF9AF091
:1017BA00F4CF9BF0A9510A0DF3509A27F4509B23BA
:1017CA00AA519A27000E9B23F00E9A25B76FFD0E99
:1017DA009B21B86F9E0E6C6FA0EC10F06CC0AEF03F
:1017EA006DC0AFF06EC0B0F06FC0B1F0DEC09AF05D
:1017FA00DFC09BF0000E9BBFFF0E9C6F9D6F9A513E
:10180A00AE279B51AF239C51B0239D51B123B1AF59
:10181A001AD0800EAE27510EAF23010EB023000E50
:10182A00B12320EEAEF000EE7BF00A0EDBCFEBFF29
:10183A00E806FCE21AEC11F020EEAEF00A0EEBCF4D
:10184A00DBFFE806FCE2B1BF23D0B15107E1810E0C
:10185A00AE5D510EAF59010EB0591AE3800EAE2794
:10186A00AE0EAF23FE0EB023FF0EB12320EEAEF074
:10187A0000EE7BF00A0EDBCFEBFFE806FCE25FEC42
:10188A0013F020EEAEF00A0EEBCFDBFFE806FCE227
:10189A0020EEAEF000EE89F00A0EDBCFEBFFE80691
:1018AA00FCE207EC0FF020EEAEF00A0EEBCFDBFF06
:1018BA00E806FCE2010C000CF326000EF422F00EFE
:1018CA00F3241200796BE00E786F6C6B170E6B6F56
:1018DA006E6B2B0E6D6F7A6B7B6BA3D889EC18F04D
:1018EA00F00E6025D96E060E6121B3D8D6EC18F039
:1018FA00DF6E0001784B792B746B756B92D889EC8B
:10190A0018F0ADD8682B000E692360516827615121
:10191A00692374516825D96E755169219AD8D6EC14
:10192A0018F0DF6E0001784B792B744B752B75BF5D
:10193A00E5D7755103E1020E745DE0E3766B776BD0
:10194A0070D889EC18F08BD8030E6827000E69232B
:10195A00605168276151692376516825D96E77519C
:10196A00692177D8D6EC18F0DF6E0001784B792B15
:10197A00764B772B77BFE4D7775103E1020E765D7A
:10198A00DFE37AC060F07BC061F0636B080E626FC0
:10199A00AEEC15F06051736F73516B256F6F000ECB
:1019AA006C21706F73516D25716F000E6E21726F0D
:1019BA0047D801D059D8682FFDD76FC060F070C0E2
:1019CA0061F0D6EC18F00001691506E02AD889EC16
:1019DA0018F02FD8010E19D033D801D045D8682F66
:1019EA00FDD771C060F072C061F0D6EC18F000014A
:1019FA00691506E016D889EC18F01BD8020E05D036
:101A0A0010D889EC18F015D8000EDF6E7A4B7B2BB4
:101A1A007BBF63D77B5104E1A00E7A5D01E25DD7FB
:101A2A0012007AC060F07BC061F0636B060E626FD1
:101A3A00060CF50E6025D96E060E6121DA6E1200CB
:101A4A007AC068F0070E6817800E696F6A6B682B98
:101A5A00800CDA6E78C060F079C061F01200F00E86
:101A6A00686F060E696F12006A356A3369331200AD
:101A7A006E6B3F0E6D6F716B726B98D8030E92D8B6
:101A8A00D8907135D96E7235DA6ED890D936DA3681
:101A9A006651D9266751DA226DC060F06EC061F0D6
:101AAA00D6EC18F0DF6E00016D4B6E2B714B722B6A
:101ABA0072BFE3D7725103E1110E715DDEE3736BFE
:101ACA00746B7351741106E171D8020E6BD85DD82C
:101ADA00DF6A1ED06BD8020E65D857D86869696963
:101AEA00000E6A6F010E6B6F68516A2769516B238A
:101AFA00D8907335E16E7435E26ED890E136E236ED
:101B0A006A51E1266B51E222E7506C6F6C29DF6E55
:101B1A004DD83BD8DE6ADD6A49D8020E43D835D89B
:101B2A00DF506F6F706B17D041D82FD86FC060F03D
:101B3A0070C061F0636B060E626F89EC18F0F00EEC
:101B4A006025E16E060E6121E26EE750DE26000E88
:101B5A00DD226F4B702B2AD8030E24D816D8DF50FB
:101B6A00686F696B6F51685D6951800A6A6F70515D
:101B7A00800A6A59D9E2734B742B74BFA2D7745185
:101B8A0003E1110E735D9DE31200D8907335D96E8F
:101B9A007435DA6ED890D936DA366651D926675155
:101BAA00DA2212006627000E6723000C000E666F09
:101BBA00010E676F1200C2EC18F0F28EF28C0A0E58
:101BCA00606F130E616F0BEC19F0AC6BAD6BACC0B0
:101BDA0060F0ADC061F0F00EAC25D96E020EAD21F9
:101BEA00DA6EDF50626F3FEC18F0AC4BAD2BADBF35
:101BFA00EED7040EAD5DEBE3FCEC18F05EEC15F0ED
:101C0A000E0EEDEC12F00001E40501E1E081859091
:101C1A00E0B1AAEC18F0E0B34AEC17F0E0B5EAEC50
:101C2A0015F0E0B714EC19F0ECEC17F021EC10F019
:101C3A005C6E010E726FB9C073F0BAC074F0BBC0AB
:101C4A0075F0BCC076F0060E776F010E786FA0ECC7
:101C5A0014F0080E726FE35139D8A0EC14F00C0E90
:101C6A00726FE25133D8A0EC14F0010E726F7AEC65
:101C7A000AF020D8A0EC14F0050E726FE351060D9D
:101C8A00F10EF324D96E060E15D8A0EC14F0090E45
:101C9A00726FE351060DF30EF324D96E060E0AD8BD
:101CAA00A0EC14F00D0E726F56EC0AF003D8A0ECFB
:101CBA0014F0AED7F420DA6EDF50736F746B756B65
:101CCA00766B030E776F010E786F020C736F746B6D
:101CDA00756B766B030E776F010E786F010C6D6B67
:101CEA00500E6C6F6A6B6B6B73D8D6EC18F00001F0
:101CFA006E6F67D8D6EC18F07BD889EC18F044D808
:101D0A0089EC18F090EC10F0020E67D85AD8D6EC8D
:101D1A0018F000016E6F55D8D6EC18F069D889EC26
:101D2A0018F032D889EC18F094EC10F056D86C4BB5
:101D3A006D2B3FD889EC18F0080E6025D96E020E7B
:101D4A006121DA6E45D8D6EC18F0DF6E000139D879
:101D5A00D6EC18F00001666F2CD889EC18F099ECD3
:101D6A0010F06647DF5000016619010B6619DF6E35
:101D7A006C4B6D2B6A4B6B2B6BBFB6D76B5103E168
:101D8A00180E6A5DB1E312006E513C0D6051F324E6
:101D9A00666F6151F420676F686B67BF68076851A7
:101DAA00696F6AC060F06BC061F0636B0A0E626FA4
:101DBA000A0C6AC060F06BC061F0636B0A0E626F56
:101DCA000A0C6C4B6D2B6CC060F06DC061F0120098
:101DDA006CC060F06DC061F012006121DA6E66C0FD
:101DEA00DEFF67C0DEFF68C0DEFF69C0DEFF1200EB
:101DFA0000016F6F6FC060F0616B0E0E636F100EA3
:101E0A00626F100CDAC060F0DBC061F089D889EC2F
:101E1A0018F0D8516025946FD9516121956FD6C0B9
:101E2A0060F0D7C061F07CD889EC18F0D4516025F5
:101E3A00966FD5516121976F8FC060F090C061F0A5
:101E4A006FD889EC18F08D516025986F8E516121F9
:101E5A00996F9451965D955197590FE25CD805E2B6
:101E6A009851965D995197590BE3100E89270E0EDA
:101E7A008A23000E8B238C2303D04DD801E3F0D79D
:101E8A008CAF1AD0800E8927510E8A23010E8B231C
:101E9A00000E8C2320EE89F000EE7BF00A0EDBCFD9
:101EAA00EBFFE806FCE21AEC11F020EE89F00A0ECC
:101EBA00EBCFDBFFE806FCE28CBF23D08C5107E1B5
:101ECA00810E895D510E8A59010E8B591AE3800ED3
:101EDA008927AE0E8A23FE0E8B23FF0E8C2320EE5B
:101EEA0089F000EE7BF00A0EDBCFEBFFE806FCE29E
:101EFA005FEC13F020EE89F00A0EEBCFDBFFE80669
:101F0A00FCE220EE89F000EE89F00A0EDBCFEBFF4F
:101F1A00E806FCE212009451985D95519959120015
:101F2A00636B640E626F640C6E5103EC12F07FD81F
:101F3A00DF500A0DF3506F25F00F756F6E51FDECEF
:101F4A0011F075D8020E68D86F25F00F766FF75129
:101F5A00640DF3CF6FF0F4CF70F06E51D96EDA6A78
:101F6A00040E5AD86F27F45070236E51F7EC11F013
:101F7A006F27000E7023F00E6F25776FFD0E70210C
:101F8A00786F020E766501D002D0010E01D0000EE4
:101F9A00775F000E785B76516F6F706BD8906F37F2
:101FAA0070375A0E6F25D96E010E7021DA6EDECFA8
:101FBA0071F0DDCF72F0636B040E33D8AEEC15F01E
:101FCA0060C073F061C074F0010E636F900E29D87F
:101FDA00AEEC15F060517327615174237551732764
:101FEA00000E7423636B640E1CD8AEEC15F06051BE
:101FFA00735F6151745B7151732772517423775106
:10200A007325686F78517421696F6B6B070E6A6F5D
:10201A001FEC16F068511200D926DF500A0DF35052
:10202A001200626F77C060F078C061F012006F6FC3
:10203A006E51D96EDA6A12006F6B706B54D889ECE4
:10204A0018F072D8DF307F0B0001666FC1317F0B49
:10205A00661541E048D889EC18F061D86121DA6E3A
:10206A0042D889EC18F0000E6025E16E020E61215B
:10207A00E26EDE50E65CDE50E658DE50E658E65088
:10208A00800A6E6FDE50800A6E591BE22CD889ECEA
:10209A0018F041D830D81FE226D889EC18F03FD87A
:1020AA006121DA6EDE50B95DDE50BA59DE50BB5995
:1020BA00BC51800A6A6FDE50800A6A590CE26F517D
:1020CA00120011D889EC18F026D815D8F8E30BD8E5
:1020DA0089EC18F0E4D76F4B702B705103E1180E9E
:1020EA006F5DACE3FF0C6FC060F070C061F0636BB2
:1020FA000A0E626F0A0C020E6121DA6EB951DE5CB9
:10210A00BA51DE58BB51DE58DE50800A6A6FBC51A4
:10211A00800A6A591200000E6025D96E1200040E58
:10212A006025D96E020E1200090E6025D96E020EC4
:10213A006121DA6E12006C51EDEC11F072D8F7ECF5
:10214A0011F061EC0CF0706FFD0EF420716F726B80
:10215A0071BF72077251736FF00E746FFD0E756F57
:10216A006C51D96EDA6A5DD803EC12F0F326000ED0
:10217A00F4227451F326755149D8100E646F0E0E6D
:10218A00656F666B676BB4EC16F060C076F061C081
:10219A0077F062C078F063C079F0F00E7A6FFD0EC6
:1021AA007B6F6C51F2EC11F03CD8FDEC11F0F32688
:1021BA00000EF4227A51F3267B5128D83C0E646F24
:1021CA00656B666B676BB4EC16F0605176257C6FB5
:1021DA00615177217D6F625178217E6F6351792138
:1021EA007F6F70517C25806F71517D21816F725193
:1021FA007E21826F73517F21836F80C06CF081C012
:10220A006DF082C06EF083C06FF01200F422F3CF3B
:10221A0060F0F4CF61F0000E61BFFF0E626F636F72
:10222A001200DF500A0D6C51120083317F0B400AF5
:10223A0004E18351010B02090AD083317F0B866FB7
:10224A00D8908637863783518619010B8619836F92
:10225A007F05801144E120EE7BF000EE70F00A0E5B
:10226A00DBCFEBFFE806FCE2DAEC16F020EE7BF0BF
:10227A000A0EEBCFDBFFE806FCE2D8908135D96E77
:10228A0082353AD8876F020E8119821107E184C01C
:10229A0086F0030E861702E11D0E876F020E811962
:1022AA0082110AE135D83BEC18F0AEEC17F0605118
:1022BA00611102E11C0E876F020E8119821109E178
:1022CA0027D821D8AEEC17F06051611102E11D0E3A
:1022DA00876F87517F6F806B7FBF800703D07F072F
:1022EA00D8A0800720EE7BF000EE7BF00A0EDBCF51
:1022FA00EBFFE806FCE21200DA6E420ED926010E66
:10230A00DA22DF501200010E636F900E626F900C9A
:10231A0084C060F085C061F0120060516FD8626FAE
:10232A006051D96EDA6A4AD8D8A0000C6351800A83
:10233A00600F01E3000C60515BD8626F60514DD8A9
:10234A003DD8D8A0000C6351800A730F01E3000C3A
:10235A00605148D8626F60513BD830D8D8A0000C81
:10236A006351800A1C0F01E3000C615147D8626F68
:10237A006151D96EDA6A22D8D8A0000C6351800A5A
:10238A00680F01E3000C615133D8626F615125D89F
:10239A0015D8D8A0000C6351800A440F01E3000C41
:1023AA00615120D8626F615113D808D8D8A0000CA7
:1023BA006351800A440F01E3000C010CDF500A0D3F
:1023CA00F3506225F00F636F6351800A7F0F12008A
:1023DA00D96EDA6A040ED926040CD96EDA6A020EAC
:1023EA00D926020CD96EDA6A050ED926DF501200F8
:1023FA00D96EDA6A030ED926DF501200D96EDA6A6C
:10240A00D92ADF501200204A212A24307F0BE806FD
:10241A0004E12450010B80090AD024307F0B276E77
:10242A00D8902732273624502718010B2718246EF4
:10243A00D8902234D96E233481EC11F0296E020E21
:10244A002218231007E125C027F0030E271602E100
:10245A001D0E296E020E221823100AE142D820EC22
:10246A0018F0CDEC17F00150021002E11C0E296E93
:10247A00020E221823100CE134D8010E046E900EBD
:10248A00036ECDEC17F00150021002E11D0E296E09
:10249A0029C027F0286A27BE28062050275C215029
:1024AA00285815E2216A010E206E20EE1CF000EE7B
:1024BA0011F00A0EDBCFEBFFE806FCE225EC17F081
:1024CA0020EE1CF00A0EEBCFDBFFE806FCE220EE62
:1024DA001CF000EE1CF00A0EDBCFEBFFE806FCE274
:1024EA00120025C001F026C002F01200626F83922A
:1024FA0083800001606B62AF01D0602B37D8060E73
:10250A00616FD8906033612FFCD74DD847D8050E3C
:10251A00616FD8906033612FFCD7010E33D8603BCE
:10252A000F0E6017010E46D8030EE82EFED700F0F4
:10253A00838210EC19F0839262C060F00001D89097
:10254A00603341D813D83FD82ED828D8D8906033D2
:10255A00010E18D8010E2ED8030EE82EFED700F071
:10256A00838210EC19F0839210EF19F0010E6017B4
:10257A00603B604783506019DF0B6019836E62C04D
:10258A0060F0120060176047604760478350601927
:10259A00F70B6019836E62C060F012006019836ED7
:1025AA0062C060F01200010E6017603B8350601930
:1025BA00EF0B120060176047604783506019FB0BEE
:1025CA006019836E1200D8906033D890603312007D
:1025DA000001626F83928390606B62AF01D0602BBF
:1025EA0037D8060E616FD8906033612FFCD74DD86B
:1025FA0047D8050E616FD8906033612FFCD7010E62
:10260A0033D8603B0F0E6017010E46D8030EE82E32
:10261A00FED700F0838210EC19F0839262C060F05A
:10262A000001D890603341D813D83FD82ED828D883
:10263A00D8906033010E18D8010E2ED8030EE82E5A
:10264A00FED700F0838210EC19F0839210EF19F094
:10265A00010E6017603B604783506019DF0B6019F9
:10266A00836E62C060F0120060176047604760477F
:10267A0083506019F70B6019836E62C060F0120014
:10268A006019836E62C060F01200010E6017603B31
:10269A0083506019EF0B1200601760476047835040
:1026AA006019FB0B6019836E1200D8906033D890C2
:1026BA00603312007F4B802B83317F0BE80604E1E5
:1026CA008351010B80090AD083317F0B866FD89022
:1026DA008633863783518619010B8619836FD89002
:1026EA008135D96E823581EC11F0886F020E81191D
:1026FA00821107E184C086F0030E861702E11D0EDF
:10270A00886F020E811982110AE140D83BEC18F059
:10271A00AEEC17F06051611102E11C0E886F020ED7
:10272A00811982110AE132D888EC11F0AEEC17F067
:10273A006051611102E11D0E886F88C086F0876BB7
:10274A0086BF87077F51865D8051875915E2806B66
:10275A00010E7F6F20EE7BF000EE70F00A0EDBCFE9
:10276A00EBFFE806FCE200EC17F020EE7BF00A0E25
:10277A00EBCFDBFFE806FCE220EE7BF000EE7BF01D
:10278A000A0EDBCFEBFFE806FCE2120084C060F021
:10279A0085C061F01200010EF66E0F0EF76E000E84
:1027AA00F86E20EE66F0060E0900F5CFDEFFE806A9
:1027BA00FBE2716B6D6B6E6B6F6B0E01CDAB47D02D
:1027CA0000016D6B6E6BEAEC18F00001706F060E7B
:1027DA0071650DD00D0E71610AD061517125D96EE6
:1027EA00DA6AF90ED92670C0DFFF712B34D0715125
:1027FA00660FD96EDA6A7051DE1804E1070E71614C
:10280A0001D0F3D70C0E716520D0080E6F6105D088
:10281A002C0E701920E16F2B1ED0F30E626F6369C4
:10282A007151646F656B625164276351652365BF9B
:10283A0006D065511AE1060E645DD8B012006051E7
:10284A007125D96EDA6AF30ECDD7716B04D0060EF4
:10285A00E82EFED700D000016D4B6E2B6EBFADD7B0
:10286A00E80E6D5D030E6E59A8E312000A0EF66EAD
:10287A000F0EF76E000EF86E02EEF0F014EE00F096
:10288A000900F5CFEEFFE550E150FAE1E250F8E138
:10289A00E20EF66E300EF76E000EF86E01EE44F0A0
:1028AA0010EE30F00900F5CFEEFFE550E150FAE105
:1028BA00C00EF66E310EF76E000EF86E00EEE5F001
:1028CA0010EE13F00900F5CFEEFFE550E150FAE102
:1028DA00360EF66E320EF76E000EF86E0900F5CF60
:1028EA005CF00900F5CF5DF006EEF0F013EEC0F0F3
:1028FA00EE6AE550E150FCE1E250FAE102EE00F046
:10290A00F00EEE6AE806FDE101EE00F0440EEE6A12
:10291A00E806FDE100EEAEF0370EEE6AE806FDE1EC
:10292A0000EE4BF0110EEE6AE806FDE15E905E9253
:10293A000001E0EF0DF07A6F0001796B785149E000
:10294A00792B76AF1FD072C06EF02D0E6F6F7A5151
:10295A006EEC17F073C060F074C061F075C062F07D
:10296A0076C063F000016469656966696769B4ECF9
:10297A0016F060C073F061C074F062C075F063C095
:10298A0076F027D072C06EF02B0E6F6F7A516EEC14
:10299A0017F01FD077077751792572256E6F1DD8EA
:1029AA0025D800EC15F06051F60DF3507325300F61
:1029BA006F6F7A516EEC17F010D8000117D800EC3F
:1029CA0015F060C073F061C074F062C075F063C046
:1029DA0076F000017751DEE1120073C060F074C036
:1029EA0061F075C062F076C063F00A0C646F656BC3
:1029FA00666B676B1200696B67AF0AD0671F661F49
:102A0A00651F646D000E652366236723010E696FD7
:102A1A0063AF0AD0631F621F611F606D000E6123DE
:102A2A0062236323010E691B6A6B6B6B6C6B6D6BA4
:102A3A00645165116611671129E0010E686F06D0AD
:102A4A00D8906437653766376737682B67AFF8D72A
:102A5A00D8906A376B376C376D376451605D655152
:102A6A006159665162596751635909E36451605F5C
:102A7A006551615B6651625B6751635B6A81D8909D
:102A8A006733663365336433682FE2D7695108E0E8
:102A9A006D1F6C1F6B1F6A6D000E6B236C236D23F9
:102AAA006AC060F06BC061F06CC062F06DC063F028
:102ABA001200889A88988896889488928890839A2F
:102ACA0083988396839483928390F3EC18F0F3ECC3
:102ADA0018F0F3EC18F0F3EC18F0F3EC18F0F3EC50
:102AEA0018F0010E0001636F2FD8839283902CD8BF
:102AFA008382839010EC19F027D883928390F3ECA9
:102B0A0018F00001632B030E6365EED718D8839281
:102B1A00839015D88382839010EC19F010D8839291
:102B2A008390F3EC18F0280EEDEC12F0100EEDEC99
:102B3A0012F0010EEDEC12F00F0EEDEF12F0839A87
:102B4A008398838683941200839A839883868384E6
:102B5A001200656B63AF06D0626D631FD8B0632B3A
:102B6A00010E656F61AF06D0606D611FD8B0612B31
:102B7A00010E651B666B676B625163111BE0010EE8
:102B8A00646F04D0D89062376337642B63AFFAD787
:102B9A00D890663767376251605D6351615905E3C2
:102BAA006251605F6351615B6681D89063336233BF
:102BBA00642FEED7655104E0666D671FD8B0672BA6
:102BCA0066C060F067C061F0120090EC0BF000097B
:102BDA0013E020EEAEF010EEB9F00A0EDBCFE3FF01
:102BEA00E806FCE2B9C0C4F0BAC0C5F0BBC0C6F082
:102BFA00BCC0C7F0E0871CD0E12B040EE16501D010
:102C0A00F9D7880EB925C86FFF0EBA21C96FFF0E12
:102C1A00BB21CA6FFF0EBC21CB6FCBAF08D0800E91
:102C2A00C827510EC923010ECA23000ECB23E08305
:102C3A00E09512006D6B69AF06D0686D691FD8B058
:102C4A00692B010E6D6F6BAF04D06A6D6B1FD8B024
:102C5A006B2B6A516B1117E0010E6C6F04D0D89080
:102C6A006A376B376C2B6BAFFAD76A51685D6B5159
:102C7A00695904E36A51685F6B51695BD8906B3399
:102C8A006A336C2FF2D76D5104E0686D691FD8B0B2
:102C9A00692B68C068F069C069F01200836A846AA7
:102CAA00856AC00E886E896A840E8A6E440E0F0188
:102CBA00216F196BC00E116F2D6B186B106B206B87
:102CCA000F6B176B1F6B000EF2BE010E0001606FD7
:102CDA00F29E550E0E01A06FAA0EA06FA091B551DB
:102CEA00E00B1709B56F090EFD6F550EA06FAA0EFE
:102CFA00A06FA081000160A102D0F28EAA0CF29E00
:102D0A0012002A2A000E2B222C222D22800E2A188B
:102D1A001CE1510E2B1819E12C042D1016E12A6A18
:102D2A002B6A2C6A2D6A20EE2AF000EE1CF00A0E9D
:102D3A00DBCFEBFFE806FCE208EC12F020EE2AF00B
:102D4A000A0EEBCFDBFFE806FCE220EE2AF000EEEB
:102D5A002AF00A0EDBCFEBFFE806FCE21200686BF2
:102D6A00696B6A6B6B6B60A108D064516827655107
:102D7A00692366516A2367516B23D8906437653794
:102D8A0066376737D8906333623361336033605193
:102D9A00611162116311E7E168C060F069C061F016
:102DAA006AC062F06BC063F012007605771116E113
:102DBA00776B0C0E766F20EE70F000EE65F00A0E5F
:102DCA00DBCFEBFFE806FCE258EC18F020EE70F0DF
:102DDA000A0EEBCFDBFFE806FCE203D07607D8A0A9
:102DEA00770720EE70F000EE70F00A0EDBCFEBFFF3
:102DFA00E806FCE21200764B772B0D0E7619771156
:102E0A0015E1776B010E766F20EE70F000EE65F03B
:102E1A000A0EDBCFEBFFE806FCE224EC18F020EE0A
:102E2A0070F00A0EEBCFDBFFE806FCE220EE70F052
:102E3A0000EE70F00A0EDBCFEBFFE806FCE21200B0
:102E4A00174A182A0D0E1718181015E1186A010EDC
:102E5A00176E20EE11F000EE06F00A0EDBCFEBFF44
:102E6A00E806FCE208EC18F020EE11F00A0EEBCFAF
:102E7A00DBFFE806FCE220EE11F000EE11F00A0E8C
:102E8A00DBCFEBFFE806FCE21200C851B95D606FC8
:102E9A00C951BA59616FCA51BB59626FCB51BC59FA
:102EAA00636F63AF08D0800E6027510E6123010E55
:102EBA006223000E632363BF12006351621106E1AD
:102ECA00B00E605D040E6159D8A01200E085E0934F
:102EDA001200706F0DD06E517F0F08D06E51BF0F68
:102EEA0005D06E51930F02D06E51D30F716F0AD075
:102EFA0000017051010AEFE0030AF0E0010AF1E073
:102F0A00070AF2E07151EDEC12F000016F517BEF0C
:102F1A0012F0100ED56E500ED66ED80ED46EF00E7C
:102F2A00D36ED350D4CF62F00001636B62C063F0FA
:102F3A00626B62114B6E63514C6E0E01CA9BC28B5F
:102F4A00380E0001606F320E616F0BEC19F017EF4B
:102F5A0019F06251631117E0010E646F04D0D89022
:102F6A0062376337642B63AFFAD76251605D63518E
:102F7A00615904E36251605F6351615BD8906333C6
:102F8A006233642FF2D760C060F061C061F0120052
:102F9A000350041017E0010E056E04D0D8900336D2
:102FAA000436052A04AEFAD70350015C04500258CD
:102FBA0004E30350015E0450025AD89004320332EB
:102FCA00052EF2D701C001F002C002F01200CC5166
:102FDA00B91909E1CD51BA1906E1CE51BB1903E17C
:102FEA00CF51BC190EE0D051C45DD151C559D2514F
:102FFA00C659C751800A606FD351800A6059D8A058
:10300A001200E08112000F4A102A0FC001F010C00E
:10301A0002F011D8CDEC17F00150021002E10001C4
:10302A00F72B20EE06F000EE06F00A0EDBCFEBFFE0
:10303A00E806FCE21200046A640E036E640C6E4B2E
:10304A006F2B6EC060F06FC061F010D8AEEC17F055
:10305A006051611101E1F72B20EE65F000EE65F099
:10306A000A0EDBCFEBFFE806FCE21200636B640E8C
:10307A00626F640C60C063F061C064F03F0E811639
:10308A0063C07EFF64C07FFF62C080FF8184F29EBE
:10309A00550E826EAA0E826E818281B2FED7F28EA0
:1030AA008194818E12006EC060F06FC061F03BECBB
:1030BA0018F0AEEC17F06051611101E1F7076E07E5
:1030CA00D8A06F0720EE65F000EE65F00A0EDBCFA0
:1030DA00EBFFE806FCE212001F001C001F001E00A6
:1030EA001F001E001F001F001E001F001E001F00E1
:1030FA0000000300020005000000030005000100B3
:10310A00040006000200040060516203F3CF64F079
:10311A00F4CF65F060516303F35065276151620390
:10312A00F350652764C060F065C061F012000001C9
:10313A00DC51DD11D8B412000500FA6EDC51FD6EC7
:10314A00DD51FE6EFF6AFA5012008582E16BB9C04A
:10315A00C8F0BAC0C9F0BBC0CAF0BCC0CBF0E083AB
:10316A00E0911200220E0E01D86FDA6BDC6B020EB0
:10317A00DE6FDD6BDBB11200FDD719EC19F053ECF1
:10318A0016F0B7EC18F08EEC17F0CCEF18F0080E2A
:10319A009F6E900E9D6E840E9E6E670E9B6E9C6A4D
:1031AA0012003F0E811660C07EFF61C07FFF8180E2
:1031BA00818E805012002D2D2D2D2D2D002D2D2D7F
:0931CA002D2D2D00830F840F143C
:1031D4000E01CDABFDD79DA202D09D9E9D8E995030
:1031E4001200080E0001606F230EE82EFED7602F38
:1031F400FCD71200A5EC0AF074EC0EF067EC0CF0AE
:103204003DEF0DF0CA9B4CC0D4FF4BC0D3FF9CEFE5
:1032140018F060C0DCF061C0DDF0120000D000D016
:1032240000F012008592E0971200D58E1200F29AF7
:063234001200FFFF120072
:020000040020DA
:10000000FF0FFF0FFF0FFF0FFF0FFF0FFF0FFF0F80
:020000040030CA
:0C000000AAFFFFFF9FFFFFFFFFFFFFFFB5
:00000001FF
