:0400000035EF00F0E8
:100008005F82FACF42F0FBCF43F0E9CF44F0EACF6A
:1000180045F0E1CF46F0E2CF47F0D9CF48F0DACF4C
:1000280049F0F3CF4AF0F4CF4BF00E01C2BBCAAB94
:1000380002D056EC1BF04BC0F4FF4AC0F3FF49C096
:10004800DAFF48C0D9FF47C0E2FF46C0E1FF45C01C
:10005800EAFF44C0E9FF43C0FBFF42C0FAFF5F92DA
:0C0068001100818E38EF00F034EF15F02D
:100F000000244750524D432C000098FE0104010A72
:100F100014F6FF3C280408C0082A0501805101008E
:100F200005C5D55555550000000000000000000023
:100F30000000000000202AAAAAAA800000000000E9
:100F400000000000000000000002080A0C0E101251
:100F50001416181A1C1E20222426200C360E107F70
:100F6000FFFFFFFF0F7FFFFFFFFF0E7FFFFFFFFF72
:100F70000D7FFFFFFFFF0C7FFFFFFFFF0B7F0010C8
:100F800014100A7FFFFFFFFF097FFFFFFFFF087FAD
:100F9000FFFFFFFF077FFFFFFFFF067FFFFFFFFF52
:100FA000057FFFFFFFFF047FFFFFFFFF037FFFFFC2
:100FB000FFFF027FFFFFFFFF017FFFFFFFFF007FBB
:100FC000FFFFFFFF107FFFFFFFFF0F7FFFFFFFFF10
:100FD0000E7FFFFFFFFF0D7FFFFFFFFF0C7FFFFF77
:100FE000FFFF0B7FFFFFFFFF0A7F0A249012480AD2
:100FF000124809240A0924249003049008000214CA
:101000009000001524240000022410002002245027
:1010100000000100001420021248000006124800DF
:1010200000041248000007124800000612480000A1
:10103000041248000006124800000A124800000886
:101040001248000006124800000A1248000003126D
:10105000480000071248000003124800000512482B
:101060000000061248000007124800000312480062
:10107000000312480000091248000009124800004D
:101080000A12480000071248000005124800000A32
:10109000124800000612480000041248000007121F
:1010A00048000004124800000912480000071248D6
:1010B00000000912480000000000000000000000CD
:1010C0000000000000000000000000000000000020
:1010D0000000000000000000000000000000000010
:1010E0000000000000000000000000000000000000
:1010F00000000000000000000000000000000000F0
:10130000000000000000000000004EA007D0E9C06F
:10131000EAF0546A4E904E9244D9E86F3B6A3B50D3
:101320003C0FD96EDA6ADF6A3B2A010E3B64F7D7BD
:101330003F6AEA51060DF00E356E060E366E352AFE
:10134000000E3622F3503526F45036223F50352415
:10135000D96E000E3620DA6E3F503C0FE16EE26A25
:10136000DFCFE7FF3F2A010E3F64E3D7E8515A5C25
:101370000FE35C50525C17E2406A405027D940505E
:101380005AD9405067D9402A010E4064F6D70BD095
:10139000416A41501BD941504ED941505BD9412A35
:1013A000010E4164F6D736D9DE0407E033D9020EC8
:1013B000DE1806E1E851555C03E35950515C06D054
:1013C00029D9020EDE1805E15750505C02E28580F3
:1013D00001D08590532A522A5B505CC035F048D921
:1013E0005250E9D801E3526A512A585059C035F099
:1013F0003FD95150E0D801E3516A502A565057C0A6
:1014000035F036D95050D7D801E3506A640E5318DE
:1014100020E1536A20EEBDF000EE2AF00A0EDBCF89
:10142000EBFFE806FCE2CDEC18F020EEBDF00A0E72
:10143000EBCFDBFFE806FCE20001B3D8356E545079
:10144000355C4F24366E3604E86FE85101E14E807A
:10145000542A030E531847E1545045E1E251E31179
:1014600041E0E3BF20D0E35102E1E2051CE305D9EE
:101470003E0E126E96D8E2EC1AF0F3D899EC15F005
:10148000E2D8BBEC16F01C504F6E0001E351800A0D
:10149000356E4F50E25D800E4FBE7F0E35581BE219
:1014A000E2C04FF018D0E9D8BE0E126E7AD8E2EC46
:1014B0001AF0D7D899EC15F0C6D8BBEC16F01C5032
:1014C0004F6E800E4FBE7F0E356E0001E2514F5CB5
:1014D000E351800AE3D74F50E25F000E4FBEFF0E8C
:1014E000E35B01D04F6A020E531838E16AEC1BF03F
:1014F0003E6E3E5098D8EA51DE1830E154502EE14D
:10150000BDC001F0BEC002F0BFC003F0C0C004F017
:101510003E506ED8B7D835C005F036C006F0076A21
:10152000086A67EC17F001C0E2F002C0E3F03E5039
:101530005FD8A8D8D8903630386E3530376EE25143
:10154000375CE351385806E23E5052D8DE50E25F35
:10155000DD50E35BE26DE31FD8B0E32B5304D8B456
:101560004EB212006AEC1BF03A6E3A50040D030EB4
:10157000F324D96E010EF420DA6EEA51DE180EE182
:101580005DC05EF05EAE02D03A6A02D039D83A6EE3
:101590003A5049D8DF50E96F4E821200EA29E96FCC
:1015A0001200EA51060DF00EF324D96E060EF42057
:1015B000DA6EDF501200376E386A3550375C3850BB
:1015C000800A396E3650800A395812003C0FD96EA5
:1015D000DA6AEA51060DF00E356E060E366E030E0F
:1015E0003526000E3622F3503526F45036221200EE
:1015F000040D000EF324D96E010EF420DA6E1200F1
:101600005E500A0D080EF324D96E020EF420DA6E35
:10161000DF501200EA51060DF50EF324D96E060EC6
:10162000F420DA6E1200040D020EF324D96E010EBE
:10163000F420DA6E12003524E16E000E3620E26EE0
:10164000E750376E12000DC01CF00EC01DF00FC029
:101650001EF012003C0FE16EE26AE7503710DF6EB9
:10166000120009C00DF00AC00EF00BC00FF01200FE
:10167000366A3526000E3622000C9A0E106E990E30
:10168000116E990CDECF35F0DDCF36F012006C6BA9
:101690006D6BE3D821EC1BF000016A6F6C4B6D2B76
:1016A000DCD821EC1BF000016B6F6AC060F06BC0EE
:1016B00061F0636B3C0E626FCFEC1AF060C0E4F037
:1016C00061C0E5F06D6B020E6C6FC7D821EC1BF0AA
:1016D0000001DC6FDD6B6C4B6D2BBFD821EC1BF078
:1016E0000001DE6FDF6B6D6B040E6C6FB6D821EC02
:1016F0001BF00001D86FD96B6C4B6D2BAED821EC71
:101700001BF00001DA6FDB6B6D6B060E6C6FA5D8FA
:1017100021EC1BF00001FE6F6D6B070E6C6F9DD806
:1017200021EC1BF000016A6F6C4B6D2B96D821ECFD
:101730001BF000016B6F6D6B090E6C6F8ED821EC86
:101740001BF05C6E00016D6B0A0E6C6F86D821EC8D
:101750001BF05B6E00016D6B0B0E6C6F7ED821EC85
:101760001BF05A6E00016D6B0C0E6C6F76D821EC7D
:101770001BF0596E00016D6B0D0E6C6F6ED821EC75
:101780001BF0586E00016D6B0E0E6C6F66D821EC6D
:101790001BF0576E00016D6B0F0E6C6F5ED821EC65
:1017A0001BF0566E00016D6B100E6C6F56D821EC5D
:1017B0001BF0556E00016D6B110E6C6F4ED821EC55
:1017C0001BF00001EB6F6D6B120E6C6F666B676B3D
:1017D000686B696B42D821EC1BF00001666F6C4BA3
:1017E0006D2B3BD821EC1BF00001676F6C4B6D2B10
:1017F00034D821EC1BF00001686F66C0D4F067C0DC
:10180000D5F068C0D6F069C0D7F06D6B150E6C6F5F
:1018100024D821EC1BF000016A6F6C4B6D2B1DD896
:1018200021EC1BF000016B6F6BC060F0616B0E0E62
:10183000636F100E626FCFEC1AF06A513C0D60516D
:10184000F3266151F422F3CFD0F0F4CFD1F0000EA3
:10185000D1BFFF0ED26FD36F12006CC060F06DC0AD
:1018600061F01200AC6B20EEF3F010EEA5F0060E66
:10187000DBCFE3FFE806FCE220EEECF010EE9EF09A
:10188000060EDBCFE3FFE806FCE217EC1BF0AD6BC6
:10189000A50E606F9E0E616FCBEC14F0A50E606F0D
:1018A0009E0E616F90EC12F0000903E0010EAC6F28
:1018B00004D0AD2B040EAD65EBD7AC5101E1ADD03A
:1018C000A5510A0DA651AAD8B66FFD0EF420B76F28
:1018D000A7510A0DA851A2D8B86FFD0EF420B96F18
:1018E000A50E6E6F16EC11F09A6F400E9B6F9C6BFD
:1018F0009A2B03D09C359C339B339A2FFBD7000146
:101900009B47BA519B19010B9B19BA6FFE51640D8D
:10191000F3CF9AF0F4CF9BF0A9510A0DF3509A2718
:10192000F4509B23AA519A27000E9B23F00E9A2570
:10193000BB6FFD0E9B21BC6F9E0E6C6F9EEC11F079
:101940006CC0B2F06DC0B3F06EC0B4F06FC0B5F053
:10195000E4C09AF0E5C09BF0000E9BBFFF0E9C6FA9
:101960009D6F9A51B2279B51B3239C51B4239D5133
:10197000B523B5AF1AD0800EB227510EB323010E96
:10198000B423000EB52320EEB2F000EE7BF00A0E79
:10199000DBCFEBFFE806FCE218EC12F020EEB2F031
:1019A0000A0EEBCFDBFFE806FCE2B5BF23D0B55152
:1019B00007E1810EB25D510EB359010EB4591AE31D
:1019C000800EB227AE0EB323FE0EB423FF0EB52356
:1019D00020EEB2F000EE7BF00A0EDBCFEBFFE80664
:1019E000FCE2EBEC13F020EEB2F00A0EEBCFDBFFE3
:1019F000E806FCE220EEB2F000EE89F00A0EDBCF42
:101A0000EBFFE806FCE284EC10F020EEB2F00A0EE8
:101A1000EBCFDBFFE806FCE2010C000CF326000E26
:101A2000F422F00EF3241200796BE00E786F6C6BE9
:101A3000170E6B6F6E6B2B0E6D6F7A6B7B6BA3D873
:101A4000CFEC1AF0F00E6025D96E060E6121B3D8E6
:101A500021EC1BF0DF6E0001784B792B746B756BFA
:101A600092D8CFEC1AF0ADD8682B000E69236051E4
:101A700068276151692374516825D96E75516921B0
:101A80009AD821EC1BF0DF6E0001784B792B744B58
:101A9000752B75BFE5D7755103E1020E745DE0E368
:101AA000766B776B70D8CFEC1AF08BD8030E682763
:101AB000000E6923605168276151692376516825BA
:101AC000D96E7751692177D821EC1BF0DF6E0001C8
:101AD000784B792B764B772B77BFE4D7775103E19F
:101AE000020E765DDFE37AC060F07BC061F0636B6D
:101AF000080E626FF7EC17F06051736F73516B252E
:101B00006F6F000E6C21706F73516D25716F000E39
:101B10006E21726F47D801D059D8682FFDD76FC09A
:101B200060F070C061F021EC1BF00001691506E067
:101B30002AD8CFEC1AF02FD8010E19D033D801D003
:101B400045D8682FFDD771C060F072C061F021ECFC
:101B50001BF00001691506E016D8CFEC1AF01BD86F
:101B6000020E05D010D8CFEC1AF015D8000EDF6E9B
:101B70007A4B7B2B7BBF63D77B5104E1A00E7A5D50
:101B800001E25DD712007AC060F07BC061F0636B48
:101B9000060E626F060CF50E6025D96E060E6121E9
:101BA000DA6E12007AC068F0070E6817800E696F4F
:101BB0006A6B682B800CDA6E78C060F079C061F0D7
:101BC0001200F00E686F060E696F12006A356A33F4
:101BD00069331200776B500E766F746B756BADD8EE
:101BE00021EC1BF00001786F96D821EC1BF087D810
:101BF00078D821EC19F04BD821EC19F05ED8CFEC55
:101C00001AF074EC10F0020E8DD885D821EC1BF080
:101C10000001786F80D821EC1BF071D862D821ECDC
:101C200019F035D821EC19F048D8CFEC1AF078EC3F
:101C300010F078D8764B772B66D8CFEC1AF0080ED8
:101C40006025D96E020E6121DA6E77D821EC1BF087
:101C5000DF6E000160D821EC1BF000016C6F53D8DF
:101C6000CFEC1AF07DEC10F06C47DF5000016C19DE
:101C7000010B6C19DF6E764B772B744B752B75BF90
:101C8000AED7755103E1180E745DA9E3120060C070
:101C90006CF061C06DF062C06EF063C06FF078519F
:101CA000606F000E60BFFF0E616F626F636F3C0E6E
:101CB000646F656B666B676B3C0C60516C25706F75
:101CC00061516D21716F62516E21726F63516F218D
:101CD000736F74C060F075C061F0636B0A0E626F61
:101CE0000A0C606F000E60BFFF0E616F626F636F62
:101CF000100E646F0E0E656F666B676B0E0C000145
:101D0000796F7951120074C060F075C061F0636B37
:101D10000A0E626F0A0C764B772B76C060F077C0A4
:101D200061F012006121DA6E70C0DEFF71C0DEFF6B
:101D300072C0DEFF73C0DEFF120076C060F077C0B5
:101D400061F012000DEC1BF0F28EF28C0A0E606F47
:101D5000130E616F5DEC1BF0B06BB16BB0C060F047
:101D6000B1C061F0F00EB025D96E020EB121DA6E6D
:101D7000DF50626F85EC1AF0B04BB12BB1BFEED7DC
:101D8000040EB15DEBE347EC1BF017EC17F0F60E19
:101D90000001BD6FE00EBE6FBF6BC06B070EC76F5B
:101DA000E10EC66FC26B010EC16FC46BC36FC5512C
:101DB000010B8009C56FEB0501E1E6818590E6B175
:101DC0004FEC1BF0E6B391EC19F0E6B59AEC18F085
:101DD000E6B76EEC1BF032EC1AF0EEEC0FF05D6E35
:101DE000010E726FBDC073F0BEC074F0BFC075F05D
:101DF000C0C076F0060E776F010E786FFDEC15F01F
:101E0000090E726FEA5139D8FDEC15F00D0E726FA4
:101E1000E95133D8FDEC15F0010E726F66EC1BF042
:101E20002CD8020EFDEC15F0050E726F66EC1BF05F
:101E3000F8EC0AF0DECFAEF0DDCFAFF0AEC073F05D
:101E4000AFC074F0756B766B21D8FDEC15F0090E00
:101E5000726FE85112D8020EFDEC15F00D0E726F84
:101E6000E2C073F0E3C074F0000E74BFFF0E756F34
:101E7000766F0CD8FDEC15F0A2D7736F746B756B91
:101E8000766B030E776F010E786F010C030E776F80
:101E9000010E786F020C6E6B3F0E6D6F716B726B83
:101EA00098D8030E92D8D8907135D96E7235DA6E03
:101EB000D890D936DA366651D9266751DA226DC004
:101EC00060F06EC061F021EC1BF0DF6E00016D4B25
:101ED0006E2B714B722B72BFE3D7725103E1110E5F
:101EE000715DDEE3736B746B7351741106E171D82D
:101EF000020E6BD85DD8DF6A1ED06BD8020E65D893
:101F000057D868696969000E6A6F010E6B6F685176
:101F10006A2769516B23D8907335E16E7435E26E90
:101F2000D890E136E2366A51E1266B51E222E75061
:101F30006C6F6C29DF6E4DD83BD8DE6ADD6A49D8FC
:101F4000020E43D835D8DF506F6F706B17D041D871
:101F50002FD86FC060F070C061F0636B060E626FC7
:101F6000CFEC1AF0F00E6025E16E060E6121E26EF4
:101F7000E750DE26000EDD226F4B702B2AD8030EB1
:101F800024D816D8DF50686F696B6F51685D69514E
:101F9000800A6A6F7051800A6A59D9E2734B742BB8
:101FA00074BFA2D7745103E1110E735D9DE312005B
:101FB000D8907335D96E7435DA6ED890D936DA3652
:101FC0006651D9266751DA2212006627000E672370
:101FD000000C000E666F010E676F12006F6B706B66
:101FE0006BD8CFEC1AF080D8020E6121DA6E030EA6
:101FF000DBBE5AD0DB5008E1020EDB5005E1010EDA
:10200000DB5002E1DE0450E357D8CFEC1AF075D86C
:10201000DF307F0B0001666FC5317F0B6615676F80
:102020007F0E671741E048D8CFEC1AF061D86121E4
:10203000DA6E42D8CFEC1AF0000E6025E16E020E87
:102040006121E26EDE50E65CDE50E658DE50E65876
:10205000E650800A6E6FDE50800A6E591BE22CD863
:10206000CFEC1AF041D830D81FE226D8CFEC1AF0C6
:102070003FD86121DA6EDE50BD5DDE50BE59DE50C4
:10208000BF59C051800A6A6FDE50800A6A590CE25B
:102090006F51120011D8CFEC1AF026D815D8F8E3FA
:1020A0000BD8CFEC1AF0E4D76F4B702B705103E1D3
:1020B000180E6F5D95E3FF0C6FC060F070C061F0AB
:1020C000636B0A0E626F0A0C020E6121DA6EBD515B
:1020D000DE5CBE51DE58BF51DE58DE50800A6A6FAA
:1020E000C051800A6A591200000E6025D96E120094
:1020F000040E6025D96E020E1200090E6025D96EFD
:10210000020E6121DA6E1200DEC060F0DFC061F005
:1021100089D8CFEC1AF0DC516025946FDD51612134
:10212000956FDAC060F0DBC061F07CD8CFEC1AF0BC
:10213000D8516025966FD9516121976F8FC060F09B
:1021400090C061F06FD8CFEC1AF08D516025986F78
:102150008E516121996F9451965D955197590FE277
:102160005CD805E29851965D995197590BE3100E92
:1021700089270E0E8A23000E8B238C2303D04DD883
:1021800001E3F0D78CAF1AD0800E8927510E8A2335
:10219000010E8B23000E8C2320EE89F000EE7BF0E5
:1021A0000A0EDBCFEBFFE806FCE218EC12F020EEA3
:1021B00089F00A0EEBCFDBFFE806FCE28CBF23D0F0
:1021C0008C5107E1810E895D510E8A59010E8B59A0
:1021D0001AE3800E8927AE0E8A23FE0E8B23FF0E94
:1021E0008C2320EE89F000EE7BF00A0EDBCFEBFFB4
:1021F000E806FCE2EBEC13F020EE89F00A0EEBCFE0
:10220000DBFFE806FCE220EE89F000EE89F00A0E22
:10221000DBCFEBFFE806FCE212009451985D95518C
:1022200099591200636B640E626F640C6E5101EC7D
:1022300013F07FD8DF500A0DF3506F25F00F756F44
:102240006E51F5EC12F075D8020E68D86F25F00FBC
:10225000766FFE51640DF3CF6FF0F4CF70F06E51D6
:10226000D96EDA6A040E5AD86F27F45070236E5173
:10227000FBEC12F06F27000E7023F00E6F25776FC6
:10228000FD0E7021786F020E766501D002D0010E2E
:1022900001D0000E775F000E785B76516F6F706B28
:1022A000D8906F3770375A0E6F25D96E010E702196
:1022B000DA6EDECF71F0DDCF72F0636B040E33D8CF
:1022C000F7EC17F060C073F061C074F0010E636F3B
:1022D000900E29D8F7EC17F06051732761517423E1
:1022E00075517327000E7423636B640E1CD8F7ECD2
:1022F00017F06051735F6151745B715173277251B4
:10230000742377517325686F78517421696F6B6BF3
:10231000070E6A6F33EC18F068511200D926DF50AF
:102320000A0DF3501200626F77C060F078C061F060
:1023300012006F6F6E51D96EDA6A12006C51EBECBD
:1023400012F072D8FBEC12F00EEC0DF0706FFD0E77
:10235000F420716F726B71BF72077251736FF00E60
:10236000746FFD0E756F6C51D96EDA6A5DD801EC31
:1023700013F0F326000EF4227451F326755149D858
:10238000100E646F0E0E656F666B676B21EC19F0B3
:1023900060C076F061C077F062C078F063C079F019
:1023A000F00E7A6FFD0E7B6F6C51F0EC12F03CD8A2
:1023B000F5EC12F0F326000EF4227A51F3267B514D
:1023C00028D83C0E646F656B666B676B21EC19F067
:1023D000605176257C6F615177217D6F6251782144
:1023E0007E6F635179217F6F70517C25806F7151B1
:1023F0007D21816F72517E21826F73517F21836FA6
:1024000080C06CF081C06DF082C06EF083C06FF050
:102410001200F422F3CF60F0F4CF61F0000E61BF40
:10242000FF0E626F636F1200DF500A0D6C511200D5
:1024300083317F0B400A04E18351010B02090AD06A
:1024400083317F0B866FD890863786378351861904
:10245000010B8619836F7F05801144E120EE7BF02C
:1024600000EE70F00A0EDBCFEBFFE806FCE2FBECBF
:1024700018F020EE7BF00A0EEBCFDBFFE806FCE263
:10248000D8908135D96E82353AD8876F020E81197E
:10249000821107E184C086F0030E861702E11D0E4B
:1024A000876F020E811982110AE135D881EC1AF08A
:1024B000F4EC19F06051611102E11C0E876F020EFD
:1024C0008119821109E127D821D8F4EC19F0605163
:1024D000611102E11D0E876F87517F6F806B7FBF97
:1024E000800703D07F07D8A0800720EE7BF000EEA6
:1024F0007BF00A0EDBCFEBFFE806FCE21200DA6E9F
:10250000420ED926010EDA22DF501200010E636F4F
:10251000900E626F900C84C060F085C061F0120074
:1025200060516FD8626F6051D96EDA6A4AD8D8A00C
:10253000000C6351800A600F01E3000C605155D814
:10254000626F60514DD83DD8D8A0000C6351800A0D
:10255000730F01E3000C60514ED8626F60513BD89D
:1025600030D8D8A0000C6351800A1C0F01E3000C86
:10257000615147D8626F6151D96EDA6A22D8D8A00A
:10258000000C6351800A680F01E3000C61512DD8E3
:10259000626F615125D815D8D8A0000C6351800A0C
:1025A000440F01E3000C615126D8626F615113D8CA
:1025B00008D8D8A0000C6351800A440F01E3000C36
:1025C000010CDF500A0DF3506225F00F636F635169
:1025D000800A7F0F1200D96EDA6A040ED926040C25
:1025E000D96EDA6A020ED926020CD96EDA6A030EA7
:1025F000D926DF501200D96EDA6A050ED926DF50CF
:102600001200D96EDA6AD92ADF501200204A212A34
:1026100024307F0BE80604E12450010B80090AD026
:1026200024307F0B276ED890273227362450271866
:10263000010B2718246ED8902234D96E23347FECF6
:1026400012F0296E020E2218231007E125C027F090
:10265000030E271602E11D0E296E020E221823100A
:102660000AE142D866EC1AF013EC1AF0015002109D
:1026700002E11C0E296E020E221823100CE134D840
:10268000010E046E900E036E13EC1AF0015002104E
:1026900002E11D0E296E29C027F0286A27BE2806F0
:1026A0002050275C2150285815E2216A010E206E27
:1026B00020EE1CF000EE11F00A0EDBCFEBFFE80677
:1026C000FCE26CEC19F020EE1CF00A0EEBCFDBFF05
:1026D000E806FCE220EE1CF000EE1CF00A0EDBCF58
:1026E000EBFFE806FCE2120025C001F026C002F074
:1026F0001200626F839283800001606B62AF01D031
:10270000602B37D8060E616FD8906033612FFCD7ED
:102710004DD847D8050E616FD8906033612FFCD734
:10272000010E33D8603B0F0E6017010E46D8030E22
:10273000E82EFED700F0838262EC1BF0839262C029
:1027400060F00001D890603341D813D83FD82ED81C
:1027500028D8D8906033010E18D8010E2ED8030E59
:10276000E82EFED700F0838262EC1BF0839262EFCA
:102770001BF0010E6017603B604783506019DF0B50
:102780006019836E62C060F0120060176047604796
:10279000604783506019F70B6019836E62C060F068
:1027A00012006019836E62C060F01200010E6017A3
:1027B000603B83506019EF0B120060176047604761
:1027C00083506019FB0B6019836E1200D890603340
:1027D000D890603312007F4B802B83317F0BE8064B
:1027E00004E18351010B80090AD083317F0B866F8E
:1027F000D8908633863783518619010B8619836FEB
:10280000D8908135D96E82357FEC12F0886F020E38
:102810008119821107E184C086F0030E861702E158
:102820001D0E886F020E811982110AE140D881ECD9
:102830001AF0F4EC19F06051611102E11C0E886F7E
:10284000020E811982110AE132D886EC12F0F4EC02
:1028500019F06051611102E11D0E886F88C086F089
:10286000876B86BF87077F51865D8051875915E248
:10287000806B010E7F6F20EE7BF000EE70F00A0E91
:10288000DBCFEBFFE806FCE247EC19F020EE7BF033
:102890000A0EEBCFDBFFE806FCE220EE7BF000EE59
:1028A0007BF00A0EDBCFEBFFE806FCE2120084C0EF
:1028B00060F085C061F012000001626F8392839026
:1028C000606B62AF01D0602B35D8060E616FD89077
:1028D0006033612FFCD746D8050E616FD890603306
:1028E000612FFCD7010E32D8603B0F0E6017010E2E
:1028F00044D8030EE82EFED700F0838262EC1BF072
:10290000839262C060F00001D89060333FD812D843
:102910003DD828D8D8906033010E18D8010E2DD894
:10292000030EE82EFED700F0838262EC1BF0839248
:1029300062EF1BF0010E6017603B60478350601927
:10294000DF0B6019836E62C060F012006017604791
:102950006047604783506019F70B6019836E62C04F
:1029600060F01200010E6017603B83506019EF0B9E
:102970006019836E62C060F01200601760476047A4
:1029800083506019FB0B6019836E1200D89060337E
:10299000D89060331200010EF66E0F0EF76E000E27
:1029A000F86E20EE66F0070E0900F5CFDEFFE806B0
:1029B000FBE2726B6E6B6F6B706B0E01CDAB47D031
:1029C00000016E6B6F6B35EC1BF00001716F060E32
:1029D00072650DD00D0E72610AD061517225D96EEB
:1029E000DA6AF90ED92671C0DFFF722B34D072512A
:1029F000660FD96EDA6A7151DE1804E1070E726152
:102A000001D0F3D70C0E726520D0080E706105D08E
:102A10002C0E711920E1702B1ED0F30E626F6369CA
:102A20007251646F656B625164276351652365BFA2
:102A300006D0655118E1060E645DD8B012006051F1
:102A40007225D96EDA6AF30ECDD7726B04D0060EFA
:102A5000E82EFED700D000016E4B6F2B880E6E5D06
:102A6000130E6F59AAE312000A0EF66E0F0EF76EE0
:102A7000000EF86E02EEF0F014EE00F00900F5CF53
:102A8000EEFFE550E150FAE1E250F8E16E0EF66E2D
:102A9000350EF76E000EF86E01EE44F010EE30F0D9
:102AA0000900F5CFEEFFE550E150FAE1560EF66E63
:102AB000360EF76E000EF86E00EEECF010EE13F02E
:102AC0000900F5CFEEFFE550E150FAE1EA0EF66EAF
:102AD000360EF76E000EF86E0900F5CF5DF00900B6
:102AE000F5CF5EF006EEF0F013EEC0F0EE6AE550C2
:102AF000E150FCE1E250FAE102EE00F0F00EEE6A85
:102B0000E806FDE101EE00F0440EEE6AE806FDE1A4
:102B100000EEB2F03A0EEE6AE806FDE100EE4CF08F
:102B2000110EEE6AE806FDE15F905F920001A2EFF0
:102B30000EF00FC013F0146A156A0E34133601E359
:102B400014801350166E165001E153D012C013F0CA
:102B5000146A156A1134133601E3148013501B6E86
:102B60001B5001E146D01B507B0F16260FC01BF0F7
:102B700012501B1A800E1B160E8E118E000E12168E
:102B8000176A186A196A070E1A6E0DB02BD8D890FA
:102B90000F320E320D32D8901036113612361A2EF0
:102BA000F4D7090E1A6E0DB01DD8D8900F320E3220
:102BB0000D32D8901932183217321A2EF4D717C0A6
:102BC00001F018C002F019C003F016C004F01BC0D9
:102BD00005F0B4EC17F001C00DF002C00EF003C018
:102BE0000FF01200105017261150182212501922FF
:102BF00012000D6A0E6A0F6A12007A6F0001796B7B
:102C0000785149E0792B76AF1FD072C06EF02D0E4F
:102C10006F6F7A51B4EC19F073C060F074C061F05A
:102C200075C062F076C063F0000164696569666929
:102C3000676921EC19F060C073F061C074F062C084
:102C400075F063C076F027D072C06EF02B0E6F6FF8
:102C50007A51B4EC19F01FD0770777517925722596
:102C60006E6F1DD825D85DEC16F06051F60DF3504F
:102C70007325300F6F6F7A51B4EC19F010D8000142
:102C800017D85DEC16F060C073F061C074F062C0DC
:102C900075F063C076F000017751DEE1120073C079
:102CA00060F074C061F075C062F076C063F00A0C29
:102CB000646F656B666B676B1200696B67AF0AD0F8
:102CC000671F661F651F646D000E652366236723FB
:102CD000010E696F63AF0AD0631F621F611F606DD1
:102CE000000E612362236323010E691B6A6B6B6B09
:102CF0006C6B6D6B645165116611671129E0010EF3
:102D0000686F06D0D8906437653766376737682BA9
:102D100067AFF8D7D8906A376B376C376D37645127
:102D2000605D65516159665162596751635909E3A4
:102D30006451605F6551615B6651625B6751635BC3
:102D40006A81D8906733663365336433682FE2D77E
:102D5000695108E06D1F6C1F6B1F6A6D000E6B23BD
:102D60006C236D236AC060F06BC061F06CC062F0D0
:102D70006DC063F012001EC020F0216A226A1D346B
:102D8000203601E3218020502A6E2A5005E11C6A7A
:102D90001D6A1E6A1F6A1200170E206E1CC021F0E9
:102DA0001DC022F01EC023F02028246E04D0D8902D
:102DB000233222322132242EFAD72150256E1D8E45
:102DC0001E6A1C50266E1D50276E1E50286E296AE2
:102DD0008E0E2A5E2AAE0CD02A50800A8F0FD7E3BF
:102DE000D89029322832273226322A3EF9D70CD001
:102DF000170E2A6407D0CBD7D89026362736283628
:102E000029362A062A50F8E1255008E0291E281EF6
:102E1000271E266C000E27222822292226C01CF0FD
:102E200027C01DF028C01EF029C01FF01200889A8C
:102E300088988896889488928890839A83988396B5
:102E40008394839283903EEC1BF03EEC1BF03EECAF
:102E50001BF03EEC1BF03EEC1BF03EEC1BF0010EB9
:102E60000001636F2FD8839283902CD88382839044
:102E700062EC1BF027D8839283903EEC1BF000019C
:102E8000632B030E6365EED718D88392839015D811
:102E90008382839062EC1BF010D8839283903EEC87
:102EA0001BF0280E5CEC14F0100E5CEC14F0010E1C
:102EB0005CEC14F00F0E5CEF14F0839A8398838619
:102EC00083941200839A83988386838412000A6A0B
:102ED00004AE03D040D8010E0A6E08AE08D0081E1A
:102EE000071E061E056C000E06220722082205504A
:102EF00006100710081023E0010E096E06D0D890C6
:102F00000536063607360836092A08AEF8D70550C2
:102F1000015C06500258075003580850045808E353
:102F20000550015E0650025A0750035A0850045AD1
:102F3000D8900832073206320532092EE8D70A50F7
:102F400001E009D801C001F002C002F003C003F0A3
:102F500004C004F01200041E031E021E016C000EC9
:102F6000022203220422000C045004E0015002104B
:102F7000031006E1016A026A036A1200042A2DD8CE
:102F8000066A076AFE0E03142DD807E0F7D7042A55
:102F9000012A000E0222032220D8066A076A035083
:102FA00021D806E0F4D70406D8900136023603365D
:102FB00002BE03D0020E0460F6D704A0029ED89091
:102FC000043204500312055001E0038E01C001F0E9
:102FD00002C002F003C003F01200D89003320232A4
:102FE00001321200086E0650071008101200656BBF
:102FF00063AF06D0626D631FD8B0632B010E656F9F
:1030000061AF06D0606D611FD8B0612B010E651BEA
:10301000666B676B625163111BE0010E646F04D035
:10302000D89062376337642B63AFFAD7D89066378E
:1030300067376251605D6351615905E36251605FBA
:103040006351615B6681D89063336233642FEED73E
:10305000655104E0666D671FD8B0672B66C060F0ED
:1030600067C061F012006D6B69AF06D0686D691FB3
:10307000D8B0692B010E6D6F6BAF04D06A6D6B1FFA
:10308000D8B06B2B6A516B1117E0010E6C6F04D036
:10309000D8906A376B376C2B6BAFFAD76A51685D83
:1030A0006B51695904E36A51685F6B51695BD89051
:1030B0006B336A336C2FF2D76D5104E0686D691F72
:1030C000D8B0692B68C068F069C069F01200836AE3
:1030D000846A856AC00E886E896A840E8A6E440E80
:1030E0000F01216F196BC00E116F2D6B186B106BD8
:1030F000206B0F6B176B1F6B000EF2BE010E0001F1
:10310000606FF29E550E0E01A06FAA0EA06FA091E7
:10311000B551E00B1709B56F090EFD6F550EA06F85
:10312000AA0EA06FA081000160A102D0F28EAA0CAD
:10313000F29E120032EC0CF0000913E020EEB2F027
:1031400010EEBDF00A0EDBCFE3FFE806FCE2BDC0E7
:10315000C8F0BEC0C9F0BFC0CAF0C0C0CBF0E6879F
:1031600011D0E72B040EE76501D0F9D70DD8CFAF0A
:1031700008D0800ECC27510ECD23010ECE23000E99
:10318000CF23E683E6951200BDC0CCF0BEC0CDF0E3
:10319000BFC0CEF0C0C0CFF012002A2A000E2B22F2
:1031A0002C222D22800E2A181CE1510E2B1819E119
:1031B0002C042D1016E12A6A2B6A2C6A2D6A20EE47
:1031C0002AF000EE1CF00A0EDBCFEBFFE806FCE273
:1031D00006EC13F020EE2AF00A0EEBCFDBFFE80638
:1031E000FCE220EE2AF000EE2AF00A0EDBCFEBFF25
:1031F000E806FCE212007605771116E1776B0C0EFB
:10320000766F20EE70F000EE65F00A0EDBCFEBFF7C
:10321000E806FCE29EEC1AF020EE70F00A0EEBCF0E
:10322000DBFFE806FCE203D07607D8A0770720EEA4
:1032300070F000EE70F00A0EDBCFEBFFE806FCE268
:103240001200686B696B6A6B6B6B60A108D064518C
:1032500068276551692366516A2367516B23D890AB
:103260006437653766376737D890633362336133C5
:1032700060336051611162116311E7E168C060F071
:1032800069C061F06AC062F06BC063F01200764BF7
:10329000772B0D0E7619771115E1776B010E766F8E
:1032A00020EE70F000EE65F00A0EDBCFEBFFE806D3
:1032B000FCE26AEC1AF020EE70F00A0EEBCFDBFFB6
:1032C000E806FCE220EE70F000EE70F00A0EDBCFB4
:1032D000EBFFE806FCE21200174A182A0D0E171839
:1032E000181015E1186A010E176E20EE11F000EEAD
:1032F00006F00A0EDBCFEBFFE806FCE24EEC1AF01C
:1033000020EE11F00A0EEBCFDBFFE806FCE220EE28
:1033100011F000EE11F00A0EDBCFEBFFE806FCE245
:103320001200CC51BD5D606FCD51BE59616FCE5161
:10333000BF59626FCF51C059636F63AF08D0800E21
:103340006027510E6123010E6223000E632363BFC9
:10335000120063516211611104E13C0E605DD8A05E
:103360001200E685E6931200706F0DD06E517F0F4C
:1033700008D06E51BF0F05D06E51930F02D06E5121
:10338000D30F716F0AD000017051010AEFE0030AF8
:10339000F0E0010AF1E0070AF2E071515CEC14F090
:1033A00000016F5179EF13F0100ED56E500ED66EEE
:1033B000D80ED46EF00ED36ED350D4CF62F000018D
:1033C000636B62C063F0626B62114C6E63514D6E51
:1033D0000E01CA9BC28BEC0E0001606F360E616F4E
:1033E0005DEC1BF071EF1BF06251631117E0010EF1
:1033F000646F04D0D89062376337642B63AFFAD719
:103400006251605D6351615904E36251605F6351D1
:10341000615BD89063336233642FF2D760C060F091
:1034200061C061F012000350041017E0010E056E38
:1034300004D0D89003360436052A04AEFAD70350D8
:10344000015C0450025804E30350015E0450025A28
:10345000D89004320332052EF2D701C001F002C029
:1034600002F01200D051BD1909E1D151BE1906E197
:10347000D251BF1903E1D351C0190EE0D451C85D38
:10348000D551C959D651CA59CB51800A606FD7510D
:10349000800A6059D8A01200E68112000F4A102A53
:1034A0000FC001F010C002F011D813EC1AF0015057
:1034B000021002E10001FE2B20EE06F000EE06F005
:1034C0000A0EDBCFEBFFE806FCE21200046A640E92
:1034D000036E640C6E4B6F2B6EC060F06FC061F0BA
:1034E00010D8F4EC19F06051611101E1FE2B20EECF
:1034F00065F000EE65F00A0EDBCFEBFFE806FCE2BC
:103500001200636B640E626F640C60C063F061C094
:1035100064F03F0E811663C07EFF64C07FFF62C00F
:1035200080FF8184F29E550E826EAA0E826E818289
:1035300081B2FED7F28E8194818E12006EC060F04F
:103540006FC061F081EC1AF0F4EC19F06051611178
:1035500001E1FE076E07D8A06F0720EE65F000EED0
:1035600065F00A0EDBCFEBFFE806FCE212001F005D
:103570001C001F001E001F001E001F001F001E0059
:103580001F001E001F0000000300020005000000D5
:103590000300050001000400060002000400605161
:1035A0006203F3CF64F0F4CF65F060516303F3502E
:1035B000652761516203F350652764C060F065C000
:1035C00061F012000C6E0C50016E026A036A8E0EDE
:1035D000046E000E056EB4EC17F001C009F002C0D5
:1035E0000AF003C00BF012000001E051E111D8B461
:1035F00012000500FA6EE051FD6EE151FE6EFF6AA9
:10360000FA501200220E0E01D86FDA6BDC6B020E3C
:10361000DE6FDD6BDBB11200FDD773EC1BF067ECE6
:1036200018F002EC1BF0D4EC19F017EF1BF0080EA9
:103630009F6E900E9D6E840E9E6E670E9B6E9C6AB2
:1036400012003F0E811660C07EFF61C07FFF818047
:10365000818E805012002D2D2D2D2D2D002D2D2DE4
:093660002D2D2D00830F840F14A1
:10366A000E01CDABFDD79DA202D09D9E9D8E995095
:10367A001200080E0001606F230EE82EFED7602F9D
:10368A00FCD7120047EC0BF0EAEC0DF014EC0DF04D
:10369A004BEF0FF08582E76BC4EC18F0E683E691F6
:1036AA001200CA9B4DC0D4FF4CC0D3FFF4EF1AF0EE
:1036BA0060C0E0F061C0E1F0120000D000D000F07C
:1036CA0012005EBE000C00EF0BF05EBE000C00EFB5
:1036DA000BF08592E6971200D58E1200F29A12002C
:0436EA00FFFF1200CC
:020000040020DA
:10000000FF0FFF0FFF0FFF0FFF0FFF0FFF0FFF0F80
:020000040030CA
:0C000000AAFFFFFF9FFFFFFFFFFFFFFFB5
:00000001FF
