:0400000046EF00F0D7
:100008004B82FACF07F0FBCF08F0E9CF09F0EACF2F
:100018000AF0E1CF0BF0E2CF0CF0D9CF0DF0DACF38
:100028000EF0F3CF0FF0F4CF10F0F6CF11F0F7CFBA
:1000380012F0F8CF13F0F5CF14F00E01C2AB04D0D4
:100048000E01CABB53EC12F014C0F5FF13C0F8FF41
:1000580012C0F7FF11C0F6FF10C0F4FF0FC0F3FF86
:100068000EC0DAFF0DC0D9FF0CC0E2FF0BC0E1FFE4
:100078000AC0EAFF09C0E9FF08C0FBFF07C0FAFF92
:0E0088004B921100818E49EF00F01DEF11F038
:100F000000244750524D432C244750524D432C3A15
:090F100028003A29002D2D0000F3
:100F1A00000E236E000E226E22C015F023C016F0BA
:100F2A00C6EC12F0206E224A232A22C015F023C0F2
:100F3A0016F0C6EC12F0216E20C0AEF021C0AFF060
:100F4A00000E236E020E226E22C015F023C016F088
:100F5A00C6EC12F01B6E3C501B18E00B1B183C6EC3
:100F6A00224A232A22C015F023C016F0C6EC12F03A
:100F7A001B6E3D501B18F00B1B183D6E000E236EA6
:100F8A00040E226E22C015F023C016F0C6EC12F031
:100F9A001B6E3A501B18E00B1B183A6E224A232A82
:100FAA0022C015F023C016F0C6EC12F01B6E3B509F
:100FBA001B18F00B1B183B6E000E236E060E226EDA
:100FCA0022C015F023C016F0C6EC12F0496E000ECE
:100FDA00236E070E226E22C015F023C016F0C6EC4F
:100FEA0012F0206E224A232A22C015F023C016F0DE
:100FFA00C6EC12F0216E20C0ACF021C0ADF0000E9C
:10100A00236E090E226E22C015F023C016F0C6EC1C
:10101A0012F0486E000E236E0A0E226E22C015F0E0
:10102A0023C016F0C6EC12F0476E000E236E0B0EAC
:10103A00226E22C015F023C016F0C6EC12F0466EDE
:10104A00000E236E0C0E226E22C015F023C016F07D
:10105A00C6EC12F0456E000E236E0D0E226E22C0F3
:10106A0015F023C016F0C6EC12F0446E000E236E83
:10107A000E0E226E22C015F023C016F0C6EC12F036
:10108A00436E000E236E0F0E226E22C015F023C08F
:10109A0016F0C6EC12F0426E000E236E100E226E8F
:1010AA0022C015F023C016F0C6EC12F0416E000EF5
:1010BA00236E110E226E22C015F023C016F0C6EC64
:1010CA0012F0406E000E236E120E226E000E1C6E7F
:1010DA00000E1D6E000E1E6E000E1F6E22C015F051
:1010EA0023C016F0C6EC12F01C6E224A232A22C034
:1010FA0015F023C016F0C6EC12F01D6E224A232A00
:10110A0022C015F023C016F0C6EC12F01E6E1CC0E9
:10111A00A8F01DC0A9F01EC0AAF01FC0ABF0000EB7
:10112A00236E150E226E22C015F023C016F0C6ECEF
:10113A0012F0206E224A232A22C015F023C016F08C
:10114A00C6EC12F0216E21C015F0166A0E0E186E4A
:10115A00100E176E8EEC12F020503C0DF35015262F
:10116A00F450162215C0A4F016C0A5F00001000E16
:10117A00A5BFFF0EA66FA76F1200000E2F6EE00E1E
:10118A002E6E000E226E170E216E000E246E2B0E8E
:10119A00236E000E316E000E306E31BE08D0315013
:1011AA0005E1A00E305CD8B0120001D0120030C0A8
:1011BA0015F031C016F0000E186E060E176E8EEC82
:1011CA0012F0F00E1524D96E010E1620DA6E2EC01A
:1011DA0015F02FC016F0C6EC12F0DF6E2E4A2F2A39
:1011EA00000E2B6E000E2A6E2BBE06D02B502EE15F
:1011FA00020E2A5CD8B02AD030C015F031C016F0E1
:10120A00000E186E060E176E8EEC12F0010E2A24CE
:10121A001D6E000E2B201E6EF00E1F6E010E206E2C
:10122A001D501F261E50202215501F24D96E1650FD
:10123A002020DA6E2EC015F02FC016F0C6EC12F080
:10124A00DF6E2E4A2F2A2A4A2B2ACED7000E2D6E5F
:10125A00000E2C6E2DBE06D02D502EE1020E2C5CF7
:10126A00D8B02AD030C015F031C016F0000E186E72
:10127A00060E176E8EEC12F0030E2C241D6E000E55
:10128A002D201E6EF00E1F6E010E206E1D501F26A1
:10129A001E50202215501F24D96E16502020DA6EB7
:1012AA002EC015F02FC016F0C6EC12F0DF6E2E4AD3
:1012BA002F2A2C4A2D2ACED730C015F031C016F06D
:1012CA00000E186E080E176EDBEC10F01550296E22
:1012DA0029502124256E000E2220266E295023240F
:1012EA00276E000E2420286E30C01DF0070E1D1632
:1012FA00800E1E6E000E1F6E1D2A03D01F341F3271
:10130A001E321D2EFBD725C015F026C016F0C6ECDE
:10131A0012F01E140009D8B416D030C015F031C02E
:10132A0016F0000E186E060E176E8EEC12F0050EF1
:10133A001526000E1622F00E1524D96E010E16205F
:10134A00DA6E010E44D030C01DF0070E1D16800E55
:10135A001E6E000E1F6E1D2A03D01F341F321E324E
:10136A001D2EFBD727C015F028C016F0C6EC12F0C8
:10137A001E140009D8B416D030C015F031C016F0CA
:10138A00000E186E060E176E8EEC12F0050E15265C
:10139A00000E1622F00E1524D96E010E1620DA6EF2
:1013AA00020E15D030C015F031C016F0000E186EBE
:1013BA00060E176E8EEC12F0050E1526000E16227A
:1013CA00F00E1524D96E010E1620DA6E000EDF6EAD
:1013DA00304A312A31BEEBD6315001E1E2D6120051
:1013EA00000E226E500E216E000E206E000E1F6E31
:1013FA0020BE08D0205005E1180E1F5CD8B012009C
:10140A0001D0120021C015F022C016F0C6EC12F06D
:10141A00236E214A222A21C015F022C016F0C6ECFA
:10142A0012F0246E24C015F0166A0E0E186E100EF5
:10143A00176E8EEC12F023503C0DF35015241B6EE0
:10144A00F45016201C6E1D6A1CBE1D061D501E6E11
:10145A001FC015F020C016F0000E186E0A0E176E87
:10146A008EEC12F0000E1524D96E010E1620DA6EDB
:10147A001BC0DEFF1CC0DEFF1DC0DEFF1EC0DEFF7C
:10148A00214A222A21C015F022C016F0C6EC12F019
:10149A00236E214A222A21C015F022C016F0C6EC7A
:1014AA0012F0246E24C015F0166A0E0E186E100E75
:1014BA00176E8EEC12F023503C0DF35015241B6E60
:1014CA00F45016201C6E1D6A1CBE1D061D501E6E91
:1014DA001FC015F020C016F0000E186E0A0E176E07
:1014EA008EEC12F0040E1526000E1622000E15249C
:1014FA00D96E010E1620DA6E1BC0DEFF1CC0DEFF9D
:10150A001DC0DEFF1EC0DEFF214A222A1FC015F0C1
:10151A0020C016F0000E186E0A0E176E8EEC12F02E
:10152A00080E1526000E1622000E1524D96E010E7D
:10153A001620DA6E21C015F022C016F0C6EC12F0A1
:10154A00DF6E214A222A21C015F022C016F0C6EC0D
:10155A0012F01B6E1FC015F020C016F0000E186E98
:10156A000A0E176E8EEC12F0090E1526000E1622C0
:10157A00000E1524D96E010E1620DA6E1B460101E3
:10158A00DF501B18010B1B180101DF6E214A222AAA
:10159A001F4A202A20BE36D7205001E12DD712003B
:1015AA0020EE01F01550D9261650DA22DF50196EB6
:1015BA0015C0D9FF16C0DAFFDF50D00F0A0DF3505D
:1015CA001924D00F1A6E1A50800A7F0FD8A005D09E
:1015DA001A50800A600FD8A002D0000E120020EE26
:1015EA0003F01550D9261650DA22DF50196E20EE74
:1015FA0002F01550D9261650DA22DF50D00F0A0D04
:10160A00F3501924D00F1A6E1A50800A7F0FD8A0EF
:10161A0005D01A50800A730FD8A002D0000E12000B
:10162A0020EE05F01550D9261650DA22DF50196E31
:10163A0020EE04F01550D9261650DA22DF50D00FCA
:10164A000A0DF3501924D00F1A6E1A50800A7F0F10
:10165A00D8A005D01A50800A1C0FD8A002D0000EBC
:10166A00120020EE01F01750D9261850DA22DF5066
:10167A00196E17C0D9FF18C0DAFFDF50D00F0A0D54
:10168A00F3501924D00F1A6E1A50800A7F0FD8A06F
:10169A0005D01A50800A680FD8A002D0000E120096
:1016AA0020EE03F01750D9261850DA22DF50196EAF
:1016BA0020EE02F01750D9261850DA22DF50D00F48
:1016CA000A0DF3501924D00F1A6E1A50800A7F0F90
:1016DA00D8A005D01A50800A440FD8A002D0000E14
:1016EA00120020EE05F01750D9261850DA22DF50E2
:1016FA00196E20EE04F01750D9261850DA22DF505E
:10170A00D00F0A0DF3501924D00F1A6E1A50800AFE
:10171A007F0FD8A005D01A50800A440FD8A002D053
:10172A00000E1200010E120020EE01F02350D926FD
:10173A002450DA22DF50256E23C0D9FF24C0DAFFF5
:10174A00DF50D00F0A0DF3502524D00F2D6E20EE56
:10175A0003F02350D9262450DA22DF50256E20EEDA
:10176A0002F02350D9262450DA22DF50D00F0A0D76
:10177A00F3502524D00F2E6E20EE04F02350D926E4
:10178A002450DA22DF50256ED00E2524156E166AF3
:10179A00FF0E1622000E186E0A0E176E8EEC12F04D
:1017AA0020EE05F02350D9262450DA22DF50266E87
:1017BA00276A15502626165027224A50640DF350E0
:1017CA002626F4502722D00E26242F6EFF0E27201D
:1017DA00306E020E2E6401D002D0010E01D0000E2E
:1017EA002F5E000E305AFE0E256EFF0E266E2E500C
:1017FA00276E286AD890273628362550272626505D
:10180A002822B20E2724D96E000E2820DA6EDECFE7
:10181A0029F0DDCF2AF0000E186E040E176E2FC0C5
:10182A0015F030C016F0DBEC10F015C02BF016C026
:10183A002CF0010E186E900E176E2FC015F030C0E6
:10184A0016F0DBEC10F015502B2616502C222D50DA
:10185A002B26000E2C22000E186E640E176E2FC057
:10186A0015F030C016F0DBEC10F0151E161E154AE6
:10187A00162A15502B2616502C2229502B262A5070
:10188A002C222F502B241D6E30502C201E6E000E41
:10189A00206E070E1F6E5AEC11F01D501200B0ECAC
:1018AA0012F0F28EF28C6C0E156E240E166EE9ECA6
:1018BA0012F082EC0FF0858220EED1F010EEE4F007
:1018CA00060EDBCFE3FFE806FCE220EECAF010EEDC
:1018DA00DDF0060EDBCFE3FFE806FCE2E2EC12F0F5
:1018EA003A0E0001E46F3A0E0001DD6FBBEC12F014
:1018FA00E40E156E000E166EDD0E176E000E186ED3
:10190A00F4EC0CF0010E186EDD0E196E000E1A6E54
:10191A00020E91EC10F0070E186E160E196E0F0ECD
:10192A001A6E020E91EC10F0080E186EE40E196E83
:10193A00000E1A6E020E91EC10F00E0E186E150EB5
:10194A00196E0F0E1A6E020E91EC10F00E0E316E19
:10195A003EC032F0030E336E010E9AEC0EF0E40E26
:10196A00156E000E166EDD0E176E000E186ED5EC93
:10197A000AF00009D8B418D0010E186E120E196EAA
:10198A000F0E1A6E010E91EC10F0100E316EE40E6D
:10199A00236E000E246E99EC0BF0326E010E336E3C
:1019AA00020E9AEC0EF009D0010E186E0F0E196E87
:1019BA000F0E1A6E010E91EC10F0040E276E01C282
:1019CA00DCF00001DC51286E296A2A6A2B6A050EAE
:1019DA002C6E010E2D6E010EE3EC0FF081D7010E75
:1019EA00F66E0F0EF76E000EF86E20EE1DF0060E64
:1019FA000900F5CFDEFFE806FBE2000E286E000EB6
:101A0A00276E000E266E000E256E000E246E0E0145
:101A1A00CDAB65D0000E266E000E256ED0EC12F00E
:101A2A00276E060E286414D00D0E286011D0F90E08
:101A3A00196EFF0E1A6E28501B6E1C6A19501B264F
:101A4A001A501C221B501724D96E1C5018203FD044
:101A5A002850010D1D0EF324D96E000EF420DA6E03
:101A6A002750DE18D8A404D0070E286001D032D03F
:101A7A000C0E286431D0080E246006D02C0E2718CC
:101A8A00D8A431D0242A2FD0F30E196EFF0E1A6E65
:101A9A0028501B6E1C6A19501B261A501C221CBE89
:101AAA0006D01C502BE1060E1B5CD8B01200F30EB8
:101ABA00196EFF0E1A6E28501B6E1C6A19501B26CF
:101ACA001A501C221B501524D96E1C501620DA6E8F
:101ADA0027C0DFFF282A07D0000E286E04D01A0E6E
:101AEA00E82EFED700D0254A262A26BE90D7E80E31
:101AFA00255C030E2658D8B0120089D71200176E3B
:101B0A0083928380156A17AE01D0152A010E151625
:101B1A00153A154683501518DF0B1518836E17C032
:101B2A0015F0060E166ED8901532162EFCD7010E39
:101B3A001516153A83501518EF0B1518836E17C032
:101B4A0015F0050E166ED8901532162EFCD7010E1A
:101B5A00151615461546154683501518F70B151810
:101B6A00836E17C015F0153A0F0E1516010E1516CD
:101B7A001546154683501518FB0B1518836E030E70
:101B8A00E82EFED700F08382EEEC12F0839217C0A3
:101B9A0015F0D8901532D8901532D8901532010E1A
:101BAA001516153A154683501518DF0B1518836E4E
:101BBA0017C015F0D8901532D8901532010E1516A7
:101BCA00153A83501518EF0B1518836E17C015F0C8
:101BDA00D8901532010E151615461546154683502E
:101BEA001518F70B1518836E17C015F0010E151688
:101BFA001546154683501518FB0B1518836E030EF0
:101C0A00E82EFED700F08382EEEC12F08392EEEC1F
:101C1A0012F01200176E83928390156A17AE01D0E4
:101C2A00152A010E1516153A154683501518DF0B9D
:101C3A001518836E17C015F0060E166ED890153259
:101C4A00162EFCD7010E1516153A83501518EF0BF0
:101C5A001518836E17C015F0050E166ED89015323A
:101C6A00162EFCD7010E1516154615461546835035
:101C7A001518F70B1518836E17C015F0153A0F0EC5
:101C8A001516010E15161546154683501518FB0B29
:101C9A001518836E030EE82EFED700F08382EEEC51
:101CAA0012F0839217C015F0D8901532D8901532D9
:101CBA00D8901532010E1516153A15468350151887
:101CCA00DF0B1518836E17C015F0D8901532D8900F
:101CDA001532010E1516153A83501518EF0B151803
:101CEA00836E17C015F0D8901532010E15161546D9
:101CFA001546154683501518F70B1518836E17C02D
:101D0A0015F0010E15161546154683501518FB0BCE
:101D1A001518836E030EE82EFED700F08382EEECD0
:101D2A0012F08392EEEC12F012000001D86F3350D9
:101D3A00D8B41200040E3360120032C0DAF0000187
:101D4A00DB6B0ED031507F0F08D03150BF0F05D05A
:101D5A003150930F02D03150D30F0001D96F0ED0FA
:101D6A000001D851010AD8B4EDD7030AD8B4EDD787
:101D7A00010AD8B4EDD7070AD8B4EDD70001D95172
:101D8A000FEC0EF0020E336412D032C015F0166A50
:101D9A00000E186E640E176EDBEC10F015C0DAF048
:101DAA0016C0DBF00001DA51300F84EC0DF0010EA1
:101DBA00336423D0DAC015F0DBC016F0000E186EBB
:101DCA00640E176E8EEC12F0151E161E154A162A90
:101DDA00325015241B6E000E16201C6E000E1E6E4D
:101DEA000A0E1D6ECAEC11F01BC0DAF01CC0DBF043
:101DFA000001DA51300F84EC0DF03350D8B41200E0
:101E0A0032C015F0166A000E186E0A0E176EDBEC59
:101E1A0010F015C0DAF016C0DBF00001DA510A0D35
:101E2A00F35000083224300F84EC0DF01200000E3B
:101E3A001E6E1CAE0AD01C1E1B1E1A1E196C000E2A
:101E4A001A221B221C22010E1E6E18AE0AD0181E60
:101E5A00171E161E156C000E162217221822010EC6
:101E6A001E1A000E1F6E000E206E000E216E000E4E
:101E7A00226E19501A101B101C10D8B42AD0010E49
:101E8A001D6E06D0D89019361A361B361C361D2AF6
:101E9A001CAEF8D7D8901F36203621362236195074
:101EAA00155C1A5016581B5017581C501858D8A0B1
:101EBA0009D01950155E1A50165A1B50175A1C5041
:101ECA00185A1F80D8901C321B321A3219321D2E12
:101EDA00E1D71E50D8B408D0221E211E201E1F6C26
:101EEA00000E2022212222221FC015F020C016F047
:101EFA0021C017F022C018F01200889A8898889694
:101F0A00889488928890839A8398839683948392FC
:101F1A008390D9EC12F0D9EC12F0D9EC12F0D9EC8A
:101F2A0012F0D9EC12F0D9EC12F0010E186E030E71
:101F3A00186401D018D0839A839883868384839205
:101F4A008390839A83988386838483828390EEEC3A
:101F5A0012F0839A83988386838483928390D9EC40
:101F6A0012F0182AE4D7839A8398838683948392FB
:101F7A008390839A83988386839483828390EEECFA
:101F8A0012F0839A83988386839483928390D9EC00
:101F9A0012F0280E186E18500FEC0EF0100E186E74
:101FAA0018500FEC0EF0010E186E18500FEC0EF0D0
:101FBA000F0E186E18500FEC0EF012002F6E000E56
:101FCA002E6E2D50D8B456D02E2A2BAE10D027C044
:101FDA0023F02D0E246E2F50F3EC11F02B1E2A1E27
:101FEA00291E286C000E29222A222B2243D027C020
:101FFA0023F02B0E246E2F50F3EC11F03BD02C065D
:10200A0027502C242E24236E28C015F029C016F040
:10201A002AC017F02BC018F00A0E196E000E1A6E9D
:10202A00000E1B6E000E1C6E1CEC0FF015500A0DF4
:10203A00F35000082824300F246E2F50F3EC11F0CF
:10204A0028C015F029C016F02AC017F02BC018F0C6
:10205A000A0E196E000E1A6E000E1B6E000E1C6E12
:10206A001CEC0FF015C028F016C029F017C02AF092
:10207A0018C02BF02C50D8B41200C1D7000E836EB2
:10208A00000E846E000E856EC00E886E000E896E7C
:10209A00840E8A6E440E0F01216F000E0F01196F14
:1020AA00C00E0F01116F000E0F012D6F000E0F01F0
:1020BA00186F000E0F01106F000E0F01206F000E37
:1020CA000F010F6F000E0F01176F000E0F011F6F28
:1020DA00000EF2BE010E156EF29E550E0E01A06F95
:1020EA00AA0E0E01A06F0E01A0910E01B581B58353
:1020FA00B585B597B589090E0E01FD6F550E0E010E
:10210A00A06FAA0E0E01A06F0E01A08115A002D029
:10211A00F28E1200F29E12001B6E0DD018507F0F25
:10212A0008D01850BF0F05D01850930F02D018507E
:10213A00D30F1C6E0DD01B50010AD8B4EFD7030A77
:10214A00D8B4EFD7010AD8B4EFD7070AD8B4EFD773
:10215A001C500FEC0EF015D019C0F6FF1AC0F7FF8D
:10216A00000EF86E0E0EF76403D00800F55005D085
:10217A00F6CFE1FFF7CFE2FFE75084EC0DF0194A02
:10218A001A2A19C0F6FF1AC0F7FF000EF86E0E0ED3
:10219A00F76403D00800F55005D0F6CFE1FFF7CF7A
:1021AA00E2FFE7500009D8B41200D6D7000E1A6E23
:1021BA0018AE06D0176C181ED8B0182A010E1A6E5F
:1021CA0016AE06D0156C161ED8B0162A010E1A1AAB
:1021DA00000E1C6E000E1B6E17501810D8B41CD0BF
:1021EA00010E196E04D0D89017361836192A18AE6F
:1021FA00FAD7D8901B361C361750155C185016584B
:10220A00D8A005D01750155E1850165A1B80D890C2
:10221A0018321732192EEDD71A50D8B404D01B6CC5
:10222A001C1ED8B01C2A1BC015F01CC016F01200C8
:10223A00D00EF66E240EF76E000EF86E00EEB2F0B7
:10224A0010EE26F00900F5CFEEFFE550E150FAE175
:10225A00EE0EF66E250EF76E000EF86E0900F5CF3B
:10226A0049F00900F5CF4AF001EEF0F013EEC0F0A4
:10227A00EE6AE550E150FCE1E250FAE101EE00F0CD
:10228A00F00EEE6AE806FDE100EE60F0520EEE6A2C
:10229A00E806FDE100EE34F0150EEE6AE806FDE10F
:1022AA004B904B92000154EF0CF0000E226E1EAEC2
:1022BA0006D01D6C1E1ED8B01E2A010E226E20AE3C
:1022CA0004D01F6C201ED8B0202A1F502010D8B46A
:1022DA0018D0010E216E04D0D8901F362036212A3C
:1022EA0020AEFAD71F501D5C20501E58D8A004D02B
:1022FA001F501D5E20501E5AD89020321F32212EA8
:10230A00F1D72250D8B404D01D6C1E1ED8B01E2A94
:10231A001DC01DF01EC01EF01200000E066E02AE99
:10232A0006D0016C021ED8B0022A010E066E04AE57
:10233A0004D0036C041ED8B0042A03500410D8B485
:10234A0018D0010E056E04D0D89003360436052A3B
:10235A0004AEFAD70350015C04500258D8A004D046
:10236A000350015E0450025AD89004320332052EFB
:10237A00F1D70650D8B404D0016C021ED8B0022A94
:10238A0001C001F002C002F01200000E216E000E20
:10239A00206E1D501E10D8B41CD0010E1F6E04D022
:1023AA00D8901D361E361F2A1EAEFAD7D890203670
:1023BA0021361D501B5C1E501C58D8A005D01D503C
:1023CA001B5E1E501C5A2080D8901E321D321F2EB2
:1023DA00EDD720C01BF021C01CF01200256E0DD0D5
:1023EA0023507F0F08D02350BF0F05D02350930FDF
:1023FA0002D02350D30F266E0DD02550010AD8B42F
:10240A00EFD7030AD8B4EFD7010AD8B4EFD7070A2F
:10241A00D8B4EFD726500FEC0EF0245084EC0DF010
:10242A001200100ED56E500ED66EF00ED46E600EDF
:10243A00D36ED350D4CF17F0186A17C018F0176AA2
:10244A001710386E1850396E0E01CA9B0E01C28BD6
:10245A00F00E156E250E166EE9EC12F0F3EC12F082
:10246A0012003E4A3F2A3EC001F03FC002F0000E71
:10247A00046E0A0E036E92EC11F001500210D8A4F9
:10248A0002D0FF0E841A3EC001F03FC002F0130EC4
:10249A00046E880E036E92EC11F012000E01CA9BB4
:1024AA003950D46E38C0D3FF344A352A355004E146
:1024BA000A0E345CD8A01200A1EC12F0000E356EA0
:1024CA00000E346E12000000030002000500000036
:1024DA0003000500010004000600020004002D2D7F
:1024EA002D2D2D2D002D2D2D2D2D2D00200E0E01E3
:1024FA00D86F000E0E01DA6F000E0E01DC6F020EAD
:10250A000E01DE6F000E0E01DD6F0E01DBB112004F
:10251A00FCD715501702F3CF19F0F4CF1AF0155063
:10252A001802F3501A2616501702F3501A2619C029
:10253A0015F01AC016F0120036503710D8B412002F
:10254A0001D812000500FA6E3650FD6E3750FE6E45
:10255A00FF6AFA501200F5EC12F043EC10F07BEC33
:10256A0012F016EC12F0BBEC12F01200080E9F6E7D
:10257A00900E9D6E840E9E6EA00E9B6E010E9C6E3A
:10258A0012003F0E811615C07EFF16C07FFF8180A4
:10259A00818E805012000E01CDABFDD79DA202D0D4
:1025AA009D9E9D8E995012001D0E156E910EE82E5D
:1025BA00FED7152EFCD700F012008DEC07F0F5ECD3
:1025CA0009F0C2EC08F0120015C036F016C037F058
:1025DA001200060EE82EFED700D01200D58E120089
:0825EA00F29A12001414120011
:020000040020DA
:10000000FF0FFF0FFF0FFF0FFF0FFF0FFF0FFF0F80
:020000040030CA
:0C000000AAFFFFFF9FFFFFFFFFFFFFFFB5
:00000001FF
