:040000005CEF00F0C1
:100008005C82FACF32F0FBCF33F0E9CF34F0EACF9D
:1000180035F0E1CF36F0E2CF37F0D9CF38F0DACF8C
:1000280039F0F3CF3AF0F4CF3BF0F6CF3CF0F7CF0E
:100038003DF0F8CF3EF0F5CF3FF00E01C2AB06D051
:100048000E01CAAB03D01FEC0FF014D0F2AC09D0EC
:100058000E01C5A906D00E01CDA903D079EC0EF08A
:1000680009D0F2AC07D00E01C5AB04D00E01CDBB50
:10007800A8EC0EF03FC0F5FF3EC0F8FF3DC0F7FF0B
:100088003CC0F6FF3BC0F4FF3AC0F3FF39C0DAFFCB
:1000980038C0D9FF37C0E2FF36C0E1FF35C0EAFFFC
:1000A80034C0E9FF33C0FBFF32C0FAFF5C92110095
:0A00B800818E5FEF00F0B8EF0DF04D
:100F000000244750524D432C244750524D432C242B
:070F10004750524D432C0035
:100F180020EE01F00F50D9261050DA22DF50116E62
:100F28000FC0D9FF10C0DAFFDF50D00F0A0DF35001
:100F38001124D00F196E20EE03F00F50D92610504F
:100F4800DA22DF50116E20EE02F00F50D926105031
:100F5800DA22DF50D00F0A0DF3501124D00F1A6E89
:100F680020EE04F00F50D9261050DA22DF50116E0F
:100F7800D00E1124016E026AFF0E0222000E046ECA
:100F88000A0E036EE4EC0EF020EE05F00F50D926A1
:100F98001050DA22DF50126E136A015012260250E6
:100FA80013225B50640DF3501226F4501322D00E16
:100FB80012241B6EFF0E13201C6E020E1A6401D041
:100FC80002D0010E01D0000E1B5E000E1C5AFE0E50
:100FD800116EFF0E126E1A50136E146AD8901336E3
:100FE80014361150132612501422A00E1324D96E51
:100FF800000E1420DA6EDECF15F0DDCF16F0000EED
:10100800046E040E036E1BC001F01CC002F03EEC1F
:101018000DF001C017F002C018F0010E046E900E1A
:10102800036E1BC001F01CC002F03EEC0DF0015035
:1010380017260250182219501726000E1822000EE3
:10104800046E640E036E1BC001F01CC002F03EEC7F
:101058000DF0011E021E014A022A015017260250F5
:10106800182215501726165018221B501724096EDF
:101078001C5018200A6E000E0C6E070E0B6E80ECCA
:101088000DF0095012000001C86F8392839000018F
:10109800C66BC8AF02D00001C62B010E0001C617EF
:1010A8000001C63BC64783500001C619DF0BC619AD
:1010B800836EC8C0C6F0060E0001C76F0001D89045
:1010C800C6330001C72FFAD7010E0001C617000169
:1010D800C63B83500001C619EF0BC619836EC8C002
:1010E800C6F0050E0001C76F0001D890C633000195
:1010F800C72FFAD7010E0001C6170001C647C64719
:10110800C64783500001C619F70BC619836EC8C0BD
:10111800C6F00001C63B0F0EC617010E0001C61728
:101128000001C647C64783500001C619FB0BC61904
:10113800836E030EE82EFED700F0838228EC0FF0B2
:101148008392C8C0C6F00001D890C6330001D89079
:10115800C6330001D890C633010E0001C61700013E
:10116800C63BC64783500001C619DF0BC619836EFC
:10117800C8C0C6F00001D890C6330001D890C63365
:10118800010E0001C6170001C63B83500001C619B5
:10119800EF0BC619836EC8C0C6F00001D890C633DD
:1011A800010E0001C6170001C647C647C64783504F
:1011B8000001C619F70BC619836EC8C0C6F0010E28
:1011C8000001C6170001C647C64783500001C6196B
:1011D800FB0BC619836E030EE82EFED700F0838240
:1011E80028EC0FF0839228EC0FF0120020EE01F0AB
:1011F8000150D9260250DA22DF50056E01C0D9FF0E
:1012080002C0DAFFDF50D00F0A0DF3500524D00FCB
:10121800066E1F0E066402D0000E120020EE03F0C8
:101228000150D9260250DA22DF50056E20EE02F076
:101238000150D9260250DA22DF50D00F0A0DF350A0
:101248000524D00F066E0C0E066402D0000E1200A4
:1012580020EE05F00150D9260250DA22DF50056E43
:1012680020EE04F00150D9260250DA22DF50D00FC8
:101278000A0DF3500524D00F066E630E066402D0E3
:10128800000E120020EE01F00350D9260450DA2295
:10129800DF50056E03C0D9FF04C0DAFFDF50D00F5E
:1012A8000A0DF3500524D00F066E170E066402D0FF
:1012B800000E120020EE03F00350D9260450DA2263
:1012C800DF50056E20EE02F00350D9260450DA22D2
:1012D800DF50D00F0A0DF3500524D00F066E3B0ED9
:1012E800066402D0000E120020EE05F00350D92645
:1012F8000450DA22DF50056E20EE04F00350D926A0
:101308000450DA22DF50D00F0A0DF3500524D00F15
:10131800066E3B0E066402D0000E1200010E12008B
:10132800010EF66E0F0EF76E000EF86E20EE09F045
:10133800060E0900F5CFDEFFE806FBE2000E146E8C
:10134800000E116E000E136E000E126E13BE06D044
:10135800135040E1400E125CD8B03CD0600E12240D
:10136800D96E000E1320DA6EDF50116E060E14646B
:1013780017D00D0E146014D0F90E056EFF0E066E10
:101388001450076E086A05500726065008220750B1
:101398000324D96E08500420DA6E11C0DFFF0FD085
:1013A8001450010D090EF324D96E000EF420DA6EE4
:1013B8001150DE18D8A405D0070E146002D0142AE4
:1013C80006D00C0E146401D005D0000E146E124A1B
:1013D800132ABCD7000E146E000E106E13BE06D072
:1013E800135032E1400E125CD8B01200600E122485
:1013F800D96E000E1320DA6EDF50116E080E1060E1
:101408000CD0600E1224D96E000E1320DA6E2C0E4A
:10141800DE18D8A416D0102A14D0060E14601200B4
:10142800600E1224D96E000E1320DA6E1450010DCE
:10143800F3500124E16EF4500220E26EDFCFE7FFA3
:10144800142A124A132ACAD71200036E8392839071
:10145800016A03AE01D0012A010E0116013A0146C4
:1014680083500118DF0B0118836E03C001F0060ECC
:10147800026ED8900132022EFCD7010E0116013AF5
:1014880083500118EF0B0118836E03C001F0050E9D
:10149800026ED8900132022EFCD7010E01160146C9
:1014A8000146014683500118F70B0118836E03C0EB
:1014B80001F0013A0F0E0116010E01160146014610
:1014C80083500118FB0B0118836E030EE82EFED71C
:1014D80000F083822CEC0FF0839203C001F0D890C7
:1014E8000132D8900132D8900132010E0116013A2A
:1014F800014683500118DF0B0118836E03C001F009
:10150800D8900132D8900132010E0116013A835069
:101518000118EF0B0118836E03C001F0D890013257
:10152800010E011601460146014683500118F70BCA
:101538000118836E03C001F0010E01160146014631
:1015480083500118FB0B0118836E030EE82EFED79B
:1015580000F083822CEC0FF083922CEC0FF0120039
:10156800036E83928380016A03AE01D0012A010EC3
:101578000116013A014683500118DF0B0118836EEA
:1015880003C001F0060E026ED8900132022EFCD77D
:10159800010E0116013A83500118EF0B0118836EF2
:1015A80003C001F0050E026ED8900132022EFCD75E
:1015B800010E011601460146014683500118F70B3A
:1015C8000118836E03C001F0013A0F0E0116010ED7
:1015D80001160146014683500118FB0B0118836E62
:1015E800030EE82EFED700F083822CEC0FF08392D6
:1015F80003C001F0D8900132D8900132D89001325E
:10160800010E0116013A014683500118DF0B01183B
:10161800836E03C001F0D8900132D8900132010ED8
:101628000116013A83500118EF0B0118836E03C0AD
:1016380001F0D8900132010E01160146014601461B
:1016480083500118F70B0118836E03C001F0010ED7
:1016580001160146014683500118FB0B0118836EE1
:10166800030EE82EFED700F083822CEC0FF0839255
:101678002CEC0FF01200206E1F50D8B41200040E8C
:101688001F6012001EC022F0236A0DD01D507F0F6C
:1016980008D01D50BF0F05D01D50930F02D01D500C
:1016A800D30F216E0DD02050010AD8B4EFD7030A0A
:1016B800D8B4EFD7010AD8B4EFD7070AD8B4EFD710
:1016C800215029EC0AF0020E1F6411D01EC001F04F
:1016D800026A000E046E640E036E3EEC0DF001C04B
:1016E80022F002C023F02250300FB4EC0AF0010EB1
:1016F8001F6422D022C001F023C002F0000E046E45
:10170800640E036EE4EC0EF0011E021E014A022A6A
:101718001E500124076E000E0220086E000E0A6E8D
:101728000A0E096E1AEC0EF007C022F008C023F06A
:101738002250300FB4EC0AF01F50D8B412001EC06B
:1017480001F0026A000E046E0A0E036E3EEC0DF004
:1017580001C022F002C023F022500A0DF350000805
:101768001E24300FB4EC0AF012004C4A4D2AE80E41
:101778004C180BE1030E4D18D8A407D0180E4C26B0
:10178800FC0E4D22FF0E841AF28C3F0E4E6412009E
:1017980020EE54F010EE2BF0060EDBCFE3FFE80648
:1017A800FCE220EEB8F010EE24F0060EDBCFE3FFEB
:1017B800E806FCE2010E1D6E4EC01EF0030E1F6E01
:1017C800010E3FEC0BF02B0E016E000E026E240E84
:1017D800036E000E046E94EC09F02B0E016E000EE1
:1017E800026E240E036E000E046EFAEC08F0000977
:1017F800D8B426D0010E046E240E056E000E066EB7
:10180800020EE9EC0DF0240E016E000E026E98EC4B
:101818000CF0080E046E2B0E056E000E066E020EFE
:10182800E9EC0DF0050E1D6E2B0E0F6E000E106EFE
:101838008CEC07F01E6E030E1F6E010E3FEC0BF0D2
:10184800F29C000E4E6E000E4B6E000E4A6E120099
:10185800889A88988896889488928890839A83989A
:10186800839683948392839011EC0FF011EC0FF020
:1018780011EC0FF011EC0FF011EC0FF011EC0FF070
:10188800010E0001C96F030E0001C96501D019D00E
:10189800839A83988386838483928390839A839898
:1018A800838683848382839028EC0FF0839A8398BD
:1018B800838683848392839011EC0FF00001C92BF7
:1018C800E2D7839A83988386839483928390839ABA
:1018D8008398838683948382839028EC0FF0839A7D
:1018E8008398838683948392839011EC0FF0280E5B
:1018F8000001C96F0001C95147EC08F0100E000142
:10190800C96F0001C95147EC08F0010E0001C96F09
:101918000001C95147EC08F00F0E0001C96F000122
:10192800C95147EC08F01200080EF66E0F0EF76E5C
:10193800000EF86E20EE07F0060E0900F5CFDEFF68
:10194800E806FBE2000E116E000E0E6E000E106E21
:10195800000E0F6E10BE06D0105040E1400E0F5C16
:10196800D8B01200600E0F24D96E000E1020DA6E67
:10197800DF500E6E060E116417D00D0E116014D0D4
:10198800F90E036EFF0E046E1150056E066A0350C1
:1019980005260450062205500124D96E065002205F
:1019A800DA6E0EC0DFFF0FD01150010D070EF324C1
:1019B800D96E000EF420DA6E0E50DE18D8A405D0C9
:1019C800070E116002D0112A06D00C0E116401D046
:1019D8001200000E116E0F4A102ABCD71200000E1A
:1019E800836E000E846E000E856EC00E886E000E2B
:1019F800896EC00E8A6E7F0E0F01216F0F01196963
:101A08000F011169000E0F012D6F000E0F01186FE5
:101A1800000E0F01106F000E0F01206F000E0F0156
:101A28000F6F000E0F01176F000E0F011F6F000ED2
:101A3800F2BE010E0001C66FF29E550E0E01A06F98
:101A4800AA0E0E01A06F0E01A0910E01B581B583FB
:101A5800B585B597B589550E0E01A06FAA0E0E0172
:101A6800A06F0E01A0810001C6A102D0F28E120063
:101A7800F29E1200000E066E04AE06D0036C041E21
:101A8800D8B0042A010E066E02AE06D0016C021E02
:101A9800D8B0022A010E061A000E086E000E076E54
:101AA80003500410D8B41CD0010E056E04D0D89091
:101AB80003360436052A04AEFAD7D8900736083616
:101AC8000350015C04500258D8A005D00350015EB1
:101AD8000450025A0780D89004320332052EEDD7FD
:101AE8000650D8B404D0076C081ED8B0082A07C01E
:101AF80001F008C002F01200000E0E6E0AAE06D009
:101B0800096C0A1ED8B00A2A010E0E6E0CAE04D05B
:101B18000B6C0C1ED8B00C2A0B500C10D8B418D073
:101B2800010E0D6E04D0D8900B360C360D2A0CAE73
:101B3800FAD70B50095C0C500A58D8A004D00B50A7
:101B4800095E0C500A5AD8900C320B320D2EF1D780
:101B58000E50D8B404D0096C0A1ED8B00A2A09C09D
:101B680009F00AC00AF012007C0EF66E1D0EF76E20
:101B7800000EF86E00EEA0F010EE26F00900F5CF8A
:101B8800EEFFE550E150FAE1480EF66E1E0EF76ED4
:101B9800000EF86E00EE54F010EE08F00900F5CFD4
:101BA800EEFFE550E150FAE100EE60F0400EEE6A1B
:101BB800E806FDE100EE40F0140EEE6AE806FDE1ED
:101BC8005C905C92000160EF0EF0076E0DD004503F
:101BD8007F0F08D00450BF0F05D00450930F02D0D8
:101BE8000450D30F086E0DD00750010AD8B4EFD7B0
:101BF800030AD8B4EFD7010AD8B4EFD7070AD8B484
:101C0800EFD7085029EC0AF009D005C0D9FF06C063
:101C1800DAFFDF50B4EC0AF0054A062A05C0D9FFFE
:101C280006C0DAFFDF50D8B41200EFD7000E0C6EF2
:101C3800000E0B6E09500A10D8B41CD0010E0D6EA0
:101C480004D0D89009360A360D2A0AAEFAD7D890A9
:101C58000B360C360950075C0A500858D8A005D036
:101C68000950075E0A50085A0B80D8900A32093288
:101C78000D2EEDD70BC007F00CC008F012000E01B6
:101C8800C59B0E01C599080E9F6E900E9D6E040EA1
:101C98009E6E670E9B6E000E9C6E000E536E000EBD
:101CA800526E080E516E000E506E000E4F6E000EF2
:101CB8004E6E0E01C58B120006EC0FF0F28EF29CF0
:101CC800720E0001C66F170E0001C76F1AEC0FF0F5
:101CD8002CEC0CF020EEBFF010EECAF0060EDBCFB5
:101CE800E3FFE806FCE28582FFD7080E516012D0B8
:101CF8005250010D400EF324D96E000EF420DA6E16
:101D0800DF509A6E522A070E526402D0000E526EAD
:101D1800512A12000E01C5991200070ED56E500EF9
:101D2800D66E7C0ED46E000ED36E0E01CA9B0E01C9
:101D3800C28B680E0001C66F1E0E0001C76F1AEC39
:101D48000FF030EC0FF012009DA202D09D989D88F4
:101D58005050010D600EF324D96E000EF420DA6E97
:101D680099CFDFFF502A3F0E506402D0000E506E0C
:101D78004E2A1200000003000200050000000300C4
:101D88000500010004000600020004002D2D2D2D81
:101D98002D2D0030303030303000220E0E01D86F3B
:101DA800000E0E01DA6F000E0E01DC6F050E0E013B
:101DB800DE6F000E0E01DD6F0E01DBB11200FCD7E5
:101DC80001500302F3CF05F0F4CF06F001500402EE
:101DD800F350062602500302F350062605C001F010
:101DE80006C002F0120048504910D8B4120001D8B9
:101DF80012000500FA6E4850FD6E4950FE6EFF6AEB
:101E0800FA50120032EC0FF0F3EC0CF0D1EC0EF0BB
:101E180091EC0EF043EC0EF01200080E0001C66FB4
:101E2800230EE82EFED7C62FFCD71200C6C048F0F6
:101E3800C7C049F012000E01CA9BF7EC0EF0120061
:101E48002D2D2D2D2D2D001400D000D000F01200C6
:101E580000D000D000F01200D58E1200F29A1200C5
:021E6800120066
:020000040020DA
:10000000FF0FFF0FFF0FFF0FFF0FFF0FFF0FFF0F80
:020000040030CA
:0C000000A9FFFFFF9FFFFFFFFFFFFFFFB6
:00000001FF
