:060000000A128A110E280D
:10000800FE00030E83160313A0000A08A1000A12BB
:100018008A11AC2F0A128A11112883160230EC00BB
:10002800EA01EB0183010A128A11F62E2430031328
:10003800C2007430C3004A30C400031724080313F5
:10004800AD00031723080313AC000317220803139A
:10005800AB00031721080313AA00F4210A128A111E
:100068002A08B3002B08B4002C08B5008030B00172
:10007800B1004030B20028230A128A113008BF00AC
:100088003108C0003208C100C0220A128A113F0894
:100098000317A500031340080317A600031341081C
:1000A8000317A70025089B0026089C0027089D0029
:1000B80099200A128A111B08A8001C08A9001D080B
:1000C800AA0028080313D100031729080313D20034
:1000D80003172A080313D3008030CE01CF00BF30A6
:1000E800D00034210A128A114E08DA004F08DB00CA
:1000F8005008DC0023225B080317AC0003135A08DE
:100108000317AB000313990003172C0803139A0075
:100118001815031787158312031318168316181258
:1001280083129817831698160800C0230A128A119A
:10013800F0200A128A1103136708031795000313A6
:1001480068080317960003136908031797001B082C
:1001580098001C0899001D089A0095230A128A1114
:1001680015089E0016089F001708A0001E08031314
:10017800CE0003171F080313CF000317200803132B
:10018800D00003171B080313D10003171C0803131F
:10019800D20003171D080313D30034210A128A1151
:1001A8004E0803179B0003134F0803179C00031303
:1001B800500803179D00C0230A128A11F020031368
:1001C800670803179B000313680803179C000313B1
:1001D800690803179D0008006708A2006808A300C3
:1001E8006908A4009330A500DE230A128A110317B8
:1001F800941F03290313E701E801E901080000300F
:1002080014021530031913020318080003136708B2
:10021800DA006808DB006908DC0023220A128A1168
:100228005D08AD005C08AC005B08AB005A08AA008A
:10023800F4212A080317900003132B0803179100D1
:1002480003132C080317920010080313E700031781
:1002580011080313E800031712080313E900080044
:100268004E08D4004F08D5005008D6000310550D8D
:10027800560DD9005108D4005208D5005308D600AD
:100288000310550D560DD800590803195729580859
:100298005902580803185F29D4005908D4021930A4
:1002A8005402031C5E295108CE005208CF0053089F
:1002B800D000080058080319080059085802031804
:1002C8006D295908D4005808D4021930540203186B
:1002D80008000630D700D01BD717D31B5717CF17E6
:1002E800D001D217D30158085902031894290310D2
:1002F800D10DD20DD30DD8035808590603198F29EB
:10030800D7035708073903198F297B290310D00C05
:10031800CF0CCE0CD90A590858060319B0298A29D6
:10032800590858020318B0290310CE0DCF0DD00D6F
:10033800D903580859060319AC29D70357080739B0
:100348000319AC2998290310D30CD20CD10CD80A64
:1003580059085806031DA729D71FBB29FF30CE0609
:10036800CF06D006CE0A0319CF0A0319D00A571FA1
:10037800C629FF30D106D206D306D10A0319D20AFC
:100388000319D30AD7014E08D1074F0803110318E0
:100398004F0A031DD207500803110318500A031D02
:1003A800D307D31FE229FF30D106D206D306D10ADC
:1003B8000319D20A0319D30AD701D70A5108A20090
:1003C8005208A3005308A4005908A5005708A6001E
:1003D8007E222208CE002308CF002408D00008007F
:1003E8008E30AF01AE00AD1F062AAA09AB09AC09D1
:1003F800AD09AA0A0319AB0A0319AC0A0319AD0A15
:10040800AF01AF0AFF302D050319112A0310AD0CF7
:10041800AC0CAB0CAA0CAE0A062A2A08A2002B08C0
:10042800A3002C08A4002E08A5002F08A6007E22F1
:100438002208AA002308AB002408AC000800D72330
:100448000A128A1103105F0D600DE6006608031D8D
:10045800322ADA01DB01DC01DD010800D7230A12A8
:100468008A1117300310E00CDF0CDE0CFF3E031D71
:10047800362A5E08E100DB17DC015A08E2005B0857
:10048800E3005C08E4008E30E501E602E61F592A25
:100498006608803A8F3E031C2D2A0310E50CE40CF5
:1004A800E30CE20CE60F512A672A1830660203189B
:1004B8002D2A66080319672A0310E20DE30DE40DDF
:1004C800E50DE6035D2A61080319752AE209E309C7
:1004D800E409E509E20A0319E30A0319E40A03191E
:1004E800E50A6508DD006408DC006308DB006208D3
:1004F800DA00080025080319862A240823042204A0
:10050800031D8F2AA201A301A4010800A50A031054
:10051800A40CA30CA20CFE30240503199E2A8A2AD7
:10052800A50AA20A0319A30A0319A40A0310A40C12
:10053800A30CA20CFF3024050319AC2A942A02301C
:100548002502031CAE2AA5030310A20DA30DA40DBA
:10055800A31FA32A251CA3130310A50C2508A90073
:10056800A801A7012708A2042808A3042908A404AD
:100578002608031DA41708004208C5004308C60042
:100588004408C7000310460D470DCC004C08031D56
:10059800D12ABF01C001C10108003F08C5004008B9
:1005A800C6004108C7000310460D470DCD004D0891
:1005B800031DE22ABF01C001C10108008930C90139
:1005C800CA01CB014D07C500CC024408CD00410843
:1005D800CD068030CD051830C317C401C017C1013E
:1005E800C8000310C90DCA0DCB0D41084402031DF4
:1005F800032B40084302031D032B3F084202031C40
:10060800112B3F08C2024008031C400FC3024108D7
:10061800031C410AC40249140310C20DC30DC40DC2
:10062800C80BF52A4908A2004A08A3004B08A400F1
:100638004C08A5004D08A6007E222208BF0023080A
:10064800C0002408C10008003008B6003108B7000F
:100658003208B8000310370D380DB9003908031DEA
:10066800392BB001B101B20108003308B6003408D3
:10067800B7003508B8000310370D380DBE003E0826
:10068800031D4A2BB001B101B20108003E087B3EB0
:10069800B9073208BE003508BE068030BE050730EF
:1006A800B117B417B501BA01BB01BC01BD00301CBC
:1006B800642BCC230A128A110318350A031DBC07C0
:1006C8000310B20CB10CB00C0310B30DB40DB50D82
:1006D800BD0B5B2B0930BD00301C792BCC230A12D3
:1006E8008A110318350A031DBC070310B20CB10C9C
:1006F800B00C0310BC0CBB0CBA0CBD0B702B3A0829
:10070800A2003B08A3003C08A4003908A5003E0845
:10071800A6007E222208B0002308B1002408B200F7
:10072800080017081604150403199C2B8030970637
:1007380018080313CE00031719080313CF00031773
:100748001A080313D000031715080313D100031761
:1007580016080313D200031717080313D300342114
:100768004E080317950003134F0803179600031349
:1007780050080317970008001B080313E700031726
:100788001C080313E80003171D080313E9000800F9
:100798003308BA07340803110318340A031DBB07CA
:1007A8003508031108005A08DE005B08DF005C0802
:1007B800E0000800240823042204031DEA2B25086E
:1007C800840083178001840A8001080024087F3987
:1007D800A600A7010310A60DA70D2508840026086A
:1007E80083178000840A27088000230D230D013910
:1007F800A600A7012508840026088004840A270883
:1008080080042508840082308007840F00080318BC
:10081800000AFF00FF3E80008403240880393F3827
:10082800A400A31308000230A600DE30E3240A1255
:100838008A11BF000F39B2003F0E0F390339A200E9
:100848000A30A301A400A501CA240A128A11320899
:100858002207BB000030031801302307BC00BD018C
:10086800BC1BBD033D08BE000E30A501A401A300BA
:100878001030A2003E08A9003D08A8003C08A700C7
:100888003B08A60041250A128A112508BE00240843
:10089800BD002308BC002208BB00DE30A601A60A62
:1008A800E3240A128A11BF0074250A128A11CA2485
:1008B8000A128A112308BA002208B9003F080F3922
:1008C800B9070318BA0A3A08A3003908A2003C304D
:1008D800A400A501CA240A128A112208B20023081A
:1008E800B3000030B31BFF30B400B5003208BB07BB
:1008F800330803110318013E031DBC073408031114
:100908000318013E031DBD07350803110318013EF6
:10091800031DBE07DE30A601E3240A128A11BF00B8
:100928000F39B20074250A128A11CA240A128A11D0
:1009380032082207B3000030031801302307B4003F
:100948003308B5003408B6000030B61BFF30B700D6
:10095800B8003508BB07360803110318013E031D0C
:10096800BC07370803110318013E031DBD073808EB
:1009780003110318013E031DBE073E08B1003D08E0
:10098800B0003C08AF003B08AE000800A601A70174
:10099800221CD42C2408A6070318A70A2508A70791
:1009A8000310A40DA50D0310A30CA20C2208230408
:1009B800031DCC2C2708A3002608A2000800A800C5
:1009C80013250A128A112808A200A3010E250A126B
:1009D8008A1183162608A200A3010E250A128A117D
:1009E8003E250A128A1113250A128A112808A20024
:1009F800A301A20A0319A30A0E250A128A11831653
:100A0800A201A30116250A128A112208A7003E2571
:100A18002708080036252208831293000800362587
:100A28001114080036250A128A11911536250A1262
:100A38008A11831213088316A400A50136250A1209
:100A48008A1122082304031D2D2D831603139116E2
:100A5800302D83160313911211162508A3002408BC
:100A6800A200080083161419362D11081F3903191E
:100A78000800362D362511150800AA01AB01AC0176
:100A8800AD01221C5B2D2608AA07270803110318AD
:100A9800013E031DAB07280803110318013E031D7F
:100AA800AC07290803110318013E031DAD07031005
:100AB800A60DA70DA80DA90D0310A50CA40CA30C39
:100AC800A20C2508240423042204031D452D2D0807
:100AD800A5002C08A4002B08A3002A08A2000800DF
:100AE8003F0E0F390739A2000A30A301A400A5015F
:100AF8000800A6304E260A128A11EF008316031347
:100B0800B501043035020318932D35089F3E4E2653
:100B18000A128A11E70083160313B50A852DB50159
:100B28000330350203180D2E350835073507983E72
:100B38004E260A128A1183160313A500A601A701DF
:100B4800A801350835073507973E4E260A128A113F
:100B580083160313A900AA01AA00A9012908AB005A
:100B68002A08AC00AD01AE01350835073507963EB9
:100B78004E260A128A1183160313AF00B001B10181
:100B8800B2013008B2002F08B100B001AF012F0840
:100B9800AB0730080318300FAC0731080318310FC2
:100BA800AD0732080318320AAE072B08A5072C0830
:100BB80003182C0FA6072D0803182D0FA7072E08BA
:100BC80003182E0AA8073508B30001300310B30D27
:100BD800FF3E0310031DEB2D330D4C3E840025080A
:100BE80083178000840A26088000840A270880006A
:100BF800840A280880003508643E84003508A33E2E
:100C08004E260A128A118317800083160313B50A29
:100C1800942DB5011E303502031808003508203E12
:100C280084000530A200350868260A128A114E266B
:100C38000A128A118313800083160313B40135083E
:100C4800A5003E3076260A128A1168260A128A11F1
:100C58003407013E4E260A128A1183138000831638
:100C680003133508A500103076260A128A11682663
:100C78000A128A113407033E4E260A128A11831774
:100C88008000831603130230B40A3402031C232E97
:100C9800B50A0E2E8316A200522E03136400831683
:100CA80003178C18512E03132208831203178D0083
:100CB8003F3083168C050C1403100C18031403180A
:100CC800013083120C080800A400A301220824188C
:100CD800A3070310A20D0310A40C2408031D6A2EF9
:100CE800230808000310A50D2507A60034082607C9
:100CF800A70084000530A2003508080028308312B8
:100D08009400831691012F08B3003008B40031080D
:100D1800B5003208B60002300310B30DB40DB50D9E
:100D2800B60DFF3E031D902E3608A5003508A40019
:100D38003408A3003308A2003D30A901A8000930F7
:100D4800A700A601AE262208FF3E9300940187154E
:100D580007160800AA01AB01AC01AD01250824045F
:100D6800230422040319ED2EAE01AE0AA51BC22EE0
:100D78000310A20DA30DA40DA50DB92E0310AA0DE5
:100D8800AB0DAC0DAD0D25082902031DD52E240889
:100D98002802031DD52E23082702031DD52E22085D
:100DA8002602031CE72E2208A6022308031C230F91
:100DB800A7022408031C240FA8022508031C250FDA
:100DC800A9022A140310A50CA40CA30CA20CAE0BA8
:100DD800C22E2D08A5002C08A4002B08A3002A0861
:100DE800A2000800831603178801890103138501EF
:100DF80086018701831287100A128A117D250A123B
:100E08008A11003083120317E6000A128A114B2751
:100E18000A128A110030B2000630B1001A30B00050
:100E28008030AF000A128A1182260A128A110A1229
:100E38008A1117240A128A11310883120317EE0047
:100E480083160313300883120317ED008316031368
:100E58002F0883120317EC00831603132E0883123E
:100E68000317EB0083162530A401A301A2008030EC
:100E7800A1000A128A111A200A128A118B1601136C
:100E88000B168B170108F839013881004A2F831691
:100E98000313A9010310290D7A3E840083138001EE
:100EA800840A80012908031D5B2FA801642F2908E3
:100EB80091270A128A11643E840083170008A8004B
:100EC8002908643E840083170008280203188B2F22
:100ED8000310290D7A3E840083130008A400840AB5
:100EE8000008A5002808203E840000082407A60062
:100EF80025080318250AA7000310290D7A3E840047
:100F080026088000840A27088000A80A642F023077
:100F1800A90A2902031808004E2FA3002308031961
:100F2800982F2308FF3E992F0230A20008007E0860
:100F38008A007F0882009B270A128A118000840A8F
:100F480004087D0603190034FF0A0319FE0A9F2FBF
:100F58000B198B1EB52FFA30831281020B1140300A
:100F68008600831621088A00200E8300FE0E7E0E5E
:020F780009006E
:04400E00F2ECFFFED3
:1042000052002000900001000000030022009000F6
:104210000000000006000C009000000000000200FA
:10422000040090000800000002001400900000004C
:1042300000001500240028000000000002002400F7
:1042400010000000200002002400500000000000C8
:10425000000000000000000000000000000000005E
:10426000000000000000000000000000000000004E
:10427000000000000000000000000000000000003E
:10428000000000000000000000000000000000002E
:10429000000000000000000000000000000000001E
:1042A000000000000000000000000000000000000E
:1042B00000000000000000000000000000000000FE
:1042C00000000000000000000000000000000000EE
:1042D00000000000000000000000000000000000DE
:1042E00000000000000000000000000000000000CE
:1042F00000000000000000000000000000000000BE
:1043000000000000000000000000000000000000AD
:10431000000000000000000000000000000000009D
:10432000000000000000000000000000010051003B
:104330007F00010051007F00010051007F00E50077
:0E434000000000000000080015001E00000034
:00000001FF
