:100000000A128A11F82F00308A000408840A820735
:10001000003424344734503452344D3443342C3477
:0E00200024344734503452344D3443342C349D
:1006F2000A128A11962383160313111408000A1290
:100702008A1196238316031311150800882B892B4F
:1007120000008B2B8C2B000008000A128A119623F2
:10072200700883120313930008008316031314192D
:10073200962B11081F3903190800962B0830FB006D
:100742007B08F600DE300A128A1190240800083075
:10075200F1002330F000F00BAC2BF10BAC2B0800B6
:10076200F9000830F7007708F2007908F8007808F5
:10077200F300DE300A128A11FE23080083120313EB
:10078200A300A201231CC92B2008A1002108A20753
:100792000310A00D0310A30C2308031DC32B220872
:1007A20008000A128A1196230A128A118316031369
:1007B20091150A128A1196230A128A1183120313BF
:1007C2001308F200F3017208F4007308F5000A122C
:1007D2008A1196230A128A1170087104031DF52BDF
:1007E200831603139116F82B831603139112111615
:1007F2007508F1007408F0000800F6000A128A1168
:1008020079230A128A117608F400F5017408F000BF
:100812007508F1000A128A118E230A128A117208CF
:10082200F400F5017408F0007508F1000A128A114B
:100832008E230A128A117308F400F5017408F0007D
:100842007508F1000A128A118E230A128A110A12FD
:100852008A118023080083120313A7003F2C240867
:100862007F3E3B2C2408BF3E3B2C2408933E3B2C6E
:100872002408D33EA6002608A8004D2C2708013ADA
:100882000319302C033A0319332C013A0319362C7D
:10089200073A0319392C4D2C28080A128A11A52669
:1008A2000A128A118312031325080A128A114C278D
:1008B2000800283083120313940083160313910156
:1008C200831203132008A4002108A5002208A60011
:1008D2002308A70002300310A40DA50DA60DA70D35
:1008E200FF3E031D6C2C2708F3002608F2002508A2
:1008F200F1002408F0000030F7003D30F600093026
:10090200F5000030F4000A128A1132257008FF3E09
:100912008316031393009401871507160800FA0043
:100922000A128A1179230A128A117A08F700F80149
:100932007708F0007808F1000A128A118E230A1251
:100942008A117608F700F8017708F0007808F100BC
:100952000A128A118E230A128A110A128A1180231C
:100962000A128A110A128A1179230A128A117A0842
:10097200013EF000003003180130F1000A128A1122
:100982008E230A128A110030F000F1000A128A1135
:10099200D2230A128A117008F7007708F9000A12A6
:1009A2008A1180237908080083120313B2002E08EB
:1009B200031908000130AE022E082907AF002F08E4
:1009C200A4000A30B0003008A0002D08F7002C085F
:1009D200F6002B08F5002A08F4000030F30000307E
:1009E200F2000030F1000A30F0000A128A113225BA
:1009F2000A128A1170080A128A11BF230A128A1176
:100A0200FF3A013E831203132A07303EB100310838
:100A1200A50032080A128A112C240A128A11003007
:100A2200F3000030F2000030F1000A30F0008312CF
:100A320003132D08F7002C08F6002B08F5002A08EE
:100A4200F4000A128A1132250A128A1173088312DB
:100A52000313AD007208AC007108AB007008AA0065
:100A6200D82C0030FC000030FB000030FA000030CF
:100A7200F90073087204710470040319872DFD01D3
:100A8200FD0AF31B522D0130F8000310F00DF10D99
:100A9200F20DF30DF80B462D0130F8007808FD0732
:100AA200422D0130F8000310F90DFA0DFB0DFC0D7B
:100AB200F80B542D73087702031D692D7208760214
:100AC200031D692D71087502031D692D70087402DA
:100AD200031C7A2D7008F4027108031C710FF502D1
:100AE2007208031C720FF6027308031C730FF702DD
:100AF200791401300310F30CF20CF10CF00CFF3EF0
:100B0200031D7B2D0130FD02031D522D7C08F300D5
:100B12007B08F2007A08F1007908F00008008316D9
:100B220003178801890183160313850186010A12BE
:100B32008A1100260A128A11003083120313A300BD
:100B42000630A2001A30A1008030A0000A128A11D9
:100B52005A240A128A1101300A128A11A5260A128F
:100B62008A1183120313B90100300A128A11B123C8
:100B72000A128A11013083120313B3003308B90732
:100B82000E30B3003308A9003908B400B501B6012C
:100B9200B7013708AD003608AC003508AB003408A1
:100BA200AA000330B8003808AE0001300A128A11D8
:100BB200D5240A128A110E3083120313B3003308AC
:100BC200A9000A128A119F230A128A11831203139F
:100BD200B400B501B601B7013708AD003608AC0064
:100BE2003508AB003408AA000330B8003808AE005C
:100BF20002300A128A11D5240A128A11BB2D8316D9
:100C020003178801890183160313851205128511C2
:100C12000511851005108312031385120512851123
:100C22000511851005100A128A11A8230A128A11C9
:100C32000A128A11A8230A128A110A128A11A823F7
:100C42000A128A110A128A11A8230A128A110A1296
:100C52008A11A8230A128A110A128A11A8230A12D7
:100C62008A11F501F50A043075020318602E831209
:100C720003138512051285150515851005108512B9
:100C8200051285150515851405100A128A11872388
:100C92000A128A118312031385120512851505158E
:100CA200851005100A128A11A8230A128A1101302E
:100CB200F4007408F50704307502031C382E831201
:100CC200031385120512851505118510051085126D
:100CD200051285150511851405100A128A1187233C
:100CE2000A128A1183120313851205128515051142
:100CF200851005100A128A11A8230A128A112830B7
:100D0200F4007408F50075080A128A11A5260A1261
:100D12008A111030F4007408F50075080A128A115D
:100D2200A5260A128A11F501F50A75080A128A1116
:100D3200A5260A128A110F30F4007408F50075080E
:100D42000A128A11A5260800F300831203138510E4
:100D520005107308F20007300310F20CFF3E031D6A
:100D6200AD2E721CB82E831203138516BB2E83126E
:100D7200031385127308F20006300310F20CFF3ED3
:100D8200031DBE2E721CC92E831203130516CC2E10
:100D92008312031305127308F20005300310F20CDC
:100DA200FF3E031DCF2E721CDA2E8312031385150C
:100DB200DD2E8312031385117308F2000430031031
:100DC200F20CFF3E031DE02E721CEB2E8312031366
:100DD2000515EE2E8312031305110330F200F20BF8
:100DE200F02E8312031385140A128A1187230A1222
:100DF2008A118312031385107308F2000330031063
:100E0200F20CFF3E031D002F721C0B2F83120313E3
:100E120085160E2F8312031385127308F200023017
:100E22000310F20CFF3E031D112F721C1C2F8312A4
:100E3200031305161F2F8312031305127308F20002
:100E420001300310F20CFF3E031D222F721C2D2FC6
:100E5200831203138515302F831203138511731C1C
:100E6200362F831203130515392F8312031305112D
:100E72000330F200F20B3B2F8312031385140A1284
:100E82008A1187230A128A118312031385100A1208
:100E92008A11A8230800F300831203138510051496
:100EA2007308F20007300310F20CFF3E031D542FAB
:100EB200721C5F2F831203138516622F8312031392
:100EC20085127308F20006300310F20CFF3E031D78
:100ED200652F721C702F831203130516732F831252
:100EE200031305127308F20005300310F20CFF3EE3
:100EF200031D762F721C812F831203138515842FF5
:100F02008312031385117308F20004300310F20CEC
:100F1200FF3E031D872F721C922F831203130515A8
:100F2200952F8312031305110330F200F20B972F52
:100F32008312031385140A128A1187230A128A1153
:100F42008312031385107308F20003300310F20CAE
:100F5200FF3E031DA72F721CB22F831203138516A7
:100F6200B52F8312031385127308F20002300310A7
:100F7200F20CFF3E031DB82F721CC32F8312031302
:100F82000516C62F8312031305127308F2000130EF
:100F92000310F20CFF3E031DC92F721CD42F8312C3
:100FA20003138515D72F831203138511731CDD2FAD
:100FB200831203130515E02F831203130511033067
:100FC200F200F20BE22F8312031385140A128A1124
:100FD20087230A128A118312031385100A128A11B7
:100FE20087230A128A110A128A11A823080083127F
:0E0FF2000313BA01BB0183010A128A11902D6C
:04400E00F2ECFFFED3
:00000001FF
